:020000040000FA
:0600000084EF47F012003E
:06000800AAEF36F0120021
:06001800AAEF36F0120011
:06002A007000000000A3BD
:020030000400CA
:0E0032000100308F0000E80E00000200000008
:100040000F011F513F0B01E1000C010CBCEC19F03A
:10005000010EE66EBDEC15F0E5520E0EE66EE66A98
:10006000940E146E870E60EC17F05E0EE66E0F0EA7
:10007000E66E20EC19F03C0E0F015E1902E1A50EB0
:100080005F1903E04EEC14F005D0190E615D02E03B
:100090000E01A98BE5529CEF16F097EC16F04D0E71
:1000A000E1260F011FA54AD0B5EC46F0050E06C0AB
:1000B000DBFF060E07C0DBFF070E08C0DBFF080EE4
:1000C00009C0DBFFD950050FE7EC19F00F012751EC
:1000D000EE5C146E2851EE58156E2951EE58166ECE
:1000E0002A51EE58176E2BCF18F0196A1A6A1B6A3C
:1000F000360E0B6E6E0E0C6E010E0D6E0E6A2BCF51
:1001000006F019C007F01AC008F01BC009F0F8EC9F
:1001100046F002C018F003C019F004C01AF005C080
:100120001BF01450025C1550035816500458175019
:10013000055804E20001C3910F011F95FE0EDB502C
:1001400002E0C1EF04F00E01A9B1EBEF0EF00F01D8
:100150001FA189D1B5EC46F00D0E06C0DBFF0E0ED7
:1001600007C0DBFF0F0E08C0DBFF100E09C0DBFF6E
:100170000A0EDB6A030EF36E0A0EB9EC16F001E309
:100180005ED19CEC17F001E157D10EEC1BF0D8804A
:10019000880E14542A0E1554110E1654000E1754BE
:1001A0000BE219EC19F051EC16F00A0EC2EC1BF040
:1001B0000A0E05EC17F040D1FEEC1AF0200B01E01E
:1001C0003BD1090EDB94DB9222EC1BF0EF501908B7
:1001D00060E022EC1BF00B0EEFCFDBFFDB50FF08E3
:1001E0001CE119EC19F05BEC1BF0C3EC16F00D0FE1
:1001F000E7EC19F08DEC19F0940E145C110E155803
:10020000000E1658000E17583EE382EC18F0DB8201
:1002100015EC1BF00B0EDB6A36D00B0EDB50D6EC68
:1002200018F00F015DA310D019EC19F0E7EC1AF0EB
:100230001DEC1AF0000114500F01551909E10001DD
:1002400015500F01561904E175EC1BF0EF6A0FD041
:1002500089EC18F002080BE1030E55CFDBFF040E0A
:1002600056CFDBFF090EDB8475EC1BF0EF900B0E15
:10027000DB2A22EC1AF0040B06E1190EF36E0B0ECA
:10028000B9EC16F0CAE322EC1BF00B0EDBCFEFFF4C
:1002900043D0090EDB800E01826B0B0EDB6A190E58
:1002A000F36E0B0EB9EC16F008E275EC1BF0EF5094
:1002B000010B03E10B0EDB2AF2D70B0EDB50190802
:1002C00027E00E01F00E826FFEEC1AF00F0B000912
:1002D0001FE00EEC1BF0A20E145C4A0E1558040E23
:1002E0001658000E175812E3090EDB9082EC18F036
:1002F000FEEC1AF00F0BE806E8500F0BF36EF46EED
:10030000F00E3AEC18F015EC1BF002D0090EDB9061
:1003100022EC1AF0010B30E122EC1AF0040B01E19F
:100320008BD00F0EF36E0C0EF3CFDBFF22EC1AF026
:10033000020B33E019EC19F0E7EC1AF009EC17F0B6
:100340002CE135EC18F029E10C0EDB6A0F0EF36E90
:100350000C0EB9EC16F009E20C0EB3EC19F0EE52EB
:10036000EF5003E00C0EDB2AF1D70C0EDB500F0828
:1003700014E10E01F10E826FC5EC1BF0EFCF9CFE75
:1003800019EC19F0E4EC19F0EF8AFEEC1AF0100BFE
:1003900002E1EBEF0EF08DEF0DF0C5EC1BF0EF502E
:1003A0006DEC19F019EC19F0040E34EC1BF0050E8D
:1003B0006AEC19F019EC19F0050E34EC1BF0070E7D
:1003C0006AEC19F019EC19F0070E34EC1BF0090E69
:1003D00034EC1BF00A0E12EC19F0DF6A19EC19F07C
:1003E00019EC17F019EC19F0BFEC19F0EF50DF5CC5
:1003F00008E276EC16F001E3DB2A32EC19F0DF2A92
:10040000F1D7E6EC16F09FEC1AF00C0EDB500F085B
:1004100002E102EF0FF00C0EB3EC19F0DFCFEFFFAB
:10042000C5EC1BF0EF50E66E0C0EB3EC19F0EE527B
:100430007EEC16F002EF0FF00A0EDB2A9BD60A0EB6
:10044000DB6A030EF36E0A0EB9EC16F006E29CECC2
:1004500017F003E10A0EDB2AF4D70A0EDB5003087B
:1004600002E10F011F910F011FA3D7D1B5EC46F098
:10047000110E06C0DBFF120E07C0DBFF130E08C013
:10048000DBFF140E09C0DBFF150EDB6A040EF36EF2
:10049000150EB9EC16F001E39CD0150ED4EC16F055
:1004A00001E194D0150E37EC1BF001E18FD03BEC4D
:1004B0001BF0080B11E1150E7DEC19F0C3EC16F0E2
:1004C000110FA0EC16F0040E145C5D0E1558000E12
:1004D0001658000E175829E23BEC1BF0080B76E08B
:1004E000150E7DEC19F0EECF20F0EECF21F0EECF1F
:1004F00022F0EFCF23F0D950110FE7EC19F00001F3
:100500002050EE5C1C6E2150EE581D6E2250EE58AD
:100510001E6E2350EE581F6E280E1C5C230E1D58B5
:10052000000E1E58000E1F5851E3150E16EC19F060
:1005300019EC17F0DF6AB6EC17F008E276EC16F06B
:1005400001E3DB2A32EC19F0DF2AF5D7DF6A080E67
:10055000DF5C09E276EC16F001E3DB2AEF506DEC8C
:1005600019F0DF2AF4D7150E1CEC19F0EF963BECCE
:100570001BF0070BE806E850070BF36EF46EF80E5D
:100580003AEC18F0150E7DEC19F0110EDBCFEEFFF2
:10059000120EDBCFEEFF130EDBCFEEFF140EDBCF20
:1005A000EEFF3BEC1BF0070B00090AE1150E16EC01
:1005B00019F051EC16F0150E16EC19F0EE6AED6A12
:1005C000E6EC16F0E668E66800EF0FF0150EDB2AA1
:1005D0005DD7150EDB6A040EF36E150EB9EC16F03E
:1005E00033E2150ED4EC16F02CE0150E16EC16F0D6
:1005F000C3EC16F0110FA0EC16F0D8801C0E1454AA
:100600004E0E15540E0E1654000E17541AE2150E07
:100610003CEC19F0700504E1020E706F82EC16F0EC
:10062000150E37EC1BF005E0150E16EC19F051EC29
:1006300016F0150E08EC1BF051EC16F0150ED3EC6D
:1006400017F0150EDB2AC7D7DF6A040EDF5C01E363
:10065000B6D0A2EC1AF001E1B0D0D950180FACEC32
:1006600016F085EC19F00EEC19F0050E70EC19F08F
:1006700003EC1AF06BE0180EDB505EE178EC1BF037
:100680001DE135EC18F01AE1170EDB6A0F0EF36E60
:10069000170EB9EC16F009E2170EB3EC19F0EE5292
:1006A000EF5003E0170EDB2AF1D7170EDB500F08CF
:1006B00005E15EEC1BF0F10E826F4BD00EEC19F0F1
:1006C00019EC17F0160EDB6A0EEC19F0BFEC19F0FE
:1006D000EF50F36E160EB9EC16F009E276EC16F058
:1006E00001E3DB2A32EC19F0160EDB2AEDD7D950E4
:1006F000160FACEC16F09FEC1AF078EC1BF019E139
:1007000035EC18F016E1170EB3EC19F0160EDBCF2E
:10071000EFFF0EEC19F0F6EC18F0070E3FEC16F0B8
:10072000EF50E66E170EB3EC19F0EE52E552E750BB
:10073000EF6E3FEC1BF03BD0180EDB5002083DE1A2
:1007400078EC1BF00EE135EC18F00BE15EEC1BF0E1
:10075000826B3FEC1BF037EC19F0A6EC1AF089EF36
:100760000DF0E2EC18F00EEC19F0030E6AEC19F043
:100770000EEC19F0030E12EC19F09AEC19F033ECB0
:1007800016F0EF6AAFEC1BF0AFEC1BF0D950160F70
:10079000ACEC16F00EEC19F0030E70EC19F0D9EC7D
:1007A00016F03FEC1BF00EEC19F0EE6AED6A37EC38
:1007B00019F0A6EC1AF002EF0FF0DF2A46D727EC6B
:1007C00017F0100EDF5C0FE243EC16F0020E0F0183
:1007D000705D06E1030E706F6E696F6982EC16F052
:1007E0002EEC17F0EED7DF6A040EDF5C05E2A2EC18
:1007F0001AF002E1DF2AF8D7040EDF5C0EE1DF6AAF
:10080000040EDF5C05E226EC1AF002E1DF2AF8D7DD
:10081000040EDF5C02E10F011F930F011FA7EBEF36
:100820000EF01FBD09EF0FF01FBBEBEF0EF01FA97D
:1008300015D01F991F8B44CF82FEDF6A080EDF5C44
:1008400008E2DF50EA6ACC0FE96E000E9FEC19F067
:10085000F5D70E01836B190E21EF0FF0190E3F5DD6
:1008600023E0DF6A3F51D6EC18F00F015D51020B17
:1008700004E08AEC16F0010803E00F013F2B02D0E0
:10088000010EDF6E190E0F013F5D02E2DF50EAE05C
:10089000DF500AE03F2BFBEC18F00F0120A1FAEF2C
:1008A0000EF0DF8EFAEF0EF0B5EC46F0190E06C032
:1008B000DBFF1A0E07C0DBFF1B0E08C0DBFF1C0EA0
:1008C00009C0DBFF0F012051010B3AE00F01695114
:1008D00037E0D950190FE7EC19F00F014051EE5CE9
:1008E000146E4151EE58156E4251EE58166E43513A
:1008F000EE58176E63CF18F064CF19F01A6A0C68BF
:10090000520E0D6E070E0E6E63CF07F064CF08F027
:100910001AC009F07DEC42F004C018F005C019F0CF
:1009200006C01AF01B6A1ABE1B681450185C1550DA
:10093000195816501A5817501B5802E3EBEF0EF0D7
:100940000F011F89D7EC1AF0D5C0EFFF1AEC16F093
:10095000D4C0EFFFB3EC1BF0DF6A0F012051010B95
:1009600008E00F01695105E10F012051020B01E080
:10097000DF8E33EC1AF0D4C0E6FFD5C0E6FF00EFFF
:100980000FF0FE0EDB50490A02E10EEF0FF0010AF4
:1009900002E109EF0FF00F0A02E1C9EF0EF0010AC0
:1009A00002E1B2EF0EF0030A02E13DEF0EF0010AA0
:1009B00002E11FEF0EF0070A02E1FDEF0DF0010A60
:1009C00002E1F8EF0DF0030A02E1BEEF0DF0720A4A
:1009D00002E1C8EF0CF0010A02E1BDEF0CF01C0AC5
:1009E00002E1B6EF0CF0040A02E19DEF0CF0030AFD
:1009F00002E1B9EF0BF00C0A02E1B3EF0BF0070ACA
:100A000002E1A3EF0BF03E0A02E130EF0BF0070A20
:100A100002E102EF0BF0030A02E198EF0AF00E0A7E
:100A200002E167EF0AF0040A2CE0030A02E020EF7B
:100A30000FF0DF6A0F0EDF5C08E27BEC1BF0EF507B
:100A40000E019C5D02E0DF2AF5D70F0EDF5C02E1AC
:100A5000EBEF0EF067EC19F0EF500AE067EC19F0DD
:100A6000EFCF9CFE340EF36E1D0EF3CFDBFF02D0F2
:100A70001D0EDB6A67EC19F0EF6A1D0EDB5021EFEB
:100A80000FF0260E84CEDBFF270E85CEDBFF81EC38
:100A900014F0E76E1E0E0FEC17F01F0E0FEC17F0A0
:100AA000200E0FEC17F0210E0FEC17F0220E0FECBA
:100AB00017F0230E0FEC17F0240E0FEC17F0250E95
:100AC000E7CFDBFF0E01921D01E1931D08E03EEC34
:100AD00018F001E0E2D2FF0EED1801E0DED2CAEC20
:100AE00019F02AE0DF6A030EDF5C26E2AAEC1AF0B6
:100AF00021E0220EDBCF14F0230EDBCF15F0DDEC6E
:100B00001AF0E7EC1AF044EC18F014E1175015183D
:100B100011E1DDEC1AF0F1EC1AF0EF50F36E250E56
:100B2000DB50F35C07E1DFCFE6FF27EC14F0E55282
:100B3000A0EF0BF0DF2AD7D7CAEC19F001E02DD2D5
:100B400081EC14F0DF6EDF0402E0A0EF0BF00F0188
:100B50001F51800B02E1A0EF0BF072EC1AF005E1DF
:100B6000DC51151802E1A0EF0BF0290EDB6AD95019
:100B70002A0F146EAFEC1AF001E3DB2A010EEF6EC0
:100B8000DF6EB6EC17F00AE299EC17F076EC16F08F
:100B900001E3DB2A7EEC16F0DF2AF3D72F0EDB50C1
:100BA000E76E300EE7CFDBFF2F0EDB2A0E019D51E3
:100BB000F8EC17F004E6D80E145C000E155802E2AB
:100BC0002F0EDB2A9D51F8EC17F004E6B40E145CEE
:100BD000000E155802E22F0EDB2A9D51F8EC17F09B
:100BE00004E6900E145C000E155802E22F0EDB2A6C
:100BF0006C0E9D5D02E22F0EDB2A480E9D5D02E227
:100C00002F0EDB2A240E9D5D02E22F0EDB2A2B0E17
:100C1000DBCFE6FF78EC1AF0DFEC16F02C0E7FEC61
:100C20001AF001E12CD10E01921D01E028D1931D93
:100C300001E025D1310EDB6A040EF36E310EB9EC02
:100C400016F01DE2310ED4EC16F016E0310EC2ECB7
:100C500019F0EFCF14F02C0EDB50145C0DE1310EC7
:100C6000C6EC19F0A8EC18F0220EDB50151803E1C1
:100C7000230EDB50161803E0310EDB2ADDD7040EFD
:100C8000F36E310EB9EC16F032E223EC18F0310EAF
:100C900016EC16F0B1EC16F02F0EDBCF14F0310E7F
:100CA00026EC1BF0EF50D880145402E2A0EF0BF0BA
:100CB00050EC19F05BEC19F003E12E0EDB50151827
:100CC00009E0D0EC19F05EE089EC19F05BE15D51D0
:100CD000010B58E1E1EC1BF00E01A9B1EBEF0EF0B6
:100CE000310E2BEC1BF02F0EEFCFDBFF43D0D95092
:100CF000320FACEC16F0D950310FACEC16F078ECAA
:100D00001AF078EC10F0EBEC16F0000902E1A0EF1D
:100D10000BF0310EC2EC19F02C0EDBCFEFFF310ED1
:100D2000C6EC19F08DEC18F050EC19F0310E1CECFB
:100D300019F0F80EEF140309EF6E310E1CEC19F0E8
:100D4000EF862F0E5BEC19F003E12E0EDB50151829
:100D500009E0D0EC19F016E089EC19F013E15D51CF
:100D6000010B10E1E1EC1BF00E01A9B1EBEF0EF06D
:100D70000CEC18F0D9502A0FACEC16F0310EDBCF8A
:100D8000E6FFD5D0010EF36E290EF3CFDBFFDB506B
:100D900002E1A0EF0BF0C6EC18F002E0A0EF0BF0C0
:100DA000310E37EC1BF008E10E0EC9EC1AF0310ED3
:100DB00016EC19F0B2EC1AF0310E37EC1BF002E130
:100DC000A0EF0BF0D9502A0F146E35EC17F0310E4E
:100DD00016EC19F0330EEECFDBFF340EEDCFDBFF58
:100DE000DF6AB6EC17F00EE276EC16F001E3DB2AD0
:100DF000EF50E66EA4EC16F001E3DB2A7EEC16F071
:100E0000DF2AEFD7A4EC16F001E3DB2AF1EC17F0B0
:100E1000A4EC16F001E3DB2A7EEC16F0A4EC16F04D
:100E200001E3DB2A7AEC18F0A4EC16F001E3DB2AEC
:100E30007EEC18F0A4EC16F001E3DB2ACAEC18F003
:100E4000A4EC16F001E3DB2ACEEC18F0A4EC16F0CB
:100E500001E3DB2AD2EC18F0A4EC16F001E3DB2A64
:100E60001E0EDBCFEFFFB4EC16F0310E7DEC19F067
:100E7000B1EC16F0310E62EC1BF0A0EF0BF0FDECC4
:100E800017F00BEC1AF019E089EC19F016E18ACE94
:100E900014F08BCE15F0220EDB50141803E1230E54
:100EA000DB50151826E00F016229E66EDFEC16F024
:100EB000FDEC17F04CEC18F01CE10001D4510E01D0
:100EC0008A1902E0A0EF0BF00001D5510E018B1939
:100ED00002E0A0EF0BF062CFE6FFDFEC16F094EC3F
:100EE00018F0176E050EE15E1750000902E0A0EF42
:100EF0000BF0C6EC17F003E12E0EDB50151809E0DD
:100F0000D0EC19F01CE089EC19F019E15D51010BEE
:100F100016E1E1EC1BF00E01A9B1EBEF0EF00CECC9
:100F200018F0D9502A0FACEC16F0040EE66EDFEC88
:100F300016F033EC10F07FEC1BF002EF0FF068ECD2
:100F40001BF001E1C0D2C6EC18F001E0BCD2D950D0
:100F50002A0F146EDACF15F0AFEC1AF001E3DB2A9A
:100F600032EC19F076EC16F001E3DB2A42EC1BF0D0
:100F700001E3DB2A42EC1BF001E3DB2A42EC1BF02D
:100F800001E3DB2A42EC1BF001E3DB2A6CEC1BF0F3
:100F9000B8EC1BF0CFEC1AF061D2240EDB50010844
:100FA00073E2D950350F38EC1AF001E1C9D30BECDC
:100FB0001BF0E4EC19F0EF98350EDBCFE6FF27ECE1
:100FC00014F0E5520BEC1BF0BFEC19F082CEEFFFF2
:100FD0000BEC1BF00A0E3FEC16F01E0EDBCFEFFF02
:100FE0000BEC1BF0090E3FEC16F0D2EC18F00BECFA
:100FF0001BF0070E3FEC16F0200EDBCFEEFF210EAC
:10100000DBCFEDFF0BEC1BF0E7EC1AF08DEC18F0EA
:10101000240EDB04E66E0BEC1BF090EC1BF07EEC78
:1010200016F00BEC1BF0F1EC1AF0250EDBCFEFFF06
:1010300082CEE6FFBEEC16F00BEC1BF03CEC17F09A
:1010400007E1350EC2EC1BF0350E05EC17F078D336
:10105000DF6A9AEC18F0360E82CEDBFF0E01825169
:1010600008E099EC17F0B2EC18F0350E27EC19F007
:10107000F5D7010EDBCF84FE020EDBCF85FE360EE8
:10108000DBCF82FE0F011F8172EC1AF001E0A4D1C8
:10109000DC51151801E0A0D153D3CAEC19F001E0DE
:1010A0008FD181EC14F0DF6E040EDF5C32E181EC55
:1010B00014F0DF6EE1EC1BF0DFAC18D00F011F87DE
:1010C0000001C391DF5002E1000E01D0010E0F01BB
:1010D0002091E8B0208120833F6B20B102D0190E0F
:1010E0003F6FD7EC17F0010EEAEF0EF0DFEC16F0D1
:1010F00054EC18F002E1EBEF0EF031EC15F00E01BC
:10110000826B5BEC18F002EC18F0B7EC1AF007EF0A
:101110000FF00F011FAF14D3DF0401E126D5030E3A
:10112000DF5C42E1C6EC18F03FE102EC1BF0030E7D
:10113000EF6E3FEC1AF081EC14F0E76E370EE7CF5C
:10114000DBFF02EC1BF0370EDBCFEFFF81EC14F07E
:10115000E76E380EE7CFDBFF02EC1BF0380EDBCF7B
:10116000EFFFE1EC1BF085EC1AF005E1DC511518FE
:1011700002E15CEF0DF0F4EC1AF0D950390FACEC51
:1011800016F085EC19F092EC17F003EC1AF001E080
:1011900011D168EC1BF001E00DD10E01A66B0E0120
:1011A0007F0EA76FEBEF0EF0020EDF5C01E0C8D2FE
:1011B0003A0EDB6A040EF36E3B0EF3CFDBFFD95021
:1011C0003C0F146EAFEC1AF001E3DB2AEF6E010E58
:1011D000DF6E60EC18F00AE299EC17F076EC16F08E
:1011E00001E3DB2A7EEC16F0DF2AF3D73D0EDBCFDE
:1011F000E6FF410EDBCFE6FF420EDBCFE6FFDFEC82
:1012000016F03E0E7FEC1AF001E179D03B0EDB6A5E
:10121000040EF36E3B0EB9EC16F01DE23B0ED4EC5F
:1012200016F016E03B0EC2EC19F0EFCF14F03E0EB4
:10123000DB50145C0DE13B0EC6EC19F0A8EC18F085
:101240003F0EDB50151803E1400EDB50161803E08B
:101250003B0EDB2ADDD73B0EDB50040869E0050EB0
:10126000E66EE66AEEEC19F0166A14C0E6FF15C0E9
:10127000E6FF70EC1BF00F01706B3B0E16EC16F0E6
:10128000EBEC19F0EF50F36E430EB9EC16F00CE2F4
:101290003B0E16EC16F0EBEC19F0430EDBCFEFFF34
:1012A0008ACE71FF8BCE72FF050EE66E2AEC1AF025
:1012B000EEEC19F014C0E6FF15C0E6FF73EC3DF04C
:1012C000166E050EE15E1650BBEC1AF03F0EDB50B9
:1012D000141803E1400EDB5015182AE0010EF36EDE
:1012E0003A0EF3CFDBFF3B0E2BEC1BF0430EDBCFB4
:1012F000E7FFEF50E726430EE7CFDBFF19D0BBEC4B
:101300001AF0200EDB50141803E1210EDB501518E3
:101310000FE0070E146E430EDBCFE7FF1450E726F5
:10132000430EE7CFDBFF010EF36E3A0EF3CFDBFF88
:101330003A0EDB5001E104D2C6EC18F001E000D215
:10134000E1EC1BF03B0EDB5004080DE03B0E16EC0D
:1013500016F00A0E3FEC16F0030EEECFDBFF040E84
:10136000EDCFDBFF09D085EC19F0DFEC16F068EC6F
:1013700017F002E1EBEF0EF0D9503C0F146E35EC94
:1013800017F0DF6A60EC18F008E276EC16F001E383
:10139000DB2A32EC19F0DF2AF5D70E011AEC16F031
:1013A000250EDBCFEFFF1AEC16F0240EDBCFEFFF9C
:1013B000E7EC18F0E6EC16F020EC17F000EF0FF079
:1013C00085EC1AF002E1DC51151806E03EEC18F04D
:1013D0000CE1FF0EED1809E1220EDBCF8AFE230E91
:1013E000DBCF8BFE350E21EF0FF00F011F51800B6D
:1013F00001E1A6D1240EDB50010801E3A1D1C6EC26
:1014000018F001E09DD185EC19F0D9501E0F87EC42
:1014100017F0C00BD6EC19F0E842E842E66E92EC09
:1014200017F0E66A4FEC11F0EBEC16F0E76E440EA5
:10143000E7CFDBFFDB50030A16E0010A14E0060ADF
:1014400012E0050A01E17CD1010A0DE1F4EC1AF089
:101450000E01825103E03FEC1AF0FAD7E6EC16F0E9
:1014600020EC17F02ED0E2EC18F01BEC1BF09AECFD
:1014700019F0440EDB50020804E133EC16F0010EC3
:101480000FD0440EDB50030804E133EC16F0020EDB
:1014900007D0440EDB50040805E133EC16F0040ECF
:1014A000EF6E03D033EC16F0EF6A33EC16F07EECFF
:1014B00018F033EC16F07AEC18F0E6EC16F0FDECD0
:1014C00017F0D9EC16F0E1EC1BF002EF0FF0DF6A39
:1014D000080EDF5C08E2DF50EA6A8A0FE96E0E0E42
:1014E0009FEC19F0F5D78AEC17F0190802E1000E0D
:1014F00001D0010EDF6EDF500CE18DEC0FF0000922
:101500000FE0AAEC0FF019080BE02BEC0FF082CEE5
:1015100039FF55CF88FE56CF89FE0E01826B05D06C
:101520000E01010E826F88698969170E21EF0FF095
:101530000E01A9990E01825113E00E01A997000135
:10154000D969DA693BEC26F00E01A99B84EC1BF00B
:101550000F015D970F01190E616F57EC16F09FD3C5
:1015600088CEDBF089CEDCF00E01A98743EC26F0B3
:1015700084EC1BF00F015C9D5C9F080EE66EE66A32
:10158000CC0EE66E000EE66EDBEC19F0B7EC1AF04E
:1015900057EC16F055CFD4F056CFD5F00E01A98BED
:1015A0000F015B510F0B010F0F01626FE66EE2EC52
:1015B00010F0E552F3CF63FFF4CF64FF0F016BB17E
:1015C0001AD0A1EC17F00F01656F0001DC51072064
:1015D0000F01666F010E6527000E6623010E0001E4
:1015E000DB250F01676F000E0001DC210F01686F22
:1015F000696B6A6B6B8196EC15F05FEC16F0B7ECDB
:1016000018F0AAD30F011F9B1F8DD4C0E6FFD5C0D1
:10161000E6FF54EC18F002E031EC15F0080E43EC54
:101620001AF002EC18F020EC19F0020E0F01445DE4
:1016300014E10E0182510EE10F012051010B07E070
:101640000F01695107E10F012051020B03E00E0168
:10165000826BDDD30E01CB0ED9D34D0E21EF0FF0EF
:10166000020E0E01885D6CE107EC18F0EF5068E1A6
:10167000FDEC17F00BEC1AF019E1AAEC0FF01908C9
:101680005FE00F015D835C8D5C8FDF6A080EDF5CBD
:1016900009E2DF50EA6A4D0FE96E0F0EEA22EF6AA7
:1016A000DF2AF4D70F01602B5FEC16F00E019BAD23
:1016B00003D00F015C9902D00F015C895C9B5D81B6
:1016C000020E6FEC17F0780BE840E840E8401F0B83
:1016D0000F010F0BF36EF00E8BEC1AF00F0B0F01D6
:1016E000CBEC17F08BEC1AF0F00BE8380F0B0F0176
:1016F0000F0BF36EF00E5C15F3105C6F9DCE5AFF6E
:101700000E019B510F015D95800B01E05D85020E7E
:101710006FEC17F0040B040802E0000E01D0010E7C
:101720000F015D97E8B05D8786CE57FF87CE58FFE3
:101730008ACE55FF8BCE56FF89CE59FF57EC16F057
:10174000E1EC1BF048D38AEC17F0DF6E190EDF5C7A
:1017500001E176D355CF92FE56CF93FE0E01010ED6
:10176000826F230E6ED3E66ABDEC15F0E5523D0E96
:1017700068D30E01880501E0D6D0825101E0CFD0B8
:10178000836B846B856B8651871101E1C6D09AEC1F
:1017900018F068EC18F01AE0010EDBCFE9FF020E3A
:1017A000DBCFEAFF1DEC1AF014EC17F03FEC16F05B
:1017B00044EC18F002E11750151808E007EC18F097
:1017C000060E3FEC16F019EC17F0E3D768EC18F0B2
:1017D00001E08CD014EC17F0EF50010B0FE014EC8B
:1017E00017F090EC1BF0E9CF14F0EACF15F0E9CF39
:1017F000E6FFEACFE6FF8CEC14F007D014EC17F00C
:10180000040E70EC19F0A3EC14F0E552E552DF6E13
:10181000190EDF5C6BE0080EE66ED7EC40F0E55287
:10182000450EF3CFDBFF460EF4EC19F05FE014EC4D
:1018300017F0BFEC19F01DEC1AF0CDEC16F014C047
:10184000EEFF15C0EDFF14EC17F0010EEB50E66E45
:10185000CDEC16F0BFEC19F07EEC16F00F015B51E9
:10186000F00BD6EC19F04AEC1AF00F0BF36EF00EF9
:101870003AEC18F05C510F0B4AEC1AF0CBEC17F075
:10188000ABEC19F0EF500F0B51EC1AF00F0BF36E9D
:10189000F00EABEC19F0EF50F00BD6EC19F051EC68
:1018A0001AF0CBEC17F0ABEC19F0EE52EF50800BC6
:1018B00001E0010E146ECDEC16F0E7EC1AF01450B6
:1018C000010BF36EFE0E3AEC18F0CDEC16F0060E9E
:1018D0003FEC16F084CEEEFF85CEEDFF450EDBCF5C
:1018E00084FE460EDBCF85FE0E01832B14EC17F031
:1018F000130E3FEC16F019EC17F086CEE6FF87CEFC
:10190000E6FFC0EC1AF00E01866B876B010EDBCF91
:1019100086FE020EDBCF87FE36D7835102E10E0131
:10192000A999360E8ED20E01A9990E01825103E1BA
:101930003BEC26F019D6CA0EA5D156EC1AF00E01D2
:10194000825107E0190EDF5C01E145D231EC15F060
:1019500042D2190EDF5C01E173D255CF8AFE56CF19
:101960008BFE39CF82FE836B4C0E6BD20E018251FF
:1019700001E06BD10F011F8F68D10E01825101E18F
:101980005DD2EB0E825D02E1826B58D2C60E55D25B
:101990000E01A9B703D00E01C20EBAD00E01921DDE
:1019A00001E08DD0931D01E08AD0D9504A0F38EC68
:1019B0001AF001E1ABD005EC1BF0E4EC19F0EF8874
:1019C00005EC1BF05BEC1BF0940EEE26110EEE22E4
:1019D000000EEE22EE220E01A751146E156A7F0E44
:1019E000D8801456000E15560E01A651166E176AB1
:1019F000145016240E01826F05EC1BF0BFEC19F099
:101A000082CEEFFF8B51400DF3500409E66E05ECDA
:101A10001BF00A0EC8EC1BF08351E824E66E05ECBF
:101A20001BF0090EC8EC1BF005EC1BF0070E91EC47
:101A30001AF005EC1BF0E7EC1AF0BCEC18F005EC22
:101A40001BF090EC1BF08ACEEFFF05EC1BF0F1ECE5
:101A50001AF09CCEEFFF82CEE6FFBEEC16F005EC4E
:101A60001BF03CEC17F007E14A0EC2EC1BF04A0EEB
:101A700005EC17F04BD0DF6A0E01A751F8EC17F018
:101A800004E67F0E145C000E155805E2A72BA75143
:101A900048EC1BF0F1D70E01826B0E01A65108E055
:101AA0000E018251822B48EC1BF00E01A607F5D7E0
:101AB0000F011F812FEC18F00E01A66B8CD185EC65
:101AC00019F08BCEE6FF92CEE6FF93CEE6FF010E35
:101AD000E66EE5DBEBEC16F0E76E4B0EE7CFDBFFD7
:101AE000DB50010A01E177D1010A03E00E01CF0EBC
:101AF0000FD0DF6A0F0EDF5C06E267EC19F0EF50E3
:101B000002E0DF2AF7D70F0EDF5C09E10E01F10ECC
:101B1000826F2FEC18F00E01A66B340E92D167EC99
:101B200019F09CCEEFFF0E011AEC16F09CCEEFFFE1
:101B30001AEC16F08ACEEFFF97EC1BF01AEC16F0B9
:101B400093CEEFFF1AEC16F092CEEFFF0E01835109
:101B5000E8246DEC19F00E018B51400DF35004098F
:101B60006DEC19F0D950490FACEC16F09FEC1AF05F
:101B70007BEC1BF0490EDBCFEFFF44D1190E0F01B8
:101B8000615D0FE06151D6EC18F00F015C8D5C8F48
:101B900057EC16F00F01190E616F5FEC16F00E0195
:101BA000A99BDF6A190EDF5C0BE2DF50D6EC18F060
:101BB0000F015DA303D05D9757EC16F0DF2AF2D733
:101BC0000E01A9890F013751381105E026EC18F0F4
:101BD0000F01376B386B8ACE3AFF8BCE3BFF8CCE32
:101BE0003CFF8DCE3DFF89CE3EFF0E01010EB7D0EA
:101BF0000E01C20E826F370E24D10F011F950E0108
:101C0000825103E10001C39114D00001C381FF0E92
:101C10000E01825D0EE082CE2BFFB5EC46F006C0D1
:101C200027FF07C028FF08C029FF09C02AFF0F01AE
:101C30001F8596EC15F00E01826B380E02D10E0155
:101C4000A9B705D00E01C20E826F390EFAD088CE28
:101C5000DFFF84EC1BF00F011F9F57CF86FE58CF8C
:101C600087FE59CF88FE0E010F0E8E6F8F6F826B2D
:101C7000DF5001E082832D0EE4D00E01A9A704D02D
:101C80000E01C20E826F68D0A9890E01825166E1F1
:101C90000F016B915FEC16F00E01C30E826F0F0106
:101CA000190E616F4C0EDB68DF6A190EDF5C2CE2E7
:101CB000DF50D6EC18F00F015D51020B23E05D51AF
:101CC000040B20E05D51080B1DE00E019A510F013D
:101CD000571918E10E019B510F01581913E1300EED
:101CE0005A5D10E34C0EDBCF14F05B510F0BD88024
:101CF000145408E25B510F0BE76E4C0EE7CFDBFF8D
:101D0000DFCF61FFDF2AD1D7190E0F01615D22E01D
:101D10006151D6EC18F09ACED9F09BCEDAF03BECBC
:101D200026F0010EE66EE66A620E146E8E0E60EC10
:101D300017F0E6EC16F020EC19F059CF88FE0E01F2
:101D4000020E896F55CF92FE56CF93FEDFCF82FEF3
:101D5000150E77D00E01A9993A0E73D0030E886F35
:101D6000280E6FD08AEC17F0190803E00E01C50E9B
:101D700009D0D3D8000904E0EDD8DF6E190804E1DA
:101D80000E01C70E826F03D066D80E01826B3B0E28
:101D900058D00E01A9B703D00E01C20E37D002EC05
:101DA00018F0C2EC14F0E552E552000916E000010B
:101DB000C3910F011F870E0182510F012091E8B0DE
:101DC000208120833F6B20B102D0190E3F6FD7ECEA
:101DD00017F0020E446F000E34D056EC1AF01908BA
:101DE00013E089EC19F010E1FBEC18F00E018251C0
:101DF00001E0DF8E33EC1AF055CFE6FF56CFE6FF59
:101E0000D9EC16F0100E1DD00E01C80E826F3C0EDC
:101E100018D00E01010E826F240E13D00E018251D4
:101E20000BE1836BB7EC18F0020E896FD4C092FE01
:101E3000D5C093FE310E05D0C10E826F3E0E01D08B
:101E4000000E146E4D0EE15C02E2E16AE552E16EB5
:101E500014509CEF16F097EC16F0030EE126080ED6
:101E6000E66EE66A8A0EE66E0E0EE66EDBEC19F0A2
:101E7000B7EC1AF0D9C057FFDAC058FF0F01596903
:101E80000E0182B314D00F015C995C8B65CF55FFB6
:101E900066CF56FF0F01652B000E6623FE0E6519F7
:101EA00021E1FF0E66191EE10F0120851BD00F01F5
:101EB0005C895C9B67CF55FF68CF56FF0F016A2B8B
:101EC0006351672764516823A1EC17F0146EDC514D
:101ED0000720156E0F016751145C6851155802E216
:101EE0000F0120870E0182510F015D91080B01E067
:101EF0005D815C8D5C9F5D8357EC16F00F01692B53
:101F0000602B5FEC16F096EC15F0030EE15C02E23C
:101F1000E16AE552E16E9CEF16F00001C351010B3E
:101F200017E0140E0F01695D13E20E018251020BDE
:101F300004E10F012051040B0CE0040E0F01625D5F
:101F400007E2060E6A5D04E20F012051080B01E072
:101F5000000C010CE0EC19F07BEC17F0DF6A010ECD
:101F6000DB6A190EDF5C0FE2010EDB500CE193EC33
:101F70001BF05DB304D0DE52010EDD6E04D081ECA7
:101F800017F0DF2AEED7010EDB5002E0DF5001D060
:101F9000190E146E020EE15C02E2E16AE552E16E96
:101FA00014509CEF16F0E0EC19F0DF6A030EDF5CD2
:101FB00005E2AAEC1AF002E0DF2AF8D7030EDF5C94
:101FC00008E02E0EC9EC1AF06AEC16F03CEC17F0A3
:101FD00002E1000E3ED0FD0EDBCFE9FFFE0EDBCFAF
:101FE000EAFFDFCFEFFFDDEC1AF00B0E3FEC16F04F
:101FF000EF68B4EC16F0DDEC1AF05BEC1BF0B1EC22
:1020000016F0DDEC1AF0EBEC19F02CEC18F0DDEC2E
:102010001AF0E4EC19F0EF9ADDEC1AF0E4EC19F0A8
:10202000F00EEF140309EF6E010EDB6A190E2FECB0
:102030001AF00EE2DDEC1AF0150E3FEC16F0010E70
:10204000DB5011EC1AF0030EEF6E010EDB2AEED717
:10205000010E146E020EE15C02E2E16AE552E16EED
:1020600014509CEF16F0BCEC19F0FC0EDB50040889
:1020700006E0FC0E3CEC19F0706B82EC16F002EC02
:102080001BF0020EEF6E40EC17F0FAEC19F0BFEC0B
:1020900019F005EC19F033EC16F0FD0EDBCFEFFF75
:1020A00033EC16F0FE0EDBCFEFFF40EC17F0F1EC57
:1020B0001AF005EC19F040EC17F0F1EC1AF0FAEC1C
:1020C00019F0E7EC1AF06CEC1BF0FE0EDBCFEFFF23
:1020D0001AEC16F0FD0EDBCFEFFFCFEC1AF0E6ECBA
:1020E00016F0FDEC17F0D9EC16F0E5529CEF16F067
:1020F000BCEC19F027EC17F043EC16F0100EDF5C87
:102100000AE26EEC18F003E1FE0EDB50151803E056
:102110002EEC17F0F1D7100EDF5C0EE127EC17F074
:1021200043EC16F0100EDF5C07E2030E0F01705D4A
:1021300003E02EEC17F0F4D747EC17F0DFCFEFFFFA
:10214000DF6A040EDF5C05E226EC1AF002E0DF2A0B
:10215000F8D74EEC17F0DFCFEFFF140EC9EC1AF0F2
:1021600070EC16F03CEC17F002E1000E28D0FD0EEA
:10217000DBCF6EFFFE0EDBCF6FFF0F01010E706F26
:1021800082EC16F0EDEC1AF0EBEC19F0EF6823ECB2
:1021900018F0EDEC1AF0B1EC16F047EC17F0EF5038
:1021A000E66EEDEC1AF0120EC8EC1BF0EDEC1AF036
:1021B0005BEC1BF0EE6AED6A0F011F83010EE55226
:1021C0009CEF16F0E0EC19F0FE0EDB50050A1AE069
:1021D000010A15E0070A11E0010A0DE0030A06E012
:1021E000010A12E13D0EDE6E140E03D05D0EDE6EAE
:1021F000030EDD6E09D08D0E03D0150E01D0010E39
:10220000DE6E01D0DE6ADD6ADECF14F0DDCF15F0C0
:1022100014C0F3FF15C0F4FF020EE15C02E2E16AB4
:10222000E552E16E9CEF16F0E0EC19F027EC17F0A8
:10223000010EDB6A43EC16F06EEC18F007E1FE0EBF
:10224000DB50151803E1010EDF6E07D0010EDB2A0B
:102250000F01050E7327000E7423100E2FEC1AF0D9
:1022600002E2DF50E7E0DF500BE04EEC17F071CFF9
:10227000EEFF72CFEDFF47EC17F070CFEFFF04D009
:1022800047EC17F0030EEF6EDF50146E020EE15CA8
:1022900002E2E16AE552E16E14509CEF16F0BCECEC
:1022A00019F0FC0EDBCFE6FFFD0E01EC17F00CE0A1
:1022B00089EC19F009E147EC17F0FC0EDBCFEEFFDB
:1022C000FD0EDBCFEDFF1AD0800EE66E98EC1AF013
:1022D000DBC0E6FFDCC0E6FFE66AE66ABEEC17F0AC
:1022E0001EE0FB0EDB50020811E0E6EC16F0AEEC4F
:1022F00017F003EC1AF007E0DF5002E1000E17D0F0
:10230000FB0EDB6A0CD0FB0EDB0409E1010EE66E6E
:10231000FE0EDBCFE6FF79D8E552E55208D0AEECF1
:1023200017F068EC17F002E1020E01D0000EE55242
:102330009CEF16F097EC16F0030EE126020EDB6A16
:10234000DF6A040EDF5C27E226EC1AF01DE0FE0EC9
:10235000DB501FE0EDEC1AF00E0E3FEC16F0EFCF65
:1023600014F0FD0EDB50145C14E1EDEC1AF0080ED5
:102370003FEC16F0A8EC18F0FB0EDB50151809E145
:10238000FC0EDB50161805E1010EF36E020EF3CFC2
:10239000DBFFDF2AD6D7F80EDBAE03D0DE52100EFD
:1023A00002D0DE52080EDD6E020EDB5022E0020E7D
:1023B000DB6A27EC17F0010EDB50DF5C1AE243EC1E
:1023C00016F06ECF14F06FCF15F0F90EDB50141825
:1023D00003E1FA0EDB50151804E0030E0F01705DE7
:1023E00005E1010EF36E020EF3CFDBFF2EEC17F0CA
:1023F000E2D7020EDB50146E030EE15C02E2E16AEA
:10240000E552E16E14509CEF16F097EC16F00B0EAF
:10241000E126010EDB6A040E2FEC1AF009E2010E30
:10242000EA6ADB34F0EC16F003E0010EDB2AF3D7A6
:10243000010EDB50040801E133D10B0EC9EC1AF098
:102440004DEC1BF03CEC17F001E12AD1FE0EDB5005
:1024500001E182D0F1EC18F0F1EC1AF0BCEC18F0CC
:10246000F1EC18F0050E91EC1AF00E01A751166E62
:10247000176A7F0ED8801656000E1756080E1626BD
:10248000000E17220E01A65100011624146E000E34
:102490001720156E45EC1BF014C0EFFF45EC1BF048
:1024A00055EC17F001E1F5D0F1EC18F016EC18F04E
:1024B000F3500409CCEC1AF001E3DB2A7EEC16F0B1
:1024C0000E018351E824CCEC1AF001E3DB2AC5ECC1
:1024D0001AF001E3DB2A92CEEFFFC9DB01E3DB2A2E
:1024E00093CEEFFFC4DB01E3DB2ADBC0EFFFBFDBF2
:1024F00001E3DB2ADCC0EFFF040E8ACEDBFFB7DB93
:1025000001E3DB2A040EDBCFEFFFB1DB01E3DB2AC3
:102510009CCEEFFF0E01A751F8EC17F004E67F0EFA
:10252000145C000E155809E2A72BA75177EC17F0A1
:102530009EDB01E3DB2AE2DBEDD7DF6A0E01A65169
:10254000A60700096EE0DF50DF2A77EC17F08FDB7B
:1025500001E3DB2AD3DBF2D7040E0E01845F000E09
:10256000855BF1EC18F0F1EC1AF0ADEC18F0840793
:10257000A0EC1BF0EE52C2DB8407000EA0EC1BF0B7
:10258000BDDB020E845F000E855B080E822745ECE2
:102590001BF082CEEFFF45EC1BF055EC17F001E18C
:1025A00078D0F1EC18F016EC18F0F3CF14F0F3CF6C
:1025B000E6FFA7D9E552E7CF14F03F0B1410CCEC9F
:1025C0001AF001E3DB2A4DEC19F001E3DB2A4DECB4
:1025D00019F001E3DB2A4DEC19F001E3DB2A4DECA5
:1025E00019F001E3DB2A4DEC19F001E3DB2A86DB6D
:1025F00088D9FF0FE76E040EE7CFDBFF38DB01E37E
:10260000DB2A040EDBCFEFFF88EC1BF001E3DB2AB3
:1026100075DB0E01825105E088EC1BF0F9E3DB2A43
:10262000F7D7A2DBF1EC18F0070E29DB9ADBD950C3
:10263000060F92DBD950050F8FDBF1EC18F0050E79
:1026400070EC19F055DDC7DB000920E02FEC18F025
:102650000E01A66B0E0EC9EC1AF0050E16EC19F061
:10266000B2EC1AF0020E14C0DBFF030E15C0DBFF44
:102670001450151017E10F01010E706F43DB050EAA
:1026800008EC1BF00EDB050ED3EC17F0F1EC18F0A4
:1026900008DB4DEC1BF005DB010EEA6ADB34A4DB42
:1026A000040E87D0050EC2EC19F02CCFEFFF050EFB
:1026B000C6EC19F0BCEC18F0050E26EC1BF0EF6A26
:1026C000050E62EC1BF0050E1CEC19F0EF96CFDA4C
:1026D00001E3DB2A010EEF6ECADA01E3DB2A800E8A
:1026E000EF6E0F012C512C2BCCEC1AF001E3DB2AFE
:1026F000BDEC1BF0EF50CCEC1AF001E3DB2ABDEC93
:102700001BF076EC18F0B3DA01E3DB2AC5EC1AF023
:1027100001E3DB2AEF6A20EC18F0A9DA01E3DB2AF7
:10272000C5EC1AF001E3DB2A040EDBCFEFFF9FDAE2
:1027300001E3DB2ADCC0EFFF9ADA01E3DB2ADBC02E
:10274000EFFF95DA01E3DB2AEF6891DA01E3DB2A98
:10275000EF688DDA01E3DB2AEF6A89DA01E3DB2A2D
:10276000050EEF6EB5EC46F0070E06C0DBFF080E57
:1027700007C0DBFF090E08C0DBFF0A0E09C0DBFF44
:10278000070EDBCF14F0080EDBCF15F0090EDBCF00
:1027900016F00A0EDBCF17F0040E145E5D0E155A0C
:1027A000000E165A175A050E7DEC19F02CEC18F095
:1027B000010E146E0B0EE15C02E2E16AE552E16E7D
:1027C0001450BAD2B4DAFA0EDB503DE0A1EC18F0A6
:1027D000FB0EDBCF16F0FC0EDBCF17F01650145CAF
:1027E0001750155832E2FB0EDBCF18F0FC0EDBCF92
:1027F00019F0FD0EDBCF1CF0FE0EDBCF1DF018C074
:10280000E6FF19C0E6FF1CC0E6FF1DC0E6FFFA0E9A
:10281000DB04E66ED7DCE552E552E7CF1DF0E5526A
:10282000E7CF1CF0E552E7CF19F0E552E7CF18F0FB
:102830001C50F3241A6E1D50F4201B6E1A50185CA5
:102840001B50195802E2010E01D0000E75D2BCECEB
:1028500019F0DF6A190EDF5C18E2DF50D6EC18F0D1
:102860000E018A510F0155190EE10E018B510F0116
:10287000561909E1FE0ED6D9150E01DADF5011EC1A
:102880001AF0EF9002D0DF2AE5D7E55255D20F01BA
:102890001E2B1E5101E11E2B1E511200BCEC19F023
:1028A0000E01A99B0F01C1EC18F0DF6A24DB190EA1
:1028B000DF5C04E2FCD9DF2A24DBF9D70F01606B6F
:1028C000190E616F696B6A6B6B913C0E5E6FA50EA2
:1028D0005F6FF5D9E55230D2BCEC19F00F01030E51
:1028E000706F6E696F690F014B0E736F890E746F95
:1028F000DF6A100EDF5C03E205DAB0DAFAD7E552E0
:102900001BD20E01825101E1000C820780DB842B77
:10291000000E8523EF501200BCEC19F0ECDADF6AF0
:10292000190EDF5C0DE293EC1BF05DA306D0C3DB58
:1029300054EC1BF002E1DF5004D0DF2AE2DAF0D7DA
:10294000190EE552F9D1BCEC19F0D5DADF6A190E8F
:10295000DF5C15E293EC1BF05DA30ED055CF14F0B5
:1029600056CF15F0FD0EDB50141806E1FE0EDB50BD
:10297000151802E1DF5004D0DF2AC3DAE8D7190EB8
:10298000E552DAD1D4D9080EE12643EC1AF01EDA6A
:1029900020EC19F0080EE66EE66A18DA54EC1BF02B
:1029A00002E1010E01D0000E146E080EE15C02E29D
:1029B000E16AE552E16E1450BFD1BCEC19F0DF6A58
:1029C0009ADA190EDF5C12E293EC1BF05D51020BF8
:1029D0000AE0A0D9010807E09DD9000904E0D1DB95
:1029E0000F01600764D9DF2A8CDAEBD768D9E5528A
:1029F000A3D19DD90E01A9810E01020E886FD9C005
:102A000086FEDAC087FEDBC08AFEDCC08BFE896FE3
:102A1000AEDBFD0EDBCF92FEFE0EDBCF93FE3EDA89
:102A2000D6C0EFFFD6C09CFE856BD950FD0FE96E76
:102A3000FF0EDA20EA6EFF0EEE1802E1FF0EED182F
:102A40000CE08581FD0EDBCFE6FFFE0EDAD905E056
:102A50000F015DB102D00E0185850E01010E846F5C
:102A60006BD189EC19F00AE10F0169070F0151DB05
:102A7000010802E10F016A0759D806D04BD90009B5
:102A800003E10F01190E616F0F017BDB10D90F01FC
:102A900060075FEF16F0E0EC19F0DF6A2CDA010E48
:102AA000DB6A190E2FEC1AF026E293EC1BF05D5155
:102AB000020B1DE02FD901081AE143DB5551141810
:102AC00002E1565115180BE00F016229E66E76EC13
:102AD00019F055CFE6FF56CFE6FFDEDA08E0DED983
:102AE00055CFEEFF56CFEDFF010EDF6E04D009DAB1
:102AF000010EDB2AD6D7DF500FE162CFE6FFF6DB0F
:102B000013DB7FEC1BF0000907E1C8D9D4C0EEFF4E
:102B1000D5C0EDFF010EDF6EDF50146E020EE15CDA
:102B200002E2E16AE552E16E145006D10001C46B85
:102B3000110EC56F0F016251080DF3CFC6F00001F1
:102B4000C351010B19E0140E0F01695D15E2190E56
:102B5000605D12E20F0120B502D00001C68F040EA5
:102B60000F01625D09E2060E6A5D06E20F01205167
:102B7000080B02E10001C6851200BCEC19F0D6CFAB
:102B80001EFF0E01A96B0F011F6B206BDF6A0F0E7A
:102B9000DF5C04E29CDBEF6ADF2AF9D7FE0EDB5034
:102BA00005E10F013751381101E050DA0F01376BA1
:102BB000386BDF6A030EDF5C10E2FE0EDB5008E1CB
:102BC000AAEC1AF005E0DDEC1AF06BD883D869D8CE
:102BD00081D8EE6AED6ADF2AEDD7DF6A040EDF5C8A
:102BE0000DE2FE0EDB5006E1A2EC1AF003E03FEC32
:102BF0001BF03DDBA6EC1AF0DF2AF0D7DF6A040EEB
:102C0000DF5C0DE2FE0EDB5005E126EC1AF002E07F
:102C100067D847D865D8EE6AED6ADF2AF0D75CDE60
:102C2000E5528AD0EAEC1AF0F6EF18F008EC1BF047
:102C3000F6EF18F0A751A70717EF1AF0110EE66E7E
:102C4000E66A6CCF14F06DCF15F0166A6CCFE6FF14
:102C50006DCFE6FF16C0E6FFAEDB20EF19F0E1EC2A
:102C60001AF0F6EF18F0A651A62B17EF1AF0020E85
:102C7000DBCFE9FFDB2A030EDBCFEAFF1200E926F8
:102C8000000EEA221200050EE66EE66A73CF14F01B
:102C900074CF15F0166A73CFE6FF74CFE6FF70EFBE
:102CA0001BF0EECFE6FFEFCFE6FFC0EF1AF0110EFC
:102CB000E66E81DB6CCFE6FF6DCFE6FF50D30E0EE4
:102CC000E66E5E0EE66E0F0EE66E940EE66E870EF4
:102CD000E66E45D3EA6ADF34CCEC1BF080EF19F0E6
:102CE000EA6ADF34CCEC1BF0B7EF19F0010EDBCF52
:102CF000E9FFDB2A020EDBCFEAFF1200E552E750C4
:102D0000EF6E1200050EE66EA5DB73CFE6FF74CF03
:102D1000E6FF25D35C51C00BE842E842D6EF19F03C
:102D2000CCEC1BF0000EE9260F0EEA221200D9CFE0
:102D3000E6FFE1CFD9FF1200E552E7CFD9FF12003D
:102D400046DB00018DEF19F0330EDBCFE9FFDB2A04
:102D5000340EDBCFEAFF1200E66E000EDA20E66EDC
:102D6000120006C0EEFFA9D3B5EC46F006C014F081
:102D7000ABD3DBCFF4FFF350F45C1200D7EC40F0A0
:102D8000E5528BEF1BF0EECF18F0EECF19F0EECF3F
:102D90001AF0EFCF1BF0D9501200450EDBCFE9FF40
:102DA000460EDBCFEAFF120008EC1BF0EE50ED10F0
:102DB00012001FDEE552E552E552E5521200220EE6
:102DC000DBCFE6FF230EDBCFE6FF1200D9CFE6FF15
:102DD000DACFE6FF1200146E060EE15E1450120008
:102DE000F0DBEE50ED101200ECDBEE6AED6A120043
:102DF000E9CF14F0EACF15F00B0EDB500F0111EF05
:102E00001AF0DBCFE6FF0BEF1AF0E4DBEE6AED6AB7
:102E1000120013DB0001DB51000114181200E7CF90
:102E2000DBFF6FDDE76E120086CEE9FF87CEEAFF9B
:102E30001200010EEECFDBFF020EEDCFDBFF120022
:102E4000030EDBCFE6FF040EDBCFE6FF1200DF6AE6
:102E50000F014B0E736F890E746F1200DF2A0F0182
:102E6000050E7327000E74231200010E14C0DBFF41
:102E7000020EDACFDBFF120075DB145015101200C2
:102E8000FA0EDBCFE9FFFB0EDBCFEAFF1200F90EF3
:102E9000DBCFE9FFFA0EDBCFEAFF1200FB0EDBCF40
:102EA000E9FFFC0EDBCFEAFF1200EF50E66ED7EC35
:102EB00040F0E552020EF3CFDBFF030EF4EF19F002
:102EC000156E166A14C0E6FFE66E16C0E6FF120025
:102ED000E2DDE552E552E552E552000912000E012D
:102EE000EA6A8425E96E8551EA22EF5012009FDAE2
:102EF000EF50E66E12000F01A20E6C6F870E6D6F21
:102F000012000F01110E6C27000E6D2312005FDA04
:102F1000EF5012008A0EE66E0E0EE66EFDDCE552F4
:102F2000E5521200200EDBCFE6FF210EDBCFE6FFDD
:102F30001200E7DCE66E12000A0E4CDBEE50ED10DC
:102F40001200060E086E096A63CF0DF064CF0EF012
:102F50005FEC42F00001DB5106241200F90EDBCFDA
:102F6000E6FFFA0EDBCFE6FF98EF1AF0DF50146EA3
:102F7000156A060E145C000E155812009AEC11F03A
:102F8000146E070EE15E145000091200F4DA2D0EE3
:102F9000DB50141812000F0BF36EF346F346F346A2
:102FA000F3460F0E120034DBEE6AED6A1200B5EC48
:102FB00046F006C040FF07C041FF08C042FF09C0FD
:102FC00043FF0F011200DBCF15F00001DB51141895
:102FD0001200EF50050D9FDB4B0E1426890E1522B3
:102FE0001200250EDBCFEFFF240EDB04E66E12008D
:102FF000146E156AD890155012008ACEE6FF8BCE5B
:10300000E6FF1200920EE66E0E0EE66E120084CE01
:10301000E9FF85CEEAFF12002F0EDBCFE7FF300E6F
:10302000DB50E75E2F0EE7CFDBFF1200020EDBCF97
:10303000EEFF030EDBCFEDFFFD0EDB50400D120067
:1030400026DCE66E1200B5EC46F03ED237CFE6FF46
:1030500038CFE6FFC0EF1AF014C0EEFF2ED20E01FB
:10306000A9910E017F0EA76F12000001DC51000133
:1030700015181200EF14F310EF6E1200D950200F44
:10308000A6D9FF0EEE181200EECF16F0EFCF17F014
:103090000001165014181200E2EC13F0166E050E23
:1030A000E15E1650000912004EDCE552E552DF6E7B
:1030B000190EDF5C1200080EE66EE66ADBEF19F00F
:1030C000DF50146E156A080E145C000E15581200BD
:1030D000D950010F7CD9EE50ED1012006ECF14F0D4
:1030E0006FCF15F0FD0EDB5014181200EE52EF50AA
:1030F000E66E1200230EDBCFEFFF1200220EDBCFB5
:10310000EFFF1200030EDB68040EDB68090EDB84A0
:1031100012005C51300BD6EF19F0220EDBCFEEFF20
:10312000230EDBCFEDFF1200DBC0E6FFDCC0E6FFC5
:10313000E2EF13F0010E84CEDBFF020E85CEDBFF43
:103140001200FD0EDBCF14F0FE0EDBCF15F01200E7
:10315000EECF15F0EFCF16F012008ACEEEFF8BCE39
:10316000EDFF1200DF50DF2A146E156A1200D9C07D
:103170009AFEDAC09BFE1200DBC0EEFFDCC0EDFF62
:1031800012005A6B5B6B5C6B5D6B12000E01A951F8
:10319000010B1200210EDBCFEFFF1200200EDBCF60
:1031A000EFFF12001F0EDBCFEFFF1200110DF3CF68
:1031B0006CFFF4CF6DFFA20E0F016C27870E6D23FD
:1031C0001EEF16F0C4DA0A0EEF6E97EF1BF033DA3B
:1031D00031DDCEDA2FDDE6DF2DDD1E0EDBCFEFFF9A
:1031E0001200010EEA6ADB342FEF16F0EE50EFCF3B
:1031F000EAFFE96E1200DBD956CFEFFF1BDD55CF9A
:10320000EFFFB1DA400EDF6E1200EF50E66E2BDDFD
:103210007EEF16F0EA6ADB34CCEF1BF0EA6ADF34AB
:103220002FEF16F02CDDEF50E66E1AD2FFDC5BEFCD
:103230001BF00A0E12EF16F0F9DC130E3FEF16F03A
:103240007BEC45F0176E070EE15E17501200EADCCA
:103250001450EE24E76E1550EE20EA6EE7CFE9FF3A
:103260007EEF16F0EF50E66ECDD97EEF16F0EA6AEB
:10327000DF34A7D951EF16F0D9DC120E00DDEF5084
:10328000050DF3CF73FFF4CF74FF4B0E0F017327BF
:10329000890E7423F8DC0F01120030DD88EF1BF07B
:1032A000310EC4DC0A0EEBDC58DF310ECFD92F0E05
:1032B000DBCFEFFF1200DBCFE6FF300EDB50E55235
:1032C000E75CE66E310EC7D919DDC6EF17F013DAE9
:1032D000EE521200D4DC0ADFC3D1E66E0E01C0D17B
:1032E000CEDCEECFE6FFEFCFE6FF1200FD0EDBCF28
:1032F000E6FFFE0EDBCFE6FF120098DC90EF1BF03E
:10330000210EE9260F0EEA221200D950030FACEF6E
:1033100016F00F01FFDC010812001850EE5C146E6D
:103320001950EE58156E1A50EE58166E1B50EE5886
:10333000176E120034D966D9030EEF6E1200EA221E
:10334000EF50E66EDF50EA6A920FE96E0E0EEA2247
:10335000D5DCDF2A12008EDE67DD5BEF1BF073EC3D
:103360003DF07FEF1BF0EA6ADB3490EF16F0450E7C
:10337000E9260F0EEA221200DADCE6521200020EF3
:103380003FEF16F053DC0E0E3FEF16F04FDC080E49
:103390003FEF16F0D9501E0FBADD030B01081200E3
:1033A0002D0EDBCFE6FF2E0E01EF17F0E842E842CC
:1033B000E842E84212004D0EE66E0F0EE66E120075
:1033C000B6DC020EE1261200140E3FEF16F0E96E95
:1033D000DACFEAFF1200100E3FEF16F03B0E26DCAC
:1033E000120E4DDCE9EF17F0F4CFDBFF94D9F35068
:1033F000F41012007BDE37DC81DC40EF17F0150E95
:103400003EDCF8EF16F014EC11F0E5DC00091200D8
:10341000E8D809EF17F0A3EC14F0E552E5521908CB
:103420001200E924E96E000EEA20EA6E1200EA6A50
:10343000000FE96E0E0EEA221200EECF14F0EFCF6D
:1034400015F01200D950090F87EF17F049DCEE5044
:10345000ED1012006E0EE66E0F0EE66E1200F36EA9
:10346000010EB9EF16F0CED8DFCFEFFFE6EF16F082
:1034700073DCD3EC0FF0E552E5520009120059DD80
:10348000C1D87EEF16F0E66EE66A2A0E146E000EC4
:1034900060EF17F0146E81DCEE52EE52EE521450D3
:1034A0001200146E7ADC3CD914501200ABDD8CECA7
:1034B00014F0E552E552DF6E120015C0EEFF16C0A3
:1034C000EEFF17C0EEFF120007C015F008C016F09F
:1034D00009C017F01200070E3FEC16F0EFCF9CFE6C
:1034E0000E011200220EDBCF14F0230EE3EF17F0D3
:1034F0002D0EDBCFE6FF2E0EDBCFE6FF1200DBCF7B
:10350000E6FF010EE66EBEEF17F0200EDBCF14F0E3
:10351000210EE3EF17F05B15F3105B6F010E6FEFF9
:1035200017F03FEC16F092CEEEFF93CEEDFF1200B7
:10353000FC0EDBCFE6FFFD0EDBCFE6FF120080DCEA
:10354000D9EF16F0EA6ADF34F0EF16F0EA6ADF34FA
:10355000F4EF16F06AEC16F0EE50ED10120085DC78
:1035600076EF16F0F3CFEEFF15C0EDFF120050EC32
:1035700045F0EBEF16F0DBC014F0DCC015F01200E4
:103580006AEC41F0E552E55212007EEC16F037EF9E
:1035900016F0E66EBEEF16F0E66E37EF16F01AEC98
:1035A00016F0EF6A1AEC16F0050EEF6E1200CFD887
:1035B000010EEF6EBCD81AEF16F06AEC16F0F6EFBB
:1035C00018F0EAD82D0EE9260F0EEA221200050E99
:1035D0003FEF16F01FDE80EF19F070EC16F0F6EFFB
:1035E00018F0030E3FEF16F00E011AEC16F0F9DC9E
:1035F0001AEC16F07EEC16F0E7EF18F01ADEE4DEB7
:10360000EF5012000E0133EF16F04A0E12EF16F0D3
:1036100001DEB7EF19F0350E12EF16F00ADEDBDE31
:10362000C3EC16F00D0FA0EF16F0B4EC16F001DEAF
:10363000D2DEB1EF16F01AEC16F05CDD1AEC16F0E3
:103640007EEF18F0F6DD0B0E3FEF16F016EC16F0DD
:103650000F0E3FEF16F016EC16F0110E3FEF16F0BE
:103660001AEC16F07EEF16F0DDDD19EF19F0DEDD55
:10367000EE50ED101200150EDFDDEF501200CEDD22
:1036800051EF16F0C2DD76EF16F0ABDDBFEF19F0AB
:103690002EDC68DD4A0E27EF19F0010EBBDD2D0E82
:1036A000E9260F0EEA22120021DE08EC45F0EBECD1
:1036B00016F0000912000C0E3FEF16F0AFDD96DD9C
:1036C0006BEF1AF0B9DDF80EEF140409EF6E12007B
:1036D0001CDE28DC68EF17F098DD74DD1AEF16F0B9
:1036E00016C0E6FFB7DE20EF19F0A3DDFFEF19F0FB
:1036F00095DD08EF1AF0EA6ADF3490EF16F0146EE9
:10370000050EE15E145012000F016151D6EF18F062
:1037100010DC37EF16F0F3CF14F0F4CF15F01200F1
:10372000040E3FEF16F01EEC16F00F0112001AEC1B
:1037300016F0DCC0EFFF1AEC16F0DBC0EFFF120052
:10374000855B65DCEF50E66E4CDDE7EF1AF078DC68
:103750000E011AEC16F07EEC16F01AEF16F05EDD94
:1037600036DF05EF19F01BDF4DDF040EEF6E1200A0
:1037700011DD1AEC16F0CEEF18F07EEC16F031DD0C
:10378000E7EF1AF027DF51EF16F053DDF1EF1AF0F3
:103790003FEC16F07EEF16F0FE0BEA36E96E1200F3
:1037A0000001DE51000801E2010C000C0E0182074D
:1037B00084CEE9FF85CEEAFF842B000E8523EF50EF
:1037C000120080CEE6FF81CEE6FF6AEC41F0E552C2
:1037D000E5520E01806B816B12000E01D35101E0A6
:1037E000000C8B94010CFEEC27F0090EE1261DEC79
:1037F00028F0D9CFE6FFDACFE6FFA2EC28F068EC9C
:1038000034F03BEC26F043EC26F0080EDB6AF36E56
:10381000DBCFF4FFE850F45C16E2D9CF14F0DACF36
:1038200015F0080EDB500F01D924E96E000EDA20E6
:10383000EA6EEF50E66E080EDB50050F2BEC28F019
:10384000080EDB2AE4D75DEC26F0090EE15C02E20B
:10385000E16AE552E16E03EF28F0FEEC27F0E65254
:103860004EEC28F0DF6ADF50A9EC28F008E2EA6AA3
:10387000DF3478EC28F0EE6AED6ADF2AF4D70E0127
:10388000010E826F240EE66E08D8E5520001DE6B51
:10389000886BDD6BE55203EF28F0FEEC27F0380E65
:1038A000E126FE0EDB5001E058D20001DEAB09D06C
:1038B000DE9B010ECBCEDBFF020ECCCEDBFF4AEF50
:1038C00020F00DEC27F00E01D351100B08E03AEC7C
:1038D00028F0000180EC28F002E20E01D3990001EB
:1038E000DEA34DD00E01D6AD4AD00E01F250100B22
:1038F00002E0CA8F01D0CA9FF2980E01D69DD6AFC2
:103900000CD0D69F0E01CA51800B02E0F28801D084
:10391000F2980001DE8BE8EF23F00E01CA51800B14
:1039200002E0F28801D0F2980001DE9392EC26F0DA
:10393000000188A70AD00E0188698969E90E826FA3
:1039400000018897DE9790EF22F088A905D088992A
:103950000E01E90E0BEF26F088AF05D0889F0E010F
:10396000E90E14EF25F088AD05D0889D0E01E90E13
:10397000826FBCD30E01E90E826F46EF24F0000186
:10398000DEA90AD0DE510E018591020B02E1DCEFC7
:1039900023F08581DCEF23F00E01A9B1E8EF23F0DD
:1039A000000188AB0AD03AEC28F080EC28F005E260
:1039B0000E01D3990001889B80D3DEA72BD088B954
:1039C00019D03AEC28F086EC28F014E2DEB312D0DD
:1039D0000E01836B000188890E01020E896FD9C028
:1039E0009AFEDAC09BFE81C092FE82C093FE310E29
:1039F00032EF26F03AEC28F086EC28F00BE2DE9766
:103A00000E0188698969EB0E826F0001DE93886B75
:103A100090EF22F0DEA501D10F0E1CEC27F00B0E6B
:103A2000E7CFDBFF0DEC27F03AEC28F00001EC517A
:103A3000EE5C146EED51EE58156EEE51EE58166EAA
:103A4000EF51EE58176E070E14C0DBFF080E15C0BD
:103A5000DBFF090E16C0DBFF0A0E17C0DBFFDEBD61
:103A60009CD0F4C017F0146A156A166A800E1716F7
:103A7000145015101610171023E0DE9589EC27F06E
:103A80000E01826B2EEC27F00001E70503E0020E29
:103A9000E75D04E10E01835107E104D0030EE75D09
:103AA00003E10E01EA0E826FADEC27F00C0E11EC73
:103AB00028F0FE0BE76E0C0EFFEC26F0D6EF25F09B
:103AC000DFA158D00E01CE2B030EDBCFECF0040E9D
:103AD000DBCFEDF0050EDBCFEEF0060EDBCFEFF027
:103AE00056EC27F006E1010EF16FF26BF36BF46B0D
:103AF00005D0D890F137F237F337F43792EC27F04E
:103B0000DE8D5DEC26F00001E751030A1AE0010AA0
:103B100001E183D0030A05E0010A01E07ED0FA6BDF
:103B20007CD00B0EDB50800801E177D0FDEC28F053
:103B3000070EEF6E0E0115EC28F0EEEC28F0080EE3
:103B40000DD00B0EDB50800868E0FDEC28F0060E6F
:103B5000EF6ED6EC28F0EEEC28F0C80EEF6E15EC08
:103B600028F0030EEF6E0001886B0E01859185979A
:103B7000DCEF23F00E01CE2B56EC27F006E1010E10
:103B8000F16FF26BF36BF46B05D0D890F137F2372D
:103B9000F337F43792EC27F040D0E75122E1800E62
:103BA000B8EC27F03E0EE66E28EC36F0E552E76EF4
:103BB0000D0E11EC28F0010B0108F4E1100E1CECC5
:103BC00027F00D0EE7CFDBFFDBCF14F00001FA5139
:103BD000D880145403E20D0EDBCFFAF0400EB8EC9F
:103BE00027F0D950070FC6EC26F00001E851EE5C33
:103BF000E951EE58EA51EE58EB51EE580EE3E75119
:103C00000BE1F8C0E9FFF9C0EAFFF82B000EF92339
:103C1000FAC0EFFFF52BFA6BDE9DDEA131EF26F047
:103C20000E0EDB6ACAEC26F002E331EF26F00E0E30
:103C3000C2EC28F009E10E0EDB5002E031EF26F075
:103C40000001DE9131EF26F00E0E51EC26F064EC0F
:103C500028F0EECF18F0EECF19F0EECF1AF0EFCF3C
:103C60001BF03AEC28F01850EE5C146E1950EE5828
:103C7000156E1A50EE58166E1B50EE58176ED880FF
:103C8000FF0E1454520E1554070E1654000E1754FE
:103C900061E20E0E3EEC28F0100EEECFDBFF110EAF
:103CA000EDCFDBFF010E8CEC28F0120EEFCFDBFF27
:103CB000DB500C0B0C0827E1D950100FC6EC26F096
:103CC000050EEE26000EED220F0EDB6A080EF36ED7
:103CD0000F0E29EC27F012E2100ECEEC28F0110E98
:103CE000DBCFEAFF01E3DB2AEF50E66E0F0E6AEC52
:103CF00027F009EC27F00F0EDB2AE8D70E01F00EB3
:103D0000826F2A0E09D00E01F00E826F020E8CEC2B
:103D100028F0EFCF9CFE110EF36E120EF3CFDBFFF7
:103D20000E0E06EC29F00E0E69EC28F00E0E48EC93
:103D300027F009E20E0E9BEC26F00E0EC6EC28F0E2
:103D40000E0EDB2AF3D70E0E6CEC28F0120EDB50B1
:103D500032EF26F00E0EDB2A65D7FE0EDB50310A5D
:103D600002E106EF26F01C0A02E1ECEF25F0050A5D
:103D700002E18CEF25F00C0A02E160EF25F0070A62
:103D800002E117EF25F03A0A02E1D5EF24F00E0A1E
:103D900002E1ABEF24F0020A02E17FEF24F0060A11
:103DA00002E14AEF24F0030A01E1BCD3130A02E066
:103DB00031EF26F0D2EC28F0010EE7CFDBFFD2EC9A
:103DC00028F0020EE7CFDBFFD2EC28F0130EE7CF8E
:103DD000DBFFB0EC28F00C0BE842E8420E01896FE3
:103DE000B0EC28F0C00BE842E842E842E842E84282
:103DF000E842886F020E895D05E1CDEC26F0D4EC37
:103E000027F019D0030E895D16E1CDEC26F0D4EC35
:103E100027F0CCDC0E01946FC9DC0E01956FC6DC77
:103E20000E01966FC3DC0E01976FC0DC0E01986F18
:103E3000BDDC0E01996F020E885D0EE135EC28F0B5
:103E4000400B05E0D9C086FEDAC087FE02D09BECAD
:103E500027F0A4EC27F022D0030E885D1FE135EC9B
:103E600028F0400B05E0D9C086FEDAC087FE02D0FC
:103E70009BEC27F0A4EC27F099DC0E018C6F96DC0C
:103E80000E018D6F93DC0E018E6F90DC0E018F6F33
:103E90008DDC0E01906F8ADC0E01916F8251EA6A0F
:103EA0008425E96E8551EA22020EE95E000EEA5A87
:103EB000EFCF9DFE020E825F35EC28F0070B030A60
:103EC00001E129D1010A01E1D9D0020A0FE0010A7A
:103ED00001E039D1000188AB06D0889B0E018251E8
:103EE00002E16FDCEAD0120E32EF26F0130EDBCFC8
:103EF00096FECECE89FECDEC26F0E76E150EE7CF0E
:103F0000DBFF0E01996BD950150FC6EC26F0EF5070
:103F1000800B02E0010E996FD2EC28F0150EE7CF6E
:103F2000DBFFB5EC46F006C092FE07C093FE08C06A
:103F300094FE09C095FE0001DEA59AD0E70504E0D5
:103F4000020EE75D01E094D0F651F71110E1150E75
:103F5000B3EC27F0160EF3CFDBFF170EF4CFDBFF29
:103F6000160EDBCFF6F0170EDBCFF7F023D0160ED0
:103F7000F6C0DBFF170EF7C0DBFF70EC26F0DBECC2
:103F800027F005E070EC26F061EC27F0F6D7150E6F
:103F9000B3EC27F0F4CF15F070EC26F0130EBCEC68
:103FA00027F070EC26F0DBEC27F062E070EC26F0F6
:103FB00061EC27F0D950160F70EC28F059E00001A1
:103FC000F52BFD0E0E018815B6EC28F0FE0EEF1451
:103FD000F310EF6E9951B6EC28F0F346FD0EEF1496
:103FE000F310EF6E70EC26F0020E31EC28F086CE66
:103FF000EEFF87CEEDFF70EC26F0040E31EC28F0DA
:104000008ACEEEFF8BCEEEFF8CCEEEFF8DCEEEFF96
:104010008ECEEEFF8FCEEEFF90CEEEFF91CEEEFF76
:1040200070EC26F0EE5289CEEFFF70EC26F00C0E0D
:1040300031EC28F09ACEEEFF9BCEEDFF70EC26F02F
:10404000120E31EC28F09DCEEFFF70EC26F00E0E34
:1040500031EC28F092CEEEFF93CEEEFF94CEEEFF41
:1040600095CEEEFF70EC26F0130EEB6A140EEB6AA1
:104070000E01080E9C6F1C0E32EF26F0E1EC1BF0D7
:104080000001DEA331EF26F0130EDB50835D02E06A
:1040900031EF26F092EC26F00001DE9388A702D0E3
:1040A000DE8707D088A90DD035EC28F0100B04E08E
:1040B000888BD7EC26F005D088990E01EB0E0BEF1C
:1040C00026F0000188AF0DD043EC26F00001889F58
:1040D0000E01826B0001D969DA69DB69DC6915EFD1
:1040E00025F088ADD1D3889D0E01826B030E896FB8
:1040F00089C092FE8AC093FE8BC094FE8CC095FE50
:104100008DC096FE8EC097FE8FC098FE90C099FE1F
:1041100055EC26F0D0D2D2EC28F0180E11EC28F095
:10412000020A01E1EAD1060A01E1AFD0010A01E188
:10413000A4D00D0A66E00F0A24E0040A19E0050A7B
:1041400012E0070A03E0E1EC1BF042D30CEC28F08C
:1041500035EC28F0080B01E0010E836FE1EC1BF059
:10416000160E32EF26F0E1EC1BF0220E32EF26F0B5
:104170000CEC28F0080E9C6FE1EC1BF01A0E32EFED
:1041800026F0E1EC1BF00001DDA122D3FDEC28F0CC
:10419000EF680001C351010B800DF3500F09E66E6B
:1041A000FDEC28F009EC27F019EC28F0EF6A19EC87
:1041B00028F0EF6A190EDB6A030EF36E190E29EC74
:1041C00027F010E2190EDB50EA6AC40FE96E000E08
:1041D000EA22EF50E66E19EC28F009EC27F0190EF0
:1041E000DB2AEAD70E01896B020E886FDCC08BFEDA
:1041F000DBC08AFEC9EC28F054EC28F0856B846B98
:1042000095D10001DEA536D0030EE75D33E1DE95E2
:10421000EEEC26F0D6EC1BF00001D96FD6EC1BF0CB
:104220000001DA6FD6EC1BF00001D46FD6EC1BF066
:104230000001D56FD6EC1BF0D6EC1BF00001DB6F54
:10424000D6EC1BF00001DC6FE1EC1BF0ADEC27F0CD
:104250001A0E11EC28F0FE0BE76E1A0EFFEC26F09A
:104260000E01826B89EC27F02EEC27F00001DE9D19
:10427000D6EF25F00E01EF0E02D00E01EE0E826F8A
:10428000E1EC1BF0300E32EF26F0E1EC1BF01F0EDC
:10429000DB901D0EDB6ACAEC26F001E381D01D0E17
:1042A000C2EC28F001E17CD01D0E3EEC28F01B0E84
:1042B000EECFDBFF1C0EEDCFDBFF010E93EC28F001
:1042C0001E0EEFCFDBFF030E0E01885D39E11E0EDF
:1042D000DB500C0B0C085EE13BEC27F0210E14C008
:1042E000DBFF220E15C0DBFF1F0EDB80200EDB6A1A
:1042F000080EF36E200E29EC27F01FE2210EDBCF13
:10430000E9FF220EDBCFEAFFEF50E66E200E46EC0F
:1043100028F0210ECEEC28F0220EDBCFEAFF01E3DD
:10432000DB2AEFCF14F0200EC2EC27F0145C02E081
:104330001F0EDB90200EDB2ADBD70001888D2AD0F0
:104340001E0EDB500C0B080825E13BEC27F0230E7A
:1043500014C0DBFF240E15C0DBFF1F0EDB80230E15
:10436000CEEC28F0240EDBCFEAFF01E3DB2AEF508E
:104370008A5D02E01F0EDB90230EDBCFE9FF240EE7
:10438000DBCFEAFFEF508B5D02E01F0EDB900001F8
:104390008897889DBCEC28F003E11D0EDB2A7BD7B3
:1043A000BCEC28F001E176D00E01A9B111D20001D8
:1043B000DE93020E93EC28F0EFCF83F01B0EDBCFE1
:1043C000E9FF1C0EDBCFEAFFEF50200B04E0DE8399
:1043D0000E01858102D00E01859185975AEC28F057
:1043E0001E0EEFCFDBFFE0EC27F016E0CAEC27F063
:1043F00001E3DB2AEF50E66E1E0EDB50E96EEA6A3F
:104400007F0ED880E956000EEA56000EE9260E0E01
:10441000EA2209EC27F0E7D75AEC28F0EF509AECA3
:1044200028F014C0A7FE1D0E51EC26F064EC28F015
:10443000060E31EC28F0EFCF14F05AEC28F0EF50D4
:10444000145CE76E1E0EE7CFDBFFE0EC27F00BE01D
:10445000CAEC27F001E3DB2AEF50E66EFDEC28F012
:1044600009EC27F0F2D71D0E06EC29F01D0E69ECC1
:1044700028F01D0E48EC27F009E21D0E9BEC26F0FB
:104480001D0EC6EC28F01D0EDB2AF3D71D0E6CECBA
:1044900028F092D10E01A9B19BD1020E0E01885DC8
:1044A00004E0030E885D01E093D1856B86CE9AFE11
:1044B00087CE9BFE020E885D07E1020E896F8ACED1
:1044C00092FE8BCE93FE12D0030E896F8ACE92FE9F
:1044D0008BCE93FE8CCE94FE8DCE95FE8ECE96FE28
:1044E0008FCE97FE90CE98FE91CE99FEE7EC27F006
:1044F00096EC26F0010E846F19D00001DE978897A4
:10450000D6EC1BF00E01886FD6EC1BF00E01896F04
:104510000CEC28F0E85002E1EEEC26F0E1EC1BF0A8
:10452000180EA0D30001D651D62B836F0001886BE3
:10453000250EDB6A020E0E01885D08E10E01F3EC28
:1045400028F02CE19B51871923E028D0030E885DC9
:104550002EE10E0115EC28F091CEEFFF15EC28F0BE
:1045600090CEEFFF15EC28F08FCEEFFF15EC28F082
:104570008ECEEFFF15EC28F08DCEEFFF15EC28F076
:104580008CCEEFFFF3EC28F009E19B51871906E18F
:10459000010EF36E250EF3CFDBFF09D00E0115ECF3
:1045A00028F087CEEFFF15EC28F086CEEFFF020E45
:1045B0000E01895D02E10E011CD0030E895D25E12B
:1045C0000E0115EC28F099CEEFFF15EC28F098CEEF
:1045D000EFFF15EC28F097CEEFFF15EC28F096CE04
:1045E000EFFF15EC28F095CEEFFF15EC28F094CEF8
:1045F000EFFF15EC28F000EC29F015EC28F09BCE2D
:10460000EFFF15EC28F09ACEEFFF0E0115EC28F025
:104610009CCEEFFF0E018951040DF350E66E74EC51
:1046200028F009EC27F00E018851400DF3CF14F06B
:1046300074EC28F0F350EF12A707A7512CDB84CEBF
:10464000EFFF0001DE93250EDB0403E174EC28F09C
:10465000EF8C0E0185A103D074EC28F0EF8A0E01D7
:10466000A7070E01A6510E01A75D02E25BDBF9D29E
:104670000E0185A5A1D0260EDB6A8CDB10E2260E8A
:1046800010DB280EEECFDBFF290EEDCFDBFFD9507C
:10469000280F70EC28F011E0260EDB2AEED700017F
:1046A00088BD05D03FDB0E01F10E826FF1D03ADB01
:1046B0000E01F10E826F2A0ED5D2080EB3EC27F050
:1046C000280EF3CFDBFF290EF4CFDBFFD950280FE4
:1046D00070EC28F0E4E056DBEEEC27F0E76E270EF6
:1046E000E7CFDBFF4FDB73DB070E31EC28F014C0A4
:1046F000EFFF270EDBCFE6FFD7EC40F0E552F4CF1B
:1047000015F065DB040EBCEC27F061DB040E31EC28
:1047100028F02A0EEECFDBFF2B0EEDCFDBFFD950BA
:104720002A0F70EC28F0BBE052DB060E31EC28F0CB
:10473000270EDBCFEFFFF5EC27F004E214507F08E3
:10474000000E155407E3A751A6DACBDB01E3DB2A01
:1047500060DBF1D77F0EA76F2C0EDB6A0E01A6512E
:10476000F36E2C0E76DB0AE22C0EDB5094DAB9DB0A
:1047700001E3DB2A4EDB2C0EDB2AF0D7A66BB5EC6F
:1047800046F007C015F008C016F009C017F01FDB8F
:1047900006C0EEFF15C0EEFF16C0EEFF17C0EEFF1D
:1047A000260E7FDA280EDBCFEEFF290EDBCFEDFFE2
:1047B0000001DE81B7DA0CD00F0E3EDB2D0EE7CF05
:1047C000DBFF0E01A981DB50800804E10001DE89D6
:1047D000000E48D20001DE990E01D69B0E01A729DA
:1047E0005ADAEF50200B04E00E01D68B0001DE8375
:1047F000C9DA1450E66E000ED3DBC4DAEFDBE66EE6
:10480000010ECEDB020EF36E2F0EF3CFDBFF300E68
:10481000DB6AEBDB04E214507F08000E155407E35B
:10482000A75139DA66DB01E3DB2A6DDBF2D77F0EB5
:10483000A76F310EDB6A0E01A651F36E310E09DB54
:104840000AE2310EDB5027DA54DB01E3DB2A5BDBC3
:10485000310EDB2AF0D7A66B0E01A9810E01D3859C
:104860000E01D6AB02D0050E01D0010EE66E1B0E76
:10487000F2DB9DDA00018891889388950E0185B15D
:10488000F0D10001DE934EDA0E01826B83C09CFEF4
:10489000110EE8D10E01E70E826F320EDB6A7ADA72
:1048A0002CE2320EEBDB330EEECFDBFF340EEDCF1E
:1048B000DBFF020EE76E330EDBCFE9FF340E82DA48
:1048C000EF509C5D17E1320E06EC29F0320E69ECD8
:1048D00028F0320EDDDA08E2320E2DDA320EC6ECA6
:1048E00028F0320EDB2AF5D7320E6CEC28F00E01E0
:1048F000826B03D0320EDB2AD2D7140EB3D188CE0E
:10490000CEFEDBD99ACED9F09BCEDAF0B4D9FDEC4D
:1049100028F0010EEF6E09EC29F0D6EC28F000EC3F
:1049200029F092CE81F093CE82F07FDBDAC0EFFFE8
:104930007CDBD9C0EFFFD6C083F00DEC29F0C80EA8
:10494000EF6E73DB230EEF6E0001886B0E01858125
:104950000001888731D7FDEC28F0020EEF6E69DB8D
:1049600088CEEFFF66DB89CEEFFF09EC29F00E0160
:10497000050E856F030E896F92CE89F093CE8AF073
:1049800094CE8BF095CE8CF096CE8DF097CE8EF0A7
:1049900098CE8FF099CE90F0DAC09BFED9C09AFEE7
:1049A00070DB0001886B888DC3D50001CC510E01EE
:1049B000925D39E10001CD510E01935D34E10001BA
:1049C000CE510E01945D2FE10001CF510E01955D96
:1049D0002AE10001D0510E01965D25E10001D1517F
:1049E0000E01975D20E10001D2510E01985D1BE19F
:1049F0000001D3510E01995D16E1020E825D02E1C4
:104A00000001888FFDEC28F0030EEF6E09EC29F011
:104A10000E01010E856F030E896FD9C09AFEDAC0B0
:104A20009BFE2FDB85D5E80E826F1B0E1BD1E5DBCD
:104A3000080EEF6EFEDAD9C0EFFFFBDADAC0EFFF47
:104A4000F8DADBC0EFFFF5DADCC0EFFFF2DACECE4A
:104A5000EFFFEFDA92CEEFFFECDA93CEEFFF0E012D
:104A6000830502E1090E01D0010E856F350EDB6A68
:104A7000080EF36E350EEDD909E2350E83DAE66ED7
:104A8000350E28DAC6D9350EDB2AF2D70E01030E11
:104A9000896F9A699B69F5DA0001886B888D350EFC
:104AA000DB6A080EF36E350ED4D901E341D5350E1D
:104AB00011DAEF50E66E350EE9DA350EDB2AF1D762
:104AC0000E0182050EE10001D969DA69DB69DC6952
:104AD0000E010B0ECE6F0001C391040ED76F030EB3
:104AE000D86F0001DD91DADA0001DE6B886BDD6BD7
:104AF000F3EC1BF0360EDB6A4DD90AE2360E42DBD0
:104B000004E0360EE6DA360EE7DA360EDB2AF4D7A4
:104B10000E01826B250EA6D00001DEA504D00E0189
:104B2000E80E826F43D00E0189510E08F8E30001B0
:104B3000F66BF76BF56B88CEE7F08ACEDFF08BCEA5
:104B4000E0F08CCEE1F08DCEE2F08ACEE3F08BCEB9
:104B5000E4F08CCEE5F08DCEE6F0DF6BF80EE017DA
:104B6000070EE2170E01CE6989CEF0F00001F16B5D
:104B7000F26BF36BF46B0E018851030A22E0020A18
:104B800017E0030A15E0020A23E1E4D81B0EEBD973
:104B9000F3CFF6F0F4CFF7F0F3CFF8F0F4CFF9F06D
:104BA000F350F41015E10E01826B836B290E5AD07D
:104BB000D4D9370E36DA0109E76E370E20D9CAD8B4
:104BC00007D000011E0EE86FB40EE96FEA6BEB6BC5
:104BD0000001DE9DDE8545D00001DB1D06E1DC1D08
:104BE00004E10E013C0E826F0FD00E0182A108D0AD
:104BF00086CED9F087CEDAF03ED888CECEFE5DD80C
:104C00000001DD810E01826B2E0E2CD00E01A9A1B8
:104C100005D00E01E80E826F320E24D0A981EDDAA4
:104C2000040EEF6E0E01830502E1090E01D0010EA4
:104C3000856F020E895DADDA0E01A9B704D00E01B1
:104C4000030E33D805D00001886B88890E01BFD9C7
:104C5000D6C083F0ACD828DA030E846F0E01D38956
:104C600067D4000E146E380EE15C02E2E16AE55290
:104C7000E16E1450C8D1D9C0E6FF010EECD9DAC0FC
:104C8000E6FF020EB9D1DBC0E6FF030EE4D9DCC0BB
:104C9000E6FF040EB1D1EA6A000FE96E0E0EEA22B9
:104CA0001200EA6ADB3478EF28F0886FC6D98A0EE2
:104CB000E66E0E0EE66EA2EF28F00B0E0E01CE5D34
:104CC000100DF3500209E66EE66A020EE66EF6D9A2
:104CD000040EE66E360EBFD9E66A360E2BEF28F0CC
:104CE000160EDBCFE9FF170EDBCFEAFF1200EECF87
:104CF000E6FFEFCFE6FF6AEC41F0E552E552120025
:104D00008451EE5C146E8551EE58156E8651EE5846
:104D1000166E8751EE58176ED8801200D5D9040E42
:104D200031EF28F00E01A9914EEF28F032DAD6C00B
:104D300083F054EF28F0DB28E96EEA6AD890E93670
:104D4000EA36910EE926000EEA22EECF14F0EFCFFC
:104D500015F012000001F051040DF3CFF6FFF4CF6F
:104D6000F7FFA00EF6268E0EF7220900F5CFE8F029
:104D70000900F5CFE9F00900F5CFEAF00800F5CF1A
:104D8000EBF012000E01A7519AEF28F0E96EDACF8E
:104D9000EAFF1200DB50A9EF28F0D6EC1BF00E0161
:104DA0009A6FD6EC1BF00E019B6FD6EF1BF0B5ECA3
:104DB00046F006C084F007C085F008C086F009C040
:104DC00087F01200DBCFEAFFE75031EF28F0280E22
:104DD000DBCFE9FF290EDBCFEAFF12008ACECCF051
:104DE0008BCECDF08CCECEF08DCECFF08ECED0F05F
:104DF0008FCED1F090CED2F091CED3F01200E7CF8B
:104E0000DBFFDBCFE6FFE66AFDEC35F0E552E5526D
:104E10001200E552E750EF6E1200B5EC46F0030EBB
:104E200006C0DBFF040E07C0DBFF050E08C0DBFF7A
:104E3000060E09C0DBFF1200E66E020EE66E53ECB2
:104E400036F0E552E552E76E12003ED9070E31EF1B
:104E500028F0DBCFF4FFF350F45C1200F6C084FEC0
:104E6000F7C085FEF6C086FEF7C087FEE7C088FE65
:104E7000F5C083FE1200050EE76E1B0EDBCF14F0AB
:104E80001C0EDBCF15F0E7501426000E1522120081
:104E9000DB50146E156A180E145C000E15581200C3
:104EA0001554000E1654000E175412000001D8902D
:104EB000E233E133E033DF33F151F211F311F41156
:104EC0001200130ECED8160EEECFDBFF170EEDCF6D
:104ED000DBFF1200DB50EA6A920FE96E0E0EEA2247
:104EE0001200EF50E66E2A0E59D92B0EDBCFEAFFE7
:104EF0001200EF50E66E2F0EDBCF14F0DB2A300EDF
:104F0000DBCF15F0120014C0E6FF15C0E6FF5EEF20
:104F100028F0E3C08AFEE4C08BFEE5C08CFEE6C04C
:104F20008DFE1200F151E31BF251E41BF351E51B1E
:104F3000F451E61B1200D6EC1BF00E01866FD6EC86
:104F40001BF00E01876F1200D6EC1BF00E018A6F6A
:104F5000D6EC1BF00E018B6F1200E66A28EC36F0DF
:104F6000E552E76E1200E66ED7EC40F0E552120013
:104F7000E66E3E0E2BEF28F074D8F3CFEEFF15C08F
:104F8000EDFF1200DB50EA6A8A0FE96E0E0EEA228C
:104F9000EF5012001B0E02D91C0EDBCFEAFF1200ED
:104FA000E66EE66A5EEF28F00E01926FD6EC1BF01B
:104FB0000E01936F1200130E54D8EE50ED10120034
:104FC0001E0EDBCFF3FFDB06F35000091200020ECA
:104FD000886FDBC08AFEDCC08BFE12000E01A6517A
:104FE000166E176A1450162412000E01A72BA75133
:104FF000146E156A153412002BEF28F0D9CFE6FF96
:10500000E1CFD9FF1200E552E7CFD9FF120014C05B
:10501000EEFF15C0EDFF1200D6EC1BF00E01826F03
:105020001200E7CFDBFFDB501200A751A7074BEFC1
:1050300026F0A651A62B4BEF26F0080EE66EE66A88
:105040002A0E146E000E156E166A14C0E6FFE66E88
:1050500016C0E6FF1200E66EFDEC35F0E552E552B3
:105060001200E926000EEA221200D950010F8EDE4E
:10507000EF501200D950030FC6EF26F012DE8EEF6C
:1050800026F013DE53DE030E846F1200DB50EA6A53
:10509000890FE96E000EEA2209EF27F00E017F0E5C
:1050A000A76F0E01A66B12000001D651D62B0E0180
:1050B0009C6F12001D0EF5DD25EF27F0B5EC35F0E5
:1050C000E552E552E5521200EE50EFCFEAFFE96EED
:1050D0001200E7DD77EF26F0E4DDEE6AED6A1200FC
:1050E00055DEEE50ED1012000E01A7514BEF26F0E9
:1050F000FE0BEA36E96E910EE926000EEA22120056
:10510000FFDD260E1454070E50EF27F0F9DD000ED8
:105110001454B40E50EF27F0E76E100EDBCFE9FF0A
:10512000110EE2EF26F0E76E1B0EDBCFE9FF1C0E3F
:10513000E2EF26F0146E156A7F0ED8801456000E2A
:10514000155612007BEC45F0176E070EE15E175006
:105150001200146E156A190E145C000E1558120018
:10516000D950010F13DEEE52EF501200146EB8DD6D
:105170001450010BF36E1200D9501F0F07DEEF50D1
:10518000010B12008EDDEE50ED1012008ADD07EFEC
:1051900028F0DAC087FED9C086FE1200DBCFE9FF17
:1051A000DB2A1200D6EC1BF0E76E1200070E0E0190
:1051B000A75F43DFA751186A000F176E0E0E182263
:1051C00017C0E6FF18C0E6FF7BEC45F0196E070E2E
:1051D000E15E19500E01A70716EF29F0EF6826D8F7
:1051E000EF680DEF29F021DF8BCEEFFF1EDF8ACEB7
:1051F000EFFF0E019A51861912000E0119EF28F0E7
:1052000093CEEFFF12DF92CEEFFF120037DF77EF82
:1052100026F00FDF82CEEFFF12000001D651D62B11
:10522000E66E0E0102DFF5DD15EF28F0FEDEEF6819
:08523000FCDEEF6815EF28F029
:085238000F0E0E01AB1501E1A0
:10524000000C010CB0EC2EF0030EE1260E01AB6B4E
:10525000DF6A040EDF5C06E2EA6ADF34A8EC2EF0B7
:10526000DF2AF7D7DF6A040EDF5C06E2EA6ADF3482
:1052700093EC2EF0DF2AF7D7020EE66EE66A9B0E5D
:10528000146E890E156E166A14C0E6FFE66E16C01F
:10529000E6FF6BEC2FF07FEC2FF0D950010FE96E99
:1052A000DACFEAFF7B0EEE1802E14E0EED1822E097
:1052B0007B0EF36E010EF3CFDBFF4E0EF36E020E8C
:1052C000F3CFDBFFE66E6BEC2FF0E66E9B0EE66E27
:1052D000890EE66E73EC3DF0146E050EE15E14501F
:1052E0000F017D697E69DF6A050EDF5C03E263EC16
:1052F0002FF0FAD70E01AA6B030EE15C02E2E16A1D
:10530000E552E16EB5EF2EF0B0EC2EF00A0EE1267C
:10531000FE0EDB5001E0A2D10E01ABA522D00E01A2
:10532000A9B11FD00E01AB95B4CE82FEB6CE84FEDD
:10533000B7CE85FEB8CE86FEB9CE87FEBACE88FE41
:10534000BBCE89FEBCCE8AFEBDCE8BFEBECE9AFE03
:10535000BFCE9BFEC0CE9CFE0E019B5101E06BD2E6
:1053600068D20E01ABA70BD10E01A9B1F8D0DF6A4C
:10537000040EDF5C01E3F3D0EA6ADF34ACEC2EF01C
:1053800001E1EBD0CDEC2FF0080B01E1E6D03BECD6
:105390002FF00A0E58EC2EF0040EEFCFDBFFCDEC11
:1053A0002FF0070B000942E13BEC2FF00B0E58ECFD
:1053B0002EF0EFCF82FE52EC2FF00D0E58EC2EF0B7
:1053C000EFCF89FE52EC2FF055EC2FF097EC2EF03A
:1053D00052EC2FF00E0E58EC2EF0EFCF9AFE52EC5E
:1053E0002FF00F0E58EC2EF0EFCF9BFEA2EC2FF01B
:1053F000EE50ED1008E0A2EC2FF079EC2EF0A2ECCC
:105400002FF0EE6AED6AEA6ADF3447EC2FF079ECB0
:105410002EF0EA6ADF3493EC2EF0CFEC2EF03FEC66
:105420002FF079EC2EF0CFEC2EF06DD13BEC2FF07D
:10543000080E58EC2EF0EFCF8AFECDEC2FF0F00BDB
:10544000E842E842E842E8420E018B6F3BEC2FF065
:10545000070E58EC2EF0EFCF82FE3BEC2FF0020E41
:1054600058EC2EF0EECF92FEEDCF93FE47EC14F009
:105470000E019C6F52EC2FF0D4EC2FF09CCEEFFF7E
:10548000B5EC46F016EC2FF052EC2FF0EAEC2EF0D3
:10549000010EDB6A0E0182511DEC2FF01AE2010EA3
:1054A000DB50146E156AA2EC2FF01450EE24E76E58
:1054B0001550EE20EA6EE7CFE9FFEF50E66E0E01E1
:1054C000A651A62B71EC2FF00AEC2FF0010EDB2A6F
:1054D000E1D752EC2FF00E0E4FEC2FF0E66E0E01DE
:1054E00075EC2EF00AEC2FF03BEC2FF0EE52EF5063
:1054F0009AEC2FF0EF509AEC2FF0090E4FEC2FF0B2
:105500009AEC2FF0060E4FEC2FF0E5EC2EF00AE0AF
:1055100052EC2FF00F0E4FEC2FF090EC2FF0E552E5
:10552000E750EF6E3BEC2FF0060E4FEC2FF09AECAD
:105530002FF0BCEC2FF0070BE806E850070BF36EDA
:10554000F46EF80EEF14F310EF6E3BEC2FF0D4EC8A
:105550002FF0EF960E01AB8352D1DF2A09D7DF6A15
:10556000040EDF5C07E2EA6ADF34ACEC2EF002E105
:10557000DF2AF6D7040EDF5C02E10E01AB970E01C5
:10558000ABA3AED2B5EC46F0050E06C0DBFF060EAF
:1055900007C0DBFF070E08C0DBFF080E09C0DBFFFA
:1055A000DF6A040EDF5C4BE2BADB47E037EC2FF03A
:1055B000BCEC2FF042E037EC2FF0EECF1CF0EECF3A
:1055C0001DF0EECF1EF0EFCF1FF0D950050FE96EA2
:1055D000DACFEAFF00011C50EE5C186E1D50EE5849
:1055E000196E1E50EE581A6E1F50EE581B6E18C0E2
:1055F00006F019C007F01AC008F0096E44EC42F03A
:1056000007C014F008C015F009C016F00AC017F062
:10561000400E0C6E540E0D6E090E0E6E480E0F6E7F
:10562000C6EC42F0010A09E19EEC2FF024EC2FF0C9
:10563000EA6ADB3431DB8DEC2FF0DF2AB2D7DF6A88
:10564000040EDF5C04E26BDB02E1DF2AF9D7040E13
:10565000DF5C01E045D20E01AB9342D2FE0EDB507F
:10566000550A01E138D2070A01E130D21D0A01E1F1
:1056700027D17A0A4CE0010A01E032D2DF6A040E37
:10568000DF5C01E32DD24BDB40E0F1DBBCEC2FF023
:105690000E019C5D3AE1EBDB100E4FEC2FF0100B8E
:1056A00002E0825132E09EEC2FF0CEDB825107E027
:1056B000BFEC2FF00B0EFCDA82CEEFFF26D0D7DB4B
:1056C0000D0EF6DAEFCF89FEA5EC2FF030DBCFDB45
:1056D0000E0EEEDAEFCF9AFECADB0F0EE9DAEFCF4D
:1056E0009BFEB9EC2FF0EE50ED1007E0B9EC2FF077
:1056F00000DBB9EC2FF0EE6AED6AADEC2FF087EC31
:105700002FF0A8EC2FF024DB55D1DF2AB8D70ADA26
:10571000E76E090EE7CFDBFF93EC2FF0000904E002
:1057200093EC2FF0020819E1E7DB03E1D7DA100B65
:1057300003E1F8D90E01BF6FF5D90E01C06FF2D9A0
:105740000E01B86FEFD90E01B96FD6DB03E1C6DAEF
:10575000100B03E0E7D90E01BE6FE5DB00096DE138
:10576000CBDB03E10E01BA6B03D00E01010EBA6F61
:10577000B5DA400B48E0AB8582CEB4FE84CEB6FEEF
:1057800085CEB7FEB4DB020802E0000E01D0010EA8
:10579000BB6F8ACEBCFE8BCEBDFE8ACE92FE8BCE78
:1057A00093FE0E010A0E8A6F010E8B6F826B47EC1F
:1057B00014F00E019C6F090EDB9CDB90DB82DB9A00
:1057C000836B0E0192DABFCEEFFF8FDAB9CEEFFF17
:1057D0008CDAB8CEEFFF89DAC0CEEFFF8DDB03E1C4
:1057E000090EDB8803D081DABECEEFFF090EDB9C09
:1057F000DB90DB82DB9A79DA090EDBCFEFFF0E015B
:10580000A981330E6ED1BACE88FE71DB020802E0A8
:10581000000E01D0010E0E01896FBFCE9BFEC0CEDF
:105820009CFEB8CE86FEB9CE87FEBECE9AFE9B51B8
:1058300002E15A0E56D1510E54D175DB02083DE1FA
:10584000DF6A040EDF5C39E26ADA35E010DB0D0E48
:1058500026DB020809E179DBC6DAD7DA2CE17DCF55
:10586000BCFE7ECFBDFE05D070DBEECFBCFEEDCF23
:10587000BDFE0E018A510E01BC191DE10E018B51B6
:105880000E01BD1918E133DB000908E14CDB01080A
:105890000DE079DB10E17CDB09E00DD01FDA100BA5
:1058A00003E171DB03E007D073DB05E1E1EC1BF002
:1058B0000E01826BF8D6DF2AC4D7E1EC1BF004D1CD
:1058C000020E0E01895D09E1920EE66E0E0EE66E85
:1058D0009CDA03E10E01040E6BD0DF6A040EDF5C7C
:1058E00004E21DDA02E0DF2AF9D7040EDF5C5EE095
:1058F000110EE66E4CDA54DB61DA58E0010EDB6A19
:10590000040E9BDA08E2010EEA6ADB3425DA03E0D2
:10591000010EDB2AF5D7010EDB50040845E00D0E21
:10592000E66E35DA1ADB4ADA3FE0A1DA3DDBEF6AF0
:105930009EDA0D0EBDD989CEEFFF99DA0E0EB8D9D9
:105940009ACEEFFF94DA0F0EB3D99BCEEFFFFDDABC
:1059500092CEEEFF93CEEEFF94CEEEFF95CEEEFF0D
:1059600096CEEEFF97CEEEFF98CEEEFF99CEEEFFED
:10597000010EDB50146EE2DA14500F0BF36EF00ED2
:10598000EF14F310EF6EDADAEF98B5EC46F006C0DC
:1059900014F04CDA6CDA1EDAA6CEE6FFF8D9E9DAB2
:1059A0000DDA0AE1DADAB3DAD3DAD2D90E01F10E7E
:1059B000826F34DA500E95D055DA86CEEEFF87CE60
:1059C000EDFF50DA080E74D98ACEEFFF4BDA090EDC
:1059D0006FD99CCEEFFF46DA0A0E6AD9DFCFEFFF10
:1059E0000E018B51146EBEDA14500F0BF36EF3469A
:1059F000F346F346F3460F0EEF14F310EF6EB5DAED
:105A000092CEEEFF93CEEDFFBADA070E51D9A6CEB5
:105A1000EFFF8CDAEF6A8ADA8C51010B02E0EF8A31
:105A200001D0EF9A8CA509D089DAEF887FDAEF8C64
:105A300099DAF80EEF14040904D094DAF80EEF1492
:105A40000109EF6E020E895D06E18FDA7DCFEEFF70
:105A50007ECFEDFF19D089050AE1921D15E1931D56
:105A600013E164DAF30EEF140809EF6E0DD07DDA5E
:105A7000EE6AED6A5BDAF30EEF140409EF6E56DAA4
:105A8000EF8863DAEE6AED6A5DDA020EEECFDBFFD5
:105A9000030EEDCFDBFFDF6A0E01A651A60700095A
:105AA00010E0DF50DF2A1DDAEF50E66E020EDBCF8A
:105AB000E9FFDB2A030EDBCFEAFF01E3DB2AAAD9E9
:105AC000EBD70E01AB87AAD9000E0BD00E01840EC6
:105AD000826F560E06D00E01840E826F590E01D0D1
