:020000040000FA
:06000000E2EF66F01200C1
:0600080054EF57F0120056
:0600180054EF57F0120046
:06002A005400000000A3D9
:020030000400CA
:0E0032000100ECCD0000790F0000020000007C
:100040000F0134513F0B01E1000C010C07EC1BF0D8
:10005000010EE66E30EC16F0E5520D0EE66EE66A25
:100060002E0E146EB50EE9EC17F0C5EC18F039EC55
:100070001AF03C0E0A01C31902E1A50EC41902E0F0
:10008000B1EC14F0E552B2EF17F0ADEC17F04E0EF4
:10009000E1260F0134A54AD00DEC66F0050E06C02E
:1000A000DBFF060E07C0DBFF070E08C0DBFF080EF4
:1000B00009C0DBFFD950050F96EC1BF00F013C5136
:1000C000EE5C146E3D51EE58156E3E51EE58166EB4
:1000D0003F51EE58176E40CF18F0196A1A6A1B6A22
:1000E000360E0B6E6E0E0C6E010E0D6E0E6A40CF4C
:1000F00006F019C007F01AC008F01BC009F050EC58
:1001000066F002C018F003C019F004C01AF005C070
:100110001BF01450025C1550035816500458175029
:10012000055804E20001C2910F013495FE0EDB5028
:1001300002E019EF05F00A01A9B115EF0FF00F0168
:1001400034A18CD10DEC66F00D0E06C0DBFF0E0E57
:1001500007C0DBFF0F0E08C0DBFF100E09C0DBFF7E
:100160000A0EDB6A030EF36E0A0ECBEC17F001E306
:1001700061D1CDEC18F001E15AD17DEC1CF0D880B2
:10018000880E14542A0E1554110E1654000E1754CE
:100190000BE25CEC1AF060EC17F00A0E27EC1DF095
:1001A0000A0E30EC18F043D16EEC1CF0200B01E08D
:1001B0003ED1090EDB94DB929BEC1CF0EF5018084B
:1001C00062E09BEC1CF00B0EEFCFDBFFDB50FF0877
:1001D0001CE15CEC1AF005EC1DF0DAEC17F00D0FE9
:1001E00096EC1BF0DDEC1AF0530E145C070E15585C
:1001F000000E1658000E175840E3B6EC19F0DB82DB
:1002000087EC1CF00B0EDB6A38D00B0EDB5063EC76
:100210001AF00A01C2A312D05CEC1AF05EEC1CF0DA
:10022000EECF14F0EFCF15F0000114500A01B91908
:1002300009E1000115500A01BA1904E1EFEC1CF0C4
:10024000EF6A0FD0BDEC19F002080BE1030EB9CA3A
:10025000DBFF040EBACADBFF090EDB84EFEC1CF0F7
:10026000EF900B0EDB2A89EC1BF0040B06E1180E55
:10027000F36E0B0ECBEC17F0C8E39BEC1CF00B0EEF
:10028000DBCFEFFF44D0090EDB800A01826B0B0E3F
:10029000DB6A180EF36E0B0ECBEC17F008E2EFECF6
:1002A0001CF0EF50010B03E10B0EDB2AF2D70B0E13
:1002B000DB50180828E00A01F00E826F6EEC1CF08B
:1002C0000F0B000920E07DEC1CF0A20E145C4A0E1E
:1002D0001558040E1658000E175813E3090EDB903C
:1002E000B6EC19F06EEC1CF00F0BE806E8500F0BA3
:1002F000F36EF46EF00EEF14F310EF6E87EC1CF05B
:1003000002D0090EDB9089EC1BF0010B30E189EC87
:100310001BF0040B01E18BD0190EF36E0C0EF3CF22
:10032000DBFF89EC1BF0020B33E05CEC1AF05EECB7
:100330001CF03BEC18F02CE16DEC19F029E10C0EEF
:10034000DB6A190EF36E0C0ECBEC17F009E20C0E03
:10035000FEEC1AF0EE52EF5003E00C0EDB2AF1D760
:100360000C0EDB50190814E10A01F10E826F2AEC21
:100370001DF0EFCF9CFA5CEC1AF0DAEC1AF0EF8A81
:100380006EEC1CF0100B02E115EF0FF05BEF0EF0BE
:100390002AEC1DF0EF50C6EC1AF05CEC1AF0040EDB
:1003A000AEEC1CF0050EC2EC1AF05CEC1AF0050E77
:1003B000AEEC1CF0070EC2EC1AF05CEC1AF0070E63
:1003C000AEEC1CF0090EAEEC1CF00A0E4DEC1AF06F
:1003D000DF6A5CEC1AF0B0EC18F05CEC1AF0D7ECC9
:1003E0001AF0EF50DF5C08E272EC17F001E3DB2A51
:1003F0007AEC1AF0DF2AF1D70FEC18F00BEC1CF0B6
:100400000C0EDB50190802E13AEF0FF00C0EFEEC77
:100410001AF0DFCFEFFF2AEC1DF0EF50E66E0C0E66
:10042000FEEC1AF0EE527AEC17F03AEF0FF00A0EEB
:10043000DB2A98D60A0EDB6A030EF36E0A0ECBECAB
:1004400017F006E2CDEC18F003E10A0EDB2AF4D730
:100450000A0EDB50030802E10F0134910F0134A3AF
:10046000FCD10DEC66F0110E06C0DBFF120E07C0CA
:10047000DBFF130E08C0DBFF140E09C0DBFF150EF7
:10048000DB6A040EF36E150ECBEC17F001E39ED081
:10049000150EE4EC17F001E196D0150EB1EC1CF04E
:1004A00001E191D0B5EC1CF0080B11E1150ECAEC7E
:1004B0001AF0DAEC17F0110FB6EC17F0040E145C1A
:1004C0005D0E1558000E1658000E17582AE2B5ECAE
:1004D0001CF0080B01E177D0150ECAEC1AF0EECF34
:1004E00020F0EECF21F0EECF22F0EFCF23F0D95065
:1004F000110F96EC1BF000012050EE5C1C6E215099
:10050000EE581D6E2250EE581E6E2350EE581F6E90
:10051000A60E1C5C0E0E1D58000E1E58000E1F5815
:1005200052E3150E59EC1AF0B0EC18F0DF6ADAEC71
:1005300018F008E272EC17F001E3DB2A7AEC1AF00B
:10054000DF2AF5D7DF6A080EDF5C09E272EC17F0EC
:1005500001E3DB2AEF50C6EC1AF0DF2AF4D7150EC0
:100560005FEC1AF0EF96B5EC1CF0070BE806E850CC
:10057000070BF36EF46EF80EEF14F310EF6E150E1A
:10058000CAEC1AF0110EDBCFEEFF120EDBCFEEFF3E
:10059000130EDBCFEEFF140EDBCFEEFFB5EC1CF03D
:1005A000070B00090AE1150E59EC1AF060EC17F080
:1005B000150E59EC1AF0EE6AED6A0FEC18F0E668C9
:1005C000E66838EF0FF0150EDB2A5BD7150EDB6AF5
:1005D000040EF36E150ECBEC17F033E2150EE4ECBF
:1005E00017F02CE0150E25EC17F0DAEC17F0110FD0
:1005F000B6EC17F0D8801C0E14544E0E15540E0E87
:100600001654000E17541AE2150E8BEC1AF0D4058E
:1006100004E1020ED46F52EC1AF0150EB1EC1CF08E
:1006200005E0150E59EC1AF060EC17F0150E75EC9C
:100630001CF060EC17F0150EEFEC18F0150EDB2A2D
:10064000C7D7DF6A040EDF5C01E3D9D00EEC1CF0E3
:1006500001E1D3D0D950180FA8EC17F0D3EC1AF061
:1006600049EC1AF0050E29EC1BF071EC1BF001E1CE
:100670008BD0180EDB5001E07DD0F2EC1CF01DE1B8
:100680006DEC19F01AE1170EDB6A190EF36E170EF6
:10069000CBEC17F009E2170EFEEC1AF0EE52EF5019
:1006A00003E0170EDB2AF1D7170EDB50190805E11E
:1006B000D3EC1CF0F10E826F6AD049EC1AF0B0EC6A
:1006C00018F0160EDB6A080EF36E160ECBEC17F060
:1006D00016E20A01770EA76F72EC17F001E3DB2A2E
:1006E000EF50E66E160EDBCFE6FFA729E552E724B2
:1006F00010EC1BF07AEC17F0160EDB2AE4D7160E7E
:10070000DB6A49EC1AF0D7EC1AF0EF50F80FF36EF1
:10071000160ECBEC17F009E272EC17F001E3DB2ABE
:100720007AEC1AF0160EDB2AECD7D950160FA8EC8B
:1007300017F00BEC1CF0F2EC1CF019E16DEC19F069
:1007400016E1170EFEEC1AF0160EDBCFEFFF49ECA8
:100750001AF01CEC1AF0070E4AEC17F0EF50E66E98
:10076000170EFEEC1AF0EE52E552E750EF6EB9ECC0
:100770001CF03DD0180EDB5002083FE1F2EC1CF0FB
:100780000EE16DEC19F00BE1D3EC1CF0826BB9ECCF
:100790001CF07FEC1AF012EC1CF057EF0EF009EC95
:1007A0001AF049EC1AF0030EC2EC1AF049EC1AF0F8
:1007B000030E4DEC1AF084EC1AF079EC1BF031ECDE
:1007C00017F0EF6A1EEC1DF01EEC1DF0D950160F4D
:1007D000A8EC17F049EC1AF0030E29EC1BF0FEEC24
:1007E00017F0B9EC1CF049EC1AF0EE6AED6A7FECF8
:1007F0001AF012EC1CF03AEF0FF0DF2A23D75CEC72
:1008000018F0100EDF5C0FE24EEC17F0020E0A013A
:10081000D45D06E1030ED46FD269D36952EC1AF0AD
:1008200063EC18F0EED7DF6A040EDF5C05E20EEC35
:100830001CF002E1DF2AF8D7040EDF5C0EE1DF6A6C
:10084000040EDF5C05E28DEC1BF002E1DF2AF8D735
:10085000040EDF5C02E10F0134930F0134A715EFA2
:100860000FF034BD41EF0FF034BB15EF0FF034A99A
:1008700025D03499348B59CF82FADF6A080EDF5CB9
:1008800008E2DF50EA6ACB0FE96E000EEAEC1AF0DC
:10089000F5D7B9EC1AF01D0FF5EC1CF01D0EDB04BA
:1008A00004E01D0EDB50020804E10A01010E836F13
:1008B00002D00A01836B190E5BEF0FF0180E545D26
:1008C00034E0DF6A545163EC1AF00A01C251020BA2
:1008D00003E08FEC17F003E00F01542B02D0010E60
:1008E000DF6E180E0F01545D02E2DF50EBE0DF50C7
:1008F0001CE0542B33EC1AF055EC1BF004E016EC22
:100900001CF0EF6E04D00A0129EC17F0EF6A29EC15
:1009100017F0050E2FEC1BF0400EDF6E0F0135A116
:1009200032EF0FF0DF8E32EF0FF00DEC66F0190EA4
:1009300006C0DBFF1A0E07C0DBFF1B0E08C0DBFF83
:100940001C0E09C0DBFF0F013551010B3AE00A0113
:10095000CD5137E0D950190F96EC1BF00F015551CE
:10096000EE5C146E5651EE58156E5751EE58166ED9
:100970005851EE58176EC7CA18F0C8CA19F01A6A4B
:100980000C68520E0D6E070E0E6EC7CA07F0C8CA6D
:1009900008F01AC009F033EC63F004C018F005C089
:1009A00019F006C01AF01B6A1ABE1B681450185CB6
:1009B0001550195816501A5817501B5802E315EFC6
:1009C0000FF00F01348933EC1AF0D4C0EFFF29EC9B
:1009D00017F0D3C0EFFFB9EC1AF01E0FF5EC1CF0C6
:1009E0001E0EDB0404E01E0EDB50020804E116ECD0
:1009F0001CF0EF6E04D00A0129EC17F0EF6A29EC25
:100A000017F0050E2FEC1BF0DF6A0F013551010BBB
:100A100008E00A01CD5105E10F013551020B01E05B
:100A2000DF8E9DEC1BF0D3C0E6FFD4C0E6FF38EFAD
:100A30000FF0FE0EDB50490A02E146EF0FF0010A0B
:100A400002E141EF0FF00F0A02E1F3EF0EF0010AAD
:100A500002E1D9EF0EF0030A02E1D4EF0EF0010A31
:100A600002E1CFEF0EF0070A02E1ADEF0EF0010A4E
:100A700002E193EF0EF0030A02E18CEF0EF0720A2E
:100A800002E190EF0DF0010A02E185EF0DF01C0A82
:100A900002E160EF0DF0040A02E13FEF0DF0030AFE
:100AA00002E1DDEF0BF00C0A02E1D7EF0BF0070AD1
:100AB00002E1C4EF0BF03E0A02E14DEF0BF0070A32
:100AC00002E11DEF0BF00D0A02E1DDEF0AF0040A6E
:100AD0002CE0030A02E05AEF0FF0DF6A190EDF5C28
:100AE00008E2F9EC1CF0EF500A019C5D02E0DF2AFD
:100AF000F5D7190EDF5C02E115EF0FF0B6EC1AF036
:100B0000EF500AE0B6EC1AF0EFCF9CFA340EF36E19
:100B10001F0EF3CFDBFF02D01F0EDB6AB6EC1AF01C
:100B2000EF6A1F0EDB505BEF0FF0280E84CADBFF6D
:100B3000290E85CADBFFE3EC14F0E76E200E44ECCF
:100B400018F0210E44EC18F0220E44EC18F0230E9D
:100B500044EC18F0240E44EC18F0250E44EC18F088
:100B6000260E44EC18F0270EE7CFDBFF210EDBA2A8
:100B70001FD0000EE66EE66A010EE66E080EE66E07
:100B8000280EDBCFE6FF290EDBCFE6FF820EE66EF6
:100B90000A0EE66E84CAE6FF85CAE6FFEFEC4DF06A
:100BA000146E0A0EE15E1450000902E1C1EF0BF071
:100BB0000A01921D01E1931D08E077EC19F001E0B4
:100BC000F1D2FF0EED1801E0EDD234EC1BF02FE076
:100BD000DF6A030EDF5C2BE21BEC1CF026E0240E28
:100BE000DBCF14F0250EDBCF15F047EC1CF05EECEC
:100BF0001CF0EECF16F0EFCF17F0000116501418CE
:100C000014E11750151811E147EC1CF068EC1CF0CA
:100C1000EF50F36E270EDB50F35C07E1DFCFE6FF0A
:100C20008AEC14F0E552C1EF0BF0DF2AD2D734EC96
:100C30001BF001E032D2E3EC14F0DF6EDF0402E0DF
:100C4000C1EF0BF00F013451800B02E1C1EF0BF04B
:100C5000D0EC1BF005E1DB51151802E1C1EF0BF000
:100C60002B0EDB6AD9502C0F146E20EC1CF001E324
:100C7000DB2A010EEF6EDF6EDAEC18F00AE2CAEC46
:100C800018F072EC17F001E3DB2A7AEC17F0DF2A98
:100C9000F3D7310EDB50E76E320EE7CFDBFF310EBC
:100CA000DB2A0A019D512AEC19F004E6D80E145CE7
:100CB000000E155802E2310EDB2A9D512AEC19F084
:100CC00004E6B40E145C000E155802E2310EDB2A65
:100CD0009D512AEC19F004E6900E145C000E155894
:100CE00002E2310EDB2A6C0E9D5D02E2310EDB2A40
:100CF000480E9D5D02E2310EDB2A240E9D5D02E26C
:100D0000310EDB2A2D0EDBCFE6FFD6EC1BF008EC14
:100D100018F02E0EDDEC1BF001E12CD10A01921D22
:100D200001E028D1931D01E025D1330EDB6A040ECA
:100D3000F36E330ECBEC17F01DE2330EE4EC17F03C
:100D400016E0330E16EC1BF0EFCF14F02E0EDB5036
:100D5000145C0DE1330E1AEC1BF072EC19F0240E4A
:100D6000DB50151803E1250EDB50161803E0330E97
:100D7000DB2ADDD7040EF36E330ECBEC17F032E234
:100D80005BEC19F0330E25EC17F0C2EC17F0310EC6
:100D9000DBCF14F0330E9FEC1CF0EF50D8801454CE
:100DA00002E2C1EF0BF09FEC1AF0AAEC1AF003E19B
:100DB000300EDB50151809E03AEC1BF05EE09AECBF
:100DC0001BF05BE1C251010B58E1ADEC3CF00A01B4
:100DD000A9B115EF0FF0330EA4EC1CF0310EEFCFDC
:100DE000DBFF43D0D950340FA8EC17F0D950330FA4
:100DF000A8EC17F0D6EC1BF0C3EC10F014EC18F0D4
:100E0000000902E1C1EF0BF0330E16EC1BF02E0EC1
:100E1000DBCFEFFF330E1AEC1BF0C4EC19F09FECA4
:100E20001AF0330E5FEC1AF0F80EEF140309EF6EB0
:100E3000330E5FEC1AF0EF86310EAAEC1AF003E1E4
:100E4000300EDB50151809E03AEC1BF016E09AEC76
:100E50001BF013E1C251010B10E1ADEC3CF00A01B3
:100E6000A9B115EF0FF039EC19F0D9502C0FA8ECFF
:100E700017F0330EDBCFE6FFD6D0010EF36E2B0E4C
:100E8000F3CFDBFFDB5002E1C1EF0BF0F9EC19F01F
:100E900002E0C1EF0BF0330EB1EC1CF008E10E0ED6
:100EA0003EEC1CF0330E59EC1AF023EC1CF0330E20
:100EB000B1EC1CF002E1C1EF0BF0D9502C0F146E15
:100EC0006AEC18F0330E59EC1AF0350EEECFDBFF5A
:100ED000360EEDCFDBFFDF6ADAEC18F00EE272ECD3
:100EE00017F001E3DB2AEF50E66EBAEC17F001E3EE
:100EF000DB2A7AEC17F0DF2AEFD7BAEC17F001E320
:100F0000DB2A16EC19F0BAEC17F001E3DB2A7AECD5
:100F100017F0BAEC17F001E3DB2AAEEC19F0BAECEB
:100F200017F001E3DB2AB2EC19F0BAEC17F001E399
:100F3000DB2AFDEC19F0BAEC17F001E3DB2A01EC37
:100F40001AF0BAEC17F001E3DB2A05EC1AF0BAEC60
:100F500017F001E3DB2A200EDBCFEFFFD0EC17F018
:100F6000330ECAEC1AF0C2EC17F0330ED7EC1CF0BB
:100F7000C1EF0BF02FEC19F07DEC1BF019E09AECAF
:100F80001BF016E18ACA14F08BCA15F0240EDB5050
:100F9000141803E1250EDB50151827E00A01C629B5
:100FA000E66E08EC18F02FEC19F07DEC19F01DE15D
:100FB0000001D3510A018A1901E0E3D30001D451A1
:100FC0000A018B1901E0DDD3C6CAE6FF08EC18F070
:100FD000DAC0E6FFDBC0E6FF45EC14F0176E050E45
:100FE000E15E1750000901E0CCD3EAEC18F003E110
:100FF000300EDB50151809E03AEC1BF01EE09AECBD
:101000001BF01BE1C251010B18E1ADEC3CF00A01F1
:10101000A9B115EF0FF039EC19F0D9502C0FA8EC4D
:1010200017F0040EE66E08EC18F07AEC10F0146E6F
:10103000050EE15E14503AEF0FF0DDEC1CF001E11B
:10104000B8D2F9EC19F001E0B4D2D9502C0F146EDB
:10105000DACF15F020EC1CF001E3DB2A7AEC1AF071
:1010600072EC17F001E3DB2ABCEC1CF001E3DB2A95
:10107000BCEC1CF001E3DB2ABCEC1CF001E3DB2A36
:10108000BCEC1CF001E3DB2A40EC1AF009EC1AF08E
:101090008DEC1CF084EC1AF055D2260EDB500108C2
:1010A00001E377D0D950370FA2EC1BF001E169D3EF
:1010B00072EC1CF0DAEC1AF0EF98370EDBCFE6FF9B
:1010C0008AEC14F0E55272EC1CF0D7EC1AF082CAEC
:1010D000EFFF72EC1CF00A0E4AEC17F0200EDBCF8B
:1010E000EFFF72EC1CF0090E4AEC17F005EC1AF059
:1010F00072EC1CF0070E4AEC17F0220EDBCFEEFF6D
:10110000230EDBCFEDFF72EC1CF05EEC1CF0C4ECA8
:1011100019F0260EDB04E66E72EC1CF0040E15ECE2
:101120001DF072EC1CF068EC1CF0270EDBCFEFFF1B
:1011300082CAE6FFD5EC17F072EC1CF071EC18F0E7
:1011400007E1370E27EC1DF0370E30EC18F019D3FD
:10115000DF6ACBEC19F0380E82CADBFF0A0182513C
:1011600008E0CAEC18F0E5EC19F0370E6FEC1AF055
:10117000F5D772EC1CF0DAEC1AF0EF8C010EDBCF35
:1011800084FA020EDBCF85FA380EDBCF82FA0F012C
:101190003481D0EC1BF001E096D1DB51151801E051
:1011A00092D1EFD234EC1BF001E081D1E3EC14F0EA
:1011B000DF6E040EDF5C32E1E3EC14F0DF6EADECC9
:1011C0003CF0DFAC18D00F0134870001C291DF5032
:1011D00002E1000E01D0010E0F013591E8B035811A
:1011E0003583546B35B102D0180E546FF3EC18F000
:1011F000010E14EF0FF008EC18F085EC19F002E185
:1012000015EF0FF09BEC15F00A01826B8DEC19F0D5
:1012100034EC19F028EC1CF03FEF0FF00F0134AF65
:10122000B0D2DF0401E11CD5030EDF5C40E1F9EC34
:1012300019F03DE179EC1BF0A9EC1BF0E3EC14F0A4
:10124000E76E390EE7CFDBFF84EC1CF0390EDBCF05
:10125000EFFFE3EC14F0E76E3A0EE7CFDBFF84EC30
:101260001CF03A0EDBCFEFFFADEC3CF0E3EC1BF0F3
:1012700005E1DB51151802E12AEF0EF008EC1DF034
:10128000D9503B0FA8EC17F0D3EC1AF0B7EC18F0DC
:1012900071EC1BF001E005D1DDEC1CF001E001D1A7
:1012A0000A01A66B0A017F0EA76F15EF0FF0020E61
:1012B000DF5C01E066D23C0EDB6A040EF36E3D0E8D
:1012C000F3CFDBFFD9503E0F146E20EC1CF001E38E
:1012D000DB2AEF6E010EDF6E92EC19F00AE2CAEC27
:1012E00018F072EC17F001E3DB2A7AEC17F0DF2A32
:1012F000F3D73F0EDBCFE6FF430EDBCFE6FF440E16
:10130000DBCFE6FF08EC18F0400EDDEC1BF06EE0E2
:101310003D0EDB6A040EF36E3D0ECBEC17F01DE2C2
:101320003D0EE4EC17F016E03D0E16EC1BF0EFCF8F
:1013300014F0400EDB50145C0DE13D0E1AEC1BF076
:1013400072EC19F0410EDB50151803E1420EDB5030
:10135000161803E03D0EDB2ADDD73D0EDB500408F6
:101360005EE0050EE66EE66A5EEC1BF09AEC19F0A4
:101370002CEC1CF039EC1AF00A01D46B3D0E25EC74
:1013800017F052EC1BF0EF50F36E450ECBEC17F05C
:101390000CE23D0E25EC17F052EC1BF0450EDBCFB6
:1013A000EFFF8ACAD5FA8BCAD6FA04EC18F05EECC5
:1013B0001BF01EEC1BF031EC1CF0410EDB5014183E
:1013C00003E1420EDB5015182AE0010EF36E3C0ECD
:1013D000F3CFDBFF3D0EA4EC1CF0450EDBCFE7FFA7
:1013E000EF50E726450EE7CFDBFF19D031EC1CF0BC
:1013F000220EDB50141803E1230EDB5015180FE00A
:10140000070E146E450EDBCFE7FF1450E726450E9E
:10141000E7CFDBFF010EF36E3C0EF3CFDBFF3C0E9C
:10142000DB5001E1AED1F9EC19F001E0AAD1ADEC4D
:101430003CF03D0EDB5004080DE03D0E25EC17F0AE
:101440000A0E4AEC17F0030EEECFDBFF040EEDCFD1
:10145000DBFF09D0D3EC1AF008EC18F092EC18F08E
:1014600002E115EF0FF0D9503E0F146E6AEC18F040
:10147000DF6A92EC19F008E272EC17F001E3DB2A64
:101480007AEC1AF0DF2AF5D70A0129EC17F0270EBB
:10149000DBCFEFFF29EC17F0260EDBCFEFFF0EECD2
:1014A0001AF00FEC18F055EC18F038EF0FF0E3ECF1
:1014B0001BF002E1DB51151806E077EC19F00CE1A6
:1014C000FF0EED1809E1240EDBCF8AFA250EDBCFE3
:1014D0008BFA350E5BEF0FF00F013451800B01E1F9
:1014E00050D1260EDB50010801E34BD1F9EC19F085
:1014F00001E047D1D3EC1AF0D950200FA5EC18F039
:10150000F6EC1AF0E66EB7EC18F0E66A9AEC11F019
:1015100014EC18F0E76E460EE7CFDBFFDB50030A52
:1015200016E0010A14E0060A12E0050A01E129D1D9
:10153000010A0DE108EC1DF00A01825103E0A9EC5B
:101540001BF0FAD70FEC18F055EC18F030D009EC7E
:101550001AF094EC1CF084EC1AF079EC1BF0460EB7
:10156000DB50020804E131EC17F0010E0FD0460EFB
:10157000DB50030804E131EC17F0020E07D0460EF1
:10158000DB50040805E131EC17F0040EEF6E03D0D8
:1015900031EC17F0EF6A31EC17F0B2EC19F031ECE6
:1015A00017F0AEEC19F00FEC18F02FEC19F0FEEC80
:1015B00017F0ADEC3CF03AEF0FF0DF6A080EDF5C9D
:1015C00008E2DF50EA6A8A0FE96E0A0EEAEC1AF0C6
:1015D000F5D7A8EC18F0180802E1000E01D0010EB2
:1015E000DF6EDF500CE093EC17F00A01BE510A01E8
:1015F000835D14E083CABEFAF1EC17F00FD0D3EC90
:101600000FF0000912E0F0EC0FF018080EE083CAAA
:10161000E6FF65EC0FF0E55282CA4EFFB9CA88FAC0
:10162000BACA89FA0A01826B05D00A01010E826FDB
:1016300088698969170E5BEF0FF00F01349B348DB9
:10164000D3C0E6FFD4C0E6FF85EC19F002E09BECC6
:1016500015F0080EADEC1BF034EC19F039EC1AF073
:10166000020E0F01595D16E10A0182510FE10F01CF
:101670003551010B07E00A01CD5108E10F01355149
:10168000020B04E00A01826B3FEF0FF00A01CB0E60
:101690003EEF0FF04D0E5BEF0FF0020E0A01885D7A
:1016A00070E161EC19F06DE12FEC19F07DEC1BF0AD
:1016B00019E1F0EC0FF0180864E00A01C283C18D53
:1016C000C18FDF6A080EDF5C09E2DF50EA6AB10F02
:1016D000E96E0A0EEA22EF6ADF2AF4D70A01C52B67
:1016E0002AEC1AF00A019BAD03D00A01C19902D07D
:1016F0000A01C189C19BC281020E99EC18F0780BD6
:10170000E840E840E8401F0B0A010F0BF36EF00EB3
:10171000E9EC1BF00F0B0A010F0BF36EF346F346D7
:10172000F346F3460F0EE9EC1BF0F00BE8380F0B15
:101730000A010F0BF36EF00EC115F310C16F9DCAB5
:10174000BFFA0A019B510A01C295800B01E0C285D4
:10175000020E99EC18F0800B800802E0000E01D018
:10176000010E0A01C297E8B0C28786CABBFA87CACF
:10177000BCFA8ACAB9FA8BCABAFA89CABDFA21EC8C
:101780001AF0ADEC3CF051D3A8EC18F0DF6E180E57
:10179000DF5C01E18FD3B9CA92FABACA93FA0A019F
:1017A000010E826F93EC17F0836B230E84D3E66AED
:1017B00030EC16F0E5523D0E7ED30A01885101E06F
:1017C000CBD0835105E10A01A9990A01C40EA8D220
:1017D000300EE66E8DEC61F0E552F3CF4CFFF4CFA6
:1017E0004DFF0F01F350F41007E10A0184518511F8
:1017F000EAE0FFEC18F0E7D74B6BCBEC19F0DF6AAF
:10180000200EDF5C38E24FCF14F043EC19F025E0F6
:101810008ACA14F043EC19F020E1D2EC19F0EFCFB2
:1018200014F0700E145C14E24B5185EC17F0DFCF0E
:10183000EFFFD2EC19F0EF50E66E4B5185EC17F04C
:10184000EE527AEC17F04B51FDEC1CF0EF6A4B2B8B
:10185000010EDB2A020E01E3DB2A0A01D8908D3348
:101860008C338B338A330F01D8905233513350333A
:101870004F33DF2AC5D74BCFDFFFDF50000841E2EF
:10188000010EF36E470EF3CFDBFFDBCF14F0DF0466
:10189000D880145434E3470EDB505EEC19F0EE525E
:1018A000EFCF14F036EC1CF0EE52EF50145C24E253
:1018B00036EC1CF0480EEECFDBFF490EEECFDBFF1F
:1018C0004A0EEECFDBFF470EDB5085EC17F0EECF74
:1018D00014F072EC19F036EC1CF01DEC19F0470E08
:1018E000DB5085EC17F0480EDBCFEEFF490EDBCF67
:1018F000EEFF4A0EDBCFEEFF470EDB2AC6D7DF0630
:10190000BCD70A018451851102E0FFEC18F00F01E9
:101910004B5103E135EC18F056D74A6B0A01010E22
:10192000886F146E156A166A176A40EC1BF0EF5048
:101930001F0B07E0D8901436153616361736E80612
:10194000F9E114C08AFA15C08BFA16C08CFA17C0D8
:101950008DFA53CF89FAFFD140EC1BF0D7EC1AF087
:1019600083CAEFFF0A018651871119E086CAE9FF91
:1019700087CAEAFF130E4AEC17F0B0EC18F086CADB
:10198000E6FF87CAE6FF44EC1BF00A01866B876B13
:10199000010EDBCF86FA020EDBCF87FAE3D70F0109
:1019A0004A2B4B514A5DBAE14A6B5ACF86FA5BCF5C
:1019B00087FA0A01861D01E1871D0BE040EC1BF050
:1019C00024EC19F006E00F014B514A5D02E24A2B6C
:1019D000F5D70F014B514A5D05E10A018669876918
:1019E0000F014A6B010EDF6E0F014B51DF5C1BE2F2
:1019F0004A51FDEC1CF0EFCF14F0DF50FDEC1CF071
:101A0000EF50D88014540DE20A01861D01E1871DB4
:101A100006E0DF505EEC19F024EC19F002E1DFCFB4
:101A20004AFFDF2AE1D70A01861D0DE1871D0BE180
:101A3000D6CF86FA3F0ED7140A01876F40EC1BF011
:101A400024EC19F0F5E10001DA6BDB6BF7EC46F002
:101A50000F01349F3FEC15F040EC1BF0EFCF88FAFC
:101A60000A010F0E8E6F8F6F010E826F0001C2513F
:101A70000A018293040B01E082832D0E1CD2B4EC88
:101A80001BF00A01825107E0180EDF5C01E1CDD1A5
:101A90009BEC15F0CAD1180EDF5C01E10BD2B9CA7C
:101AA0008AFABACA8BFA4ECF82FABECA83FA0A0100
:101AB000BE5104E1010EBE6FF1EC17F04C0EFBD1EC
:101AC0000F014C514D1102E035EC18F00A01825122
:101AD00002E10F01348F0A01C66B3D0EC76F140E71
:101AE000C86FCFB10AD06F0EC96F790ECA6F010EE1
:101AF000CB6FCC6BCD6BCE6BCF812AEC1AF009EC9F
:101B000016F00A01A999A9870CD10A01825101E1B5
:101B1000CFD1EB0E825D02E1826BCAD1C60EC7D176
:101B20000A01A9B703D00A01C20EC0D00A01921D52
:101B300001E093D0931D01E090D0D9504C0FA2EC5E
:101B40001BF001E1B1D06BEC1CF0DAEC1AF0EF887D
:101B50006BEC1CF005EC1DF0530EEE26070EEE228A
:101B6000000EEE22EE220A01A751146E156A7F0EB6
:101B7000D8801456000E15560A01A651166E176A23
:101B8000145016240A01826F6BEC1CF0D7EC1AF08B
:101B900082CAEFFF8B51400DF3500409E66E6BECE7
:101BA0001CF00A0E15EC1DF08351E824E66E6BEC78
:101BB0001CF0090E15EC1DF06BEC1CF0070EEFECA1
:101BC0001BF06BEC1CF05EEC1CF0EAEC19F06BEC1B
:101BD0001CF0040E4AEC17F08ACAEFFF6BEC1CF005
:101BE00068EC1CF09CCAEFFF82CAE6FFD5EC17F048
:101BF0006BEC1CF071EC18F007E14C0E27EC1DF0BB
:101C00004C0E30EC18F050D0DF6A0A01A7512AECD4
:101C100019F004E67F0E145C000E155805E2A72BA0
:101C2000A751C2EC1CF0F1D70A01826B0A01A65140
:101C300008E00A018251822BC2EC1CF00A01A607BF
:101C4000F5D76BEC1CF0DAEC1AF0EF9C0F01348145
:101C500067EC19F00A01A66BE8D0D3EC1AF08BCA36
:101C6000E6FF92CAE6FF93CAE6FF010EE66E62DB6C
:101C700014EC18F0E76E4D0EE7CFDBFFDB50010AE6
:101C800001E1D3D0010A03E00A01CF0E0FD0DF6AD1
:101C9000190EDF5C06E2B6EC1AF0EF5002E0DF2A24
:101CA000F7D7190EDF5C09E10A01F10E826F67ECCC
:101CB00019F00A01A66B340EFED0B6EC1AF09CCADD
:101CC000EFFF0A0129EC17F09CCAEFFF29EC17F08F
:101CD0008ACAEFFF51EC1CF029EC17F093CAEFFF12
:101CE00029EC17F092CAEFFF0A018351E824C6ECF1
:101CF0001AF00A018B51400DF3500409C6EC1AF09A
:101D0000D9504B0FA8EC17F00BEC1CF0F9EC1CF0C1
:101D10004B0EDBCFEFFFAED00A01A9990A01C20E2C
:101D2000826F370EC8D00A01A9890F014C514D119D
:101D300002E035EC18F08ACA4FFF8BCA50FF8CCAFC
:101D400051FF8DCA52FF89CA53FF86CA5AFF87CAFC
:101D50005BFF0A01886B280EAED00F0134950A0193
:101D6000825103E10001C29114D00001C281FF0E33
:101D70000A01825D0EE082CA40FF0DEC66F006C0EB
:101D80003CFF07C03DFF08C03EFF09C03FFF0F01F9
:101D9000348509EC16F00A01826B380E8CD00A01EA
:101DA000C20E826F390E87D00A01C20E826F3A0EC0
:101DB00082D0A8EC18F0180803E00A01C50E09D07B
:101DC000F2D8000904E00CD9DF6E180804E10A011A
:101DD000C70E826F06D0010EE66E77D8E5520A0173
:101DE000826B3B0E68D00A01A9B703D00A01C20E6C
:101DF00045D034EC19F024EC15F0E552E552000919
:101E000016E00001C2910F0134870A0182510F01CF
:101E10003591E8B035813583546B35B102D0180E59
:101E2000546FF3EC18F0020E596F000E44D0B4EC6E
:101E30001BF0180821E09AEC1BF01EE133EC1AF0BD
:101E400055EC1BF003E016EC1CF004D00A0129EC61
:101E500017F0050E2FEC1BF0400EDF6E0A018251C9
:101E600001E0DF8E9DEC1BF0B9CAE6FFBACAE6FFBF
:101E7000FEEC17F0100E1FD00A01C80E826F3C0E48
:101E80001AD00A01010E826F240E15D00A01825168
:101E90000DE1836BD8C09AFAD9C09BFA020E896F04
:101EA000D3C092FAD4C093FA310E05D0C10E826F1E
:101EB0003E0E01D0000E146E4E0EE15C02E2E16AAD
:101EC000E552E16E1450B2EF17F0ADEC17F0030ECF
:101ED000E126080EE66EE66A8A0EE66E0A0EE66EE9
:101EE00078EC1CF028EC1CF0D8C0BBFAD9C0BCFAC6
:101EF0000A01BD69010EBE6F0A0182B314D00A0146
:101F0000C199C18BC9CAB9FACACABAFA0A01C92B9E
:101F1000000ECA23FE0EC9192BE1FF0ECA1928E1D3
:101F20000F01358525D00A01C189C19BCBCAB9FAF9
:101F3000CCCABAFA0A01CE2BC751CB27C851CC2341
:101F4000060E086E096AC7CA0DF0C8CA0EF015EC75
:101F500063F00001DA510624146EDB510720156E80
:101F60000A01CB51145CCC51155802E20F013587A0
:101F70000A0182510A01C291080B01E0C281C18DA0
:101F8000C19FC28321EC1AF00A01CD2BC52B2AEC8C
:101F90001AF009EC16F0030EE15C02E2E16AE55288
:101FA000E16EB2EF17F00001C251010B17E0140E01
:101FB0000A01CD5D13E20A018251020B04E10F0117
:101FC0003551040B0CE0040E0A01C65D07E2060E53
:101FD000CE5D04E20F013551080B01E0000C010C4D
:101FE00049EC1BF049EC18F0DF6A010EDB6A180EB1
:101FF000DF5C0FE2010EDB500CE1CFEC1CF0C2B352
:1020000004D0DE52010EDD6E04D04FEC18F0DF2A52
:10201000EED7010EDB5002E0DF5001D0180E146E37
:10202000020EE15C02E2E16AE552E16E1450B2EFA9
:1020300017F049EC1BF0DF6A030EDF5C05E21BECD6
:102040001CF002E0DF2AF8D7030EDF5C08E02D0E5B
:102050003EEC1CF066EC17F071EC18F002E1000E9B
:102060003FD0FD0EDBCFE9FFFE0EDBCFEAFFDFCF77
:10207000EFFF47EC1CF00B0E4AEC17F0EF68D0ECCA
:1020800017F047EC1CF005EC1DF0C2EC17F047EC24
:102090001CF052EC1BF01DEC19F017C0EEFF2DECFC
:1020A0001DF0EF9A2DEC1DF0F00EEF140309EF6E0A
:1020B000010EDB6A180E92EC1BF00EE247EC1CF0EE
:1020C000150E4AEC17F0010EDB5083EC1BF0030EEB
:1020D000EF6E010EDB2AEED72DEC1DF0EF9C010E0A
:1020E000146E020EE15C02E2E16AE552E16E145008
:1020F000B2EF17F007EC1BF0FC0EDB50040806E013
:10210000FC0E8BEC1AF0D46B52EC1AF084EC1CF041
:10211000020EEF6E75EC18F066EC1BF0D7EC1AF0BF
:1021200040EC1AF031EC17F0FD0EDBCFEFFF31EC95
:1021300017F0FE0EDBCFEFFF75EC18F068EC1CF02B
:1021400040EC1AF075EC18F068EC1CF066EC1BF033
:102150005EEC1CF040EC1AF009EC1AF029EC17F0D8
:10216000FE0EDBCFEFFF29EC17F0FD0EDBCFEFFF0C
:1021700084EC1AF00FEC18F02FEC19F0FEEC17F0CD
:10218000E552B2EF17F007EC1BF05CEC18F04EECE8
:1021900017F0100EDF5C0AE2A2EC19F003E1FE0E6C
:1021A000DB50151803E063EC18F0F1D7100EDF5C7C
:1021B0000EE15CEC18F04EEC17F0100EDF5C07E25D
:1021C000030E0A01D45D03E063EC18F0F4D77CEC55
:1021D00018F0DFCFEFFFDF6A040EDF5C05E28DEC65
:1021E0001BF002E0DF2AF8D7BEEC18F0DFCFEFFFDC
:1021F000140E3EEC1CF06CEC17F071EC18F002E1E0
:10220000000E28D0FD0EDBCFD2FAFE0EDBCFD3FAC4
:102210000A01010ED46F52EC1AF064EC1CF052EC7F
:102220001BF0EF685BEC19F064EC1CF0C2EC17F0EB
:102230007CEC18F0EF50E66E64EC1CF0120E15EC1E
:102240001DF064EC1CF005EC1DF0EE6AED6A0F0168
:102250003483010EE552B2EF17F049EC1BF0FE0E8D
:10226000DB50050A1AE0010A15E0070A11E0010A2D
:102270000DE0030A06E0010A12E13D0EDE6E140EC7
:1022800003D05D0EDE6E030EDD6E09D08D0E03D021
:10229000150E01D0010EDE6E01D0DE6ADD6ADECFE2
:1022A00014F0DDCF15F014C0F3FF15C0F4FF020EDB
:1022B000E15C02E2E16AE552E16EB2EF17F049EC4F
:1022C0001BF05CEC18F0010EDB6A4EEC17F0A2EC90
:1022D00019F007E1FE0EDB50151803E1010EDF6E69
:1022E00007D0010EDB2A0A01050ED727000ED823DE
:1022F000100E92EC1BF002E2DF50E7E0DF500BE043
:10230000BEEC18F0D5CAEEFFD6CAEDFF7CEC18F093
:10231000D4CAEFFF04D07CEC18F0030EEF6EDF5050
:10232000146E020EE15C02E2E16AE552E16E1450C5
:10233000B2EF17F007EC1BF0FC0EDBCFE6FFFD0E53
:102340002CEC18F00CE09AEC1BF009E17CEC18F096
:10235000FC0EDBCFEEFFFD0EDBCFEDFF1AD0800EC3
:10236000E66EF6EC1BF0DAC0E6FFDBC0E6FFE66ADD
:10237000E66AE2EC18F01EE0FB0EDB50020811E00A
:102380000FEC18F0D2EC18F071EC1BF007E0DF5006
:1023900002E1000E17D0FB0EDB6A0CD0FB0EDB0453
:1023A00009E1010EE66EFE0EDBCFE6FF79D8E552BD
:1023B000E55208D0D2EC18F092EC18F002E1020ECF
:1023C00001D0000EE552B2EF17F0ADEC17F0030E9E
:1023D000E126020EDB6ADF6A040EDF5C27E28DEC89
:1023E0001BF01DE0FE0EDB501FE064EC1CF00E0E37
:1023F0004AEC17F0EFCF14F0FD0EDB50145C14E143
:1024000064EC1CF0080E4AEC17F072EC19F0FB0EAD
:10241000DB50151809E1FC0EDB50161805E1010E22
:10242000F36E020EF3CFDBFFDF2AD6D7F80EDBAE5A
:1024300003D0DE52100E02D0DE52080EDD6E020E08
:10244000DB5022E0020EDB6A5CEC18F0010EDB5080
:10245000DF5C1AE24EEC17F0D2CA14F0D3CA15F0C2
:10246000F90EDB50141803E1FA0EDB50151804E0E6
:10247000030E0A01D45D05E1010EF36E020EF3CFE7
:10248000DBFF63EC18F0E2D7020EDB50146E030E94
:10249000E15C02E2E16AE552E16E1450B2EF17F03E
:1024A000ADEC17F00B0EE126010EDB6A040E92EC88
:1024B0001BF009E2010EEA6ADB3419EC18F003E0C4
:1024C000010EDB2AF3D7010EDB50040801E147D1EE
:1024D0000B0E3EEC1CF0C8EC1CF071EC18F001E1A6
:1024E0003ED1FE0EDB5001E18BD017EC1AF068EC08
:1024F0001CF0EAEC19F017EC1AF0050EEFEC1BF0EB
:102500000A01A751166E176A7F0ED8801656000E64
:102510001756080E1626000E17220A01A6510001B2
:102520001624146E000E1720156EBFEC1CF014C09C
:10253000EFFFBFEC1CF083EC18F001E108D117ECC1
:102540001AF04DEC19F0F350040941EC1CF001E3D2
:10255000DB2A7AEC17F00A018351E82441EC1CF0E5
:1025600001E3DB2A3AEC1CF001E3DB2A92CAEFFF1D
:1025700047EC17F001E3DB2A93CAEFFF47EC17F0B3
:1025800001E3DB2ADAC0EFFF47EC17F001E3DB2AB7
:10259000DBC0EFFF040E8ACADBFF47EC17F001E354
:1025A000DB2A040EDBCFEFFF47EC17F001E3DB2A59
:1025B0009CCAEFFF0A01A7512AEC19F004E67F0E2E
:1025C000145C000E15580BE2A72BA751A1EC18F0D4
:1025D00047EC17F001E3DB2A7AEC17F0EBD7DF6A60
:1025E0000A01A651A607000974E0DF50DF2AA1EC1A
:1025F00018F047EC17F001E3DB2A7AEC17F0F0D77C
:10260000040E0A01845F000E855B17EC1AF068EC7B
:102610001CF0E0EC19F084070FEC1DF0EE527AECA0
:1026200017F08407000E0FEC1DF07AEC17F0020E85
:10263000845F000E855B080E8227BFEC1CF082CA07
:10264000EFFFBFEC1CF083EC18F001E180D017EC39
:102650001AF04DEC19F0F3CF14F0F3CFE6FFB3D935
:10266000E552E7CF14F03F0B141041EC1CF001E3EE
:10267000DB2A9CEC1AF001E3DB2A9CEC1AF001E364
:10268000DB2A9CEC1AF001E3DB2A9CEC1AF001E354
:10269000DB2A9CEC1AF001E3DB2A7AEC17F093D9E1
:1026A000FF0FE76E040EE7CFDBFFF1DB01E3DB2A70
:1026B000040EDBCFEFFF01EC1DF001E3DB2A7AEC27
:1026C00017F00A01825105E001EC1DF0F8E3DB2A66
:1026D000F6D7D0EC17F017EC1AF0070EDBDBC2ECE4
:1026E00017F0D950060FA8EC17F0D950050FA8EC39
:1026F00017F017EC1AF0050E29EC1BF044DD14EC72
:1027000018F0000921E067EC19F00A01A66B0E0E23
:102710003EEC1CF0050E59EC1AF023EC1CF0020EF6
:1027200014C0DBFF030E15C0DBFF1450151019E1B8
:102730000A01010ED46F52EC1AF0050E75EC1CF074
:10274000BFDB050EEFEC18F017EC1AF0B9DBC8ECA4
:102750001CF0B6DB010EEA6ADB341EEC18F0040E46
:102760008BD0050E16EC1BF041CFEFFF050E1AECD7
:102770001BF0EAEC19F0050E9FEC1CF0EF6A050E59
:10278000D7EC1CF0050E5FEC1AF0EF9680DB01E34E
:10279000DB2A010EEF6E7BDB01E3DB2A800EEF6E9E
:1027A0000F014151412B41EC1CF001E3DB2A22ECEB
:1027B0001DF0EF5041EC1CF001E3DB2A22EC1DF090
:1027C000AAEC19F064DB01E3DB2A3AEC1CF001E32C
:1027D000DB2AEF6A57EC19F05ADB01E3DB2A3AEC0B
:1027E0001CF001E3DB2A040EDBCFEFFF50DB01E33B
:1027F000DB2ADBC0EFFF4BDB01E3DB2ADAC0EFFFB4
:1028000046DB01E3DB2AEF6842DB01E3DB2AEF680A
:102810003EDB01E3DB2A020EEF6EFDEC1BF001E371
:10282000DB2A050EEF6E0DEC66F0070E06C0DBFF2F
:10283000080E07C0DBFF090E08C0DBFF0A0E09C047
:10284000DBFF070EDBCF14F0080EDBCF15F0090E0F
:10285000DBCF16F00A0EDBCF17F0040E145E5D0E10
:10286000155A000E165A175A050ECAEC1AF01DEC2E
:1028700019F017C0EEFF010E146E0B0EE15C02E2C0
:10288000E16AE552E16E14506DD367DBFA0EDB505E
:102890003DE0D9EC19F0FB0EDBCF16F0FC0EDBCFE0
:1028A00017F01650145C1750155832E2FB0EDBCFB0
:1028B00018F0FC0EDBCF19F0FD0EDBCF1CF0FE0E86
:1028C000DBCF1DF018C0E6FF19C0E6FF1CC0E6FF15
:1028D0001DC0E6FFFA0EDB04E66EBFDCE552E552F2
:1028E000E7CF1DF0E552E7CF1CF0E552E7CF19F036
:1028F000E552E7CF18F01C50F3241A6E1D50F42057
:102900001B6E1A50185C1B50195802E2010E01D0C0
:10291000000E28D307EC1BF0DF6A180EDF5C18E20C
:10292000DF5063EC1AF00A018A510A01B9190EE16D
:102930000A018B510A01BA1909E1FE0E82DA150E5D
:10294000A9DADF5083EC1BF0EF9002D0DF2AE5D745
:10295000E55208D30F01322B325101E1322B3251B3
:10296000120007EC1BF00A01EFEC19F0DF6A91DBB3
:10297000180EDF5C05E221EC1AF044EC1CF0F8D7ED
:102980000A01C56BCD6BCE6BCF913C0EC36FA50E0C
:10299000C46F2AEC1AF0E552E5D207EC1BF00A01ED
:1029A000030ED46FD269D3690A01EB0ED76FB60E4E
:1029B000D86FDF6A100EDF5C04E252EC1AF083DBA2
:1029C000F9D7E552CFD20A01825101E1000C82070A
:1029D00084CAE9FF85CAEAFF842B000E8523EF50E5
:1029E0001200A9EC1CF0180EDF5C0EE2CFEC1CF01C
:1029F000C2A307D08DEC19F00AEC1BF002E1DF5006
:102A000004D044EC1CF0EFD7180EE552ABD2A9EC81
:102A10001CF0180EDF5C15E2CFEC1CF0C2A30ED048
:102A2000B9CA14F0BACA15F0FD0EDB50141806E14D
:102A3000FE0EDB50151802E1DF5004D044EC1CF010
:102A4000E8D7180EE5528ED288DA080EE126ADECF2
:102A50001BF0E5DA39EC1AF0080EE66EE66ADFDA0A
:102A60000AEC1BF002E1010E01D0000E146E080EFC
:102A7000E15C02E2E16AE552E16E145073D207ECC8
:102A80001BF0DF6A06DB180EDF5C15E2CFEC1CF0F2
:102A9000C251020B0DE043DA0BE0C151F6EC1AF023
:102AA000000906E0EFEC19F00A01C50721EC1AF065
:102AB00044EC1CF0E8D72AEC1AF0E55253D24DDA78
:102AC0000A01A9810A01020E886FD8C086FAD9C00E
:102AD00087FADAC08AFADBC08BFA896FD8C09AFA13
:102AE000D9C09BFAFD0EDBCF92FAFE0EDBCF93FA34
:102AF00045DBD5C0EFFFD5C09CFA856BD950FD0FE3
:102B0000E96EFF0EDA20EA6EFF0EEE1802E1FF0E0C
:102B1000ED180EE08581FD0EDBCFE6FFFE0E9CDAA0
:102B200005E00A01C2B102D00A0185850A01859734
:102B3000010E846F17D29AEC1BF00AE10A01CD074F
:102B40000A01BDEC19F0010802E10A01CE0761D8C3
:102B50000A01EFEC19F021EC1AF00A01C5072AEF7F
:102B60001AF0A9EC1CF0180EDF5C17E2CFEC1CF099
:102B7000C2A310D0FE0EDB50BD5D0CE10A018651F0
:102B80000A01BB1907E10A0187510A01BC1902E1D8
:102B9000010E04D044EC1CF0E6D7000EE552E2D161
:102BA00049EC1BF0DF6A75DA010EDB6A180E92EC55
:102BB0001BF025E2CFEC1CF0C251020B1CE0AFD998
:102BC0001AE1F7DBB951141802E1BA5115180BE0FC
:102BD0000A01C629E66EE2EC1CF0B9CAE6FFBACAE1
:102BE000E6FF8BDB08E0CADAB9CAEEFFBACAEDFF2E
:102BF000010EDF6E04D053DA010EDB2AD7D7DF5087
:102C0000146E020EE15C02E2E16AE552E16E1450DC
:102C1000A9D10001C36B110EC46F0A01C651080D82
:102C2000F3CFC5F00001C251010B19E0140E0A01E7
:102C3000CD5D15E2180EC55D12E20F0135B502D06B
:102C40000001C58F040E0A01C65D09E2060ECE5DC5
:102C500006E20F013551080B02E10001C5851200A3
:102C60007CD9120EE126D6CF32FF0A01A96B0F01E3
:102C7000346B356B050E336F0E01C883C885DF6A70
:102C8000190EDF5C05E2B6EC1AF0EF6ADF2AF8D71E
:102C9000FE0EDB5006E10F014C514D1102E0E9EC54
:102CA0001CF00F014C6B4D6BDF6A030EDF5C10E212
:102CB000FE0EDB5008E11BEC1CF005E047EC1CF0BD
:102CC000FFD804D9FDD802D9EE6AED6ADF2AEDD724
:102CD000DF6A040EDF5C0EE2FE0EDB5007E10EEC55
:102CE0001CF004E0B9EC1CF07FEC1AF012EC1CF0C4
:102CF000DF2AEFD7DF6A040EDF5C0DE2FE0EDB5049
:102D000005E18DEC1BF002E0E7D8DAD8E5D8EE6AF1
:102D1000ED6ADF2AF0D741DEB9EC1AF0010FF5ECCD
:102D20001CF0010EDB0404E0010EDB5002081CE184
:102D3000120EE66EE66A010EDB04120D4DEC1BF07E
:102D40007A0E1426B70E1522F5DA4EDB92DB5A0EF8
:102D50000A01F45D5FE0DE525A0EDD6E010EE66E92
:102D6000D950010FF5D851D0020EDB6A030EDB6A91
:102D7000040EDB6A050EDB6A060EDB6A070EDB6AF1
:102D8000080EDB6A090EDB6A890EF36E0A0EF3CFBA
:102D9000DBFF670EF36E0B0EF3CFDBFF450EF36E1A
:102DA0000C0EF3CFDBFF230EF36E0D0EF3CFDBFF24
:102DB000010EF36E0E0EF3CFDBFFEF0EF36E0F0E70
:102DC000F3CFDBFFCD0EF36E100EF3CFDBFFAB0EB8
:102DD000F36E110EF3CFDBFF100EE66EE66AD950EC
:102DE000020FB6D801DB28EC1CF00A01F36B5A0E77
:102DF000F46F120EE66EF8DA7A0EE66EB70EE66E35
:102E00007DD8010EDF6EE66E0AD9790EE66EB70E3A
:102E1000E66E74D80E01006B016B026B036B046BE2
:102E2000056B066B076BDF6A180EDF5C03E27BD86D
:102E3000DF2AFAD7120EE15C02E2E16AE552E16EA6
:102E400091D061EC1CF01CEF1AF075EC1CF01CEF3B
:102E50001AF0A751A70710EF1BF04BEC1CF01CEF6A
:102E60001AF0A651A62B10EF1BF0120EE66EE66AC2
:102E7000D0CA14F0D1CA15F0166AD0CAE6FFD1CA7A
:102E8000E6FF16C0E6FF78EC1CF039EF1AF0020EF0
:102E9000FDEF1BF0E926000EEA221200050EE66E99
:102EA000E66AD7CA14F0D8CA15F0166AD7CAE6FF80
:102EB000D8CAE6FF16C0E6FF2CEC1CF039EF1AF07A
:102EC000EECFE6FFEFCFE6FF44EF1BF0EA6ADF3418
:102ED00030EC1DF0CEEF1AF0EA6ADF3430EC1DF072
:102EE00002EF1BF0010EDBCFE9FFDB2A020EDBCF86
:102EF000EAFF1200E552E750EF6E1200DBEC5FF0E4
:102F0000146E050EE15E14501200030DBBEF1BF0B2
:102F100030EC1DF0000EE9260F0EEA221200C1511E
:102F200065DB0108120004EC1CF0080EE9260E0E09
:102F3000EA22EE6AEE6AEE6AEE6A04EC1CF0680EB3
:102F4000E9260E0EEA22EE6AEE6AEE6AEE6A1200D8
:102F5000E66E000EDA20E66E1200D9CFE6FFE1CF72
:102F6000D9FF1200E552E7CFD9FF1200DFDB0001E5
:102F7000DDEF1AF0350EDBCFE9FFDB2A360EDBCFB3
:102F8000EAFF120006C0EEFF15C0EEFF16C0EEFF0E
:102F900017C0EEFF1200DBCFF4FFF350F45C120019
:102FA0000DEC66F006C014F0EDD38DEC61F0E55247
:102FB0004DEF1BF0EECF18F0EECF19F0EECF1AF078
:102FC000EFCF1BF0D950120075EC1CF0EE50ED1055
:102FD0001200156E166A14C0E6FFE66E16C0E6FF14
:102FE0001200120EE66E78EC1CF0DF50120D55DB6D
:102FF0003B0E1426B50E15221EEF1BF060DDE552C8
:10300000E552E552E5521200050EE66E2CEF1CF07B
:10301000240EDBCFE6FF250EDBCFE6FF1200D9CF73
:10302000E6FFDACFE6FF1200146E060EE15E1450E2
:1030300012004BEC1CF0EE50ED1012004BEC1CF0AB
:10304000EE6AED6A1200E9CF14F0EACF15F00B0E2C
:10305000DB500F0183EF1BF0DBCFE6FF7DEF1BF0B2
:1030600061EC1CF0EE6AED6A1200E9EC1CF00F0155
:103070004C6B4D6B1200EECF14F0EFCF15F000014A
:10308000DA51000114181200E7CFDBFF9CDCE76E79
:1030900012000A013B0ED06FB50ED16F12000A016B
:1030A000120ED027000ED1231200030EDBCFE6FF55
:1030B000040EDBCFE6FF1200DF6A0A01EB0ED76FCA
:1030C000B60ED86F1200DF2A0A01050ED727000EB0
:1030D000D8231200010E14C0DBFF020EDACFDBFF93
:1030E0001200B1DB145015101200FA0EDBCFE9FF0D
:1030F000FB0EDBCFEAFF1200F90EDBCFE9FFFA0E81
:10310000DBCFEAFF1200EF50E66E8DEC61F0E55286
:10311000020EF3CFDBFF030EF4CFDBFFBEDAF3507A
:10312000F41012003DDDE552E552E552E55200098A
:1031300012000A01EA6A8425E96E8551EA22EF50FD
:1031400012006EDAEF50E66E1200F0DAEF50120065
:103150008A0EE66E0A0EE66E44DCE552E552120077
:10316000010EEECFDBFF020EEDCFDBFF1200220ED1
:10317000DBCFE6FF230EDBCFE6FF1200FB0EDBCF3B
:10318000E9FFFC0EDBCFEAFF1200C30EE66E0A0E6B
:10319000E66E120018DCE66E12000A0E92DBEE50AC
:1031A000ED101200F90EDBCFE6FFFA0EDBCFE6FFE3
:1031B000F6EF1BF0DF50146E156A060E145C000E5D
:1031C00015581200E5EC11F0146E070EE15E145074
:1031D0000009120046DB2F0EDB501418120085DBAD
:1031E000EE6AED6A12000DEC66F006C055FF07C0EE
:1031F00056FF08C057FF09C058FF0F01120084CACC
:10320000E6FF85CAE6FF40DA0A01846B856B12008F
:10321000DBCF15F00001DA5114181200EF50050D44
:103220003CDAEB0E1426B60E15221200270EDBCF69
:10323000EFFF260EDB04E66E120014C0EEFF15C091
:10324000EEFF16C0EEFF1200EF50E66E8ADCE5528C
:1032500000091200146E156AD890155012008ACA1F
:10326000E6FF8BCAE6FF1200920EE66E0A0EE66ECD
:103270001200310EDBCFE7FF320EDB50E75E310E7E
:10328000E7CFDBFF1200010E1416156A166A176AE3
:1032900014501510161017101200020EDBCFEEFF9F
:1032A000030EDBCFEDFFFD0EDB50400D1200AAEC4C
:1032B00014F0E66E12000DEC66F064D2030D0F01FF
:1032C0005AD284CAE9FF85CAEAFFEF5012000A0108
:1032D000A9910A017F0EA76F12000001DB510001C6
:1032E00015181200EECF15F0EFCF16F01200D950DE
:1032F000220F1CDAFF0EEE18120045EC14F0166EC9
:10330000050EE15E16500009120007EC15F0E552BB
:10331000E552DF6E180EDF5C1200080EE66EE66AFC
:1033200078EF1CF0DF50146E156A080E145C000E66
:1033300015581200166A14C0E6FF15C0E6FF16C045
:10334000E6FF1200D2CA14F0D3CA15F0FD0EDB500E
:1033500014181200EE52EF50E66E1200250EDBCF6D
:10336000EFFF1200240EDBCFEFFF1200030EDB682D
:10337000040EDB68090EDB841200C151300BE842F9
:10338000E842E842E8421200240EDBCFEEFF250EB1
:10339000DBCFEDFF1200010E84CADBFF020E85CAEF
:1033A000DBFF1200010EDBCFE9FF020EDBCFEAFFED
:1033B0001200FD0EDBCF14F0FE0EDBCF15F0120075
:1033C0008ACAEEFF8BCAEDFF1200DF50DF2A146EAF
:1033D000156A1200DAC0EEFFDBC0EDFF1200BF6B12
:1033E000C06BC16BC26B1200E30EE66E0A0EE66E96
:1033F00012000A01A951010B1200230EDBCFEFFFCF
:103400001200220EDBCFEFFF1200210EDBCFEFFF09
:1034100012000FDB0A0EEF6E51EF1CF085DA7DDA39
:1034200018DDF3DF16DD200EDBCFEFFF1200010EFB
:10343000EA6ADB342DEF17F0EE50EFCFEAFFE96ECA
:103440001200120EE66E54DAD0CAE6FFD1CAE6FFC9
:103450007EEF17F00D0EE66E98DE2E0EE66EB50EC0
:10346000E66E7EEF17F0E5DA010EEF6E1ADA29EF5D
:1034700017F0D3EC64F0176E070EE15E17501200E0
:10348000EF50E66EEEDC7AEF17F0EA6ADB3430EFED
:103490001DF0EA6ADF342DEF17F0FCDCEF50E66E2A
:1034A0005AEF1CF0B1DDD7CAE6FFD8CAE6FF7EEFBF
:1034B00017F0CBDC05EF1DF00A0E21EF17F0C5DC8D
:1034C000130E4AEF17F0120DF3CFD0FAF4CFD1FA62
:1034D0003B0E0A01D027B50ED12335EF17F0B1DC32
:1034E0001450EE24E76E1550EE20EA6EE7CFE9FFA8
:1034F0007AEF17F0EF50E66E07DA7AEF17F0EA6A24
:10350000DF34C9D960EF17F0A4DC020EEF6EA1DC46
:10351000050EEF6E120099DC120EBCDCEF50050DAB
:10352000F3CFD7FAF4CFD8FAEB0E0A01D727B60EAD
:10353000D823B4DC0A011200DDDC01EF1DF0330EEC
:1035400084DC0A0EA7DC3CDF330EF9D9310EDBCF69
:10355000EFFF1200DBCFE6FF320EDB50E552E75CF7
:10356000E66E330EF1D9C6DCEAEF18F042DAEE521D
:103570001200010EE66EE66A790E146EB70E29DDB2
:10358000D950120087DCE6DE5AEF1CF0E66E0A0125
:103590005AEF1CF05ADC040E4AEF17F0360EE926FB
:1035A0000F0EEA221200D950030FA8EF17F0020EF7
:1035B0004AEF17F0140E4AEF17F01850EE5C146E35
:1035C0001950EE58156E1A50EE58166E1B50EE58E4
:1035D000176E1200EA22EF50E66EDF50EA6A920F91
:1035E000E96E0A0EEA2286DCDF2A1200C00BE842EE
:1035F000E842E842E842E842E8421200EA6ADB3484
:1036000088EF17F05C0EE9260F0EEA221200A5DC07
:10361000E6521200D7D960EC64F006DD0009120012
:10362000EA6A000FE96E0A0EEA2212000EDC0E0EA4
:103630004AEF17F00ADC080E4AEF17F014C0E6FF55
:1036400015C0E6FFDBEC5FF0166E050EE15E16506E
:10365000120020DCEECFE6FFEFCFE6FF1200EF6EA8
:1036600053D9040EEF6E1200D950200F6EDD030BFC
:10367000010812002F0EDBCFE6FF300E2CEF18F002
:103680000F014A5185EF17F020EC62F0E552E55248
:10369000120063DC020EE1261200F3CF14F0F4CF27
:1036A00015F01200100E4AEF17F0BACAEFFF29EC1E
:1036B00017F0B9CAEFFF0A01BE5112003D0E25EC0A
:1036C00017F0120E4AEC17F00EEF19F043DE31EC52
:1036D00017F010DC75EF18F0150E4AEC17F023EF19
:1036E00018F05FEC11F0A0DC00091200F1D83BEFFC
:1036F00018F00AD9030EEF6E120007EC15F0E55230
:10370000E55218081200E924E96E000EEA20EA6E7C
:103710001200D950090FA5EF18F06CEC17F0EE501D
:10372000ED101200F36E010ECBEF17F0E96EDACF59
:10373000EAFF12000A018FEF17F0E6D8DFCFEFFFA4
:103740000FEF18F005DC19EC10F0E552E552000916
:10375000120020DDD9D87AEF17F0E66EE66A2A0E5D
:10376000146E000EE9EF17F07FDDF1EC14F0E55276
:10377000E552DF6E12004C51F324E96E4D51F420F6
:10378000EA6E120007C015F008C016F009C017F065
:103790001200070E4AEC17F0EFCF9CFA0A01120054
:1037A000240EDBCF14F0250E08EF19F02F0EDBCF1F
:1037B000E6FF300EDBCFE6FF1200DBCFE6FF010EA7
:1037C000E66EE2EF18F0220EDBCF14F0230E08EFC6
:1037D00019F0C015F310C06F010E99EF18F04AEC04
:1037E00017F092CAEEFF93CAEDFF1200FC0EDBCF7A
:1037F000E6FFFD0EDBCFE6FF1200DBCFE9FFDB2AA1
:10380000030EDBCFEAFF1200DF50040DF3CFE9FF18
:10381000F4CFEAFF120049DCFEEF17F0EA6ADF346A
:1038200019EF18F0EA6ADF341EEF18F00A0129ECEC
:1038300017F0020E120066EC17F0EE50ED101200B9
:1038400049DC72EF17F0F3CFEEFF15C0EDFF120069
:10385000A8EC64F014EF18F0D20EE66E0A0EE66ED5
:103860001200DAC014F0DBC015F01200470EDB04C2
:1038700085EF17F07AEC17F047EF17F0E66ED5EF0B
:1038800017F0E66E47EF17F0DF2A4FEF18F066ECFF
:1038900017F01CEF1AF0E4D8420EE9260F0EEA22C8
:1038A000120029EC17F0DBC0EFFF29EC17F0DAC0AB
:1038B000EFFF120029EC17F07AEF17F0050E4AEF30
:1038C00017F0E3DDCEEF1AF06CEC17F01CEF1AF0F6
:1038D000030E4AEF17F04C0E21EF17F0EDDD6ADE14
:1038E000EF501200370E21EF17F0CFDD02EF1BF083
:1038F000B10EE66E0A0EE66E1200DEDDD3DEDAEC05
:1039000017F00D0FB6EF17F00A0131EF17F0D0ECFA
:1039100017F0D2DDC7DEC2EF17F029EC17F06DDD2E
:1039200029EC17F001EF1AF029EC17F017DD29EC5C
:1039300017F0B2EF19F0C0DD0B0E4AEF17F025ECCF
:1039400017F00F0E4AEF17F025EC17F0110E4AEFA3
:1039500017F05DDE49EC18F0DF6A12009EDD5CEFC7
:103960001AF0A7DDEE50ED101200150EA8DDEF5095
:1039700012008FDD60EF17F083DD72EF17F057DD77
:10398000D7EF1AF0A1EC18F020DD4C0E6FEF1AF013
:10399000010E7BDD420EE9260F0EEA22120035EC05
:1039A00017F00A01120075DD47DDC9EF1BF087DD56
:1039B000F80EEF140409EF6E1200F5DDB7EC18F005
:1039C00092EF18F0FD0EDBCFE6FFFE0EDBCFE6FF39
:1039D00012004CCFE6FF4DCFE6FF44EF1BF06CDD4D
:1039E0006CEF1BF056DD76EF1BF0A8EC17F039EF0B
:1039F0001AF0EA6ADF3488EF17F085EC17F0D7EF9A
:103A00001AF0CAEC18F047EF17F00C0E4AEF17F057
:103A10000A0129EC17F00ADC4DDF0EEF1AF0855B86
:103A200050DCE66E04DD5EEF1CF04AEC17F07AEF36
:103A300017F03DDC0A013EDF29EF17F02ADD3EDFFB
:103A400040EF1AF07AEC17F0F2DC5EEF1CF039DF91
:103A500060EF17F031DD68EF1CF019DFDAEF1AF0D4
:083A6000FE0BEA36E96E1200CC
:083A68000F0E0B01011501E135
:103A7000000C010CD3EC2AF0050EE1260B01016BC2
:103A8000DF6A090EDF5C06E2EA6ADF34DCEC2AF06A
:103A9000DF2AF7D7DF6A040EDF5C06E2EA6ADF346A
:103AA000E0EC2AF0DF2AF7D7DF6A050EDF5C04E2DC
:103AB000FCEC2AF0DF2AF9D7020EE66EE66A1E0E4B
:103AC000146EB30E3CEC2BF0010F5FEC2AF0D950D2
:103AD000010FF5EC2CF05A0EEE1802E1C30EED18B2
:103AE0001EE05A0EF36E010EF3CFDBFFC30EF36E32
:103AF000020EF3CFDBFF1AEC2BF01E0EE66EB30EB8
:103B0000F2EC2BF00D0EE66EE66A140EE66EB50EC4
:103B1000E66E2DEC61F0E552E552E552E552020EFB
:103B2000E66EE66A3B0E146EB70E3CEC2BF0030F0C
:103B30005FEC2AF0D950030FF5EC2CF07B0EEE1859
:103B400002E14E0EED181FE07B0EF36E030EF3CF75
:103B5000DBFF4E0EF36E040EF3CFDBFF020EE66EBC
:103B6000D950030FBFEC2CF03B0EE66EB70EF2EC13
:103B70002BF00A01E169E269DF6A060EDF5C03E20D
:103B8000ABEC2DF0FAD70B01006B050EE15C02E205
:103B9000E16AE552E16ED8EF2AF0D3EC2AF0350E57
:103BA000E126FE0EDB5001E0F9D20B0101A524D085
:103BB0000A01A9B121D00B01019514CB82FA16CBD1
:103BC00084FA17CB85FA18CB86FA19CB87FA1ACB69
:103BD00088FA1BCB89FA1CCB8AFA1DCB8BFA1ECB39
:103BE0009AFA1FCB9BFA20CB9CFA0A019B5102E068
:103BF00001EF22F0FEEF21F00B0101A7EAD00A014C
:103C0000A9B1D7D0DF6A040EDF5C01E3D2D0EA6A43
:103C1000DF3433EC2BF001E1CAD0B8EC2DF0080B07
:103C200001E1C5D051EC2CF00A0E65EC2AF0040E2F
:103C3000EFCFDBFFB8EC2DF0070B00093EE151ECB4
:103C40002CF00B0E1BEC2DF0A8EC2CF00D0E65ECFF
:103C50002AF0EFCF89FAA8EC2CF06DEC2DF01FECD8
:103C60002BF0A8EC2CF00E0E65EC2AF0EFCF9AFAB0
:103C7000A8EC2CF00F0E65EC2AF0EFCF9BFA2AECA3
:103C80002EF0EE50ED1008E02AEC2EF07AEC2AF03F
:103C90002AEC2EF0EE6AED6AEA6ADF345BEC2CF077
:103CA000C4EC2DF0E0EC2AF079EC2BF042EC2CF097
:103CB0007AEC2AF079EC2BF0EED251EC2CF038ECC7
:103CC0002EF0EFCF8AFAB8EC2DF0F00BE842E84284
:103CD000E842E8420A018B6F51EC2CF0070E1BEC16
:103CE0002DF051EC2CF0C4EC2CF0EECF92FAEDCF8D
:103CF00093FAE1EC2BF0A8EC2CF00C0E5CEC2DF020
:103D0000AEEC2BF0A8EC2CF0B7EC2BF0BCEC2DF0CB
:103D1000DF0BC8EC2DF0BCEC2DF05AEC2BF007E0DB
:103D2000A8EC2CF00F0E58EC2CF047EC2DF051ECD9
:103D30002CF0090E58EC2CF0E66E63EC2CF051ECF4
:103D40002CF07FEC2DF051EC2CF0EE527FEC2DF0AE
:103D5000A8EC2CF00E0E58EC2CF0E66E63EC2CF078
:103D6000010EDB6A0A018251EEEC2AF007E216EC42
:103D70002EF02AEC2EF0CFEC2DF0F4D7BCEC2DF089
:103D8000200B01E0010E836F51EC2CF00C0E65EC62
:103D90002AF005EC2CF0F46EF80EEF14F310EF6E31
:103DA00051EC2CF00C0E65EC2AF0EF96E0D1DF2AF6
:103DB0002AD7DF6A040EDF5C07E2EA6ADF3433ECFD
:103DC0002BF002E1DF2AF6D7040EDF5C02E10B01E3
:103DD00001970B0101A386D00DEC66F0050E06C01D
:103DE000DBFF060E07C0DBFF070E08C0DBFF080E77
:103DF00009C0DBFFDF6A090EDF5C66E2ABEC2AF08C
:103E000061E03EEC2CF00C0E58EC2CF05BE03EEC4C
:103E10002CF0EECF1CF0EECF1DF0EECF1EF0EFCF6A
:103E20001FF0D950050FF5EC2CF000011C50EE5C92
:103E3000186E1D50EE58196E1E50EE581A6E1F5017
:103E4000EE581B6E18C006F019C007F01AC008F033
:103E5000096EFAEC62F007C014F008C015F009C052
:103E600016F00AC017F00C6A7C0E0D6E120E0E6E64
:103E7000480E0F6E7CEC63F0010A24E121EC2EF079
:103E800004E03BEC2CF00C0E13D0D5EC2DF00DE142
:103E900070EC2DF005E055EC2CF0D4EC2CF004D0B7
:103EA00055EC2CF0BAEC2CF0EF6E55EC2CF0080E23
:103EB00041EC2DF07BEC2DF0200B04E18FEC2DF08C
:103EC0004DEC2DF0DF2A97D7DF6A090EDF5C05E2A3
:103ED000ABEC2AF002E1DF2AF8D7090EDF5C02E141
:103EE0000B0101930B0101A1F4EF26F00A01A9B126
:103EF00043D1DF6A050EDF5C01E33ED1BBEC2AF063
:103F000001E138D137EC2CF0060E58EC2CF0FF080C
:103F10000BE183EC2DF07AEC2AF083EC2DF0EE6AC5
:103F2000ED6AF3EC2DF026D137EC2CF0080E58ECAE
:103F30002CF0080B01E11ED137EC2CF0060E58ECEA
:103F40002CF056EC2AF00001DA510A01AA1957E1C7
:103F50000001DB510A01AB1952E10A0180518111C4
:103F600001E00AD11EEC2EF058EC2CF0E66E8DEC40
:103F700061F0E552F3CF80FAF4CF81FAF350F410F8
:103F800003E1CCEC2DF0F8D080CA84FA81CA85FA1E
:103F90001EEC2EF01BEC2DF00A01886B93EC2DF03B
:103FA000E6EC2BF002E0000E01D0010E896FACCAE6
:103FB0009BFAADCA9CFA37EC2CF0EECF86FAEDCF27
:103FC00087FA010EDB6A8251EEEC2AF012E216EC5F
:103FD0002EF083EC2DF000EC2BF0010EDB50EA6AA2
:103FE0008425E96E8551EA22C7EC2AF0010EDB2A0E
:103FF000EAD7CCEC2DF09B5101E003D2FFD10A01AE
:104000000A0E8A6F010E8B6F1EEC2EF01BEC2DF04A
:10401000AACA92FAABCA93FAE1EC2BF0010EDB6A62
:10402000090EEEEC2AF00AE2A2EC2DF042EC2CF0A4
:10403000EE50ED1003E0010EDB2AF2D7010EDB504B
:10404000090801E199D0110E6AEC2DF0A2EC2DF0D7
:1040500042EC2CF0B4EC2AF001E18ED093EC2DF080
:10406000C8EC2DF05BEC2AF0ACCAEFFF5BEC2AF059
:10407000ADCAEFFF37EC2CF07FEC2DF037EC2CF0D5
:10408000EE527FEC2DF037EC2CF0080E58EC2CF0B3
:10409000100B07E037EC2CF0070E58EC2CF047EC37
:1040A0002DF066EC2CF00D0E65EC2AF0010EEF6E93
:1040B00037EC2CF0070E58EC2CF0E66E66EC2CF08A
:1040C0000E0E65EC2AF0C7EC2AF066EC2CF00F0E11
:1040D00065EC2AF0ACCAEFFF66EC2CF06DEC2DF02D
:1040E000AACAEEFFABCAEDFF97EC2DF0EF9893EC68
:1040F0002DF0400B03E097EC2DF0EF8897EC2DF0BE
:10410000EF9AAEEC2BF066EC2CF0B7EC2BF0DF5016
:10411000146E97EC2DF0F5EC2BF066EC2CF00C0EF9
:104120005CEC2DF09BEC2DF005EC2CF0F80EEF1470
:10413000F310EF6E9BEC2DF0EF96010EDB6A0A0197
:104140008251EEEC2AF007E216EC2EF083EC2DF013
:10415000CFEC2DF0F4D7836B93EC2DF0200B01E026
:10416000010E836F0A01A72905EC2DF0EF9A0B01D0
:104170000183BFD1DF2ABED6DF6A050EDF5C05E210
:10418000BBEC2AF002E1DF2AF8D7050EDF5C02E083
:10419000F4EF26F00B010191F4EF26F0FE0EDB5058
:1041A0006A0A02E1DBEF26F0020A02E1B9EF26F02B
:1041B0000E0A02E19DEF26F0020A02E170EF26F0FE
:1041C000060A02E1F2EF25F0370A02E1BFEF25F01F
:1041D000070A02E192EF25F01D0A01E1EAD27A0A0C
:1041E00001E179D0010A02E0F4EF26F0DF6A090E5E
:1041F000DF5C02E3F4EF26F0ABEC2AF06AE03EEC81
:104200002CF00C0E58EC2CF00A019C5D62E17BEC6A
:104210002DF0100B02E082515CE021EC2EF03EE02C
:1042200082510DE03BEC2CF00C0E41EC2DF03BEC00
:104230002CF00B0E65EC2AF082CAEFFF4AD03EEC60
:104240002CF00D0E65EC2AF0EFCF89FA30EC2EF051
:104250001FEC2BF03EEC2CF00E0E65EC2AF0EFCFAD
:104260009AFA3EEC2CF00F0E65EC2AF0EFCF9BFA99
:104270002DEC2EF0EE50ED1008E02DEC2EF07AEC47
:104280002AF02DEC2EF0EE6AED6A3BEC2EF08FEC6E
:104290002DF0C4EC2DF0DCEC2AF0BBD3825103E00E
:1042A000D5EC2DF00DE170EC2DF005E055EC2CF087
:1042B000D4EC2CF004D055EC2CF0BAEC2CF0EF6ED2
:1042C00055EC2CF0080E41EC2DF08FEC2DF04DEC60
:1042D0002DF0DF2A8CD74CEC28F0E76E090EE7CFE3
:1042E000DBFF44EC2DF0000904E044EC2DF0020863
:1042F00022E1D1EC2CF004E175EC2AF0100B04E182
:104300004CEC28F00B011F6F4CEC28F00B01206FD8
:104310004CEC28F00B01186F4CEC28F00B01196FD6
:10432000D1EC2CF004E175EC2AF0100B04E04CEC1D
:1043300028F00B011E6F44EC2DF0000901E0E7D0DE
:1043400050EC2DF00AE060EC2DF007E0D1EC2CF001
:104350005BE175EC2AF0100B57E1D1EC2CF003E196
:104360000B011A6B03D00B01010E1A6F75EC2AF0CA
:10437000400B2EE0018582CA14FB84CA16FB85CA55
:1043800017FB60EC2DF002E0000E01D0010E1B6F58
:104390008ACA1CFB8BCA1DFB7DEC2BF0E1EC2BF0D9
:1043A000090EDB9CDB90DB82DB9A010E836FD1EC84
:1043B0002CF005E1090EDB88F7EC2DF002D0DBECE8
:1043C0002CF0C7EC2CF05BEC2AF01FCBEFFF91D068
:1043D0001ACB88FA60EC2DF002E0000E01D0010E3D
:1043E0000A01896F1FCB9BFA20CB9CFA18CB86FA67
:1043F00019CB87FA1ECB9AFA9B5103E15A0EF5EFBF
:1044000026F0510EF5EF26F0D1EC2CF001E0CED1E4
:10441000DF6A050EDF5C05E2BBEC2AF002E0DF2A72
:10442000F8D7050EDF5C01E1C1D1DBEC2DF001E135
:10443000BDD120CBE6FF1ECBE6FF8ACAE6FF8BCAC2
:10444000E6FF99EC2BF0FF085FE0090EDB9848ECE3
:104450002EF0090EDBCFEFFF48EC2EF0EF8A1EECBA
:104460002EF065EC2AF082CAEFFF37EC2CF018CB67
:10447000EEFF19CBEDFF9BEC2DF0EF98CCEC2DF07F
:1044800037EC2CF0080E41EC2DF082CAE6FF3FEC31
:104490002EF03AE083EC2DF09FEC2BF00A018251D4
:1044A00009E0EBEC2BF028EC2DF001E3DB2AC7EC64
:1044B0002AF0F4D70B010181ADEC3CF075EC2AF049
:1044C000400B1BE037EC2CF0D4EC2CF0EF6E7DECC5
:1044D0002BF0090EDB98DB9CDB90DB82DB9ADBECBC
:1044E0002CF0C7EC2CF0AAEC2BF001E0010E0A0135
:1044F000836F0A01A981F2EF26F037EC2CF0BAECB9
:104500002CF0EF6EEAEF26F0F3EC2DF04FD144ECF7
:104510002DF002084DE1DF6A090EDF5C01E346D1B0
:10452000ABEC2AF043E03EEC2CF00D0E58EC2CF0F6
:1045300002080EE130EC2EF0C0EC2BF0D1EC28F0AC
:10454000D7EC2CF033E1E1CA1CFBE2CA1DFB06D01C
:1045500030EC2EF0EECF1CFBEDCF1DFB0A018A5193
:104560000B011C1923E10A018B510B011D191EE1DE
:1045700050EC2DF00BE144EC2DF0010812E0FDECC5
:104580002DF014E102EC2EF00CE010D075EC2AF0C6
:10459000100B04E1FDEC2DF004E008D002EC2EF04D
:1045A00005E1ADEC3CF00A01826B37D6DF2AB4D7C7
:1045B00044EC2DF0010801E0F9D04CEC28F0E76E56
:1045C0000A0EE7CFDBFFDB50090A01E1E6D0010A62
:1045D00001E1CDD00F0A01E1BAD0010A01E197D083
:1045E000030A01E0E3D04CEC28F0E76E0B0EE7CFB6
:1045F000DBFFDF6A100EDF5C0CE2EBEC2BF0DF5030
:10460000EA6A330FE96E0B0EEA22C7EC2AF0DF2AC2
:10461000F1D70B0EDB50010A01E0C8D04CEC28F0BA
:10462000E76E1D0EE7CFDBFFDF6A080EDF5C07E2F7
:10463000EBEC2BF0D9500C0FF9EC2CF0F6D7DF6A2D
:10464000080EDF5C07E2EBEC2BF0D950140FF9EC0D
:104650002CF0F6D7D9500C0FBFEC2CF024EC15F051
:10466000D7EC2CF027E00B0EDBCF82FA0A01330ED9
:10467000836F0B0E846F140EDBCF8AFA150EDBCF1F
:104680008BFA160EDBCF8CFA170EDBCF8DFA180ED5
:10469000DBCF8EFA190EDBCF8FFA1A0EDBCF90FA32
:1046A0001B0EDBCF91FA1D0EDBCF9AFAADEC3CF07E
:1046B000630E9BD30A01010E826F330E836F0B0EC4
:1046C000846F0C0EDBCF92FA0D0EDBCF93FA0E0E39
:1046D000DBCF94FA0F0EDBCF95FA100EDBCF96FAF4
:1046E000110EDBCF97FA120EDBCF98FA130EDBCF49
:1046F00099FA0B0EDB50010A04E1A26B1D0EDBCF11
:10470000A3FAADEC3CF00A01916B620E6ED3E4ECBF
:104710002AF003E1ADEC3CF049D09AEC2AF0DF6AD4
:10472000080EDF5C08E2EBEC2BF00CEC2CF0C7EC95
:104730002AF0DF2AF5D74CEC28F00A019A6F4CECEE
:1047400028F00A019B6F13EC2CF0650E4ED3E4ECBD
:104750002AF02CE09AEC2AF0DF6A080EDF5C03E214
:1047600030EC2DF0FAD7ADEC3CF0670E3ED3E4EC24
:104770002AF01CE09AEC2AF04CEC28F00A01826F37
:10478000E80407E0DF6A080EDF5C03E230EC2DF09E
:10479000FAD7ADEC3CF0690E28D3E4EC2AF006E041
:1047A0009AEC2AF013EC2CF06B0E1FD3ADEC3CF01E
:1047B00011D31E0EDB6A0A018CB1DB8A8CB5DB8C4F
:1047C000020E895D0DE1920EE66E0A0EE66E3BEC7E
:1047D0002AF0D7EC2CF001E099D00A01040E16D192
:1047E00089050AE1921D01E091D0931D01E08ED070
:1047F0001E0EDB94DB868AD09CCAE6FF9ACAE6FFCF
:10480000DAC0E6FFDBC0E6FF99EC2BF0FF0803E11E
:104810000A01010EFBD0DF6A050EDF5C05E2BBEC8E
:104820002AF002E0DF2AF8D7050EDF5C01E1ECD0C8
:10483000DBEC2DF001E1E8D01E0EDB94DB96D950C5
:104840001E0FF5EC2CF00A018C51010B02E0EF8AEF
:1048500001D0EF9A48EC2EF01E0EDBCFEFFF1EECDE
:104860002EF065EC2AF0A6CAEFFF37EC2CF086CAD2
:10487000EEFF87CAEDFFCCEC2DF037EC2CF0070EE5
:1048800065EC2AF09ACAEFFF9BEC2DF0EF88A6CAE0
:10489000E6FF3FEC2EF032E083EC2DF09FEC2BF0A6
:1048A000010EDB6A0A01A651A60700090CE0010E01
:1048B000DBCFF3FFDB2AF35037EC2BF001E3DB2AED
:1048C000C7EC2AF0EFD7D9501E0FF5EC2CF0EF50C3
:1048D000400B05E037EC2CF0D4EC2CF004D037EC96
:1048E0002CF0BAEC2CF0EF6E37EC2CF0080E41EC0B
:1048F0002DF00B0101810A01826B89D04AEC2CF06A
:1049000035EC2DF0020EE9260B0E7BD0DF6A090E86
:10491000DF5C05E2ABEC2AF002E0DF2AF8D7090EF3
:10492000DF5C72E0110E6AEC2DF08FEC2DF0B4EC30
:104930002AF06AE0010EDB6A040EDF5C08E2A2ECFA
:104940002DF033EC2BF003E0010EDB2AF5D7010E3E
:10495000DB5004084FE00D0E6AEC2DF0A2EC2DF0B8
:104960005BEC2CF0B4EC2AF045E03EEC2CF00C0EA5
:1049700065EC2AF0EF6A3EEC2CF00D0E65EC2AF0A7
:1049800089CAEFFF3EEC2CF00E0E65EC2AF09ACAB5
:10499000EFFF3EEC2CF00F0E65EC2AF09BCAEFFF08
:1049A00030EC2EF092CAEEFF93CAEEFF94CAEEFFEF
:1049B00095CAEEFF96CAEEFF97CAEEFF98CAEEFFC1
:1049C00099CAEEFF010EDB50146E9EEC2DF0F5EC53
:1049D0002BF09EEC2DF0EF989EEC2DF0EF8AA6CAFE
:1049E000E6FFAFEC2AF02DEC2EF0B4EC2AF013E148
:1049F0003BEC2EF08FEC2DF035EC2DF0210EE9265E
:104A00000B0EEA22EE6AED6A0A01F10E826FFDECEE
:104A10002BF0500EEAD13BEC2CF086CAEEFF87CA91
:104A2000EDFF3BEC2CF038EC2EF08ACAEFFF3BECAC
:104A30002CF0090E5CEC2DF03BEC2CF00A0E65EC32
:104A40002AF0DFCFEFFF1BEC2EF092CAEEFF93CAE5
:104A5000EDFF3BEC2CF0070E65EC2AF0A6CAEFFF49
:104A60000A018B51146EC0EC2DF014500F0BF36E35
:104A7000F346F346F346F3460F0EEF14F310EF6ED2
:104A80003BEC2CF00C0E41EC2DF08CA508D09EECEC
:104A90002DF0EF88C0EC2DF033EC2CF005D0C0ECFD
:104AA0002DF0F80EEF140109EF6E020E895D07E19B
:104AB0001BEC2EF0E1CAEEFFE2CAEDFF0AD08951ED
:104AC00008E11BEC2EF0EE6AED6A1E0EDB84DB962D
:104AD000DB883BEC2CF0060E65EC2AF01E0EDBCFDB
:104AE000EFFF3BEC2CF0060E65EC2AF08C51010B2D
:104AF00002E0EF8A01D0EF9A2AEC2EF09FEC2BF027
:104B0000DF6A0A01A651A607000909E0DF50DF2A83
:104B100037EC2BF001E3DB2AC7EC2AF0F2D70B01CC
:104B2000018756D18A0EE66E0A0E4CEC2BF007E098
:104B30001F0EB9CADBFF200E3AEC2DF003E10A018B
:104B4000030E1AD0210EB9CADBFF220EBACADBFF50
:104B50009BCAE6FF210EDBCFE6FF220E18EC2CF0FD
:104B60001F0EDBCFE6FF200EDBCFE6FF6DD9146E04
:104B7000070EE15E14500A01826F560E36D10A010B
:104B8000A9B703D00A01040E2AD08A0EE66E0A0ED7
:104B90004CEC2BF007E0230EB9CADBFF240E3AECF5
:104BA0002DF003E10A01030E1AD0250EB9CADBFF6E
:104BB000260EBACADBFF9BCAE6FF250EDBCFE6FF57
:104BC000260E18EC2CF0230EDBCFE6FF240EDBCFF5
:104BD000E6FF70DA146E070EE15E14500A01826F70
:104BE000590E03D1010EF36E270EF3CFDBFF2B0E10
:104BF00091CADBFFF1EC2CF0050E0BEC2DF0DF6A17
:104C0000100EDF5C0EE283CA14F084CA15F0DF5088
:104C10001424E96E000E1520EA6E7FEC2DF0DF2AD9
:104C2000EFD70A018251010A29E10A015BEC2AF05F
:104C3000A3CAEFFFDF6A080EDF5C06E20CEC2CF083
:104C40007FEC2DF0DF2AF7D7080EE66EE66A2A0E13
:104C5000146E000E3CEC2BF02C0F5FEC2AF0DF6A98
:104C6000080EDF5C0BE2D9502C0F2EEC2CF0DBECA5
:104C70002BF0EF50C8EC2DF0DF2AF2D70A01A25139
:104C800008E0D950280FF5EC2CF09A0EEE6E0A0EC3
:104C900007D0D950280FF5EC2CF0920EEE6E0A0ECC
:104CA000ED6EAAEC2BF003E1270EDB5002E1000EC3
:104CB00001D0010EE66E280EDBCFE6FF290EDBCF1A
:104CC000E6FF9CD8E552D7EC2CF001E181D02B0E09
:104CD000DB5003E00A01010E84D00A01836B82D00D
:104CE000010EF36E340EF3CFDBFF0E01C8B3DB6AA7
:104CF000F1EC2CF0060EEF6EDF6A080EDF5C0AE2C4
:104D0000DF50EA6A8A0FE96E0A0EEA227FEC2DF084
:104D1000DF2AF3D7D0DB9ACAEFFFCDDB9BCAEFFFC8
:104D2000CADB82CAEFFF340EDBCFE6FFCBEC2AF002
:104D30004FE0AAEC2BF03DE01AD0F1EC2CF0070E7E
:104D4000EF6EDF6A080EDF5C06E245EC2BF07FECCD
:104D50002DF0DF2AF7D7AAEC2BF0020A01E0010EB2
:104D6000E66ECBEC2AF034E0AAEC2BF022E0010E48
:104D700020D0F1EC2CF0080E0BEC2DF00A0182058E
:104D80000BE0DF6A080EDF5C07E245EC2BF0EF502A
:104D9000C8EC2DF0DF2AF6D7AAEC2BF0020A01E0CE
:104DA000010EE66ECBEC2AF013E0AAEC2BF001E04A
:104DB000010E0A0116D0F1EC2CF0090E0BEC2DF0CF
:104DC000AAEC2BF0020A01E0010EE66EE4DB04E13E
:104DD000FDEC2BF0000E09D0AAEC2BF001E0010E47
:104DE0000A01836F330E01D0000E146E350EE15CA4
:104DF00002E2E16AE552E16E1450DAD3D4DBE65206
:104E00000A01A9B106D0A981F0DB35DBD7EC2CF083
:104E100002E1000E17D0E1CA92FAE2CA93FAE1EC7D
:104E20002BF00A0E8A6F8B6B010EDF6EDF94DF961C
:104E3000DF8CFC0EDB5002E0DF8A01D0DF9ADFCF8F
:104E400000FA010EE552B4D3AEDB0B0EE126DF6AA9
:104E5000010EDB6A040EDB6A640EC0DB39E2040E6D
:104E6000DB5036E1FFEC2CF0D6DBDB4097EC2CF08E
:104E700056EC2DF003E0EEEC2BF0FDE1E552E714EB
:104E800024E0020EDBCFE6FFA6EC2BF003E05FECA4
:104E90002BF0FDE1E552E71418E0010EDB5063EC66
:104EA0002DF013E1FE0EDB5015180FE1FC0EDB5068
:104EB0000A01AC5D0AE1FB0EDB50AD5D06E1010EBF
:104EC000F36E040EF3CFDBFF03D0010EDB2AC4D751
:104ED000040EDB502DE1010EDB6AE66EE66ADB4074
:104EE00097EC2CF0640E7ADB0CE256EC2DF003E02C
:104EF000EEEC2BF0FDE1E552E71403E0010EDB2AB6
:104F0000ECD7010EDB50640853E0010EDB5069EC76
:104F10002CF0FD0EDBCFAAFAFE0EDBCFABFAFC0EB7
:104F2000DBCFACFAFB0EDBCFADFA0A01AE6926D0BF
:104F30000A0EAECADBFF0A0EDB50FF081FE0050EAB
:104F4000E66EE66A0A0EDB508BDBD950060FB7DA45
:104F5000060EDBCF14F0070EDBCF15F0F90EDB5099
:104F60001418E9E1FA0EDB501518E5E1F80EDB50F4
:104F7000F36E080EDB50F35CDEE16DD0DF6A86EC89
:104F80002DF097EC2CF0640EDF5C09E2030EA3DB3E
:104F900003E0EEEC2BF0FDE1E552E71404E1010E35
:104FA000DB50DF5C02E1DF2AEAD7640EDF5C02E15E
:104FB000870E52D0050EAECADBFFDFCFAEFADFDAC6
:104FC000F90EDBCFAAFAFA0EDBCFABFAF80EDBCF85
:104FD000ACFA050EDBCFAEFADF5069EC2CF007EC33
:104FE0002EF097EC2CF0B2DB02E069DBFEE117DB80
:104FF0001FEC2CF0140F146EB50E6BDAFFEC2CF0D6
:10500000A5DB02E05CDBFEE1146E020EDBCFE7FF06
:105010001450E7120CEC2EF01FEC2CF0210F146E44
:10502000B50E57DA86EC2DF097EC2CF0D4DA02E0CE
:1050300046DBFEE1F4DADF50E8404EEC2CF086EC83
:105040002DF061DA020F3BDAC6DA02E038DBFEE16E
:105050005EDA43EC2EF0000E146E0B0EE15C02E201
:10506000E16AE552E16E1450A3D29DDAE6520A0ECF
:10507000E66EE66AE668ECEC2CF0F6EC64F0146E92
:10508000050EE15E1450DF6A060EDF5C03E2ABEC56
:105090002DF0FAD7E5528CD20A01825101E1000CC1
:1050A000820784CAE9FF85CAEAFF842B000E8523A4
:1050B000EF50120078DA050EE126FB0EDBCFE6FF9B
:1050C000FC0EDBCFE6FF91DA34DBE76E040EE7CFB0
:1050D000DBFFDB50FF0802E1050E5AD0040EDB5067
:1050E000E76E030EE7CFDBFFDB50E0D9FF0E0A01CE
:1050F000AE5D4DE0010EAECADBFFDB50D7D9AACAC8
:1051000014F0ABCA15F0F90EDB50141839E1FA0EA1
:10511000DB50151835E1F80EDB500A01AC5D30E1CB
:10512000020EAECADBFF030EDB50C0D9020EDBCF8E
:10513000AEFA07EC2EF0C6D9EBDA010ED4DA02E0B3
:105140004DDBFEE126DBDB40A9DB030EDB50F36E1B
:10515000040EDB50F35C12E1020EDB50FF080EE19F
:105160005ADA040EDB40AED9D3DA040EBCDA02E020
:1051700035DBFEE10EDB040EDB4090DB000E08D0D9
:10518000010EDB50E76E030EE7CFDBFFAFD7050E56
:10519000146E050EE15C02E2E16AE552E16E145024
:1051A00007D201DAE652DF6A060EDF5C16E2B8D9F2
:1051B00001E1E21D10E0080EE66EE66AECEC2CF070
:1051C00014DA60EC64F0146E060EE15E145000090F
:1051D00002E1010E03D0DF2AE7D7000EE552E8D145
:1051E000E2D90B0EE1265FDA010ED92697DA96DABC
:1051F0000B0ED95E58DA38EC2EF0C2DA1CD8D7DBA9
:105200000CE1DF6A060EDF5C0CE28AD908E1E21DE0
:1052100006E10A0E0FDA75DB5CD9010E03D0DF2A36
:10522000F1D7000E146E0B0EE15C02E2E16AE5526A
:10523000E16E1450BDD1B7D9E652DF6A060EDF5CCD
:1052400013E26ED901E1E21D0DE02DDAEECF14F08C
:10525000EFCF15F01450E11905E11550E21902E104
:10526000010E03D0DF2AEAD7000EE552A1D19BD967
:10527000030EE126DF6A640EDF5C26E249DB02E012
:10528000ADDAFEE1E552E7141DE0010EDBCFE6FFEB
:10529000A2D902E014DAFEE1E552E71413E0DF5090
:1052A00063EC2DF00FE1FE0EDB5015180BE1FC0E48
:1052B000DB500A01AC5D06E1FB0EDB50AD5D02E1A7
:1052C000DF5003D0DF2AD7D7FF0E146E030EE15C48
:1052D00002E2E16AE552E16E14506AD164D90A0E25
:1052E000E126DF6A640EDF5C01E392D011DB02E0AD
:1052F00075DAFEE1E552E71401E188D0010EDBCF5B
:10530000E6FF69D902E0DBD9FEE1E552E71401E1ED
:105310007DD0DF50D8DB23E1FE0EDB5015181FE1F6
:105320005AD902E0CCD9FEE111EC2EF054D902E0BA
:10533000C6D9FEE1D9DAFF0E0A01AE5D67E06BD98E
:105340003FDB02E0BCD9FEE1E0EC2DF0050EE66E9D
:10535000E66A0A01AE5184D972DBEEDAECD7DF508F
:10536000B2EC2DF01522080E14C0DBFF090E15C09B
:10537000DBFFFF0E0A01AE5D34E0AE51AADAEBDAD4
:10538000D950030F9CD8030EDBCF14F0040EDBCFF3
:1053900015F0FD0EDB5014181AE1FE0EDB50151847
:1053A00016E139D90A010CDB02E089D9FEE1E0EC13
:1053B0002DF0070EDBCFAEFA050EE66E40DB080ED1
:1053C000DBCFE6FF090EDBCFE6FFFFDAD2D7080E10
:1053D000AFCADBFF090EB0CADBFF0A01AE5166D8C7
:1053E000C8D7DF5063D8FF0E0A01AE5D0FE18EDB38
:1053F000ADDBF1D802E063D9FEE111EC2EF033EC25
:105400002EF0E9D802E05BD9FEE16EDADF2A6AD736
:105410000A0EE15C02E2E16AE552E16EC9D0C3D84E
:10542000E4D809DFC4DA23E1180E146EE66E3BD926
:10543000EECFE6FFEFCFE6FF07EC15F008DA19E054
:105440000A01B0D9010803E0ADD9000912E1B1CADF
:10545000D9FAB2CADAFAB3CADBFAB4CADCFAB5CA04
:10546000DDFAB6CADEFAB7CADFFAB8CAE0FA010E48
:1054700001D0000E9DD097D8B8D893DE98DA0CE111
:10548000180E146EE66EB1D8F1EC14F0E0D906E017
:10549000B9CAE1FABACAE2FA010E01D0000E88D008
:1054A00095DBC4D2EFD9C2D206DAC0D212DA53DA0F
:1054B000C6DA9CEF2CF0A651A62B05EF2DF05FDA93
:1054C0009CEF2CF08BDB8EEF2CF0E926000EEA220D
:1054D0001200152214C0E6FF15C0E6FFDBEC5FF0FA
:1054E000166E050EE15E16501200D950090F7DDAD6
:1054F000EF501200EECFE6FFEFCFE6FF20EC62F0B8
:10550000E552E552120006DB09DAD9501200E81C18
:10551000146E020EDBCFE7FF1450E7160CEF2EF0EF
:105520000A0EE66EE66AEDD9F9D956DA05DA0A010D
:10553000E11D1200D9CA8AFADACA8BFADBCA8CFAE0
:10554000DCCA8DFADDCA8EFADECA8FFADFCA90FA9B
:10555000E0CA91FA1200E3DAEE50ED1012008DEC81
:1055600061F0E5524BEF2EF0F3CFEEFF15C0EDFFEB
:105570001450151012008ED9EE50ED101200E66E88
:105580005EDAAFCAE6FFB0CAE6FFE5EF2CF0E552FF
:10559000E750EF6E1200920EE66E0A0EE66E2EDCFB
:1055A000E552D7EF2CF0D9CFE6FFE1CFD9FF1200BB
:1055B000E552E7CFD9FF120065D9EE6AED6A120015
:1055C0007AD9EE6AED6A12008A0EE66E0A0EE66E6F
:1055D00026DFD7EF2CF0070EDF1478D2F36E010E22
:1055E000DBCFF4FFF350F45C1200FD0EDBCFE6FFDF
:1055F000FE0EDBCFE6FF12004DD9EE6AED6A120017
:105600001450EE24E76E1550EE20EA6EE7CFE9FF66
:10561000EF50E66E1200010EE66EE66A1200146E9E
:10562000030EDBCFE7FF1450E712030EF9D9030F87
:10563000BFEF2CF0E66ED950010FBFEF2CF0EECF8C
:1056400092FAEECF93FAEECF94FAEECF95FAEECF30
:1056500096FAEECF97FAEECF98FAEFCF99FA1200BA
:1056600081DA8EEF2CF027D9EE50ED101200CDD953
:10567000EF50E66E28EF2DF0156E166A14C0E6FFA7
:10568000E66E16C0E6FFD9501200DF50EA6A9A0FA4
:10569000E96E0A0EEA221200E66EF1EC14F0E55211
:1056A000E55218081200FD0EDBCFE9FFFE0EDBCF3E
:1056B000EAFF12000C0BE842E84201081200E8463B
:1056C000FE0B15061200AACA14F0ABCA15F0FD0EA7
:1056D000DB5014181200DBCFE6FF070EDF14146E48
:1056E000010E14521200DB50070B146E010E1452FF
:1056F0001200040EEA6ADB3412008ACA92FA8BCADC
:1057000093FA0A010A0E8A6F010E8B6F826B1200E8
:10571000D9CFE6FFDACFE6FF9CEF2CF0EECFDEFF2D
:10572000EECFDEFFEECFDEFFEECFDEFFEECFDEFF11
:1057300012009DDDE552E552E552E5521200020EDF
:10574000EECFDBFF030EEDCFDBFF1200010EDB50CF
:10575000070BBCD10E01C851020B12000DEC66F014
:1057600007C015F008C016F009C017F0120006C0F7
:10577000EEFF15C0EEFF16C0EEFF17C0EEFF1200E1
:10578000E9CF14F0EACF15F0E9CFE6FFEACFE6FF64
:105790001200E81CDF16010EE66ED9CFE6FFDACF65
:1057A000E6FF1200C151C00BE842E842E842E8427D
:1057B000E842E84212001424E96E000EDA20EA6E94
:1057C0001200AAEC14F00A019C6F12000C0BE842C4
:1057D000E8420208120060DCE66E1200E846FE0BAA
:1057E00014061200E66EE5EF2CF014500F0BF36E6A
:1057F000F00EEF14F310EF6E12000A01A9910A01E6
:105800007F0EA76F0A01A66B1200EF50070BE80688
:10581000E850070BF36E1200DF50EA6A920FE96E50
:105820000A0EEA22120038DC0A01826FADEF3CF06A
:10583000DBCFE6FF9CCAE6FF9ACAE6FF1200010E24
:10584000DB4050EF2EF0070E0A01AE153FD1E552B6
:10585000E552E552E7CF14F0145C1200146EDACF73
:1058600015F0DF501200F80EEF1404091200EA6A76
:10587000DF3450EF2AF066D954EF2AF0EA6ADF34B9
:1058800052EF2AF0FE0BEA36E96E210EE9260B0EE6
:10589000EA221200EA6ADF34E6EF2DF09FD969EFC1
:1058A0002AF0EA6ADF3454EF2AF04CD950EF2AF09C
:1058B0000CDEEF501200FE0BEA36E96E0C0EE92604
:1058C0000B0EEA221200F7DDC7EF2AF03BD952EFA8
:1058D0002AF0050DF3CFAFFAF4CFB0FA200E0A018B
:1058E000AF27B30EB0231200E81C146E010EDBCFFD
:1058F000E7FF1450E716010EE7CFDBFF9BDE43EF17
:105900002EF0DF500A0DC7D93D0E1426B70E120037
:10591000AAD9FCD81BD9020E6BEF2BF01522166A00
:1059200014C0E6FF15C0E6FF16C0E6FF1200CADD90
:10593000D950030F5FEF2AF0D3EC64F0176E070E17
:10594000E15E17501200060EC0DDAECAEFFF120076
:10595000D0DE52EF2AF0050EE66EE66AAFCA14F00A
:10596000B0CA15F0166AAFCAE6FFB0CAE6FF16C0A5
:10597000E6FF12007DD9F80EEF1401091200E66E61
:10598000000EDA20E66E1200020E65EF2AF093DDBB
:1059900020CBEFFF90DD18CBEFFF8DDD19CBEFFFB4
:1059A0001200A3DD5AEF2BF063D933EF2CF0E55250
:1059B000E552000912001BD97EDD1ECBEFFF12005D
:1059C000AE51E840C3D823EF2CF0DBEC5FF0146E4F
:1059D000050EE15E14501200D90EE66E0A0EE66E58
:1059E00012000A01A62B5BEF2AF0E96EDACFEAFF7C
:1059F000120034DF0F01DFDECADDDF2A12000BDE0A
:105A0000DB4081DD020F5FEF2AF0EA6A000FE96EEA
:105A10000A0EEA221200EF6E4EDD82CAEFFF12007C
:105A2000E7CFDBFF010EE66ED9501200EE50EFCF4C
:105A3000EAFFE96E120049DDEFCF82FA1200AA0EEA
:105A4000E66E0A0EE66E120055DD7CD8E0EF2AF015
:105A5000020EDBCFE9FFDB2A030EDBCFEAFF1200E9
:105A6000BADE13DE94DDDF2A12008ED8FE0BEA3692
:105A7000E96E1200BACADBFF920EE66E0A0E4CEF18
:105A80002BF023DDEF86120030DD030B1200E66EF3
:105A900012DDE552E750EF6E120076D8DCEF2AF007
:105AA00024DD0C0BE842E84200091200030EDBCFB4
:105AB000E6FF010E73EF2BF008DD9CCAEFFF12002A
:105AC00014DDE6EF2BF0F2DC63EF2BF0156E010E28
:105AD00015521200E66EAFEF2AF0040E65EF2AF0C1
