:020000040000FA
:06000000CDEF59F01200E3
:0600080023EF46F0120098
:0600180023EF46F0120088
:06002A005400000000A3D9
:020030000400CA
:0E0032000100D6B30000710F000002000000B4
:100040000F0133513F0B01E1000C010C1FEC19F0C3
:10005000010EE66E63EC15F0E5520D0EE66EE66AF3
:100060004A0E146E9B0ED1EC19F0C20EE66E0E0E07
:10007000E66ECFEC18F03C0E0E01C21902E1A50E9F
:10008000C31902E0F0EC13F0E55242EF16F03DEC3C
:1000900016F04C0EE1260F0133A54AD0F8EC58F0CB
:1000A000050E06C0DBFF060E07C0DBFF070E08C00B
:1000B000DBFF080E09C0DBFFD950050FCAEC19F0B1
:1000C0000F013B51EE5C146E3C51EE58156E3D51E4
:1000D000EE58166E3E51EE58176E3FCF18F0196A63
:1000E0001A6A1B6A360E0B6E6E0E0C6E010E0D6ECA
:1000F0000E6A3FCF06F019C007F01AC008F01BC007
:1001000009F03BEC59F002C018F003C019F004C02C
:100110001AF005C01BF01450025C1550035816501D
:1001200004581750055804E20001C1910F0133959E
:10013000FE0EDB5002E0BFEF04F00E01A9B17BEF31
:100140000EF00F0133A18CD1F8EC58F00D0E06C063
:10015000DBFF0E0E07C0DBFF0F0E08C0DBFF100E2B
:1001600009C0DBFF0A0EDB6A030EF36E0A0E65ECB4
:1001700016F001E361D141EC17F001E15AD1A4EC92
:100180001AF0D880880E14542A0E1554110E1654E5
:10019000000E17540BE2ACEC18F0F7EC15F00A0E59
:1001A00059EC1BF00A0EAAEC16F043D194EC1AF0AD
:1001B000200B01E03ED1090EDB94DB92B8EC1AF083
:1001C000EF50180862E0B8EC1AF00B0EEFCFDBFF2F
:1001D000DB50FF081CE1ACEC18F028EC1BF06FECD6
:1001E00016F00D0FCAEC19F022EC19F0530E145C46
:1001F000070E1558000E1658000E175840E327EC4E
:1002000018F0DB82ABEC1AF00B0EDB6A38D00B0E69
:10021000DB50B3EC18F00E01C1A312D0ACEC18F017
:100220007DEC1AF0EECF14F0EFCF15F00001145072
:100230000E01B91909E1000115500E01BA1904E1C6
:1002400017EC1BF0EF6A0FD02EEC18F002080BE150
:10025000030EB9CEDBFF040EBACEDBFF090EDB8442
:1002600017EC1BF0EF900B0EDB2AB4EC19F0040B2B
:1002700006E1180EF36E0B0E65EC16F0C8E3B8EC51
:100280001AF00B0EDBCFEFFF44D0090EDB800E011E
:10029000826B0B0EDB6A180EF36E0B0E65EC16F01C
:1002A00008E217EC1BF0EF50010B03E10B0EDB2A09
:1002B000F2D70B0EDB50180828E00E01F00E826F0B
:1002C00094EC1AF00F0B000920E0A4EC1AF0A20E37
:1002D000145C4A0E1558040E1658000E175813E3F6
:1002E000090EDB9027EC18F094EC1AF00F0BE806DF
:1002F000E8500F0BF36EF46EF00EEF14F310EF6E88
:10030000ABEC1AF002D0090EDB90B4EC19F0010B43
:1003100030E1B4EC19F0040B01E18BD0190EF36E4F
:100320000C0EF3CFDBFFB4EC19F0020B33E0ACECB6
:1003300018F07DEC1AF0B4EC16F02CE1E7EC17F0B5
:1003400029E10C0EDB6A190EF36E0C0E65EC16F04B
:1003500009E20C0E4FEC19F0EE52EF5003E00C0ED8
:10036000DB2AF1D70C0EDB50190814E10E01F10E57
:10037000826F5CEC1BF0EFCF9CFEACEC18F085ECD0
:1003800019F0EF8A94EC1AF0100B02E17BEF0EF0FB
:10039000C4EF0DF05CEC1BF0EF500CEC19F0ACEC82
:1003A00018F0040ECFEC1AF0050E09EC19F0ACECC5
:1003B00018F0050ECFEC1AF0070E09EC19F0ACECB2
:1003C00018F0070ECFEC1AF0090ECFEC1AF00A0E57
:1003D000A5EC18F0DF6AACEC18F029EC17F0ACECE7
:1003E00018F01CEC19F0EF50DF5C08E209EC16F095
:1003F00001E3DB2ACAEC18F0DF2AF1D7A0EC16F0F3
:1004000032EC1AF00C0EDB50190802E192EF0EF0FC
:100410000C0E4FEC19F0DFCFEFFF5CEC1BF0EF5050
:10042000E66E0C0E4FEC19F0EE5211EC16F092EF56
:100430000EF00A0EDB2A98D60A0EDB6A030EF36E64
:100440000A0E65EC16F006E241EC17F003E10A0E25
:10045000DB2AF4D70A0EDB50030802E10F013391C7
:100460000F0133A3D9D1F8EC58F0110E06C0DBFF11
:10047000120E07C0DBFF130E08C0DBFF140E09C00D
:10048000DBFF150EDB6A040EF36E150E65EC16F03D
:1004900001E39ED0150E79EC16F001E196D0150E11
:1004A000D2EC1AF001E191D0D6EC1AF0080B11E170
:1004B000150E0FEC19F06FEC16F0110F46EC16F05C
:1004C000040E145C5D0E1558000E1658000E1758D9
:1004D0002AE2D6EC1AF0080B01E177D0150E0FECEA
:1004E00019F0EECF20F0EECF21F0EECF22F0EFCFDB
:1004F00023F0D950110FCAEC19F000012050EE5C26
:100500001C6E2150EE581D6E2250EE581E6E235068
:10051000EE581F6EA60E1C5C0E0E1D58000E1E58C7
:10052000000E1F5852E3150EA9EC18F029EC17F035
:10053000DF6A55EC17F008E209EC16F001E3DB2A5C
:10054000CAEC18F0DF2AF5D7DF6A080EDF5C09E293
:1005500009EC16F001E3DB2AEF500CEC19F0DF2A6E
:10056000F4D7150EAFEC18F0EF96D6EC1AF0070B97
:10057000E806E850070BF36EF46EF80EEF14F31074
:10058000EF6E150E0FEC19F0110EDBCFEEFF120E11
:10059000DBCFEEFF130EDBCFEEFF140EDBCFEEFF53
:1005A000D6EC1AF0070B00090AE1150EA9EC18F0B9
:1005B000F7EC15F0150EA9EC18F0EE6AED6AA0EC58
:1005C00016F0E668E66890EF0EF0150EDB2A5BD7B2
:1005D000150EDB6A040EF36E150E65EC16F033E2B1
:1005E000150E79EC16F02CE0150EBCEC15F06FEC46
:1005F00016F0110F46EC16F0D8801C0E14544E0E57
:1006000015540E0E1654000E17541AE2150EDBEC9C
:1006100018F0D30504E1020ED36F15EC16F0150E99
:10062000D2EC1AF005E0150EA9EC18F0F7EC15F075
:10063000150E9EEC1AF0F7EC15F0150E6AEC17F09B
:10064000150EDB2AC7D7DF6A040EDF5C01E3B6D0E4
:1006500035EC1AF001E1B0D0D950180F52EC16F079
:1006600018EC19F0A1EC18F0050E66EC19F09AECF4
:1006700019F06BE0180EDB505EE11AEC1BF01DE187
:10068000E7EC17F01AE1170EDB6A190EF36E170E7E
:1006900065EC16F009E2170E4FEC19F0EE52EF5030
:1006A00003E0170EDB2AF1D7170EDB50190805E11E
:1006B000F3EC1AF0F10E826F4BD0A1EC18F029EC9C
:1006C00017F0160EDB6AA1EC18F01CEC19F0EF50D5
:1006D000F36E160E65EC16F009E209EC16F001E374
:1006E000DB2ACAEC18F0160EDB2AEDD7D950160F0C
:1006F00052EC16F032EC1AF01AEC1BF019E1E7ECB0
:1007000017F016E1170E4FEC19F0160EDBCFEFFFC6
:10071000A1EC18F089EC18F0070EE5EC15F0EF509D
:10072000E66E170E4FEC19F0EE52E552E750EF6E01
:10073000DAEC1AF03BD0180EDB5002083DE11AEC5F
:100740001BF00EE1E7EC17F00BE1F3EC1AF0826B13
:10075000DAEC1AF0D6EC18F039EC1AF0C0EF0DF024
:1007600075EC18F0A1EC18F0030E09EC19F0A1ECEF
:1007700018F0030EA5EC18F02FEC19F0C8EC15F0EA
:10078000EF6A46EC1BF046EC1BF0D950160F52EC0A
:1007900016F0A1EC18F0030E66EC19F07EEC16F0E2
:1007A000DAEC1AF0A1EC18F0EE6AED6AD6EC18F06B
:1007B00039EC1AF092EF0EF0DF2A46D7D5EC16F09E
:1007C000100EDF5C0FE2E9EC15F0020E0E01D35DB6
:1007D00006E1030ED36FD169D26915EC16F0DCEC9B
:1007E00016F0EED7DF6A040EDF5C05E235EC1AF096
:1007F00002E1DF2AF8D7040EDF5C0EE1DF6A040EA7
:10080000DF5C05E2B8EC19F002E1DF2AF8D7040E4C
:10081000DF5C02E10F0133930F0133A77BEF0EF092
:1008200033BD99EF0EF033BB7BEF0EF033A915D03B
:100830003399338B58CF82FEDF6A080EDF5C08E203
:10084000DF50EA6ACA0FE96E000E34EC19F0F5D7F2
:100850000E01836B190EB3EF0EF0180E535D22E0FC
:10086000DF6A5351B3EC18F00E01C151020B03E0E3
:1008700031EC16F003E00F01532B02D0010EDF6EB6
:10088000180E0F01535D02E2DF50EBE0DF500AE08B
:10089000532B8EEC18F00F0134A18AEF0EF0DF8E8F
:1008A0008AEF0EF0F8EC58F0190E06C0DBFF1A0EB6
:1008B00007C0DBFF1B0E08C0DBFF1C0E09C0DBFFFF
:1008C0000F013451010B3AE00E01CC5137E0D95001
:1008D000190FCAEC19F00F015451EE5C146E55510A
:1008E000EE58156E5651EE58166E5751EE58176E5B
:1008F000C6CE18F0C7CE19F01A6A0C68520E0D6EEB
:10090000070E0E6EC6CE07F0C7CE08F01AC009F06B
:100910001EEC56F004C018F005C019F006C01AF01D
:100920001B6A1ABE1B681450185C155019581650D3
:100930001A5817501B5802E37BEF0EF00F01338952
:100940006DEC1AF0D3C0EFFFC0EC15F0D2C0EFFF92
:100950004AEC1BF0DF6A0F013451010B08E00E0175
:10096000CC5105E10F013451020B01E0DF8ED9ECCF
:1009700019F0D2C0E6FFD3C0E6FF90EF0EF0FE0EF6
:10098000DB50490A02E19EEF0EF0010A02E199EF05
:100990000EF00F0A02E159EF0EF0010A02E142EFF8
:1009A0000EF0030A02E13DEF0EF0010A02E138EF1A
:1009B0000EF0070A02E116EF0EF0010A02E1FCEF69
:1009C0000DF0030A02E1F5EF0DF0720A02E1FEEF0D
:1009D0000CF0010A02E1F3EF0CF01C0A02E1CEEF89
:1009E0000CF0040A02E1B5EF0CF0030A02E153EF48
:1009F0000BF00C0A02E14DEF0BF0070A02E13DEFAC
:100A00000BF03E0A02E1C6EF0AF0070A02E198EF96
:100A10000AF00D0A02E167EF0AF0040A2CE0030A6B
:100A200002E0B2EF0EF0DF6A190EDF5C08E21DECA7
:100A30001BF0EF500E019C5D02E0DF2AF5D7190E86
:100A4000DF5C02E17BEF0EF006EC19F0EF500AE0FC
:100A500006EC19F0EFCF9CFE340EF36E1D0EF3CFB3
:100A6000DBFF02D01D0EDB6A06EC19F0EF6A1D0EEB
:100A7000DB50B3EF0EF0260E84CEDBFF270E85CEC3
:100A8000DBFF1FEC14F0E76E1E0EBDEC16F01F0E20
:100A9000BDEC16F0200EBDEC16F0210EBDEC16F0EC
:100AA000220EBDEC16F0230EBDEC16F0240EBDECAC
:100AB00016F0250EE7CFDBFF0E01921D01E1931D1D
:100AC00008E0F1EC17F001E0E9D2FF0EED1801E0CB
:100AD000E5D26CEC19F02FE0DF6A030EDF5C2BE24D
:100AE0003DEC1AF026E0220EDBCF14F0230EDBCF14
:100AF00015F073EC1AF07DEC1AF0EECF16F0EFCF94
:100B000017F000011650141814E11750151811E1D0
:100B100073EC1AF087EC1AF0EF50F36E250EDB50F1
:100B2000F35C07E1DFCFE6FFC9EC13F0E5523AEFE3
:100B30000BF0DF2AD2D76CEC19F001E030D21FECB9
:100B400014F0DF6EDF0402E03AEF0BF00F013351D7
:100B5000800B02E13AEF0BF005EC1AF005E1DA51F7
:100B6000151802E13AEF0BF0290EDB6AD9502A0F73
:100B7000146E42EC1AF001E3DB2A010EEF6EDF6E19
:100B800055EC17F00AE23EEC17F009EC16F001E321
:100B9000DB2A11EC16F0DF2AF3D72F0EDB50E76EBD
:100BA000300EE7CFDBFF2F0EDB2A0E019D51A5ECA7
:100BB00017F004E6D80E145C000E155802E22F0E52
:100BC000DB2A9D51A5EC17F004E6B40E145C000E70
:100BD000155802E22F0EDB2A9D51A5EC17F004E612
:100BE000900E145C000E155802E22F0EDB2A6C0EDC
:100BF0009D5D02E22F0EDB2A480E9D5D02E22F0E64
:100C0000DB2A240E9D5D02E22F0EDB2A2B0EDBCFAA
:100C1000E6FF0BEC1AF084EC16F02C0E12EC1AF036
:100C200001E12CD10E01921D01E028D1931D01E0BC
:100C300025D1310EDB6A040EF36E310E65EC16F031
:100C40001DE2310E79EC16F016E0310E5EEC19F073
:100C5000EFCF14F02C0EDB50145C0DE1310E62EC82
:100C600019F0ECEC17F0220EDB50151803E1230EFF
:100C7000DB50161803E0310EDB2ADDD7040EF36ECD
:100C8000310E65EC16F032E2D5EC17F0310EBCEC0B
:100C900015F057EC16F02F0EDBCF14F0310EBCEC34
:100CA0001AF0EF50D880145402E23AEF0BF0EFEC58
:100CB00018F0FAEC18F003E12E0EDB50151809E0DD
:100CC00072EC19F05EE0CEEC19F05BE1C151010B62
:100CD00058E1E6EC36F00E01A9B17BEF0EF0310ED3
:100CE000C1EC1AF02F0EEFCFDBFF43D0D950320FFB
:100CF00052EC16F0D950310F52EC16F00BEC1AF002
:100D000018EC10F0A5EC16F0000902E13AEF0BF038
:100D1000310E5EEC19F02C0EDBCFEFFF310E62ECE2
:100D200019F035EC18F0EFEC18F0310EAFEC18F0CC
:100D3000F80EEF140309EF6E310EAFEC18F0EF86EA
:100D40002F0EFAEC18F003E12E0EDB50151809E017
:100D500072EC19F016E0CEEC19F013E1C151010B61
:100D600010E1E6EC36F00E01A9B17BEF0EF0B4EC29
:100D700017F0D9502A0F52EC16F0310EDBCFE6FFF8
:100D8000D6D0010EF36E290EF3CFDBFFDB5002E16C
:100D90003AEF0BF065EC18F002E03AEF0BF0310E91
:100DA000D2EC1AF008E10E0E5CEC1AF0310EA9EC50
:100DB00018F045EC1AF0310ED2EC1AF002E13AEFDD
:100DC0000BF0D9502A0F146EE3EC16F0310EA9EC9B
:100DD00018F0330EEECFDBFF340EEDCFDBFFDF6A12
:100DE00055EC17F00EE209EC16F001E3DB2AEF50A8
:100DF000E66E4AEC16F001E3DB2A11EC16F0DF2A6E
:100E0000EFD74AEC16F001E3DB2A91EC17F04AEC3D
:100E100016F001E3DB2A11EC16F04AEC16F001E3C0
:100E2000DB2A1FEC18F04AEC16F001E3DB2A23EC76
:100E300018F04AEC16F001E3DB2A69EC18F04AECF2
:100E400016F001E3DB2A6DEC18F04AEC16F001E332
:100E5000DB2A71EC18F04AEC16F001E3DB2A1E0ED7
:100E6000DBCFEFFF60EC16F0310E0FEC19F057EC12
:100E700016F0310EF7EC1AF03AEF0BF0AAEC17F07F
:100E8000A2EC19F019E0CEEC19F016E18ACE14F0BC
:100E90008BCE15F0220EDB50141803E1230EDB502D
:100EA000151827E00E01C529E66E84EC16F0AAECB1
:100EB00017F0F7EC17F01DE10001D2510E018A196D
:100EC00001E0D8D30001D3510E018B1901E0D2D338
:100ED000C5CEE6FF84EC16F0D9C0E6FFDAC0E6FF27
:100EE00084EC13F0176E050EE15E1750000901E067
:100EF000C1D365EC17F003E12E0EDB50151809E0A5
:100F000072EC19F01EE0CEEC19F01BE1C151010B9F
:100F100018E1E6EC36F00E01A9B17BEF0EF0B4EC6F
:100F200017F0D9502A0F52EC16F0040EE66E84EC3E
:100F300016F0D3EC0FF0146E050EE15E145092EF34
:100F40000EF0FDEC1AF001E1BED265EC18F001E004
:100F5000BAD2D9502A0F146EDACF15F042EC1AF03B
:100F600001E3DB2ACAEC18F009EC16F001E3DB2AF6
:100F7000DDEC1AF001E3DB2ADDEC1AF001E3DB2AF9
:100F8000DDEC1AF001E3DB2ADDEC1AF001E3DB2AE9
:100F900001EC1BF04FEC1BF065EC1AF05FD2240E55
:100FA000DB50010872E2D950350FDEEC19F001E197
:100FB00061D3A1EC1AF085EC19F0EF98350EDBCF78
:100FC000E6FFC9EC13F0E552A1EC1AF01CEC19F0A5
:100FD00082CEEFFFA1EC1AF00A0EE5EC15F01E0E22
:100FE000DBCFEFFFA1EC1AF0090EE5EC15F071EC88
:100FF00018F0A1EC1AF0070EE5EC15F0200EDBCF8F
:10100000EEFF210EDBCFEDFFA1EC1AF07DEC1AF024
:1010100035EC18F0240EDB04E66EA1EC1AF0040E99
:1010200042EC1BF0A1EC1AF087EC1AF0250EDBCF96
:10103000EFFF82CEE6FF6AEC16F0A1EC1AF0EAECC4
:1010400016F007E1350E59EC1BF0350EAAEC16F040
:1010500011D3DF6A3CEC18F0360E82CEDBFF0E01B6
:10106000825108E03EEC17F056EC18F0350EBFEC5C
:1010700018F0F5D7010EDBCF84FE020EDBCF85FE24
:10108000360EDBCF82FE0F01338105EC1AF001E052
:10109000A6D1DA51151801E0A2D1ECD26CEC19F00E
:1010A00001E091D11FEC14F0DF6E040EDF5C34E13F
:1010B0001FEC14F0DF6EE6EC36F0DFAC18D00F0159
:1010C00033870001C191DF5002E1000E01D0010E13
:1010D0000F013491E8B034813483536B34B102D0C2
:1010E000180E536F6EEC17F0010E7AEF0EF084ECD1
:1010F00016F0FFEC17F002E17BEF0EF0D1EC14F0EC
:101100000E01826B06EC18F0AFEC17F093EC57F081
:10111000A5EC16F097EF0EF00F0133AFABD2DF0462
:1011200001E122D5030EDF5C42E165EC18F03FE1FE
:1011300098EC1AF0030EEF6EE5EC19F01FEC14F0CA
:10114000E76E370EE7CFDBFF98EC1AF0370EDBCFF8
:10115000EFFF1FEC14F0E76E380EE7CFDBFF98ECE3
:101160001AF0380EDBCFEFFFE6EC36F018EC1AF091
:1011700005E1DA51151802E193EF0DF08AEC1AF04F
:10118000D950390F52EC16F018EC19F030EC17F07A
:101190009AEC19F001E011D1FDEC1AF001E00DD14B
:1011A0000E01A66B0E017F0EA76F7BEF0EF0020EF5
:1011B000DF5C01E05FD23A0EDB6A040EF36E3B0E99
:1011C000F3CFDBFFD9503C0F146E42EC1AF001E371
:1011D000DB2AEF6E010EDF6E0BEC18F00AE23EEC3C
:1011E00017F009EC16F001E3DB2A11EC16F0DF2A08
:1011F000F3D73D0EDBCFE6FF410EDBCFE6FF420E1D
:10120000DBCFE6FF84EC16F03E0E12EC1AF001E1A3
:1012100079D03B0EDB6A040EF36E3B0E65EC16F0E4
:101220001DE23B0E79EC16F016E03B0E5EEC19F079
:10123000EFCF14F03E0EDB50145C0DE13B0E62EC80
:1012400019F0ECEC17F03F0EDB50151803E1400EDF
:10125000DB50161803E03B0EDB2ADDD73B0EDB50DC
:10126000040869E0050EE66EE66A8BEC19F0166A72
:1012700014C0E6FF15C0E6FF05EC1BF00E01D36BB2
:101280003B0EBCEC15F088EC19F0EF50F36E430EFA
:1012900065EC16F00CE23B0EBCEC15F088EC19F096
:1012A000430EDBCFEFFF8ACED4FE8BCED5FE050EEC
:1012B000E66EBCEC19F08BEC19F014C0E6FF15C01B
:1012C000E6FFC6EC52F0166E050EE15E16504AECD3
:1012D0001AF03F0EDB50141803E1400EDB501518D6
:1012E0002AE0010EF36E3A0EF3CFDBFF3B0EC1ECAA
:1012F0001AF0430EDBCFE7FFEF50E726430EE7CFB0
:10130000DBFF19D04AEC1AF0200EDB50141803E171
:10131000210EDB5015180FE0070E146E430EDBCFC5
:10132000E7FF1450E726430EE7CFDBFF010EF36E15
:101330003A0EF3CFDBFF3A0EDB5001E19BD165ECB7
:1013400018F001E097D1E6EC36F03B0EDB500408D4
:101350000DE03B0EBCEC15F00A0EE5EC15F0030EAB
:10136000EECFDBFF040EEDCFDBFF09D018EC19F058
:1013700084EC16F00BEC17F002E17BEF0EF0D95085
:101380003C0F146EE3EC16F0DF6A0BEC18F008E289
:1013900009EC16F001E3DB2ACAEC18F0DF2AF5D7D6
:1013A0000E01C0EC15F0250EDBCFEFFFC0EC15F001
:1013B000240EDBCFEFFF7AEC18F0A0EC16F0CEECA9
:1013C00016F090EF0EF018EC1AF002E1DA51151851
:1013D00006E0F1EC17F00CE1FF0EED1809E1220E2A
:1013E000DBCF8AFE230EDBCF8BFE350EB3EF0EF084
:1013F0000F013351800B01E13DD1240EDB50010878
:1014000001E338D165EC18F001E034D118EC19F0A3
:10141000D9501E0F1EEC17F040EC19F0E66E30ECC0
:1014200017F0E66AEFEC10F0A5EC16F0E76E440E4C
:10143000E7CFDBFFDB50030A16E0010A14E0060ADF
:1014400012E0050A01E116D1010A0DE18AEC1AF059
:101450000E01825103E0E5EC19F0FAD7A0EC16F08A
:10146000CEEC16F02ED075EC18F0B1EC1AF02FEC93
:1014700019F0440EDB50020804E1C8EC15F0010E2F
:101480000FD0440EDB50030804E1C8EC15F0020E47
:1014900007D0440EDB50040805E1C8EC15F0040E3B
:1014A000EF6E03D0C8EC15F0EF6AC8EC15F023EC32
:1014B00018F0C8EC15F01FEC18F0A0EC16F0AAEC30
:1014C00017F07EEC16F0E6EC36F092EF0EF0DF6AE5
:1014D000080EDF5C08E2DF50EA6A8A0FE96E0E0E42
:1014E00034EC19F0F5D721EC17F0180802E1000EE2
:1014F00001D0010EDF6EDF500CE12BEC0FF0000984
:101500000FE048EC0FF018080BE0BDEC0EF082CEB7
:101510004DFFB9CE88FEBACE89FE0E01826B05D092
:101520000E01010E826F88698969170EB3EF0EF004
:101530000F01339B338DD2C0E6FFD3C0E6FFFFEC33
:1015400017F002E0D1EC14F0080E46EC17F0AFEC07
:1015500017F0CFEC18F0020E0F01585D14E10E01E8
:1015600082510EE10F013451010B07E00E01CC5105
:1015700007E10F013451020B03E00E01826BD7D358
:101580000E01CB0ED3D34D0EB3EF0EF0020E0E01B3
:10159000885D70E1DBEC17F06DE1AAEC17F0A2ECCE
:1015A00019F019E148EC0FF0180864E00E01C1834E
:1015B000C08DC08FDF6A080EDF5C09E2DF50EA6A87
:1015C000B10FE96E0E0EEA22EF6ADF2AF4D70E01A0
:1015D000C42B1DEC16F00E019BAD03D00E01C0997B
:1015E00002D00E01C089C09BC181020E12EC17F01F
:1015F000780BE840E840E8401F0B0E010F0BF36E3C
:10160000F00E1EEC1AF00F0B0E010F0BF36EF346EB
:10161000F346F346F3460F0E1EEC1AF0F00BE838D3
:101620000F0B0E010F0BF36EF00EC015F310C06F11
:101630009DCEBEFE0E019B510E01C195800B01E0B7
:10164000C185020E12EC17F0800B800802E0000E3C
:1016500001D0010E0E01C197E8B0C18786CEBBFE56
:1016600087CEBCFE8ACEB9FE8BCEBAFE89CEBDFE39
:1016700035EC16F0E6EC36F03ED321EC17F0DF6ED9
:10168000180EDF5C01E16ED3B9CE92FEBACE93FEA6
:101690000E01010E826F230E66D3E66A63EC15F02D
:1016A000E5523D0E60D30E01885101E0CBD083514D
:1016B00005E10E01A9990E01C40E9BD2300EE66E13
:1016C00078EC54F0E552F3CF4BFFF4CF4CFF0F0111
:1016D000F350F41007E10E0184518511EAE07AEC31
:1016E00017F0E7D74A6B3CEC18F0DF6A200EDF5C9E
:1016F00038E24ECF14F0BEEC17F025E08ACE14F09D
:10170000BEEC17F020E143EC18F0EFCF14F0700EB0
:10171000145C14E24A5128EC16F0DFCFEFFF43ECE3
:1017200018F0EF50E66E4A5128EC16F0EE5211EC2C
:1017300016F04A5121EC1BF0EF6A4A2B010EDB2A0E
:10174000020E01E3DB2A0E01D8908D338C338B33EC
:101750008A330F01D890513350334F334E33DF2A41
:10176000C5D74ACFDFFFDF50000841E2010EF36E1C
:10177000450EF3CFDBFFDBCF14F0DF04D880145429
:1017800034E3450EDB50D8EC17F0EE52EFCF14F0F7
:101790004FEC1AF0EE52EF50145C24E24FEC1AF0CA
:1017A000460EEECFDBFF470EEECFDBFF480EEECF4F
:1017B000DBFF450EDB5028EC16F0EECF14F0ECEC1E
:1017C00017F04FEC1AF098EC17F0450EDB5028ECB0
:1017D00016F0460EDBCFEEFF470EDBCFEEFF480ED6
:1017E000DBCFEEFF450EDB2AC6D7DF06BCD70E01E6
:1017F0008451851102E07AEC17F00F014A5103E1A0
:10180000AEEC16F056D7496B0E01010E886F146EC0
:10181000156A166A176A78EC19F0EF501F0B07E08B
:10182000D8901436153616361736E806F9E114C086
:101830008AFE15C08BFE16C08CFE17C08DFE52CFDF
:1018400089FEF2D178EC19F01CEC19F083CEEFFF91
:101850000E018651871119E086CEE9FF87CEEAFF97
:10186000130EE5EC15F029EC17F086CEE6FF87CED7
:10187000E6FF7CEC19F00E01866B876B010EDBCF67
:1018800086FE020EDBCF87FEE3D70F01492B4A51BC
:10189000495DBAE1496B59CF86FE5ACF87FE0E01EA
:1018A000861D01E1871D0BE078EC19F09FEC17F025
:1018B00006E00F014A51495D02E2492BF5D70F01BD
:1018C0004A51495D05E10E01866987690F01496B3F
:1018D000010EDF6E0F014A51DF5C1BE2495121EC22
:1018E0001BF0EFCF14F0DF5021EC1BF0EF50D8804D
:1018F00014540DE20E01861D01E1871D06E0DF5044
:10190000D8EC17F09FEC17F002E1DFCF49FFDF2A98
:10191000E1D70E01861D0DE1871D0BE1D6CF86FEB6
:101920003F0ED7140E01876F78EC19F09FEC17F07B
:10193000F5E10001D96BDA6BFBEC40F00F01339F4E
:1019400079EC14F078EC19F0EFCF88FE0E010F0E51
:101950008E6F8F6F010E826F0001C1510E01829355
:10196000040B01E082832D0EFED1E9EC19F00E018B
:10197000825107E0180EDF5C01E1BDD1D1EC14F01B
:10198000BAD1180EDF5C01E1EDD1B9CE8AFEBACE34
:101990008BFE4DCF82FE836B4C0EE5D10F014B5178
:1019A0004C1102E0AEEC16F00E01825102E10F0183
:1019B000338F0E01C56B3D0EC66F140EC76FCEB1CF
:1019C0000AD06F0EC86F790EC96F010ECA6FCB6B4C
:1019D000CC6BCD6BCE811DEC16F03CEC15F00E01FE
:1019E000A999A98707D10E01825101E1B9D1EB0E66
:1019F000825D02E1826BB4D1C60EB1D10E01A9B7EE
:101A000003D00E01C20EBBD00E01921D01E08ED09C
:101A1000931D01E08BD0D9504A0FDEEC19F001E1A3
:101A2000ACD09BEC1AF085EC19F0EF889BEC1AF027
:101A300028EC1BF0530EEE26070EEE22000EEE22CF
:101A4000EE220E01A751146E156A7F0ED88014562F
:101A5000000E15560E01A651166E176A1450162464
:101A60000E01826F9BEC1AF01CEC19F082CEEFFF96
:101A70008B51400DF3500409E66E9BEC1AF00A0EF0
:101A800042EC1BF08351E824E66E9BEC1AF0090E41
:101A900042EC1BF09BEC1AF0070E24EC1AF09BECC6
:101AA0001AF07DEC1AF05BEC18F09BEC1AF0040EC7
:101AB000E5EC15F08ACEEFFF9BEC1AF087EC1AF0FC
:101AC0009CCEEFFF82CEE6FF6AEC16F09BEC1AF09C
:101AD000EAEC16F007E14A0E59EC1BF04A0EAAECAC
:101AE00016F04BD0DF6A0E01A751A5EC17F004E603
:101AF0007F0E145C000E155805E2A72BA751E3ECEE
:101B00001AF0F1D70E01826B0E01A65108E00E010A
:101B10008251822BE3EC1AF00E01A607F5D70F01D4
:101B20003381E1EC17F00E01A66BE5D018EC19F04B
:101B30008BCEE6FF92CEE6FF93CEE6FF010EE66E79
:101B40004EDBA5EC16F0E76E4B0EE7CFDBFFDB506C
:101B5000010A01E1D0D0010A03E00E01CF0E0FD03F
:101B6000DF6A190EDF5C06E206EC19F0EF5002E0C6
:101B7000DF2AF7D7190EDF5C09E10E01F10E826F43
:101B8000E1EC17F00E01A66B340EEDD006EC19F067
:101B90009CCEEFFF0E01C0EC15F09CCEEFFFC0EC29
:101BA00015F08ACEEFFF2BEC1BF0C0EC15F093CEB6
:101BB000EFFFC0EC15F092CEEFFF0E018351E82449
:101BC0000CEC19F00E018B51400DF35004090CEC94
:101BD00019F0D950490F52EC16F032EC1AF01DEC06
:101BE0001BF0490EDBCFEFFF9DD00E01A9990E012E
:101BF000C20E826F370EB7D00E01A9890F014B516B
:101C00004C1102E0AEEC16F08ACE4EFF8BCE4FFFA9
:101C10008CCE50FF8DCE51FF89CE52FF86CE59FF1C
:101C200087CE5AFF0E01886B280E9DD00F01339589
:101C30000E01825103E10001C19114D00001C18164
:101C4000FF0E0E01825D0EE082CE3FFFF8EC58F0F1
:101C500006C03BFF07C03CFF08C03DFF09C03EFF78
:101C60000F0133853CEC15F00E01826B380E7BD0F2
:101C70000E01C20E826F390E76D00E01C20E826F37
:101C80003A0E71D021EC17F0180803E00E01C50ED2
:101C900009D0E1D8000904E0FBD8DF6E180804E1A0
:101CA0000E01C70E826F03D068D80E01826B3B0E07
:101CB0005AD00E01A9B703D00E01C20E37D0AFEC37
:101CC00017F05FEC14F0E552E552000916E0000150
:101CD000C1910F0133870E0182510F013491E8B099
:101CE00034813483536B34B102D0180E536F6EECD1
:101CF00017F0020E586F000E36D0E9EC19F01808F4
:101D000013E0CEEC19F010E18EEC18F00E018251C8
:101D100001E0DF8ED9EC19F0B9CEE6FFBACEE6FFCE
:101D20007EEC16F0100E1FD00E01C80E826F3C0E16
:101D30001AD00E01010E826F240E15D00E018251B1
:101D40000DE1836BD7C09AFED8C09BFE020E896F4F
:101D5000D2C092FED3C093FE310E05D0C10E826F69
:101D60003E0E01D0000E146E4C0EE15C02E2E16A00
:101D7000E552E16E145042EF16F03DEC16F0030E02
:101D8000E126080EE66EE66A8A0EE66E0E0EE66E36
:101D9000C1EC19F093EC57F0A5EC16F0D7C0BBFEE0
:101DA000D8C0BCFE0E01BD690E0182B314D00E0175
:101DB000C099C08BC8CEB9FEC9CEBAFE0E01C82BE1
:101DC000000EC923FE0EC8192BE1FF0EC91928E128
:101DD0000F01348525D00E01C089C09BCACEB9FE43
:101DE000CBCEBAFE0E01CD2BC651CA27C751CB238D
:101DF000060E086E096AC6CE0DF0C7CE0EF000ECD6
:101E000056F00001D9510624146EDA510720156EE0
:101E10000E01CA51145CCB51155802E20F013487F0
:101E20000E0182510E01C191080B01E0C181C08DEC
:101E3000C09FC18335EC16F00E01CC2BC42B1DECDA
:101E400016F03CEC15F0030EE15C02E2E16AE552AB
:101E5000E16E42EF16F00001C151010B17E0140EC4
:101E60000E01CC5D13E20E018251020B04E10F0161
:101E70003451040B0CE0040E0E01C55D07E2060EA2
:101E8000CD5D04E20F013451080B01E0000C010CA0
:101E900081EC19F0C2EC16F0DF6A010EDB6A180E55
:101EA000DF5C0FE2010EDB500CE1EFEC1AF0C1B386
:101EB00004D0DE52010EDD6E04D0C8EC16F0DF2A2D
:101EC000EED7010EDB5002E0DF5001D0180E146E89
:101ED000020EE15C02E2E16AE552E16E145042EF6B
:101EE00016F081EC19F0DF6A030EDF5C05E23DECD1
:101EF0001AF002E0DF2AF8D7030EDF5C08E02D0EAF
:101F00005CEC1AF0FDEC15F0EAEC16F002E1000EC4
:101F100040D0FD0EDBCFE9FFFE0EDBCFEAFFDFCFC7
:101F2000EFFF73EC1AF00B0EE5EC15F0EF6860ECC8
:101F300016F073EC1AF028EC1BF057EC16F073EC6B
:101F40001AF088EC19F098EC17F017C0EEFF73EC5C
:101F50001AF085EC19F0EF9A73EC1AF085EC19F091
:101F6000F00EEF140309EF6E010EDB6A180EC6ECDB
:101F700019F00EE273EC1AF0150EE5EC15F0010EF7
:101F8000DB50A8EC19F0030EEF6E010EDB2AEED742
:101F9000010E146E020EE15C02E2E16AE552E16EAE
:101FA000145042EF16F01FEC19F0FC0EDB50040841
:101FB00006E0FC0EDBEC18F0D36B15EC16F098EC99
:101FC0001AF0020EEF6EEEEC16F091EC19F01CEC2C
:101FD00019F098EC18F0C8EC15F0FD0EDBCFEFFF10
:101FE000C8EC15F0FE0EDBCFEFFFEEEC16F087EC41
:101FF0001AF098EC18F0EEEC16F087EC1AF091EC71
:1020000019F07DEC1AF001EC1BF0FE0EDBCFEFFFB8
:10201000C0EC15F0FD0EDBCFEFFF65EC1AF0A0EC85
:1020200016F0AAEC17F07EEC16F0E55242EF16F02F
:102030001FEC19F0D5EC16F0E9EC15F0100EDF5C92
:102040000AE213EC18F003E1FE0EDB50151803E072
:10205000DCEC16F0F1D7100EDF5C0EE1D5EC16F0DB
:10206000E9EC15F0100EDF5C07E2030E0E01D35D04
:1020700003E0DCEC16F0F4D7F5EC16F0DFCFEFFF61
:10208000DF6A040EDF5C05E2B8EC19F002E0DF2A3B
:10209000F8D737EC17F0DFCFEFFF140E5CEC1AF037
:1020A00003EC16F0EAEC16F002E1000E28D0FD0E6B
:1020B000DBCFD1FEFE0EDBCFD2FE0E01010ED36FC1
:1020C00015EC16F083EC1AF088EC19F0EF68D5ECFB
:1020D00017F083EC1AF057EC16F0F5EC16F0EF5011
:1020E000E66E83EC1AF0120E42EC1BF083EC1AF051
:1020F00028EC1BF0EE6AED6A0F013383010EE55206
:1021000042EF16F081EC19F0FE0EDB50050A1AE0E2
:10211000010A15E0070A11E0010A0DE0030A06E0D2
:10212000010A12E13D0EDE6E140E03D05D0EDE6E6E
:10213000030EDD6E09D08D0E03D0150E01D0010EF9
:10214000DE6E01D0DE6ADD6ADECF14F0DDCF15F081
:1021500014C0F3FF15C0F4FF020EE15C02E2E16A75
:10216000E552E16E42EF16F081EC19F0D5EC16F075
:10217000010EDB6AE9EC15F013EC18F007E1FE0E36
:10218000DB50151803E1010EDF6E07D0010EDB2ACC
:102190000E01050ED627000ED723100EC6EC19F03F
:1021A00002E2DF50E7E0DF500BE037EC17F0D4CE6F
:1021B000EEFFD5CEEDFFF5EC16F0D3CEEFFF04D059
:1021C000F5EC16F0030EEF6EDF50146E020EE15CBC
:1021D00002E2E16AE552E16E145042EF16F01FECA4
:1021E00019F0FC0EDBCFE6FFFD0E9CEC16F00CE0C8
:1021F000CEEC19F009E1F5EC16F0FC0EDBCFEEFFAA
:10220000FD0EDBCFEDFF1AD0800EE66E2BEC1AF040
:10221000D9C0E6FFDAC0E6FFE66AE66A5DEC17F0D1
:102220001EE0FB0EDB50020811E0A0EC16F04DECB6
:1022300017F09AEC19F007E0DF5002E1000E17D01A
:10224000FB0EDB6A0CD0FB0EDB0409E1010EE66E2F
:10225000FE0EDBCFE6FF79D8E552E55208D04DEC13
:1022600017F00BEC17F002E1020E01D0000EE55260
:1022700042EF16F03DEC16F0030EE126020EDB6A8B
:10228000DF6A040EDF5C27E2B8EC19F01DE0FE0EF9
:10229000DB501FE083EC1AF00E0EE5EC15F0EFCFEB
:1022A00014F0FD0EDB50145C14E183EC1AF0080E00
:1022B000E5EC15F0ECEC17F0FB0EDB50151809E11E
:1022C000FC0EDB50161805E1010EF36E020EF3CF83
:1022D000DBFFDF2AD6D7F80EDBAE03D0DE52100EBE
:1022E00002D0DE52080EDD6E020EDB5022E0020E3E
:1022F000DB6AD5EC16F0010EDB50DF5C1AE2E9EC8C
:1023000015F0D1CE14F0D2CE15F0F90EDB50141822
:1023100003E1FA0EDB50151804E0030E0E01D35D45
:1023200005E1010EF36E020EF3CFDBFFDCEC16F0DD
:10233000E2D7020EDB50146E030EE15C02E2E16AAA
:10234000E552E16E145042EF16F03DEC16F00B0E24
:10235000E126010EDB6A040EC6EC19F009E2010E5B
:10236000EA6ADB348BEC16F003E0010EDB2AF3D7CC
:10237000010EDB50040801E133D10B0E5CEC1AF0C6
:10238000E8EC1AF0EAEC16F001E12AD1FE0EDB507F
:1023900001E182D084EC18F087EC1AF05BEC18F0C5
:1023A00084EC18F0050E24EC1AF00E01A751166EFD
:1023B000176A7F0ED8801656000E1756080E16267E
:1023C000000E17220E01A65100011624146E000EF5
:1023D0001720156EE0EC1AF014C0EFFFE0EC1AF0D5
:1023E000FCEC16F001E1F5D084EC18F0C8EC17F025
:1023F000F35004095FEC1AF001E3DB2A11EC16F04C
:102400000E018351E8245FEC1AF001E3DB2A53EC60
:102410001AF001E3DB2A92CEEFFFCFDB01E3DB2AE8
:1024200093CEEFFFCADB01E3DB2AD9C0EFFFC5DBA8
:1024300001E3DB2ADAC0EFFF040E8ACEDBFFBDDB4F
:1024400001E3DB2A040EDBCFEFFFB7DB01E3DB2A7E
:102450009CCEEFFF0E01A751A5EC17F004E67F0E0E
:10246000145C000E155809E2A72BA7511AEC17F0BF
:10247000A4DB01E3DB2AD5DBEDD7DF6A0E01A65131
:10248000A60700096EE0DF50DF2A1AEC17F095DB93
:1024900001E3DB2AC6DBF2D7040E0E01845F000ED7
:1024A000855B84EC18F087EC1AF051EC18F0840787
:1024B0003CEC1BF0EE52B5DB8407000E3CEC1BF04D
:1024C000B0DB020E845F000E855B080E8227E0EC15
:1024D0001AF082CEEFFFE0EC1AF0FCEC16F001E10E
:1024E00078D084EC18F0C8EC17F0F3CF14F0F3CFE9
:1024F000E6FFA5D9E552E7CF14F03F0B14105FECCF
:102500001AF001E3DB2AECEC18F001E3DB2AECEC37
:1025100018F001E3DB2AECEC18F001E3DB2AECEC29
:1025200018F001E3DB2AECEC18F001E3DB2A79DB9D
:1025300086D9FF0FE76E040EE7CFDBFF3EDB01E33A
:10254000DB2A040EDBCFEFFF25EC1BF001E3DB2AD7
:1025500068DB0E01825105E025EC1BF0F9E3DB2A74
:10256000F7D7AEDB84EC18F0070E2FDBA0DBD950D9
:10257000060F98DBD950050F95DB84EC18F0050E9B
:1025800066EC19F055DDE1DB000920E0E1EC17F025
:102590000E01A66B0E0E5CEC1AF0050EA9EC18F0FD
:1025A00045EC1AF0020E14C0DBFF030E15C0DBFF72
:1025B0001450151017E10E01010ED36F36DB050E16
:1025C0009EEC1AF014DB050E6AEC17F084EC18F0A0
:1025D0000EDBE8EC1AF00BDB010EEA6ADB349FDB62
:1025E000040E89D0050E5EEC19F040CFEFFF050E0A
:1025F00062EC19F05BEC18F0050EBCEC1AF0EF6A17
:10260000050EF7EC1AF0050EAFEC18F0EF96D5DAE0
:1026100001E3DB2A010EEF6ED0DA01E3DB2A800E44
:10262000EF6E0F014051402B5FEC1AF001E3DB2A03
:1026300054EC1BF0EF505FEC1AF001E3DB2A54EC92
:102640001BF01BEC18F0B9DA01E3DB2A53EC1AF0AB
:1026500001E3DB2AEF6AD2EC17F0AFDA01E3DB2A01
:1026600053EC1AF001E3DB2A040EDBCFEFFFA5DA0F
:1026700001E3DB2ADAC0EFFFA0DA01E3DB2AD9C0ED
:10268000EFFF9BDA01E3DB2AEF6897DA01E3DB2A4D
:10269000EF6893DA01E3DB2AEF6A8FDA01E3DB2AE2
:1026A000050EEF6EF8EC58F0070E06C0DBFF080EC3
:1026B00007C0DBFF090E08C0DBFF0A0E09C0DBFF05
:1026C000070EDBCF14F0080EDBCF15F0090EDBCFC1
:1026D00016F00A0EDBCF17F0040E145E5D0E155ACD
:1026E000000E165A175A050E0FEC19F098EC17F059
:1026F00017C0EEFF010E146E0B0EE15C02E2E16A00
:10270000E552E16E1450BED2B8DAFA0EDB503DE06D
:102710004AEC18F0FB0EDBCF16F0FC0EDBCF17F007
:102720001650145C1750155832E2FB0EDBCF18F030
:10273000FC0EDBCF19F0FD0EDBCF1CF0FE0EDBCF65
:102740001DF018C0E6FF19C0E6FF1CC0E6FF1DC063
:10275000E6FFFA0EDB04E66ED5DCE552E552E7CF84
:102760001DF0E552E7CF1CF0E552E7CF19F0E55236
:10277000E7CF18F01C50F3241A6E1D50F4201B6E86
:102780001A50185C1B50195802E2010E01D0000EBD
:1027900079D21FEC19F0DF6A180EDF5C18E2DF5007
:1027A000B3EC18F00E018A510E01B9190EE10E01B9
:1027B0008B510E01BA1909E1FE0EDAD9150E05DAB0
:1027C000DF50A8EC19F0EF9002D0DF2AE5D7E552F0
:1027D00059D20F01322B325101E1322B325112000A
:1027E0001FEC19F00E0160EC18F0DF6ACBDA180E5E
:1027F000DF5C04E23ADA62EC1AF0F9D70E01C46B3E
:10280000CC6BCD6BCE913C0EC26FA50EC36F15DAAB
:10281000E55238D21FEC19F00E01030ED36FD169C7
:10282000D2690E01EF0ED66F9C0ED76FDF6A100EC5
:10283000DF5C03E2FAD9C0DAFAD7E55223D20E01FF
:10284000825101E1000C820784CEE9FF85CEEAFFC8
:10285000842B000E8523EF501200C6EC1AF0180EE0
:10286000DF5C0DE2EFEC1AF0C1A306D0CFDB58EC31
:1028700019F002E1DF5004D062EC1AF0F0D7180E24
:10288000E55200D2C6EC1AF0180EDF5C15E2EFEC50
:102890001AF0C1A30ED0B9CE14F0BACE15F0FD0EC9
:1028A000DB50141806E1FE0EDB50151802E1DF5074
:1028B00004D062EC1AF0E8D7180EE552E3D1DDD966
:1028C000080EE126E3DA3CDACFEC18F0080EE66EEB
:1028D000E66A36DA58EC19F002E1010E01D0000E7A
:1028E000146E080EE15C02E2E16AE552E16E1450FA
:1028F000C9D11FEC19F0DF6A45DA180EDF5C13E26C
:10290000EFEC1AF0C151020B0BE0ABD909E0C0515A
:1029100040EC19F0000904E0D3DB0E01C407A5D98F
:1029200062EC1AF0EAD789D9E552ACD1A6D90E01EA
:10293000A9810E01020E886FD7C086FED8C087FE1F
:10294000D9C08AFEDAC08BFE896FD7C09AFED8C084
:102950009BFEFD0EDBCF92FEFE0EDBCF93FE87DAF1
:10296000D4C0EFFFD4C09CFE856BD950FD0FE96E3B
:10297000FF0EDA20EA6EFF0EEE1802E1FF0EED18F0
:102980000CE08581FD0EDBCFE6FFFE0ED5D905E01C
:102990000E01C1B102D00E0185850E01010E846FBA
:1029A00071D1CEEC19F009E10E01CC070E0156DB16
:1029B000010802E10E01CD075FD80E0181DB55D978
:1029C0000E01C4071DEF16F0C6EC1AF0180EDF5CFE
:1029D00017E2EFEC1AF0C1A310D0FE0EDB50BD5D84
:1029E0000CE10E0186510E01BB1907E10E01875162
:1029F0000E01BC1902E1010E04D062EC1AF0E6D718
:102A0000000EE5523FD181EC19F0DF6ABBD9010E0F
:102A1000DB6A180EC6EC19F025E2EFEC1AF0C15192
:102A2000020B1CE01ED91AE135DBB951141802E182
:102A3000BA5115180BE00E01C529E66E0AEC1BF021
:102A4000B9CEE6FFBACEE6FFD2DA08E010DAB9CEA8
:102A5000EEFFBACEEDFF010EDF6E04D099D9010E64
:102A6000DB2AD7D7DF50146E020EE15C02E2E16A86
:102A7000E552E16E145006D10001C26B110EC36F16
:102A80000E01C551080DF3CFC4F00001C151010B77
:102A900019E0140E0E01CC5D15E2180EC45D12E2B1
:102AA0000F0134B502D00001C48F040E0E01C55DC4
:102AB00009E2060ECD5D06E20F013451080B02E17A
:102AC0000001C4851200BBDBD6CF32FF0E01A96B1B
:102AD0000F01336B346BDF6A190EDF5C04E296DBA7
:102AE000EF6ADF2AF9D7FE0EDB5006E10F014B51EA
:102AF0004C1102E011EC1BF00F014B6B4C6BDF6AC9
:102B0000030EDF5C10E2FE0EDB5008E13DEC1AF034
:102B100005E073EC1AF06BD870D869D86ED8EE6AFD
:102B2000ED6ADF2AEDD7DF6A040EDF5C0DE2FE0EF0
:102B3000DB5006E135EC1AF003E0DAEC1AF036DB94
:102B400039EC1AF0DF2AF0D7DF6A040EDF5C0DE201
:102B5000FE0EDB5005E1B8EC19F002E054D847D87E
:102B600052D8EE6AED6ADF2AF0D754DEE5528AD0F9
:102B700080EC1AF089EF18F09EEC1AF089EF18F04B
:102B8000A751A707AEEF19F077EC1AF089EF18F00C
:102B9000A651A62BAEEF19F0110EE66EE66ACFCE67
:102BA00014F0D0CE15F0166ACFCEE6FFD0CEE6FFF9
:102BB00016C0E6FFE6DBCFEF18F0020EDBCFE9FF31
:102BC000DB2A030EDBCFEAFF1200E926000EEA2221
:102BD0001200050EE66EE66AD6CE14F0D7CE15F0DA
:102BE000166AD6CEE6FFD7CEE6FF05EF1BF0EECF96
:102BF000E6FFEFCFE6FF7CEF19F0EA6ADF345FEC27
:102C00001BF013EF19F0EA6ADF345FEC1BF053EFAF
:102C100019F0010EDBCFE9FFDB2A020EDBCFEAFF62
:102C20001200E552E750EF6E1200050EE66EA4DBCF
:102C3000D6CEE6FFD7CEE6FF2BD30D0EE66EC20E44
:102C4000E66E0E0EE66E4A0EE66E9B0EE66E20D324
:102C5000030DC6D35FEC1BF0000EE9260F0EEA222F
:102C60001200C0510DDB01081200110EE66E89DB67
:102C7000CFCEE6FFD0CEE6FF0BD3D9CFE6FFE1CF34
:102C8000D9FF1200E552E7CFD9FF120083DB000124
:102C900022EF19F0330EDBCFE9FFDB2A340EDBCF56
:102CA000EAFF1200E66E000EDA20E66E120006C0A1
:102CB000EEFF15C0EEFF16C0EEFF17C0EEFF1200CC
:102CC000F8EC58F006C014F092D3DBCFF4FFF350C9
:102CD000F45C120078EC54F0E55257EF1AF0EECFA6
:102CE00018F0EECF19F0EECF1AF0EFCF1BF0D9505D
:102CF00012009EEC1AF0EE50ED10120017DEE552B5
:102D0000E552E552E5521200220EDBCFE6FF230E1C
:102D1000DBCFE6FF1200EBDBEE50ED101200E7DB3D
:102D2000EE6AED6A1200E9CF14F0EACF15F00B0E4F
:102D3000DB500F01A8EF19F0DBCFE6FFA2EF19F08F
:102D4000D9CFE6FFDACFE6FF1200146E060EE15E81
:102D500014501200D5DBEE6AED6A120011EC1BF084
:102D60000F014B6B4C6B1200EECF14F0EFCF15F050
:102D70000001D951000114181200E7CFDBFF5FDD1D
:102D8000E76E12000E01570ECF6F9B0ED06F120030
:102D90000E01110ECF27000ED0231200030EDBCF41
:102DA000E6FF040EDBCFE6FF1200DF6A0E01EF0E36
:102DB000D66F9C0ED76F1200DF2A0E01050ED627A4
:102DC000000ED7231200010E14C0DBFF020EDACF73
:102DD000DBFF12005ADB145015101200FA0EDBCF85
:102DE000E9FFFB0EDBCFEAFF1200F90EDBCFE9FFB4
:102DF000FA0EDBCFEAFF1200EF50E66E78EC54F0EB
:102E0000E552020EF3CFDBFF030EF4CFDBFF4FDB07
:102E1000F350F4101200F7DDE552E552E552E552A9
:102E2000000912000E01EA6A8425E96E8551EA2242
:102E3000EF50120093DAEF50E66E1200ABDAEF506B
:102E400012008A0EE66E0E0EE66E07DDE552E552C2
:102E50001200010EEECFDBFF020EEDCFDBFF120002
:102E6000200EDBCFE6FF210EDBCFE6FF1200FB0ECC
:102E7000DBCFE9FFFC0EDBCFEAFF1200E0DCE66E01
:102E800012000A0E3DDBEE50ED101200E66EE66A0F
:102E90002A0E146E000ED1EF19F0F90EDBCFE6FF0B
:102EA000FA0EDBCFE6FF2BEF1AF0DF50146E156A37
:102EB000060E145C000E155812003AEC11F0146E58
:102EC000070EE15E145000091200E4DA2D0EDB500B
:102ED0001418120033DBEE6AED6A1200F8EC58F0B9
:102EE00006C054FF07C055FF08C056FF09C057FF72
:102EF0000F01120084CEE6FF85CEE6FFFDD90E015C
:102F0000846B856B1200DBCF15F00001D9511418CA
:102F10001200EF50050DCBDAEF0E14269C0E152291
:102F20001200250EDBCFEFFF240EDB04E66E12004D
:102F300014C0EEFF15C0EEFF16C0EEFF1200EF50FA
:102F4000E66E42DDE55200091200146E156AD89053
:102F5000155012008ACEE6FF8BCEE6FF1200920ECD
:102F6000E66E0E0EE66E12002F0EDBCFE7FF300E80
:102F7000DB50E75E2F0EE7CFDBFF1200010E1416C9
:102F8000156A166A176A14501510161017101200D9
:102F9000020EDBCFEEFF030EDBCFEDFFFD0EDB50AD
:102FA000400D120016DCE66E1200F8EC58F01FD24D
:102FB000030D0F0115D284CEE9FF85CEEAFFEF5055
:102FC00012000E01A9910E017F0EA76F12000001E1
:102FD000DA51000115181200EECF15F0EFCF16F000
:102FE0001200D950200FD6D9FF0EEE18120084EC33
:102FF00013F0166E050EE15E16500009120042DC59
:10300000E552E552DF6E180EDF5C1200080EE66E28
:10301000E66AC1EF19F0DF50146E156A080E145CF1
:10302000000E15581200D1CE14F0D2CE15F0FD0EC0
:10303000DB5014181200EE52EF50E66E1200230E11
:10304000DBCFEFFF1200220EDBCFEFFF1200030EEB
:10305000DB68040EDB68090EDB841200C051300B04
:10306000E842E842E842E8421200220EDBCFEEFFDF
:10307000230EDBCFEDFF1200010E84CEDBFF020E2C
:1030800085CEDBFF1200010EDBCFE9FF020EDBCFA6
:10309000EAFF1200FD0EDBCF14F0FE0EDBCF15F0C1
:1030A00012008ACEEEFF8BCEEDFF1200DF50DF2A3A
:1030B000146E156A1200D9C0EEFFDAC0EDFF1200DF
:1030C000BE6BBF6BC06BC16B12000E01A951010B2F
:1030D0001200210EDBCFEFFF1200200EDBCFEFFF3F
:1030E00012001F0EDBCFEFFF1200BEDA0A0EEF6EEA
:1030F0002BEF1BF036DA44DDD2DA42DDF2DF40DDC1
:103100001E0EDBCFEFFF1200010EEA6ADB34C4EFC4
:1031100015F0EE50EFCFEAFFE96E1200DED9BACE1D
:10312000EFFF2EDDB9CEEFFFB5DA400EDF6E1200F5
:10313000EF50E66E2DDD11EF16F0EA6ADB345FEF3B
:103140001BF0EA6ADF34C4EF15F03FDDEF50E66EA6
:1031500022D212DD28EF1BF00A0EB8EF15F00CDDBD
:10316000130EE5EF15F0110DF3CFCFFEF4CFD0FE27
:10317000570E0E01CF279B0ED023CCEF15F0F8DCB5
:103180001450EE24E76E1550EE20EA6EE7CFE9FF0B
:1031900011EF16F0EF50E66ECBD911EF16F0BEEC42
:1031A00057F0176E070EE15E17501200EA6ADF341F
:1031B0009ED9F7EF15F0E0DC120E07DDEF50050D9C
:1031C000F3CFD6FEF4CFD7FEEF0E0E01D6279C0E1E
:1031D000D723FFDC0E01120024DD25EF1BF0310E9A
:1031E000CBDC0A0EF2DC5DDF310EC6D92F0EDBCF51
:1031F000EFFF1200DBCFE6FF300EDB50E552E75C5D
:10320000E66E310EBED90DDD65EF17F016DAEE521F
:103210001200DBDC10DFBFD1E66E0E01BCD1ACDCEE
:10322000040EE5EF15F0350EE9260F0EEA22120026
:10323000D950030F52EF16F0020EE5EF15F01DDD29
:10324000E65212001850EE5C146E1950EE58156ECE
:103250001A50EE58166E1B50EE58176E120035D9E4
:1032600067D9030EEF6E1200EA22EF50E66EDF50D0
:10327000EA6A920FE96E0E0EEA22D3DCDF2A120010
:10328000C00BE842E842E842E842E842E842120065
:10329000C6EC52F0146E050EE15E14501200EA6A9C
:1032A000DB342AEF16F05B0EE9260F0EEA2212003D
:1032B000B1D94BEC57F049DD000912005DDC0E0E70
:1032C000E5EF15F059DC080EE5EF15F07EDCEECFEA
:1032D000E6FFEFCFE6FF1200D9501E0FAFDD030B64
:1032E000010812002D0EDBCFE6FF2E0E9CEF16F02C
:1032F0000F01495128EF16F00BEC55F0E552E5525D
:103300001200BBDC020EE1261200140EE5EF15F0F0
:10331000100EE5EF15F03B0E2FDC120E56DC89EF98
:1033200017F089DE35DC7DDCEEEF16F0150E4DDC96
:1033300093EF16F0B4EC10F008DD00091200E7D8A6
:10334000B4EF16F042EC14F0E552E5521808120002
:10335000E924E96E000EEA20EA6E1200EA6A000F24
:10336000E96E0E0EEA221200D950090F1EEF17F077
:103370004ADCEE50ED101200D10EE66E0E0EE66E37
:103380001200B10EE66E0E0EE66E1200F36E010E26
:1033900065EF16F0E96EDACFEAFF12000E0131EFA9
:1033A00016F0156E166A14C0E6FFE66E16C0E6FF4C
:1033B0001200BED8DFCFEFFFA0EF16F073DC71EC88
:1033C0000FF0E552E5520009120058DDB1D811EFB7
:1033D00016F0C5DD2DEC14F0E552E552DF6E12005B
:1033E0004B51F324E96E4C51F420EA6E120007C0F1
:1033F00015F008C016F009C017F01200070EE5EC32
:1034000015F0EFCF9CFE0E011200220EDBCF14F060
:10341000230E83EF17F02D0EDBCFE6FF2E0EDBCF52
:10342000E6FF1200DBCFE6FF010EE66E5DEF17F060
:10343000200EDBCF14F0210E83EF17F0BF15F31031
:10344000BF6F010E12EF17F0E5EC15F092CEEEFF14
:1034500093CEEDFF1200FC0EDBCFE6FFFD0EDBCFBF
:10346000E6FF12009BDC7EEF16F0EA6ADF348BEF9A
:1034700016F0EA6ADF348FEF16F0FDEC15F0EE502F
:10348000ED101200A0DC09EF16F0F3CFEEFF15C02F
:10349000EDFF1200D9C014F0DAC015F01200450E8D
:1034A000DB0428EF16F011EC16F0DDEF15F0F3CF8A
:1034B00014F0F4CF15F01200E66E6AEF16F0E66E27
:1034C000DDEF15F0DF2AC8EF16F0C0EC15F0EF6A5B
:1034D000C0EC15F0050EEF6E1200C6D8010EEF6EAF
:1034E000BAD8C0EF15F0FDEC15F089EF18F0E7D869
:1034F000410EE9260F0EEA221200050EE5EF15F047
:103500001CDE13EF19F003EC16F089EF18F0030E30
:10351000E5EF15F00E01C0EC15F003DDC0EC15F081
:1035200011EC16F07AEF18F017DEEFDEEF50120014
:103530000E01C8EF15F04A0EB8EF15F0FEDD53EF9F
:1035400019F0350EB8EF15F007DEE2DE6FEC16F07D
:103550000D0F46EF16F060EC16F0FEDDD9DE57EFEA
:1035600016F0C0EC15F06BDDC0EC15F023EF18F091
:10357000F3DD0B0EE5EF15F0BCEC15F00F0EE5EFEB
:1035800015F0BCEC15F0110EE5EF15F058DEC2ECAD
:1035900016F0DF6A1200C0EC15F011EF16F0D5DD61
:1035A000ACEF18F0D6DDEE50ED101200150ED7DDA1
:1035B000EF501200C6DDF7EF15F0BADD09EF16F097
:1035C000A3DD1CEF19F036DC71DD4A0EBFEF18F0F9
:1035D000010EB3DD410EE9260F0EEA221200CCECFB
:1035E00015F00E011200ADDD94DDFEEF19F0B7DD30
:1035F000F80EEF140409EF6E12001ADE31DC0BEF47
:1036000017F096DD72DDC0EF15F016C0E6FFB4DEF0
:10361000CFEF18F0FD0EDBCFE6FFFE0EDBCFE6FFAF
:1036200012004BCFE6FF4CCFE6FF7CEF19F094DDA4
:1036300096EF19F086DD9FEF19F0EA6ADF342AEF82
:1036400016F028EC16F01CEF19F018DCDDEF15F081
:103650000C0EE5EF15F0C0EC15F0DAC0EFFFC0EC92
:1036600015F0D9C0EFFF12009DDC0E01C0EC15F083
:1036700011EC16F0C0EF15F0855B9DDCE66E44DDC5
:103680007DEF1AF0E5EC15F011EF16F05ADD35DF9D
:1036900098EF18F01ADF4CDF040EEF6E120019DD00
:1036A000C0EC15F06DEF18F011EC16F02DDD7DEF8C
:1036B0001AF026DFF7EF15F04FDD87EF1AF0FE0B5B
:0636C000EA36E96E12007B
:0A36C6000F0E0B01011501E1000CCD
:1036D000010C7DEC26F0050EE1260B01016BDF6A83
:1036E000090EDF5C06E2EA6ADF348FEC26F0DF2A9F
:1036F000F7D7DF6A040EDF5C06E2EA6ADF3493EC98
:1037000026F0DF2AF7D7DF6A050EDF5C04E2A1ECC2
:1037100026F0DF2AF9D7020EE66EE66A3A0E146E3C
:10372000990E3AEC27F0010F22EC26F0D950010F48
:10373000B1EC28F05A0EEE1802E1C30EED181EE0AF
:103740005A0EF36E010EF3CFDBFFC30EF36E020EC3
:10375000F3CFDBFFBBEC26F03A0EE66E990E7EEC63
:1037600027F00D0EE66EE66A300EE66E9B0EE66EF4
:1037700018EC54F0E552E552E552E552020EE66EC1
:10378000E66A3F0E146E9D0E3AEC27F0030F22EC12
:1037900026F0D950030FB1EC28F07B0EEE1802E1B1
:1037A0004E0EED181FE07B0EF36E030EF3CFDBFF22
:1037B0004E0EF36E040EF3CFDBFF020EE66ED95011
:1037C000030F51EC28F03F0EE66E9D0E7EEC27F0C5
:1037D0000E01E069E169DF6A060EDF5C03E214ECCA
:1037E00029F0FAD70B01006B050EE15C02E2E16AF9
:1037F000E552E16E82EF26F07DEC26F0130EE12615
:10380000FE0EDB5001E0E6D20B0101A522D00E0135
:10381000A9B11FD00B01019514CB82FE16CB84FEFB
:1038200017CB85FE18CB86FE19CB87FE1ACB88FEF8
:103830001BCB89FE1CCB8AFE1DCB8BFE1ECB9AFEBA
:103840001FCB9BFE20CB9CFE0E019B5101E0DDD3E4
:10385000DAD30B0101A7DED00E01A9B1CBD0DF6A0C
:10386000040EDF5C01E3C6D0EA6ADF34D4EC26F054
:1038700001E1BED021EC29F0080B01E1B9D0D9EC6F
:1038800027F00A0E28EC26F0040EEFCFDBFF21EC28
:1038900029F0070B00093EE1D9EC27F00B0E98EC5C
:1038A00028F02DEC28F00D0E28EC26F0EFCF89FE45
:1038B0002DEC28F0DBEC28F0C0EC26F02DEC28F005
:1038C0000E0E28EC26F0EFCF9AFE2DEC28F00F0E0E
:1038D00028EC26F0EFCF9BFE8FEC29F0EE50ED1098
:1038E00008E08FEC29F041EC26F08FEC29F0EE6A2D
:1038F000ED6AEA6ADF34E0EC27F02DEC29F093EC76
:1039000026F009EC27F0C7EC27F041EC26F009EC93
:1039100027F0C5D2D9EC27F09DEC29F0EFCF8AFE35
:1039200021EC29F0F00BE842E842E842E8420E01BF
:103930008B6FD9EC27F0070E98EC28F0D9EC27F024
:1039400044EC28F0EECF92FEEDCF93FEAEEC27F0E4
:103950002DEC28F00C0EC7EC28F043EC27F02DECF2
:1039600028F04CEC27F0010EDB6A0E0182519AEC34
:1039700026F007E27EEC29F08FEC29F086EC26F0A9
:10398000F4D72DEC28F00E0E5CEC29F0D9EC27F0E2
:10399000EE52EF50FCEC28F0EF50FCEC28F0090E52
:1039A000DDEC27F0FCEC28F0B7EC29F0EAEC26F08F
:1039B00008E02DEC28F00F0EDDEC27F0E66EE8ECC9
:1039C00027F0D9EC27F0B7EC29F0FCEC28F00C0E2E
:1039D00028EC26F091EC27F0F46EF80EEF14F310BB
:1039E000EF6ED9EC27F00C0E28EC26F0EF96DBD129
:1039F000DF2A36D7DF6A040EDF5C07E2EA6ADF34CB
:103A0000D4EC26F002E1DF2AF6D7040EDF5C02E1F7
:103A10000B0101970B0101A387D0F8EC58F0050EBC
:103A200006C0DBFF060E07C0DBFF070E08C0DBFF8A
:103A3000080E09C0DBFFDF6A090EDF5C67E261EC9C
:103A400026F062E0C3EC27F00C0EDDEC27F05CE022
:103A5000C3EC27F0EECF1CF0EECF1DF0EECF1EF042
:103A6000EFCF1FF0D950050FB1EC28F000011C502A
:103A7000EE5C186E1D50EE58196E1E50EE581A6E00
:103A80001F50EE581B6E18C006F019C007F01AC080
:103A900008F0096EE5EC55F007C014F008C015F009
:103AA00009C016F00AC017F0400E0C6E540E0D6ED1
:103AB000090E0E6E480E0F6E67EC56F0010A24E1F7
:103AC00086EC29F004E0C0EC27F00C0E13D038ECA3
:103AD00029F00DE1DEEC28F005E0D6EC27F059ECFA
:103AE00028F004D0D6EC27F03FEC28F0EF6ED6ECAF
:103AF00027F0080EB5EC28F0E8EC28F0200B04E1E4
:103B0000F8EC28F0B8EC28F0DF2A96D7DF6A090E27
:103B1000DF5C05E261EC26F002E1DF2AF8D7090E4E
:103B2000DF5C02E10B0101930B0101A1EAEF22F03E
:103B30000E01A9B13DD1DF6A050EDF5C01E338D18A
:103B400071EC26F001E132D1BCEC27F0B7EC29F0A2
:103B5000FF080BE1ECEC28F041EC26F0ECEC28F04F
:103B6000EE6AED6A61EC29F021D1BCEC27F0080E79
:103B7000DDEC27F0080B01E119D1BCEC27F0B7EC24
:103B800029F01DEC26F00001D9510E01AA1959E1C6
:103B90000001DA510E01AB1954E10E01805181117F
:103BA00001E006D1BCEC27F0050EDDEC27F0E66E57
:103BB00078EC54F0E552F3CF80FEF4CF81FEF35061
:103BC000F41003E131EC29F0F3D080CE84FE81CEF5
:103BD00085FEBCEC27F0050E98EC28F00E01886BF2
:103BE00025EC29F075EC27F002E0000E01D0010E63
:103BF000896FACCE9BFEADCE9CFEBCEC27F0EECF29
:103C000086FEEDCF87FE010EDB6A82519AEC26F02C
:103C100012E27EEC29F0ECEC28F05CEC28F0010ECE
:103C2000DB50EA6A8425E96E8551EA2234EC29F0FA
:103C3000010EDB2AEAD731EC29F09B5101E0E5D1F6
:103C4000E2D10E010A0E8A6F010E8B6FBCEC27F0D9
:103C5000050E98EC28F0AACE92FEABCE93FEAEEC09
:103C600027F0010EDB6A090E9AEC26F00AE20BEC53
:103C700029F0C7EC27F0EE50ED1003E0010EDB2A2F
:103C8000F2D7010EDB50090801E192D0110ED5ECFC
:103C900028F00BEC29F0C7EC27F06AEC26F001E1E4
:103CA00087D0BCEC27F0080EDDEC27F0100B05E008
:103CB000BCEC27F0070E5CEC29F0BCEC27F0EE52D0
:103CC000EF50E66E0E01E8EC27F0BCEC27F0EF5069
:103CD000E66EE8EC27F038EC26F0ADCEEFFF38ECDE
:103CE00026F0ACCEEFFF25EC29F0E66EE8EC27F0ED
:103CF000EBEC27F00D0E28EC26F0010EEF6EBCEC7D
:103D000027F0070EDDEC27F0E66EEBEC27F00E0E49
:103D100028EC26F034EC29F0EBEC27F00F0E28EC21
:103D200026F0ACCEEFFFEBEC27F0DBEC28F0AACED0
:103D3000EEFFABCEEDFF00EC29F0EF9825EC29F07B
:103D4000400B03E000EC29F0EF8800EC29F0EF9A3B
:103D500043EC27F0EBEC27F04CEC27F0DF50146E2F
:103D600000EC29F081EC27F0EBEC27F00C0EC7EC0F
:103D700028F004EC29F091EC27F0F80EEF14F31082
:103D8000EF6E04EC29F0EF96010EDB6A0E01825112
:103D90009AEC26F007E27EEC29F0ECEC28F086ECB9
:103DA00026F0F4D7836B0B010183A0D1DF2AC4D6A0
:103DB000DF6A050EDF5C05E271EC26F002E1DF2A26
:103DC000F8D7050EDF5C02E0EAEF22F00B0101916B
:103DD000EAEF22F0FE0EDB50550A01E1C8D3070AD4
:103DE00001E198D31D0A01E1DFD17A0A01E177D020
:103DF000010A01E0EFD3DF6A090EDF5C01E3EAD3D9
:103E000061EC26F06AE0C3EC27F00C0EDDEC27F045
:103E10000E019C5D62E1E8EC28F0100B02E082519B
:103E20005CE086EC29F03EE082510DE0C0EC27F02A
:103E30000C0EB5EC28F0C0EC27F00B0E28EC26F0A9
:103E400082CEEFFF4AD0C3EC27F00D0E28EC26F00F
:103E5000EFCF89FE95EC29F0C0EC26F0C3EC27F0FB
:103E60000E0E28EC26F0EFCF9AFEC3EC27F00F0ED3
:103E700028EC26F0EFCF9BFE92EC29F0EE50ED10EF
:103E800008E092EC29F041EC26F092EC29F0EE6A81
:103E9000ED6AA0EC29F0F8EC28F02DEC29F08FEC7D
:103EA00026F0AED2825103E038EC29F00DE1DEECD1
:103EB00028F005E0D6EC27F059EC28F004D0D6EC39
:103EC00027F03FEC28F0EF6ED6EC27F0080EB5ECAB
:103ED00028F0F8EC28F0B8EC28F0DF2A8DD717ECA2
:103EE00024F0E76E090EE7CFDBFFD8EC28F00009DD
:103EF00004E0D8EC28F0020822E156EC28F004E1B6
:103F00003CEC26F0100B04E117EC24F00B011F6FC2
:103F100017EC24F00B01206F17EC24F00B01186F45
:103F200017EC24F00B01196F56EC28F004E13CEC7F
:103F300026F0100B04E017EC24F00B011E6FD8ECF8
:103F400028F0000901E0DFD0BBEC28F00AE0CBEC60
:103F500028F007E056EC28F05AE13CEC26F0100B74
:103F600056E156EC28F003E10B011A6B03D00B016C
:103F7000010E1A6F3CEC26F0400B2FE0018582CE3B
:103F800014FB84CE16FB85CE17FBCBEC28F002E0A9
:103F9000000E01D0010E1B6F8ACE1CFB8BCE1DFBC9
:103FA0000DEC27F0AEEC27F0090EB3EC27F0836B95
:103FB0000E0138EC26F01FCBEFFF47EC28F056EC53
:103FC00028F003E1090EDB8804D038EC26F01ECB84
:103FD000EFFF090EB3EC27F084D01ACB88FECBECB0
:103FE00028F002E0000E01D0010E0E01896F1FCBF8
:103FF0009BFE20CB9CFE18CB86FE19CB87FE1ECBEA
:104000009AFE9B5102E15A0EE6D2510EE4D256ECD2
:1040100028F001E0C6D0DF6A050EDF5C05E271EC36
:1040200026F002E0DF2AF8D7050EDF5C01E1B9D007
:104030003EEC29F001E1B5D020CBE6FF1ECBE6FF38
:104040008ACEE6FF8BCEE6FF29EC27F0FF0858E08A
:10405000090EDB98BCEC27F0DBEC28F0090E43ECF2
:1040600029F082CEEFFFBCEC27F018CBEEFF19CB86
:10407000EDFF04EC29F0EF9831EC29F0BCEC27F0CF
:10408000080EB5EC28F082CEE6FFA4EC29F038E06B
:10409000ECEC28F02FEC27F00E01825108E0C7DB92
:1040A00078EC28F001E3DB2A34EC29F0F5D70B019A
:1040B0000181E6EC36F03CEC26F0400B1BE0BCEC5A
:1040C00027F059EC28F0EF6E0DEC27F0090EDB9885
:1040D000B3EC27F00E0147EC28F038EC26F01ECBAD
:1040E000EFFF38EC26F0090EDBCFEFFF0E01A981C0
:1040F000330E71D2BCEC27F03FEC28F0EF6E08D203
:1041000061EC29F04ED0D8EC28F002084AE1DF6AD1
:10411000090EDF5C46E261EC26F041E0C3EC27F0DB
:104120000D0EDDEC27F002080CE195EC29F055ECC2
:1041300027F070EC27F033E1E0CE1CFBE1CE1DFB55
:1041400006D095EC29F0EECF1CFBEDCF1DFB0E0148
:104150008A510B011C1923E10E018B510B011D1912
:104160001EE1BBEC28F00BE1D8EC28F0010812E0CE
:1041700065EC29F014E16AEC29F00CE010D03CEC7D
:1041800026F0100B04E165EC29F004E008D06AEC9D
:1041900029F005E1E6EC36F00E01826B42D6DF2A0B
:1041A000B7D7E6EC36F0B4D10A0EDB6A0E018CB15B
:1041B000DB8A8CB5DB8C020E895D0BE1920EE66E1C
:1041C0000E0EE66E70EC27F001E097D00E01040EA3
:1041D00014D189050AE1921D01E08FD0931D01E001
:1041E0008CD00A0EDB94DB8688D09CCEE6FF9ACE7C
:1041F000E6FFD9C0E6FFDAC0E6FF29EC27F0FF08AA
:1042000003E10E01010EF9D0DF6A050EDF5C05E265
:1042100071EC26F002E0DF2AF8D7050EDF5C01E141
:10422000EAD03EEC29F001E1E6D00A0EDB94DB9601
:10423000D9500A0FB1EC28F00E018C51010B02E0AD
:10424000EF8A01D0EF9ABCEC27F0DBEC28F00A0EE5
:1042500043EC29F0A6CEEFFFBCEC27F086CEEEFFB4
:1042600087CEEDFF31EC29F0BCEC27F0070E28ECEF
:1042700026F09ACEEFFF04EC29F0EF88A6CEE6FFF9
:10428000A4EC29F032E0ECEC28F02FEC27F0010E42
:10429000DB6A0E01A651A60700090CE0010EDBCF78
:1042A000F3FFDB2AF350D8EC26F001E3DB2A34ECF1
:1042B00029F0EFD7D9500A0FB1EC28F0EF50400B9E
:1042C00005E0BCEC27F059EC28F004D0BCEC27F05A
:1042D0003FEC28F0EF6EBCEC27F0080EB5EC28F0B0
:1042E0000B0101810E01826B89D0CFEC27F0A5EC88
:1042F00028F0020EE9260B0E7BD0DF6A090EDF5C88
:1043000005E261EC26F002E0DF2AF8D7090EDF5C57
:1043100072E0110ED5EC28F0F8EC28F06AEC26F0EB
:104320006AE0010EDB6A040EDF5C08E20BEC29F0A8
:10433000D4EC26F003E0010EDB2AF5D7010EDB50AA
:1043400004084FE00D0ED5EC28F00BEC29F0E0EC62
:1043500027F06AEC26F045E0C3EC27F00C0E28ECC1
:1043600026F0EF6AC3EC27F00D0E28EC26F089CE7C
:10437000EFFFC3EC27F00E0E28EC26F09ACEEFFFED
:10438000C3EC27F00F0E28EC26F09BCEEFFF95EC48
:1043900029F092CEEEFF93CEEEFF94CEEEFF95CEB7
:1043A000EEFF96CEEEFF97CEEEFF98CEEEFF99CEC3
:1043B000EEFF010EDB50146E07EC29F081EC27F0C4
:1043C00007EC29F0EF9807EC29F0EF8AA6CEE6FF7C
:1043D00065EC26F092EC29F06AEC26F013E1A0ECF3
:1043E00029F0F8EC28F0A5EC28F0210EE9260B0EB8
:1043F000EA22EE6AED6A0E01F10E826F89EC27F077
:10440000500EE9D0C0EC27F086CEEEFF87CEEDFF50
:10441000C0EC27F09DEC29F08ACEEFFFC0EC27F02E
:10442000090EC7EC28F0C0EC27F00A0E28EC26F0A5
:10443000DFCFEFFF83EC29F092CEEEFF93CEEDFFBE
:10444000C0EC27F0070E28EC26F0A6CEEFFF0E01F9
:104450008B51146E29EC29F014500F0BF36EF346B8
:10446000F346F346F3460F0EEF14F310EF6EC0EC75
:1044700027F00C0EB5EC28F08CA508D007EC29F03D
:10448000EF8829EC29F0B8EC27F005D029EC29F0C9
:10449000F80EEF140109EF6E020E895D07E183EC5F
:1044A00029F0E0CEEEFFE1CEEDFF0AD0895108E120
:1044B00083EC29F0EE6AED6A0A0EDB84DB96DB887A
:1044C000C0EC27F0060EC4DB0A0EDBCFEFFFC0EC1A
:1044D00027F0060EBDDB8C51010B02E0EF8A01D004
:1044E000EF9A8FEC29F02FEC27F0DF6A0E01A6512E
:1044F000A607000909E0DF50DF2AD8EC26F001E327
:10450000DB2A34EC29F0F2D70B01018789EC27F084
:10451000000E61D08A0EE66E0E0EDCEC26F007E08F
:104520000B0EB9CEDBFF0C0EAAEC28F003E10E0156
:10453000030E1AD00D0EB9CEDBFF0E0EBACEDBFF86
:104540009BCEE6FF0D0EDBCFE6FF0E0E98EC27F0BC
:104550000B0EDBCFE6FF0C0EDBCFE6FF45D8146E6B
:10456000070EE15E14500E01826F560E34D00E011C
:10457000A9B703D00E01040E2AD08A0EE66E0E0EE5
:10458000DCEC26F007E00F0EB9CEDBFF100EAAEC34
:1045900028F003E10E01030E1AD0110EB9CEDBFF95
:1045A000120EBACEDBFF9BCEE6FF110EDBCFE6FF8D
:1045B000120E98EC27F00F0EDBCFE6FF100EDBCFCC
:1045C000E6FF43D9146E070EE15E14500E01826FB0
:1045D000590E01D0000E146E130EE15C02E2E16A86
:1045E000E552E16E14508ED388DB0B0EE126DF6AB4
:1045F000010EDB6A040EDB6A640E9CDB38E2040EFB
:10460000DB5035E181EC28F0A7DBDB401CEC28F027
:10461000C1EC28F003E07AEC27F0FDE1E552E71465
:1046200023E0020EDBCFE6FF36EC27F002E0D7DB1B
:10463000FEE1E552E71418E0010EDB50CEEC28F065
:1046400013E1FE0EDB5015180FE1FC0EDB500E01DE
:10465000AC5D0AE1FB0EDB50AD5D06E1010EF36ED1
:10466000040EF3CFDBFF03D0010EDB2AC5D7040E07
:10467000DB502DE1010EDB6AE66EE66ADB401CECE6
:1046800028F0640E57DB0CE2C1EC28F003E07AEC72
:1046900027F0FDE1E552E71403E0010EDB2AECD739
:1046A000010EDB50640852E0010EDB50EEEC27F007
:1046B000FD0EDBCFAAFEFE0EDBCFABFEFC0EDBCF8A
:1046C000ACFEFB0EDBCFADFE0E01AE6926D00A0EAE
:1046D000AECEDBFF0A0EDB50FF081FE0050EE66ED4
:1046E000E66A0A0EDB505DDBD950060FABDA060E28
:1046F000DBCF14F0070EDBCF15F0F90EDB501418EA
:10470000E9E1FA0EDB501518E5E1F80EDB50F36E27
:10471000080EDB50F35CDEE169D0DF6AEFEC28F0D5
:104720001CEC28F0640EDF5C08E2030E64DB02E0A0
:10473000E1DBFEE1E552E71404E1010EDB50DF5C52
:1047400002E1DF2AEBD7640EDF5C02E1870E4FD077
:10475000050EAECEDBFFDFCFAEFEC7DAF90EDBCF44
:10476000AAFEFA0EDBCFABFEF80EDBCFACFE050ED9
:10477000DBCFAEFEDF50EEEC27F06FEC29F01CEC47
:1047800028F074DB02E02BDBFEE1EADAD8DB300F45
:10479000146E9B0E61DA81EC28F068DB02E01FDB0F
:1047A000FEE1146E020EDBCFE7FF1450E71274EC4B
:1047B00029F0C5DB3D0F146E9B0E4EDAEFEC28F0AE
:1047C0001CEC28F0B4DA02E00ADBFEE1C9DADF50C3
:1047D000E840E9DBEFEC28F05DDA020F33DAA7DA24
:1047E00002E0FDDAFEE15ADAA8EC29F0000E146EC0
:1047F0000B0EE15C02E2E16AE552E16E145082D2F6
:104800007CDAE6520A0EE66EE66AE66873EC28F099
:10481000E1EC57F0146E050EE15E1450DF6A060EEF
:10482000DF5C03E214EC29F0FAD7E5526BD20E01FB
:10483000825101E1000C820784CEE9FF85CEEAFFB8
:10484000842B000E8523EF50120057DA050EE12667
:10485000FB0EDBCFE6FFFC0EDBCFE6FF76DAF9DA04
:10486000E76E040EE7CFDBFFDB50FF0802E1050E29
:104870005AD0040EDB50E76E030EE7CFDBFFDB50B0
:10488000DCD9FF0E0E01AE5D4DE0010EAECEDBFFBA
:10489000DB50D3D9AACE14F0ABCE15F0F90EDB5015
:1048A000141839E1FA0EDB50151835E1F80EDB501B
:1048B0000E01AC5D30E1020EAECEDBFF030EDB502D
:1048C000BCD9020EDBCFAEFE6FEC29F0BED9B0DA58
:1048D000010E99DA02E00EDBFEE1F0DADB4063DB89
:1048E000030EDB50F36E040EDB50F35C12E1020E9C
:1048F000DB50FF080EE130DA040EDB40A6D998DA6F
:10490000040E81DA02E0F6DAFEE1D8DA040EDB40CA
:104910004ADB000E08D0010EDB50E76E030EE7CF36
:10492000DBFFAFD7050E146E050EE15C02E2E16A13
:10493000E552E16E1450E6D1E0D9E652DF6A060E88
:10494000DF5C15E2B4D901E1E11D0FE0080EE66E6F
:10495000E66AC9DBFAD94BEC57F0146E060EE15E3D
:104960001450000902E1010E03D0DF2AE8D7000E3F
:10497000E552C8D1C2D90B0EE12625DA010ED9269F
:104980005DDA5CDA0B0ED95E1EDA9DEC29F08DDA69
:104990001ED8E552E55200090CE1DF6A060EDF5C25
:1049A0000CE285D908E1E11D06E10A0EE4D92EDB0F
:1049B00053D9010E03D0DF2AF1D7000E146E0B0E6F
:1049C000E15C02E2E16AE552E16E14509BD195D9B7
:1049D000E652DF6A060EDF5C13E269D901E1E11DF0
:1049E0000DE0F1D9EECF14F0EFCF15F01450E0192F
:1049F00005E11550E11902E1010E03D0DF2AEAD7E3
:104A0000000EE5527FD179D9030EE126DF6A640EEC
:104A1000DF5C25E202DB02E06DDAFEE1E552E7143D
:104A20001CE0010EDBCFE6FF82D902E0D8D9FEE11F
:104A3000E552E71412E0DF50B1DB0FE1FE0EDB5070
:104A400015180BE1FC0EDB500E01AC5D06E1FB0E10
:104A5000DB50AD5D02E1DF5003D0DF2AD8D7FF0E77
:104A6000146E030EE15C02E2E16AE552E16E14505D
:104A700049D143D90A0EE126DF6A640EDF5C01E307
:104A80008DD0CBDA02E036DAFEE1E552E71401E13F
:104A900083D0010EDBCFE6FF4AD902E0A0D9FEE1C8
:104AA000E552E71401E178D0DF5078DB22E1FE0E19
:104AB000DB5015181EE13BD902E091D9FEE179ECFB
:104AC00029F035D902E08BD9FEE193DAFF0E0E0111
:104AD000AE5D62E041D9FBDA02E081D9FEE1D9DBCB
:104AE000050EE66EE66A0E01AE515BD925DBA9DA4A
:104AF000EDD7DF50A0DB1522080E14C0DBFF090E36
:104B000015C0DBFFFF0E0E01AE5D33E0AE5166DA7D
:104B1000A7DAD950030F96D8030EDBCF14F0040E9A
:104B2000DBCF15F0FD0EDB50141819E1FE0EDB5043
:104B3000151815E111D90E01CADA02E050D9FEE1CB
:104B4000A8DB070EDBCFAEFE050EE66EF5DA080E2B
:104B5000DBCFE6FF090EDBCFE6FFBEDAD3D7080EC8
:104B6000AFCEDBFF090EB0CEDBFF0E01AE5165D834
:104B7000C9D7DF5062D8FF0E0E01AE5D0DE12FDB0D
:104B80004EDBD5D802E02BD9FEE1B3DBD1DBCFD8A9
:104B900002E025D9FEE12DDADF2A6FD70A0EE15CAB
:104BA00002E2E16AE552E16EADD0A7D8CED80FDFC0
:104BB000E552E552000923E1180E146EE66E03D9A2
:104BC000EECFE6FFEFCFE6FF42EC14F0C0D919E0DC
:104BD0000E017DD9010803E07AD9000912E1B1CEB6
:104BE000D8FEB2CED9FEB3CEDAFEB4CEDBFEB5CE61
:104BF000DCFEB6CEDDFEB7CEDEFEB8CEDFFE010EA9
:104C000001D0000E7FD079D8A0D86AD90CE1180E57
:104C1000146EE66E9AD82DEC14F099D906E0B9CE50
:104C2000E0FEBACEE1FE010E01D0000E6BD037DB04
:104C300074D2ADD972D2C4D970D2D0D911DA7CDA9B
:104C400021EF28F02EDA21EF28F031DB13EF28F0E6
:104C5000E926000EEA221200152214C0E6FF15C054
:104C6000E6FFC6EC52F0166E050EE15E165012001D
:104C7000A751A70792EF28F0D950090F72DAEF5029
:104C80001200EECFE6FFEFCFE6FF0BEC55F0E5525A
:104C9000E5521200A8DAC7D9D9501200E81C146EE8
:104CA000020EDBCFE7FF1450E71674EF29F00A0E6F
:104CB000E66EE66AABD9B7D916DAC3D90E01E01DA4
:104CC000120096DAEE50ED10120078EC54F0E55236
:104CD000ADEF29F0F3CFEEFF15C0EDFF1450151026
:104CE00012005DD9EE50ED101200E66E25DAAFCE5F
:104CF000E6FFB0CEE6FF6CEF28F0D9CFE6FFE1CFBC
:104D0000D9FF1200E552E7CFD9FF1200D5D90E0125
:104D1000A651A62B07DAA8DA010EDB2A120037D932
:104D2000EE6AED6A12004CD9EE6AED6A1200070EC7
:104D3000DF1437D2F36E010EDBCFF4FFF350F45CD7
:104D400012002DD9EE6AED6A1200FD0EDBCFE6FFF0
:104D5000FE0EDBCFE6FF1200010EE66EE66A1200E1
:104D6000146E030EDBCFE7FF1450E712030ECFD90A
:104D7000030F51EF28F0E66ED950010F51EF28F0E4
:104D8000EECF92FEEECF93FEEECF94FEEECF95FEE9
:104D9000EECF96FEEECF97FEEECF98FEEFCF99FEC8
:104DA000120049DA13EF28F00BD9EE50ED10120083
:104DB000B9D9EF5078EF28F0E66E2DEC14F0E552FB
:104DC000E55218081200FD0EDBCFE9FFFE0EDBCF27
:104DD000EAFF12000C0BE842E84201081200E84624
:104DE000FE0B15061200AACE14F0ABCE15F0FD0E88
:104DF000DB5014181200DBCFE6FF070EDF14146E31
:104E0000010E14521200DB50070B146E010E1452E7
:104E10001200040EEA6ADB3412008ACE92FE8BCEB8
:104E200093FE0E010A0E8A6F010E8B6F826B1200C9
:104E3000D9CFE6FFDACFE6FF21EF28F0EECFDEFF95
:104E4000EECFDEFFEECFDEFFEECFDEFFEECFDEFFFA
:104E50001200D9DDE552E552E552E5521200020E8C
:104E6000EECFDBFF030EEDCFDBFF1200010EDB50B8
:104E7000070B97D1156E166A14C0E6FFE66E16C0D2
:104E8000E6FFD9501200F8EC58F007C015F008C042
:104E900016F009C017F0120006C0EEFF15C0EEFFB5
:104EA00016C0EEFF17C0EEFF1200E9CF14F0EACFF4
:104EB00015F0E9CFE6FFEACFE6FF1200E81CDF16A7
:104EC000010EE66ED9CFE6FFDACFE6FF1200C05141
:104ED000C00BE842E842E842E842E842E8421200F9
:104EE0002BDDE552E552000912000C0BE842E842C6
:104EF00002081200E846FE0B14061200E66E6CEF84
:104F000028F014500F0BF36EF00EEF14F310EF6E49
:104F100012000E01A9910E017F0EA76F0E01A66B64
:104F20001200EF50070BE806E850070BF36E120073
:104F3000DBCFE6FF9CCEE6FF9ACEE6FF1200010E25
:104F4000DB40B2EF29F0070E0E01AE152AD1E55273
:104F5000E552E552E7CF14F0145C1200E9EC13F0CF
:104F60000E019C6F1200DB9CDB90DB82DB9A12004F
:104F7000F80EEF1404091200EA6ADF3417EF26F086
:104F80004AD91BEF26F0EA6ADF3419EF26F0FE0B50
:104F9000EA36E96E210EE9260B0EEA221200EA6AD1
:104FA000DF344FEF29F083D92CEF26F034D917EFF7
:104FB00026F0EA6ADF341BEF26F04ADEEF501200DB
:104FC000FE0BEA36E96E0C0EE9260B0EEA22120001
:104FD0004FDE34EF29F01FD919EF26F0050DF3CF7E
:104FE000AFFEF4CFB0FE3C0E0E01AF27990EB023FA
:104FF0001200E81C146E010EDBCFE7FF1450E71619
:10500000010EE7CFDBFFB7DEA8EF29F0DF500A0D76
:10501000A4D9410E14269D0E12008AD9E0D8FFD8DB
:10502000020EFBEF26F01522166A14C0E6FF15C02B
:10503000E6FF16C0E6FF120008DED950030F22EF8C
:1050400026F0BEEC57F0176E070EE15E1750120007
:10505000060EFEDDAECEEFFF1200DBDE19EF26F00E
:10506000050EE66EE66AAFCE14F0B0CE15F0166A05
:10507000AFCEE6FFB0CEE6FF16C0E6FF12005DD968
:10508000F80EEF1401091200020E28EF26F0F0DDF1
:1050900019CBEFFFEDDD18CBEFFFEADD20CBEFFF03
:1050A0001200E66E000EDA20E66E1200E5DDEAEF91
:1050B00026F043D9B8EF27F01450EE24E76E1550D0
:1050C000EE20EA6EE7CFE9FFEF50E66E1200AE5138
:1050D000E840A5D8A3EF27F0C6EC52F0146E050EF9
:1050E000E15E14501200D80EE66E0E0EE66E12004F
:1050F000E66E020EDBCFE9FFDB2A030EDBCFEAFF11
:1051000012002ADEDB40C6DD020F22EF26F0E7CFD9
:10511000DBFF010EE66ED9501200EE50EFCFEAFF32
:10512000E96E1200EA6A000FE96E0E0EEA22120022
:105130008FDDEFCF82FE1200AA0EE66E0E0EE66E37
:1051400012009FDD68D893EF26F087D8FE0BEA3671
:10515000E96E1200BACEDBFF920EE66E0E0EDCEFA9
:1051600026F0E96EDACFEAFF120072DDEF86120058
:1051700074D88FEF26F080DD0C0BE842E84200097E
:105180001200030EDBCFE6FF010E03EF27F060DD18
:105190009CCEEFFF120070DD75EF27F04EDDF3EFD0
:1051A00026F0156E010E15521200E66E65EF26F020
:1051B00063DD030B1200040E28EF26F0F7DED7D8CC
:1051C0003CDDF4DE45DFF2DE040EF7DE400B1200BC
:1051D000DADE100EDDEF27F0CFDE44EF28F0BCDD85
:1051E000DF50E8401200BED83D0F146E9B0E120037
:1051F000EA6ADF34C7EF27F0E66EEADED9EF27F080
:10520000EADE100E28EF26F0B7DE9DEF29F0BBDEB8
:10521000100E28EF26F0010EEA6ADB34120015DDCD
:10522000D950020F22EF26F00A0EE66E5CDFEEDEAA
:1052300013DDDF2A1200050D90D83C0E1426990EBE
:105240001200B7DE0C0EDDEF27F096DE040EDDEF68
:1052500027F096DE0C0E28EF26F013DDEA6ADF3425
:1052600012008ADE28EF28F0E552E750EF6E1200B8
:105270009DDE080EA2DE070B00091200090E95DF65
:105280008EDE6AEF26F0DBCFEFFF76DE050E28EF2D
:1052900026F004DD0E01AE51E840D3EF27F0FE0BFF
:1052A000EA36E96E020EE9260B0EEA2212005AD8FF
:1052B000300F146E9B0E120080DEE66E0E01E8EFDA
:1052C00027F06DDEDEDCA1EF26F05DDE0E0E75DE72
:1052D0001F5D120058DE0F0E70DE1E5D1200050EFF
:1052E00004DD3ADDDB401200020E11DF020F51EF48
:1052F00028F0D4DCDF50E840D3EF27F0010EDB507C
:10530000146E156A12003CDE44EF28F061DF0F0BCB
:10531000E76E010EE7CFDBFF5BDF200B120049DEFB
:10532000DBEF28F02DDEDBEF28F02DDEDBEF28F0C1
:1053300056DFB0DC010F22EF26F0080E28EF26F032
:105340006ADF3EDEA1EF28F0C0DC46DF6AEF26F020
:10535000DF50E84048DF2CEF26F0F3CF14F0F4CF15
:1053600015F01200E840E8401F0B156A1200060E07
:04537000DDEF27F056
:0C537400030E0001FE1501E1000C010C0D
:105380000001FE6BF96BFA6BFB6BFC6B12006DECB2
:1053900034F05F0EE126DF6AFE0EDB5001E0FED046
:1053A0000E01A9A103D0000E87EF2EF00001FEA18F
:1053B0003FD0FB51FC113BE0F8EC58F0010E06C069
:1053C000DBFF020E07C0DBFF67EC35F0C6EC36F002
:1053D00011E1C4EC33F020EC35F0010F16EC34F0A1
:1053E00009E3DFEC35F0F00EEF140509EF6EDFECAA
:1053F00035F0EF8AC6EC36F01BE0DFEC35F0EF500D
:105400000F0BE66EFBC0E6FFFCC0E6FF4FEC31F091
:10541000E552E552E552DF6EFBC0E6FFFCC0E6FF59
:1054200011EC34F00001FB6BFC6BFE91B5D0FE91EA
:105430000001FEA386EF2EF0F8EC58F0060E06C031
:10544000DBFF070E07C0DBFF080E08C0DBFF090EFD
:1054500009C0DBFFABEC33F0100EA7EC33F020EC0F
:1054600035F0060F16EC34F002E3840E54D0AEECA7
:1054700036F0010B09E1010EE66E29EC33F0E5523E
:10548000D8EC35F0EF800BD0AEEC36F0020B0AE131
:10549000E66A29EC33F0E552D8EC35F0EF824F0E96
:1054A00087EF2EF0ABEC33F0140EA7EC33F0FF0EC9
:1054B000EE1802E1FF0EED1802E186EF2EF0ABECE4
:1054C00033F0160EA7EC33F0FF0EEE1802E1FF0EDC
:1054D000ED1802E186EF2EF0AEEC36F0080B06E098
:1054E0000E018051811102E086EF2EF0050EDB6A7D
:1054F000AEEC36F0040B08E0E3EC35F0D6EC34F01B
:1055000000090DE0870E07D0E3EC35F034EC34F001
:10551000000905E0880EF36E050EF3CFDBFFAEEC5D
:1055200036F0080B12E0AEEC36F0040B01E0010E91
:10553000E66E050EDBCFE6FF6FEC33F0B4EC35F032
:1055400002E0510E1ED0DF6A1DD0BEEC33F0050E16
:10555000DBCFEFFFABEC33F01D0EEB500001FD6F26
:10556000180EA7EC33F0EECF8AFEEDCF8BFEAEEC3B
:1055700036F0040B02E0A10E01D0A20E57EC35F07C
:105580004F0EDF6EF9C0E6FFFAC0E6FF11EC34F013
:105590000001F96BFA6BFE93DF50B9D3FE0EDB50BE
:1055A0005C0A01E1A9D3070A01E19CD3060A01E1E3
:1055B00042D3070A01E0AAD30E019CAF4DD00B0ED7
:1055C000DB6A800E9C5D42E10001FE51020B3EE071
:1055D000030E0E0178EC34F039E1B8EC35F0ABECA9
:1055E00033F0F9C014F0FAC015F0F9C0E6FFFAC0C4
:1055F000E6FF040E8DEC34F00DE10C0E0E010BEC09
:1056000036F0140EF3EC35F00D0E0BEC36F0140EF4
:105610009FEC36F0B8EC35F0ABEC33F059EC36F0EB
:10562000E9CFE6FFEACFE6FF040E0E018DEC34F081
:105630000DE10C0E0E010BEC36F0160EF3EC35F00E
:105640000D0E0BEC36F0160E9FEC36F00B0EDB5009
:1056500001E0EED2510E5BD3E5EC34F00C0EE7CF57
:10566000DBFFDB50F00B200801E0E2D217EC24F066
:105670000001FD6FE5EC34F00A0EE7CFDBFF0E0111
:105680009C51300A01E1C8D2010A01E1C5D2030AE6
:1056900001E1C2D2010A01E1BFD2060A01E1BCD296
:1056A000010A01E1B9D2160A01E1A8D2030A01E117
:1056B00098D2010A01E18ED2300A01E181D2010AB9
:1056C00001E17ED2030A01E17BD2060A01E178D230
:1056D000120A01E122D1030A01E1EED0010A5EE0E3
:1056E000070A49E0010A38E0030A2EE0010A01E056
:1056F0009FD20D0EDB6A080EF36E0D0EEDEC33F04B
:105700001EE2010EE66EE66A0D0EDB50156A2A0FE8
:10571000146E000E3BEC36F0D9500E0F72EC34F0E4
:10572000E5EC34F00F0EE7CFDBFFDB50F36E0E0E2F
:10573000DB50F35C01E07CD20D0EDB2ADCD7800E5F
:10574000E66EEDDAE552E6D02AEC35F001E170D2F2
:10575000810EE66EE4DA69D22AEC35F001E168D216
:10576000CAEC36F0B8EC35F0E60E146EB20E41EC31
:1057700036F0820E58D22AEC35F001E159D2CAEC4B
:1057800036F0020EE66EE66AEE0E146EB20EC9EC4C
:1057900033F0020E0E01A627830E45D22AEC35F017
:1057A00001E146D2E5EC34F0100EE7CFDBFF0E014D
:1057B000030EA66F100EDB50000873E2100EDB50D4
:1057C000146E156A153404E21450F008000E1554D6
:1057D00068E3110EDB68110EDB2A1C0EE66EE66A2A
:1057E000110EF6EC33F0D950120F72EC34F0100EAB
:1057F000DB50F36E120EDB50F35C06E0020EF36E2C
:10580000110EEDEC33F0E7E3110EDB50020804E17A
:10581000D2EC36F0830E48D0D2EC36F0EF6AD1EC01
:1058200035F0230EDBCFE6FF180EDB50080FE552F4
:10583000E724E66EF6EC35F0120E4AEC36F0130E65
:105840004AEC36F0140E4AEC36F0150E4AEC36F0FF
:10585000160EDBCFEFFF2BEC36F0F00BE842E84200
:10586000E842E842100D2BEC36F00F0BF310E66E19
:10587000F6EC35F0180E6EEC35F0190F5BEC34F0E9
:10588000180EDB500E01A627A4EC33F0230E6EECAD
:1058900035F0240F5BEC34F0230EDB500E01A6270D
:1058A00009D0A4EC33F0820EEF6ED1EC35F0A4EC0D
:1058B00033F0EF6A840EB7D12AEC35F001E1B8D1AC
:1058C0004B0E89CEDBFFCAEC36F0A4EC33F0020EAF
:1058D000EF6E2E0EDB6A020EF36E2E0EEDEC33F041
:1058E00012E21C0EE66EE66A2E0EF6EC33F0D9508C
:1058F0002F0F72EC34F0D2EC36F02F0EDBCFEFFF2F
:105900002E0EDB2AE8D7850E57EC35F04B0EDB5018
:1059100001E18CD10E018C8589D12AEC35F001E1B1
:1059200087D15C0E89CEDBFF4C0EDB6A4F0EDB6A43
:10593000500EDB6A540EDB6A560EDB6A570EDB6ACA
:105940001C0E9EEC34F05A0EF3CFDBFF5B0E01EC25
:1059500034F001E109D1E5EC34F0580E6BEC36F08F
:10596000590E6BEC36F0530EE7CFDBFFDB501DE03A
:10597000530EDBCFE6FF78EC54F0E5524F0EF3CF39
:10598000DBFF500E01EC34F001E1EED04E0EDB6A8D
:10599000530EDB506FEC36F008E21CEC35F04E0E87
:1059A000B8EC36F0B1EC36F0F3D7E5EC34F0550E48
:1059B000E7CFDBFFDB501DE0550EDBCFE6FF78ECD9
:1059C00054F0E552560EF3CFDBFF570E01EC34F0E6
:1059D00001E1CAD04E0EDB6A550EDB506FEC36F09B
:1059E00008E21CEC35F04E0EBFEC36F0B1EC36F0B0
:1059F000F3D7530EDB5008E1550EDB5005E1010EE5
:105A0000F36E4C0EF3CFDBFF070E0E01A627010E3F
:105A1000F36E4E0EF3CFDBFF020E6FEC36F001E3B8
:105A20007ED0520EDB6A1C0EE66EE66A4E0EF6EC77
:105A300033F075EC35F017EC36F03BEC34F0EE5209
:105A4000EECF14F0EFCF15F0580EDB50141858E1DC
:105A5000590EDB50151854E14C0EDB5003E051ECAD
:105A600035F04ED04D0EDB6A3BEC34F0110E08ECF5
:105A700036F04D0EEDEC33F01CE2510EDB6A530EA6
:105A8000DB50F36E510EEDEC33F010E2510EB8EC3A
:105A900036F033EC36F0120EA7EC33F0A3EC34F012
:105AA00002E151EC35F0510EDB2AE9D74D0EDB2A2D
:105AB000DBD74D0EDB6A3BEC34F0060E08EC36F01B
:105AC0004D0EEDEC33F01CE2510EDB6A550EDB504F
:105AD000F36E510EEDEC33F010E2510EBFEC36F0E8
