:020000040000FA
:06000000A6EF00F0120063
:020006000000F8
:080008000AD8898089928980E1
:1000100089920CD88990898209D8F9D712000F0EDD
:10002000C16E040E896EE00E926E1200D9CFE6FF0B
:10003000E1CFD9FF040EE126DE6ADD6A020EDB6A3B
:10004000030EDB6A020EDB6A030EDB6A020EDBCFF5
:1000500002F0030EDBCF03F0D890035004E6640EE9
:10006000025C000E035819E2DE6ADD6ADECF02F0A0
:10007000DDCF03F0D890035004E6E80E025C030ED7
:10008000035805E2DF2A010E01E3DB2AEFD7020E57
:10009000DB2A030E01E3DB2AD9D7040EE15C02E27E
:0E00A000E16AE552E16EE552E7CFD9FF1200AA
:0200AE00060E3C
:1000B000F66E000EF76E000EF86E00010900F550A6
:1000C000856F0900F550866F03E1856701D03DD04B
:1000D0000900F550806F0900F550816F0900F55057
:1000E000826F09000900F550E96E0900F550EA6ECB
:1000F000090009000900F550836F0900F550846F6D
:1001000009000900F6CF87F0F7CF88F0F8CF89F023
:1001100080C0F6FF81C0F7FF82C0F8FF0001835363
:1001200002E1845307E00900F550EE6E8307F8E220
:100130008407F9D787C0F6FF88C0F7FF89C0F8FFAA
:0C01400000018507000E865BBFD712008F
:04014C001EEE00F0B3
:100150002EEE00F0F86A019C57EC00F0BBEC00F0CA
:0801600004EC00F0FBD71200D3
:0801680000EE00F00F0EEE6A3C
:06017000EA62FDD7120057
:02017600120075
:020000040030CA
:0100010006F8
:010002001FDE
:0100030012EA
:01000500807A
:010006008178
:00000001FF
