:020000040000FA
:0600000015EF46F01200AE
:0600080062EF38F0120067
:0600180062EF38F0120057
:06002A006700000000A3C6
:020030000400CA
:0E0032000100668C0000F20E000002000000CB
:100040000001B651000801E2010C000C0E0182070C
:1000500084CEE9FF85CEEAFF842B000E8523EF5086
:10006000120080CEE6FF81CEE6FF80EC3FF0E55245
:10007000E5520E01806B816B12000F010A5101E005
:10008000000C8B94010CD9CFE6FFE1CFD9FF090E0C
:10009000E126080EE66EE66A2A0E146E000E156E54
:1000A000166A14C0E6FFE66E16C0E6FFD9CFE6FF7B
:1000B000DACFE6FF61EC44F0176E070EE15E1750F1
:1000C00013EC36F0DAEC10F0EBEC10F0080EDB6A13
:1000D000F36EDBCFF4FFE850F45C19E2D9CF14F0F3
:1000E000DACF15F0080EDB500F01D924E96E000EAF
:1000F000DA20EA6EEF50E66E080EDB50050FE66E72
:10010000AEEC37F0E552E552080EDB2AE1D70B0ED4
:100110000F01055D100DF3500209E66EE66A020E4E
:10012000E66E66EC37F0E552E552E552040EE66EF7
:10013000360EE66EAEEC37F0E552E552E66A360E64
:10014000E66EAEEC37F0E552E552090EE15C02E2F4
:10015000E16AE552E16EE552E7CFD9FF1200D9CF4F
:10016000E6FFE1CFD9FFE6520E017F0EA76F0E0129
:10017000A66BDF6ADF50146E156A050E145C000E64
:1001800015580DE2EA6ADF34FE0BEA36E96E910E8D
:10019000E926000EEA22EE6AED6ADF2AEBD70E01AD
:1001A000010E826F240EE66E09D8E5520001B66B8F
:1001B000886BE552E552E7CFD9FF1200D9CFE6FFB1
:1001C000E1CFD9FF2B0EE126FE0EDB5001E048D334
:1001D0000001B6AB09D0B69B010E02CFDBFF020EC9
:1001E00003CFDBFF9FEF06F07EEC45F0030E04C06B
:1001F000DBFF040E05C0DBFF050E06C0DBFF060EAD
:1002000007C0DBFF0F010A51100B1EE0D950030F8E
:10021000E96EDACFEAFF00018451EE5C146E85517D
:10022000EE58156E8651EE58166E8751EE58176EC1
:10023000D880260E1454070E1554000E1654000EC6
:10024000175402E20F010A990001B6A34BD00F0127
:100250000DAD48D00F01F250100B02E0018F01D01C
:10026000019FF2980F010D9D0DAF0CD00D9F0F0156
:100270000151800B02E0F28801D0F2980001B68BA8
:100280007FEF0BF00F010151800B02E0F28801D0EB
:10029000F2980001B6930E01A9910E017F0EA76F8F
:1002A0000E01A66B000188A70AD00E018869896932
:1002B000E90E826F00018897B6971AEF0AF088A9B5
:1002C00005D088990E01E90E73EF10F088AF05D0C4
:1002D000889F0E01E90E7EEF0EF00E01E90E826F8F
:1002E00047EF0CF00001B6A90AD0B6510E01859176
:1002F000020B02E16CEF0BF085816CEF0BF00E014D
:10030000A9B17FEF0BF0000188AB21D0D950030FCA
:10031000E96EDACFEAFF8451EE5C146E8551EE5837
:10032000156E8651EE58166E8751EE58176ED880AE
:10033000260E1454070E1554000E1654000E1754B2
:1003400006E20F010A990001889BC3EF06F0B6A7E9
:1003500057D088B92FD0D950030FE96EDACFEAFF12
:100360008451EE5C146E8551EE58156E8651EE5830
:10037000166E8751EE58176ED880000E1454B40EC6
:100380001554000E1654000E175414E2B6B312D0D2
:100390000E01836B000188890E01020E896FB1C0C6
:1003A0009AFEB2C09BFE81C092FE82C093FE310EC7
:1003B000CEEF10F0D950030FE96EDACFEAFF845187
:1003C000EE5C146E8551EE58156E8651EE58166E21
:1003D0008751EE58176ED880000E1454B40E155481
:1003E000000E1654000E17540BE2B6970E018869E2
:1003F0008969EB0E826F0001B693886B1AEF0AF0E1
:10040000B6A5CDEF10F00F0EE66E020EE66E04EC10
:1004100038F0E552E552E76E0B0EE7CFDBFF7EECDE
:1004200045F0030E04C0DBFF040E05C0DBFF050E24
:1004300006C0DBFF060E07C0DBFFD950030FE96ED5
:10044000DACFEAFF0001C451EE5C146EC551EE58DC
:10045000156EC651EE58166EC751EE58176E070E40
:1004600014C0DBFF080E15C0DBFF090E16C0DBFF52
:100470000A0E17C0DBFFB6BD9DD1CCC017F0146AC1
:10048000156A166A800E17161450151016101710DC
:100490003EE0B695BBC08AFEBCC08BFEBDC08CFEE4
:1004A000BEC08DFE0E01826BCEC084FECFC085FE25
:1004B000CEC086FECFC087FEBFC088FECDC083FE03
:1004C0000001BF0503E0020EBF5D04E10E01835190
:1004D00007E104D0030EBF5D03E10E01EA0E826F57
:1004E000E66AD9EC37F0E552E76E0C0EE7CFDBFF9A
:1004F000DB50FE0BE76E0C0EE7CFDBFFDBCFE6FF3A
:10050000E66AAEEC37F0E552E552FDEF0FF0B7A129
:100510002FD10F01052B030EDBCFC4F0040EDBCF70
:10052000C5F0050EDBCFC6F0060EDBCFC7F000012D
:10053000D890BA33B933B833B733C951CA11CB11D4
:10054000CC1106E1010EC96FCA6BCB6BCC6B05D029
:10055000D890C937CA37CB37CC37C951BB1BCA5122
:10056000BC1BCB51BD1BCC51BE1BB68D0B0E0F015E
:10057000055D100DF3500209E66EE66A020EE66EA6
:1005800066EC37F0E552E552E552040EE66E360EA3
:10059000E66EAEEC37F0E552E552E66A360EE66EF0
:1005A000AEEC37F0E552E5520001BF51030A56E0C8
:1005B000010A02E1CDEF10F0030A07E0010A02E0B0
:1005C000CDEF10F0D26BCDEF10F00B0EDB508008AA
:1005D00002E1CDEF10F00E01A651A62BEA6A000F42
:1005E000E96E0E0EEA22070EEF6E0E01A751A70765
:1005F000EA6A000FE96E0E0EEA22EF68A751A7071C
:10060000EA6A000FE96E0E0EEA22EF68A751A7070B
:10061000EA6A000FE96E0E0EEA22EF68A751A707FB
:10062000EA6A000FE96E0E0EEA22EF680001AE5191
:10063000AE2BE66E0E01A751A707EA6A000FE96E1E
:100640000E0EEA22E552E750EF6EA751A707EA6ABD
:10065000000FE96E0E0EEA22080E79D00B0EDB5069
:10066000800802E1CDEF10F00E01A651A62BEA6A38
:10067000000FE96E0E0EEA22060EEF6E070E0E0157
:10068000A75F080EE66EE66A2A0E146E000E156E5F
:10069000166A14C0E6FFE66E16C0E6FFA751186A98
:1006A000000F176E0E0E182217C0E6FF18C0E6FFE7
:1006B00061EC44F0196E070EE15E19500E01A707B8
:1006C000A751A707EA6A000FE96E0E0EEA22EF684B
:1006D000A751A707EA6A000FE96E0E0EEA22EF683B
:1006E000A751A707EA6A000FE96E0E0EEA22EF682B
:1006F000A751A707EA6A000FE96E0E0EEA22EF681B
:10070000A751A707EA6A000FE96E0E0EEA22EF680A
:10071000A751A707EA6A000FE96E0E0EEA22EF68FA
:100720000001AE51AE2BE66E0E01A751A707EA6A93
:10073000000FE96E0E0EEA22E552E750EF6EA75168
:10074000A707EA6A000FE96E0E0EEA22C80EEF6EE6
:10075000A751A707EA6A000FE96E0E0EEA22030E00
:10076000EF6E0001886B0E01859185976CEF0BF0A1
:100770000F01052B0001D890BA33B933B833B73322
:10078000C951CA11CB11CC1106E1010EC96FCA6B58
:10079000CB6BCC6B05D0D890C937CA37CB37CC37A9
:1007A000C951BB1BCA51BC1BCB51BD1BCC51BE1B7D
:1007B000CDEF10F0BF5133E1800EE66E3E0EE66ED7
:1007C000AEEC37F0E552E5523E0EE66ED9EC37F06E
:1007D000E552E76E0D0EE7CFDBFFDB50010B0108A2
:1007E000F3E1100EE66E020EE66E04EC38F0E55210
:1007F000E552E76E0D0EE7CFDBFFDBCF14F0000113
:10080000D251D880145403E20D0EDBCFD2F0400E4B
:10081000E66E3E0EE66EAEEC37F0E552E552D9508C
:10082000070FE96EDACFEAFF0001C051EE5CC1515B
:10083000EE58C251EE58C351EE5802E2CDEF10F01F
:10084000BF510BE1D0C0E9FFD1C0EAFFD02B000EB1
:10085000D123D2C0EFFFCD2BD26BB69DCDEF10F0E0
:10086000FE0EDB50310A02E16EEF10F01C0A02E1CD
:1008700037EF10F0050A02E19AEF0FF00C0A02E1DF
:1008800040EF0FF0070A02E181EF0EF03A0A02E1B1
:100890000DEF0EF00E0A02E1A6EF0DF0020A02E1E2
:1008A000EAEF0CF0060A02E14CEF0CF0030A02E159
:1008B0001DEF0AF0130A02E0CDEF10F00E01A99D22
:1008C00026EC00F0E76E010EE7CFDBFF26EC00F030
:1008D000E76E020EE7CFDBFF26EC00F0E76E0E0EB0
:1008E000E7CFDBFFD950010FE96EDACFEAFFEE5216
:1008F000EF500C0BE842E8420E01896FD950010F0E
:10090000E96EDACFEAFFEE52EF50C00BE842E84260
:10091000E842E842E842E842886F020E895D11E150
:1009200026EC00F00E019A6F26EC00F00E019B6F92
:1009300026EC00F00E01926F26EC00F00E01936F92
:100940002BD0030E895D28E126EC00F00E019A6F92
:1009500026EC00F00E019B6F26EC00F00E01926F6A
:1009600026EC00F00E01936F26EC00F00E01946F60
:1009700026EC00F00E01956F26EC00F00E01966F4C
:1009800026EC00F00E01976F26EC00F00E01986F38
:1009900026EC00F00E01996F020E885D1EE1D95021
:1009A000010FE96EDACFEAFFEF50400B05E0B1C06E
:1009B00086FEB2C087FE08D026EC00F00E01866FDE
:1009C00026EC00F00E01876F26EC00F00E018A6F16
:1009D00026EC00F00E018B6F38D0030E885D35E1F8
:1009E000D950010FE96EDACFEAFFEF50400B05E076
:1009F000B1C086FEB2C087FE08D026EC00F00E0122
:100A0000866F26EC00F00E01876F26EC00F00E01D9
:100A10008A6F26EC00F00E018B6F26EC00F00E01C1
:100A20008C6F26EC00F00E018D6F26EC00F00E01AD
:100A30008E6F26EC00F00E018F6F26EC00F00E0199
:100A4000906F26EC00F00E01916F8251EA6A8425C6
:100A5000E96E8551EA22020EE95E000EEA5AEFCFF6
:100A60009DFE020E825FD950010FE96EDACFEAFFD8
:100A7000EF50070B030A01E1CDD1010A01E153D187
:100A8000020A15E0010A01E0DAD1921D03E1931D8B
:100A900001E1D5D1000188AB07D0889B0E018251BE
:100AA00003E131EC00F06FD1120ECEEF10F00E0E1C
:100AB000DBCF96FE05CF89FE26EC00F00E019A6F83
:100AC00026EC00F00E019B6F26EC00F0E76E100E96
:100AD000E7CFDBFF0E01996BD950100FE96EDACF2B
:100AE000EAFFEF50800B02E0010E996F26EC00F058
:100AF000E76E100EE7CFDBFF7EEC45F004C092FE00
:100B000005C093FE06C094FE07C095FE0001B6A581
:100B100004D1BF0504E0020EBF5D01E0FED0CE515E
:100B2000CF1112E1150EE66EB6EC3EF0E552110E55
:100B3000F3CFDBFF120EF4CFDBFF110EDBCFCEF0D5
:100B4000120EDBCFCFF057D0110ECEC0DBFF120E4E
:100B5000CFC0DBFF110EDBCFE9FF120EDBCFEAFFC8
:100B6000130EE926000EEA22EE50ED1011E0110EF0
:100B7000DBCFE9FF120EDBCFEAFF130EE926000EF2
:100B8000EA22110EEECFDBFF120EEDCFDBFFE2D734
:100B9000150EE66EB6EC3EF0E552F4CF15F0110EF0
:100BA000DBCFE9FF120EDBCFEAFF130EE926000EC2
:100BB000EA22F3CFEEFF15C0EDFF110EDBCFE9FF08
:100BC000120EDBCFEAFF130EE926000EEA22EE50EA
:100BD000ED1001E1A2D0110EDBCFE9FF120EDBCF49
:100BE000EAFF130EE926000EEA22110EEECFDBFF1C
:100BF000120EEDCFDBFFD950110FE96EDACFEAFF0D
:100C0000EE50ED1001E189D00001CD2BFD0E0E015B
:100C10008815146E110EDBCFE9FF120EDBCFEAFF51
:100C20001450010BF36EFE0EEF14F310EF6E99519A
:100C3000146E110EDBCFE9FF120EDBCFEAFF14506A
:100C4000010BF36EF346FD0EEF14F310EF6E110E71
:100C5000DBCFE9FF120EDBCFEAFF020EE926000E22
:100C6000EA2286CEEEFF87CEEDFF110EDBCFE9FF45
:100C7000120EDBCFEAFF040EE926000EEA228ACE2E
:100C8000EEFF8BCEEEFF8CCEEEFF8DCEEEFF8ECE46
:100C9000EEFF8FCEEEFF90CEEEFF91CEEEFF110E67
:100CA000DBCFE9FF120EDBCFEAFFEE5289CEEFFF7A
:100CB000110EDBCFE9FF120EDBCFEAFF0C0EE926A7
:100CC000000EEA229ACEEEFF9BCEEDFF110EDBCF97
:100CD000E9FF120EDBCFEAFFE926000EEA229DCEE5
:100CE000EFFF110EDBCFE9FF120EDBCFEAFF0E0E96
:100CF000E926000EEA2292CEEEFF93CEEEFF94CECE
:100D0000EEFF95CEEEFF110EDBCFE9FF120EDBCF2B
:100D1000EAFF130EEB6A140EEB6A0E01080E9C6FCD
:100D20001C0ECEEF10F031EC00F00001B6A3CDEFB9
:100D300010F00E0EDB50835D02E0CDEF10F00E01DF
:100D4000A9910E017F0EA76F0E01A66B0001B6934D
:100D500088A702D0B6870BD088A919D0D950010F27
:100D6000E96EDACFEAFFEF50100B0CE0888B7EECD7
:100D700045F004C084F005C085F006C086F007C0C9
:100D800087F005D088990E01EB0E73EF10F000018B
:100D900088AF0DD0EBEC10F00001889F0E01826B44
:100DA0000001B169B269B369B4697FEF0EF088AD33
:100DB00045EF0CF0889D0E01826B030E896F89C090
:100DC00092FE8AC093FE8BC094FE8CC095FE8DC0AF
:100DD00096FE8EC097FE8FC098FE90C099FE886FD9
:100DE000080EE66EE66A2A0E146E000E156E166A7E
:100DF00014C0E6FFE66E16C0E6FF8A0EE66E0E0E23
:100E0000E66E61EC44F0176E070EE15E17502A0E95
:100E1000CEEF10F026EC00F0E76E130EE7CFDBFF0D
:100E2000DB50020A01E1E3D2060A01E199D00C0A83
:100E30002DE00B0A20E0050A19E0070A04E031EC76
:100E400000F07FEF0BF026EC00F00E01826FD9501E
:100E5000010FE96EDACFEAFFEF50080B01E0010E57
:100E6000836F31EC00F0160ECEEF10F031EC00F095
:100E7000220ECEEF10F026EC00F00E01826F080E6D
:100E80009C6F31EC00F01A0ECEEF10F00001B6A509
:100E90005FD0030EBF5D5CE1B6958ACEA4F08BCE29
:100EA000A5F08CCEA6F08DCEA7F08ECEA8F08FCE7A
:100EB000A9F090CEAAF091CEABF026EC00F00001A4
:100EC000B16F26EC00F00001B26F26EC00F00001DB
:100ED000AC6F26EC00F00001AD6F26EC00F026ECC4
:100EE00000F00001B36F26EC00F00001B46F31ECAC
:100EF00000F0E66AD9EC37F0E552E76E140EE7CF62
:100F0000DBFFDB50FE0BE76E140EE7CFDBFFDBCF22
:100F1000E6FFE66AAEEC37F0E552E5520E01826B71
:100F2000BBC08AFEBCC08BFEBDC08CFEBEC08DFEA9
:100F3000CEC084FECFC085FECEC086FECFC087FE69
:100F4000BFC088FECDC083FE0001B69DFDEF0FF04F
:100F50000E01EF0E826F31EC00F0300ECEEF10F08C
:100F600031EC00F0190EDB90170EDB6ADB50146ECB
:100F7000156A050E145C000E155801E3CCD0170E4F
:100F8000EA6ADB34FE0BEA36E96E910EE926000EC2
:100F9000EA22EE50ED1001E1BED0170EEA6ADB3412
:100FA000FE0BEA36E96E910EE926000EEA22EE50BB
:100FB000EFCFEAFFE96E040EE926000EEA22150ED5
:100FC000EECFDBFF160EEDCFDBFF010EE76E150E49
:100FD000DBCFE9FF160EDBCFEAFFE750E926000E74
:100FE000EA22180EEFCFDBFF030E0E01885D53E1FE
:100FF000180EDB500C0B0C0801E082D0050EE76EDA
:10100000150EDBCF14F0160EDBCF15F0E7501426CB
:10101000000E15221B0E14C0DBFF1C0E15C0DBFFDB
:10102000190EDB801A0EDB6A080EF36E1A0EDBCF88
:10103000F4FFF350F45C2CE21B0EDBCFE9FF1C0E37
:10104000DBCFEAFFEF50E66E1A0EDB50EA6A890F3B
:10105000E96E000EEA22E552E750EF6E1B0EDBCF81
:10106000E9FFDB2A1C0EDBCFEAFF01E3DB2AEFCF2F
:1010700014F01A0EDB50EA6A8A0FE96E0E0EEA22AD
:10108000EF50145C02E0190EDB901A0EDB2ACCD76D
:101090000001888D35D0180EDB500C0B080830E1AC
:1010A000050EE76E150EDBCF14F0160EDBCF15F034
:1010B000E7501426000E15221D0E14C0DBFF1E0E75
:1010C00015C0DBFF190EDB801D0EDBCFE9FFDB2A2D
:1010D0001E0EDBCFEAFF01E3DB2AEF508A5D02E060
:1010E000190EDB901D0EDBCFE9FF1E0EDBCFEAFFF2
:1010F000EF508B5D02E0190EDB9000018897889D10
:10110000D950190FE96EDACFEAFFEF50010B03E176
:10111000170EDB2A2BD7D950190FE96EDACFEAFF69
:10112000EF50010B01E123D10E01A9B1E8D200017A
:10113000B693020EE76E150EDBCFE9FF160EDBCF7E
:10114000EAFFE750E926000EEA22EFCF83F0150E02
:10115000DBCFE9FF160EDBCFEAFFEF50200B04E0F8
:10116000B6830E01858102D00E0185918597170EF9
:10117000EA6ADB34FE0BEA36E96E910EE926000ED0
:10118000EA22EE50EFCFEAFFE96E070EE926000EE5
:10119000EA22180EEFCFDBFF180EDBCFF3FFDB06E2
:1011A000F35000091CE0150EDBCFE9FFDB2A160E19
:1011B000DBCFEAFF01E3DB2AEF50E66E180EDB50CF
:1011C000E96EEA6A7F0ED880E956000EEA56000EF4
:1011D000E9260E0EEA22E552E750EF6EDDD7170E34
:1011E000EA6ADB34FE0BEA36E96E910EE926000E60
:1011F000EA22EE50EFCFEAFFE96E070EE926000E75
:10120000EA22EF50146E156A7F0ED8801456000E35
:10121000155614C0A7FE170EEA6ADB34FE0BEA3639
:10122000E96E910EE926000EEA22EE50EFCFEAFFBA
:10123000E96E060EE926000EEA22EFCF14F0170E33
:10124000EA6ADB34FE0BEA36E96E910EE926000EFF
:10125000EA22EE50EFCFEAFFE96E070EE926000E14
:10126000EA22EF50145CE76E180EE7CFDBFF180E92
:10127000DBCFF3FFDB06F350000917E0150EDBCFE1
:10128000E9FFDB2A160EDBCFEAFF01E3DB2AEF5092
:10129000E66E0E01A651A62BEA6A000FE96E0E0E4D
:1012A000EA22E552E750EF6EE2D7170EEA6ADB3426
:1012B000FE0BEA36E96E910EE926000EEA22EE50A8
:1012C000EFCFEAFFE96E040EE926000EEA22EECF28
:1012D000E6FFEFCFE6FF80EC3FF0E552E552170E58
:1012E000EA6ADB34FE0BEA36E96E910EE926000E5F
:1012F000EA22EECFE6FFEFCFE6FF80EC3FF0E552CB
:10130000E552170EDB50146E156A040E145C000EC5
:10131000155820E2170EDB28E96EEA6AD890E93604
:10132000EA36910EE926000EEA22EECF14F0EFCF56
:1013300015F0170EEA6ADB34FE0BEA36E96E910E01
:10134000E926000EEA2214C0EEFF15C0EDFF170ECD
:10135000DB2AD7D7170EEA6ADB34FE0BEA36E96ED2
:10136000910EE926000EEA22EE6AED6AB5D10E0171
:10137000A9B1C5D1020E0E01885D04E0030E885D9F
:1013800001E0BDD1856B86CE9AFE87CE9BFE020E14
:10139000885D07E1020E896F8ACE92FE8BCE93FEA6
:1013A00012D0030E896F8ACE92FE8BCE93FE8CCE26
:1013B00094FE8DCE95FE8ECE96FE8FCE97FE90CE6D
:1013C00098FE91CE99FE020E886FB3C08AFEB4C01B
:1013D0008BFEB2C087FEB1C086FEAEC083F00001B6
:1013E000AE51AE2B0E019C6F010E846F2AD000010E
:1013F000B697889726EC00F00E01886F26EC00F077
:101400000E01896F26EC00F00E01826FE85010E1AA
:101410008ACEA4F08BCEA5F08CCEA6F08DCEA7F010
:101420008ECEA8F08FCEA9F090CEAAF091CEABF0E0
:1014300031EC00F0180ECEEF10F00001AE51AE2BE3
:10144000836F0001886B1F0EDB6A020E0E01885D40
:101450001BE10E01A751A707EA6A000FE96E0E0E05
:10146000EA228BCEEFFFA751A707EA6A000FE96EC9
:101470000E0EEA228ACEEFFF0E019A5186195DE127
:101480009B51871954E059D0030E885D69E10E0124
:10149000A751A707EA6A000FE96E0E0EEA2291CE65
:1014A000EFFFA751A707EA6A000FE96E0E0EEA22C6
:1014B00090CEEFFFA751A707EA6A000FE96E0E0E64
:1014C000EA228FCEEFFFA751A707EA6A000FE96E65
:1014D0000E0EEA228ECEEFFFA751A707EA6A000F91
:1014E000E96E0E0EEA228DCEEFFFA751A707EA6A3A
:1014F000000FE96E0E0EEA228CCEEFFFA751A70770
:10150000EA6A000FE96E0E0EEA228BCEEFFFA751BA
:10151000A707EA6A000FE96E0E0EEA228ACEEFFFF5
:101520000E019A51861909E19B51871906E1010EB6
:10153000F36E1F0EF3CFDBFF13D00E01A751A707E9
:10154000EA6A000FE96E0E0EEA2287CEEFFFA7517E
:10155000A707EA6A000FE96E0E0EEA2286CEEFFFB9
:10156000020E0E01895D02E10E013AD0030E895D83
:101570005BE10E01A751A707EA6A000FE96E0E0EA4
:10158000EA2299CEEFFFA751A707EA6A000FE96E9A
:101590000E0EEA2298CEEFFFA751A707EA6A000FC6
:1015A000E96E0E0EEA2297CEEFFFA751A707EA6A6F
:1015B000000FE96E0E0EEA2296CEEFFFA751A707A5
:1015C000EA6A000FE96E0E0EEA2295CEEFFFA751F0
:1015D000A707EA6A000FE96E0E0EEA2294CEEFFF2B
:1015E000A751A707EA6A000FE96E0E0EEA2293CE12
:1015F000EFFFA751A707EA6A000FE96E0E0EEA2275
:1016000092CEEFFFA751A707EA6A000FE96E0E0E10
:10161000EA229BCEEFFFA751A707EA6A000FE96E07
:101620000E0EEA229ACEEFFF0E01A751A707EA6A33
:10163000000FE96E0E0EEA229CCEEFFF0E018951DB
:10164000040DF350E66E0E01A751EA6A000FE96E31
:101650000E0EEA22E552E750EF6E0E018851400D62
:10166000F3CF14F00E01A751EA6A000FE96E0E0ED7
:10167000EA22F350EF12A707A751EA6A000FE96EBA
:101680000E0EEA2284CEEFFF0001B6931F0EDB049C
:1016900008E10E01A751EA6A000FE96E0E0EEA2278
:1016A000EF8C0E0185A108D00E01A751EA6A000F48
:1016B000E96E0E0EEA22EF8A0E01A7070E01A6516F
:1016C0000E01A75D09E20E01A9910E017F0EA76F21
:1016D0000E01A66BCDEF10F00F0EE66E020EE66E59
:1016E00004EC38F0E552E552E76E200EE7CFDBFF61
:1016F0000E01A981DB50800805E10001B689000ECA
:10170000CEEF10F00001B6990F010D9B0E01A72935
:10171000EA6A000FE96E0E0EEA22EF50200B04E099
:101720000F010D8B0001B6830E01A751146E156ACF
:101730007F0ED8801456000E15561450E66E000E1B
:10174000E66EE66A66EC37F0E552E552E5520E01C8
:10175000A751146E156A7F0ED8801456000E1556C8
:101760000E01A651166E176A14501624E66E010E6D
:10177000E66EE66A66EC37F0E552E552E552020E97
:10178000F36E220EF3CFDBFF230EDB6A0E01A72BD5
:10179000A751146E156A153404E214507F08000E28
:1017A00015541BE3A751EA6A000FE96E0E0EEA22F8
:1017B000EF50E66E220EDBCF14F0DB2A230EDBCFD8
:1017C00015F001E3DB2A14C0E6FF15C0E6FF66EC66
:1017D00037F0E552E552E552D9D77F0EA76F240EB8
:1017E000DB6A0E01A651F36E240EDBCFF4FFF3503B
:1017F000F45C1EE2240EDB50EA6A000FE96E0E0E66
:10180000EA22EF50E66E220EDBCF14F0DB2A230E25
:10181000DBCF15F001E3DB2A14C0E6FF15C0E6FFBD
:1018200066EC37F0E552E552E552240EDB2AD9D7B3
:10183000A66B0E01A9810F010A850F010DAB02D025
:10184000050E01D0010EE66E1B0EE66EAEEC37F013
:10185000E552E5527EEC45F004C084F005C085F009
:1018600006C086F007C087F00001889188938895AC
:101870000E0185B1CDEF10F00001B6930E01A991D4
:101880000E017F0EA76F0E01A66B0E01826B83C047
:101890009CFE110ECEEF10F00E01E70E826F250EAA
:1018A000DB6ADB50146E156A050E145C000E1558C9
:1018B00001E38ED0250EEA6ADB34FE0BEA36E96ED0
:1018C000910EE926000EEA22EE50EFCFEAFFE96E14
:1018D000040EE926000EEA22260EEECFDBFF270ECD
:1018E000EDCFDBFF020EE76E260EDBCFE9FF270E02
:1018F000DBCFEAFFE750E926000EEA22EF509C5DBD
:1019000064E1250EEA6ADB34FE0BEA36E96E910EDD
:10191000E926000EEA22EE50EFCFEAFFE96E040E50
:10192000E926000EEA22EECFE6FFEFCFE6FF80ECDD
:101930003FF0E552E552250EEA6ADB34FE0BEA364B
:10194000E96E910EE926000EEA22EECFE6FFEFCF18
:10195000E6FF80EC3FF0E552E552250EDB50146EB9
:10196000156A040E145C000E155820E2250EDB28C3
:10197000E96EEA6AD890E936EA36910EE926000E59
:10198000EA22EECF14F0EFCF15F0250EEA6ADB3431
:10199000FE0BEA36E96E910EE926000EEA2214C02B
:1019A000EEFF15C0EDFF250EDB2AD7D7250EEA6A1C
:1019B000DB34FE0BEA36E96E910EE926000EEA22D0
:1019C000EE6AED6A0E01826B03D0250EDB2A69D721
:1019D000140EE4D388CE05FF0B0E0F01055D100D2C
:1019E000F3500209E66EE66A020EE66E66EC37F028
:1019F000E552E552E552040EE66E360EE66EAEECAA
:101A000037F0E552E552E66A360EE66EAEEC37F098
:101A1000E552E5529ACEB1F09BCEB2F0CBDB0E018F
:101A2000A651A62BEA6A000FE96E0E0EEA22010EFD
:101A3000EF6EA651A62BEA6A000FE96E0E0EEA229F
:101A400082CEEFFF070E0E01A75F080EE66EE66A74
:101A50002A0E146E000E156E166A14C0E6FFE66EAE
:101A600016C0E6FFA751186A000F176E0E0E182257
:101A700017C0E6FF18C0E6FF61EC44F0196E070ED0
:101A8000E15E19500E01A707A751A707EA6A000FE8
:101A9000E96E0E0EEA22EF68A751A707EA6A000F67
:101AA000E96E0E0EEA22EF68A751A707EA6A000F57
:101AB000E96E0E0EEA2293CEEFFFA751A707EA6A5E
:101AC000000FE96E0E0EEA2292CEEFFF92CE81F069
:101AD00093CE82F0A751A707EA6A000FE96E0E0EB7
:101AE000EA22B2C0EFFFA751A707EA6A000FE96E2A
:101AF0000E0EEA22B1C0EFFFAEC083F00001AE517E
:101B0000AE2BE66E0E01A751A707EA6A000FE96E39
:101B10000E0EEA22E552E750EF6EA751A707EA6AD8
:101B2000000FE96E0E0EEA22C80EEF6EA751A7074E
:101B3000EA6A000FE96E0E0EEA22230EEF6E000134
:101B4000886B0E01858100018887C6D50E01A651DC
:101B5000A62BEA6A000FE96E0E0EEA22020EEF6E65
:101B6000A651A62BEA6A000FE96E0E0EEA2288CE75
:101B7000EFFFA651A62BEA6A000FE96E0E0EEA22CD
:101B800089CEEFFFA651A62BEA6A000FE96E0E0E72
:101B9000EA2282CEEFFF0E01050E856F030E896FDC
:101BA00092CE89F093CE8AF094CE8BF095CE8CF0C5
:101BB00096CE8DF097CE8EF098CE8FF099CE90F095
:101BC000B2C09BFEB1C09AFE886F080EE66EE66A50
:101BD0002A0E146E000E156E166A14C0E6FFE66E2D
:101BE00016C0E6FF8A0EE66E0E0EE66E61EC44F05D
:101BF000176E070EE15E1750B2C087FEB1C086FEB9
:101C0000AEC083F00001AE51AE2B0E019C6F030EEF
:101C1000846F0001886B888D16D40001A4510E01D9
:101C2000925D6BE10001A5510E01935D66E100013B
:101C3000A6510E01945D61E10001A7510E01955D71
:101C40005CE10001A8510E01965D57E10001A95128
:101C50000E01975D52E10001AA510E01985D4DE120
:101C60000001AB510E01995D48E1020E825D02E177
:101C70000001888F0E01A651A62BEA6A000FE96EBB
:101C80000E0EEA22030EEF6EA651A62BEA6A000F93
:101C9000E96E0E0EEA2282CEEFFF0E01010E856F75
:101CA000030E896FB1C09AFEB2C09BFE886F080E0A
:101CB000E66EE66A2A0E146E000E156E166A14C0E1
:101CC000E6FFE66E16C0E6FF8A0EE66E0E0EE66EC4
:101CD00061EC44F0176E070EE15E1750B2C087FE4C
:101CE000B1C086FEAEC083F00001AE51AE2B0E0136
:101CF0009C6F030E846F23EF0AF0E80E826F1B0EB9
:101D00004DD20E01A651A62BEA6A000FE96E0E0E07
:101D1000EA22080EEF6EA651A62BEA6A000FE96EC2
:101D20000E0EEA22B1C0EFFFA651A62BEA6A000F01
:101D3000E96E0E0EEA22B2C0EFFFA651A62BEA6AA8
:101D4000000FE96E0E0EEA22B3C0EFFFA651A62BDC
:101D5000EA6A000FE96E0E0EEA22B4C0EFFFA65148
:101D6000A62BEA6A000FE96E0E0EEA2205CFEFFFFE
:101D7000A651A62BEA6A000FE96E0E0EEA2292CE59
:101D8000EFFFA651A62BEA6A000FE96E0E0EEA22BB
:101D900093CEEFFF0E01830502E1090E01D0010E83
:101DA000856F280EDB6A080EF36E280EDBCFF4FF7A
:101DB000F350F45C16E2280EDB50EA6A8A0FE96EF3
:101DC0000E0EEA22EF50E66E280EDB50EA6A920F02
:101DD000E96E0E0EEA22E552E750EF6E280EDB2A7E
:101DE000E2D70E01030E896F9A699B69886F080E0E
:101DF000E66EE66A2A0E146E000E156E166A14C0A0
:101E0000E6FFE66E16C0E6FF8A0EE66E0E0EE66E82
:101E100061EC44F0176E070EE15E1750B2C087FE0A
:101E2000B1C086FEAEC083F00001AE51AE2B0E01F4
:101E30009C6F030E846F0001886B888D280EDB6A0F
:101E4000080EF36E280EDBCFF4FFF350F45C02E3D0
:101E500023EF0AF0280EDB50EA6A920FE96E0E0EAD
:101E6000EA22EF50E66E280EDB50EA6A890FE96E2F
:101E7000000EEA22E552E750EF6E280EDB2AE0D78B
:101E80000E0182050EE10001B169B269B369B4695E
:101E90000F010B0E056F00019B91040EAF6F030E37
:101EA000B06F0001B5910E017F0EA76F0E01A66BFA
:101EB0000001B66B886BB56B43EC00F0290EDB6A52
:101EC000DB50146E156A050E145C000E15582EE2D8
:101ED000290EEA6ADB34FE0BEA36E96E910EE9263A
:101EE000000EEA22EE50ED101EE0290EEA6ADB3405
:101EF000FE0BEA36E96E910EE926000EEA22EECFDD
:101F0000E6FFEFCFE6FF80EC3FF0E552E552290E09
:101F1000EA6ADB34FE0BEA36E96E910EE926000E22
:101F2000EA22EE6AED6A290EDB2ACAD70E01826B1D
:101F3000250E34D10001B6A504D00E01E80E826F43
:101F40005CD00E0189510E08F8E30001CE6BCF6B17
:101F5000CD6B88CEBFF08ACEB7F08BCEB8F08CCEEA
:101F6000B9F08DCEBAF08ACEBBF08BCEBCF08CCE61
:101F7000BDF08DCEBEF0B76BF80EB817070EBA17CE
:101F80000F01056989CEC8F00001C96BCA6BCB6B24
:101F9000CC6B0E018851030A5FE0020A30E0030AAD
:101FA0002EE0020A60E10001C851040DF3CFF6FFF4
:101FB000F4CFF7FFC20EF6268B0EF7220900F5CFFD
:101FC000C0F00900F5CFC1F00900F5CFC2F008005C
:101FD000F5CFC3F01B0EE66EB6EC3EF0E552F3CF44
:101FE000CEF0F4CFCFF0F3CFD0F0F4CFD1F0F35068
:101FF000F41039E10E01826B836B290ECFD0E66AB3
:10200000D9EC37F0E552E76E2A0EE7CFDBFFDB5065
:102010000109E76E2A0EE7CFDBFFDBCFE6FFE66ABA
:10202000AEEC37F0E552E5520001C851040DF3CF94
:10203000F6FFF4CFF7FFC20EF6268B0EF72209004B
:10204000F5CFC0F00900F5CFC1F00900F5CFC2F01F
:102050000800F5CFC3F007D000011E0EC06FB40E0C
:10206000C16FC26BC36B0001B69DB68596D00001EF
:10207000B31D06E1B41D04E10E013C0E826F2CD0AD
:102080000E0182A125D086CEB1F087CEB2F092D8D3
:1020900088CE05FF0B0E0F01055D100DF3500209F0
:1020A000E66EE66A020EE66E66EC37F0E552E55241
:1020B000E552040EE66E360EE66EAEEC37F0E552F3
:1020C000E552E66A360EE66EAEEC37F0E552E552C2
:1020D0000001B5810E01826B2E0E60D00E01A9A108
:1020E00005D00E01E80E826F320E58D0A9810E0184
:1020F000A651A62BEA6A000FE96E0E0EEA22040E24
:10210000EF6E0E01830502E1090E01D0010E856F0D
:10211000020E895DB2C087FEB1C086FE0E01A9B76E
:102120001BD00E01030E886F080EE66EE66A2A0EBB
:10213000146E000E156E166A14C0E6FFE66E16C029
:10214000E6FF8A0EE66E0E0EE66E61EC44F0176E48
:10215000070EE15E17500AD00001886B88890E01D6
:10216000020E886FB3C08AFEB4C08BFEAEC083F08F
:102170007EEC45F004C084F005C085F006C086F012
:1021800007C087F00001AE51AE2B0E019C6F030E0D
:10219000846F0F010A8923EF0AF0000E146E2B0ED4
:1021A000E15C02E2E16AE552E16E1450E552E7CFEC
:1021B000D9FF1200B1C0E6FF010EE66EAEEC37F0BB
:1021C000E552E552B2C0E6FF020EE66EAEEC37F025
:1021D000E552E5521200B3C0E6FF030EE66EAEEC28
:1021E00037F0E552E552B4C0E6FF040EE66EAEEC01
:0821F00037F0E552E552120040
:0821F8000F0E0E01AB1501E111
:10220000000C010CD9CFE6FFE1CFD9FF030EE12688
:102210000E01AB6BDF6A040EDF5C0DE2EA6ADF34AD
:10222000FE0BEA36E96EC10EE9260E0EEA22EE6AD0
:10223000ED6ADF2AF0D7DF6A040EDF5C0DE2EA6A9E
:10224000DF34FE0BEA36E96EAC0EE9260E0EEA220A
:10225000EE6AED6ADF2AF0D7020EE66EE66AD50E68
:10226000146E890E156E166A14C0E6FFE66E16C06F
:10227000E6FFD950010FE66E000EDA20E66E61EC43
:1022800044F0176E070EE15E1750D950010FE96E4A
:10229000DACFEAFF7B0EEE1802E14E0EED183EE0BB
:1022A0007B0EF36E010EF3CFDBFF4E0EF36E020ECC
:1022B000F3CFDBFFE66ED950010FE66E000EDA2099
:1022C000E66ED50EE66E890EE66E74EC40F0146E86
:1022D000050EE15E14500001F269F369DF6A050E34
:1022E000DF5C1CE20A0EE66EEA0EE66E000EE66E9B
:1022F000DF500A0DF3CF14F0F4CF15F0D70E1426EB
:10230000890E152214C0E6FF15C0E6FF74EC40F0FC
:10231000166E050EE15E1650DF2AE1D70E01AA6B9C
:10232000030EE15C02E2E16AE552E16EE552E7CFBD
:10233000D9FF1200D9CFE6FFE1CFD9FF0E0EE1267B
:10234000FE0EDB5002E035EF16F00E01ABA526D0F5
:102350000E01A9B123D00E01AB950E01A99DB4CEFB
:1023600082FEB6CE84FEB7CE85FEB8CE86FEB9CE4E
:1023700087FEBACE88FEBBCE89FEBCCE8AFEBDCE1D
:102380008BFEBECE9AFEBFCE9BFEC0CE9CFE0E0143
:102390009B5102E0B9EF18F0B6EF18F00E01ABA7B1
:1023A000A3D30E01A951010B01E087D3A951800BE2
:1023B00001E183D3DF6A040EDF5C01E37ED3EA6AC6
:1023C000DF34FE0BEA36E96EAC0EE9260E0EEA2289
:1023D000EE50ED1001E16FD3EA6ADF34FE0BEA360E
:1023E000E96EAC0EE9260E0EEA22EE50EFCFEAFFC0
:1023F000E96E100EE926000EEA22EF50080B01E10B
:10240000E9D2EA6ADF34FE0BEA36E96EAC0EE92661
:102410000E0EEA22EE50EFCFEAFFE96E0E0EE9262D
:10242000000EEA22040EEFCFDBFFEA6ADF34FE0B78
:10243000EA36E96EAC0EE9260E0EEA22EE50EFCF38
:10244000EAFFE96E100EE926000EEA22EF50070BB4
:10245000000901E0E4D0EA6ADF34FE0BEA36E96EF7
:10246000AC0EE9260E0EEA22EE50EFCFEAFFE96E3F
:102470000F0EE926000EEA22EFCF82FE040EEA6A72
:10248000DB34FE0BEA36E96EC10EE9260E0EEA22B7
:10249000EE50EFCFEAFFE96E0D0EE926000EEA22BC
:1024A000EFCF89FE040EEA6ADB34FE0BEA36E96EF2
:1024B000C10EE9260E0EEA22EE50EFCFEAFFE96EDA
:1024C000040EE926000EEA22EECF92FEEECF93FE36
:1024D000EECF94FEEECF95FEEECF96FEEECF97FEBA
:1024E000EECF98FEEFCF99FE040EEA6ADB34FE0BC6
:1024F000EA36E96EC10EE9260E0EEA22EE50EFCF63
:10250000EAFFE96E0E0EE926000EEA22EFCF9AFEF0
:10251000040EEA6ADB34FE0BEA36E96EC10EE926E8
:102520000E0EEA22EE50EFCFEAFFE96E0F0EE9261B
:10253000000EEA22EFCF9BFEEA6ADF34FE0BEA369A
:10254000E96EAC0EE9260E0EEA22EE50EFCFEAFF5E
:10255000E96E080EE926000EEA22EE50ED102CE09E
:10256000EA6ADF34FE0BEA36E96EAC0EE9260E0E9F
:10257000EA22EE50EFCFEAFFE96E080EE926000EE0
:10258000EA22EECFE6FFEFCFE6FF80EC3FF0E55228
:10259000E552EA6ADF34FE0BEA36E96EAC0EE92654
:1025A0000E0EEA22EE50EFCFEAFFE96E080EE926A2
:1025B000000EEA22EE6AED6AEA6ADF34FE0BEA36C2
:1025C000E96EAC0EE9260E0EEA22EECFE6FFEFCF63
:1025D000E6FF80EC3FF0E552E552EA6ADF34FE0B9D
:1025E000EA36E96EAC0EE9260E0EEA22EE6AED6AD4
:1025F000040EEA6ADB34FE0BEA36E96EC10EE92608
:102600000E0EEA22EECFE6FFEFCFE6FF80EC3FF0C2
:10261000E552E552040EEA6ADB3498EF17F0EA6AF5
:10262000DF34FE0BEA36E96EAC0EE9260E0EEA2226
:10263000EE50EFCFEAFFE96E0C0EE926000EEA221B
:10264000EFCF8AFEEA6ADF34FE0BEA36E96EAC0EA3
:10265000E9260E0EEA22EE50EFCFEAFFE96E100EE9
:10266000E926000EEA22EF50F00BE842E842E84289
:10267000E8420E018B6FEA6ADF34FE0BEA36E96E40
:10268000AC0EE9260E0EEA22EE50EFCFEAFFE96E1D
:102690000B0EE926000EEA22EFCF82FEEA6ADF3453
:1026A000FE0BEA36E96EAC0EE9260E0EEA22EE507B
:1026B000EFCFEAFFE96E060EE926000EEA22EECF22
:1026C00092FEEDCF93FE2DEC27F00E019C6F040ED1
:1026D000EA6ADB34FE0BEA36E96EC10EE9260E0E1D
:1026E000EA22EE50EFCFEAFFE96E0C0EE926000E6B
:1026F000EA229CCEEFFF7EEC45F004C014F005C04A
:1027000015F006C016F007C017F0040EEA6ADB34B5
:10271000FE0BEA36E96EC10EE9260E0EEA22EE50F5
:10272000EFCFEAFFE96E04C0EEFF15C0EEFF16C062
:10273000EEFF17C0EEFF010EDB6A0E018251F36E51
:10274000010EDBCFF4FFF350F45C2DE2010EDB5001
:10275000146E156AEA6ADF34FE0BEA36E96EAC0ED7
:10276000E9260E0EEA22EE50EFCFEAFFE96E080EE0
:10277000E926000EEA221450EE24E76E1550EE20F2
:10278000EA6EE7CFE9FFEF50E66E0E01A651A62BE9
:10279000EA6A000FE96E0E0EEA22E552E750EF6E8C
:1027A000010EDB2ACAD7040EEA6ADB34FE0BEA36D6
:1027B000E96EC10EE9260E0EEA22EE50EFCFEAFFD7
:1027C000E96E0E0EE926000EEA22EF50E66E0E01CB
:1027D000A751A707EA6A000FE96E0E0EEA22E5523A
:1027E000E750EF6EEA6ADF34FE0BEA36E96EAC0EB4
:1027F000E9260E0EEA22EE50EFCFEAFFE96E040E54
:10280000E926000EEA22EE52EF50E66EA751A70726
:10281000EA6A000FE96E0E0EEA22E552E750EF6E0B
:10282000EA6ADF34FE0BEA36E96EAC0EE9260E0EDC
:10283000EA22EE50EFCFEAFFE96E040EE926000E21
:10284000EA22EF50E66EA751A707EA6A000FE96E89
:102850000E0EEA22E552E750EF6EEA6ADF34FE0B15
:10286000EA36E96EAC0EE9260E0EEA22EE50EFCF04
:10287000EAFFE96E0D0EE926000EEA22EF50E66E41
:10288000A751A707EA6A000FE96E0E0EEA22E55289
:10289000E750EF6EEA6ADF34FE0BEA36E96EAC0E03
:1028A000E9260E0EEA22EE50EFCFEAFFE96E0A0E9D
:1028B000E926000EEA22EF500C0BE842E84201083C
:1028C0001EE0040EEA6ADB34FE0BEA36E96EC10E46
:1028D000E9260E0EEA22EE50EFCFEAFFE96E0F0E68
:1028E000E926000EEA22EF50E66EA751A707EA6A32
:1028F000000FE96E0E0EEA22E552E750EF6EEA6A2B
:10290000DF34FE0BEA36E96EAC0EE9260E0EEA2243
:10291000EE50EFCFEAFFE96E0A0EE926000EEA223A
:10292000EF50E66EA751A707EA6A000FE96E0E0E98
:10293000EA22E552E750EF6EEA6ADF34FE0BEA3630
:10294000E96EAC0EE9260E0EEA22EE50EFCFEAFF5A
:10295000E96E100EE926000EEA22EF50070BE8069A
:10296000E850070BF36EF46EF80EEF14F310EF6EF1
:10297000EA6ADF34FE0BEA36E96EAC0EE9260E0E8B
:10298000EA22EE50EFCFEAFFE96E100EE926000EC4
:10299000EA22EF967EEC45F005C015F006C016F071
:1029A00007C017F0EA6ADF34FE0BEA36E96EAC0EB8
:1029B000E9260E0EEA22EE50EFCFEAFFE96E04C0E0
:1029C000EEFF15C0EEFF16C0EEFF17C0EEFF0E01C2
:1029D000AB83A9D3EA6ADF34FE0BEA36E96EAC0EAC
:1029E000E9260E0EEA22EE50EFCFEAFFE96E0A0E5C
:1029F000E926000EEA22EF50400B5DE07EEC45F048
:102A0000050E04C0DBFF060E05C0DBFF070E06C087
:102A1000DBFF080E07C0DBFFEA6ADF34FE0BEA3695
:102A2000E96EAC0EE9260E0EEA22EE50EFCFEAFF79
:102A3000E96EEECF18F0EECF19F0EECF1AF0EFCF2F
:102A40001BF0D950050FE96EDACFEAFF00011850EC
:102A5000EE5C146E1950EE58156E1A50EE58166E44
:102A60001B50EE58176ED8806C0E1454DC0E1554A3
:102A7000020E1654000E17541EE2EA6ADF34FE0BF3
:102A8000EA36E96EAC0EE9260E0EEA22EE50EFCFE2
:102A9000EAFFE96E050EDBCFEEFF060EDBCFEEFFA1
:102AA000070EDBCFEEFF080EDBCFEEFF0E01826BD1
:102AB000490E40EF1DF0DF2A7ED4DF6A040EDF5C92
:102AC0000EE2EA6ADF34FE0BEA36E96EAC0EE92666
:102AD0000E0EEA22EE50ED1002E1DF2AEFD7040ECF
:102AE000DF5C02E10E01AB970E01ABA33FEF1DF0DF
:102AF0007EEC45F0090E04C0DBFF0A0E05C0DBFFCB
:102B00000B0E06C0DBFF0C0E07C0DBFFDF6A040EF6
:102B1000DF5C01E38FD0EA6ADF34FE0BEA36E96E50
:102B2000C10EE9260E0EEA22EE50ED1001E180D032
:102B3000EA6ADF34FE0BEA36E96EC10EE9260E0EB4
:102B4000EA22EE50EFCFEAFFE96E0C0EE926000E06
:102B5000EA22EF506DE0EA6ADF34FE0BEA36E96EF6
:102B6000C10EE9260E0EEA22EE50EFCFEAFFE96E23
:102B7000EECF1CF0EECF1DF0EECF1EF0EFCF1FF02A
:102B8000D950090FE96EDACFEAFF00011C50EE5C64
:102B9000186E1D50EE58196E1E50EE581A6E1F50CA
:102BA000EE581B6E18C004F019C005F01AC006F0EC
:102BB000076E26EC42F005C014F006C015F007C001
:102BC00016F008C017F0400E0A6E540E0B6E090E78
:102BD0000C6E480E0D6E41EC42F0010A29E1EA6AE2
:102BE000DF34FE0BEA36E96EC10EE9260E0EEA224C
:102BF000EE50EFCFEAFFE96E100EE926000EEA2252
:102C0000EF500F0BE76E010EE7CFDBFFEA6ADB3414
:102C1000FE0BEA36E96EAC0EE9260E0EEA22EE5005
:102C2000EFCFEAFFE96E100EE926000EEA22EF86EA
:102C3000DF2A6DD7DF6A040EDF5C0EE2EA6ADF345A
:102C4000FE0BEA36E96EC10EE9260E0EEA22EE50C0
:102C5000ED1002E1DF2AEFD7040EDF5C02E03FEF68
:102C60001DF00E01AB933FEF1DF0FE0EDB50550A39
:102C700002E13AEF1DF0070A02E135EF1DF01D0AEF
:102C800001E167D37A0A01E15FD1010A02E03FEF77
:102C90001DF0DF6A040EDF5C02E33FEF1DF0EA6A1D
:102CA000DF34FE0BEA36E96EC10EE9260E0EEA228B
:102CB000EE50ED1001E146D1EA6ADF34FE0BEA3650
:102CC000E96EC10EE9260E0EEA22EE50EFCFEAFFC2
:102CD000E96E0C0EE926000EEA22EF500E019C5D13
:102CE00001E030D1EA6ADF34FE0BEA36E96EC10E4C
:102CF000E9260E0EEA22EE50EFCFEAFFE96E100E43
:102D0000E926000EEA22EF50100B03E0825101E1A8
:102D100019D1EA6ADF34FE0BEA36E96EC10EE92604
:102D20000E0EEA22EE50EFCFEAFFE96E100EE92612
:102D3000000EEA22EF500F0BE76E010EE7CFDBFF2C
:102D4000825128E0010EEA6ADB34FE0BEA36E96EB6
:102D5000AC0EE9260E0EEA22EE50EFCFEAFFE96E46
:102D6000100EE926000EEA22EF86010EEA6ADB3435
:102D7000FE0BEA36E96EAC0EE9260E0EEA22EE50A4
:102D8000EFCFEAFFE96E0F0EE926000EEA2282CEAF
:102D9000EFFFD8D0EA6ADF34FE0BEA36E96EC10EE7
:102DA000E9260E0EEA22EE50EFCFEAFFE96E0D0E95
:102DB000E926000EEA22EFCF89FEEA6ADF34FE0B35
:102DC000EA36E96EC10EE9260E0EEA22EE50EFCF8A
:102DD000EAFFE96E040EE926000EEA22EECF92FE2B
:102DE000EECF93FEEECF94FEEECF95FEEECF96FEA5
:102DF000EECF97FEEECF98FEEFCF99FEEA6ADF3472
:102E0000FE0BEA36E96EC10EE9260E0EEA22EE50FE
:102E1000EFCFEAFFE96E0E0EE926000EEA22EFCFB1
:102E20009AFEEA6ADF34FE0BEA36E96EC10EE92645
:102E30000E0EEA22EE50EFCFEAFFE96E0F0EE92602
:102E4000000EEA22EFCF9BFE010EEA6ADB34FE0B96
:102E5000EA36E96EAC0EE9260E0EEA22EE50EFCF0E
:102E6000EAFFE96E080EE926000EEA22EE50ED10A8
:102E70002EE0010EEA6ADB34FE0BEA36E96EAC0E98
:102E8000E9260E0EEA22EE50EFCFEAFFE96E080EB9
:102E9000E926000EEA22EECFE6FFEFCFE6FF80EC58
:102EA0003FF0E552E552010EEA6ADB34FE0BEA36EA
:102EB000E96EAC0EE9260E0EEA22EE50EFCFEAFFE5
:102EC000E96E080EE926000EEA22EE6AED6A010EAE
:102ED000EA6ADB34FE0BEA36E96EAC0EE9260E0E2A
:102EE000EA22EECFE6FFEFCFE6FF80EC3FF0E552BF
:102EF000E552010EEA6ADB34FE0BEA36E96EAC0EEF
:102F0000E9260E0EEA22EE6AED6AEA6ADF34FE0B6B
:102F1000EA36E96EC10EE9260E0EEA22EECFE6FF92
:102F2000EFCFE6FF80EC3FF0E552E552EA6ADF348E
:102F3000FE0BEA36E96EC10EE9260E0EEA22EE6AB3
:102F4000ED6A9FD3DF2AA6D684EC1DF0E76E0D0E46
:102F5000E7CFDBFFD9500D0FE96EDACFEAFFEF5074
:102F6000030B000909E0D9500D0FE96EDACFEAFF33
:102F7000EF50030B02083AE1D9500D0FE96EDACF9A
:102F8000EAFFEF500C0BE842E842010808E1D95093
:102F90000D0FE96EDACFEAFFEF50100B04E184EC7D
:102FA0001DF00E01BF6F84EC1DF00E01C06F84ECAC
:102FB0001DF00E01B86F84EC1DF00E01B96FD950F1
:102FC0000D0FE96EDACFEAFFEF500C0BE842E84252
:102FD000010808E1D9500D0FE96EDACFEAFFEF5092
:102FE000100B04E084EC1DF00E01BE6FD9500D0FE4
:102FF000E96EDACFEAFFEF50030B000901E0BCD025
:10300000D9500D0FE96EDACFEAFFEF500C0BE84212
:10301000E842010803E10E01BA6B03D00E01010E74
:10302000BA6FD9500D0FE96EDACFEAFFEF50400BBF
:1030300001E17ED0AB8582CEB4FE84CEB6FE85CED5
:10304000B7FED9500D0FE96EDACFEAFFEF500C0B47
:10305000E842E842020802E0000E01D0010EBB6F18
:103060008ACEBCFE8BCEBDFE8ACE92FE8BCE93FE68
:103070000E010A0E8A6F010E8B6F826B2DEC27F00A
:103080000E019C6F0D0EDB9CDB90DB82DB9A836B69
:103090000E01A751A707EA6A000FE96E0E0EEA2299
:1030A000BFCEEFFFA751A707EA6A000FE96E0E0E29
:1030B000EA22B9CEEFFFA751A707EA6A000FE96E2F
:1030C0000E0EEA22B8CEEFFFA751A707EA6A000F5B
:1030D000E96E0E0EEA22C0CEEFFFD9500D0FE96E59
:1030E000DACFEAFFEF500C0BE842E842010803E1B7
:1030F0000D0EDB8809D0A751A707EA6A000FE96E19
:103100000E0EEA22BECEEFFF0D0EDB9CDB90DB82C3
:10311000DB9AA751A707EA6A000FE96E0E0EEA22B2
:103120000D0EDBCFEFFF0E01A981330E40EF1DF036
:10313000BACE88FED9500D0FE96EDACFEAFFEF5014
:103140000C0BE842E842020802E0000E01D0010E3A
:103150000E01896FBFCE9BFEC0CE9CFEB8CE86FE10
:10316000B9CE87FEBECE9AFE9B5103E15A0E40EFC8
:103170001DF0510E40EF1DF0D9500D0FE96EDACF62
:10318000EAFFEF50030B020801E0E0D0DF6A040E13
:10319000DF5C01E3DBD0EA6ADF34FE0BEA36E96E7E
:1031A000C10EE9260E0EEA22EE50ED1001E1CCD060
:1031B000EA6ADF34FE0BEA36E96EC10EE9260E0E2E
:1031C000EA22EE50EFCFEAFFE96E0D0EE926000E7F
:1031D000EA22EF50020825E1EA6ADF34FE0BEA3604
:1031E000E96EC10EE9260E0EEA22EE50EFCFEAFF9D
:1031F000E96E040EE926000EEA22E9CF14F0EACFC8
:1032000015F0E9CFE6FFEACFE6FF92EC1DF0E552BC
:10321000E552000901E098D0F2C0BCFEF3C0BDFE4B
:1032200015D0EA6ADF34FE0BEA36E96EC10EE926F4
:103230000E0EEA22EE50EFCFEAFFE96E040EE92609
:10324000000EEA22EECFBCFEEDCFBDFE0E018A518C
:103250000E01BC1901E078D00E018B510E01BD1991
:1032600073E1D9500D0FE96EDACFEAFFEF500C0B86
:10327000E842E842000932E1D9500D0FE96EDACF99
:10328000EAFFEF50030B01085AE0EA6ADF34FE0B55
:10329000EA36E96EC10EE9260E0EEA22EE50EFCFB5
:1032A000EAFFE96E0E0EE926000EEA22EF50BF5D3E
:1032B0004BE1EA6ADF34FE0BEA36E96EC10EE9261D
:1032C0000E0EEA22EE50EFCFEAFFE96E0F0EE9266E
:1032D000000EEA22EF50BE5D32E036D0D9500D0F1D
:1032E000E96EDACFEAFFEF50100B15E1EA6ADF343E
:1032F000FE0BEA36E96EC10EE9260E0EEA22EE500A
:10330000EFCFEAFFE96E0E0EE926000EEA22EF503B
:10331000BF5D15E019D0EA6ADF34FE0BEA36E96ECC
:10332000C10EE9260E0EEA22EE50EFCFEAFFE96E5B
:103330000F0EE926000EEA22EF50BE5D05E131ECEA
:1033400000F00E01826BE5D4DF2A21D731EC00F0CA
:103350008AD3020E0E01895D0CE1920EE66E0E0E0E
:10336000E66EE0DBE552E552000903E10E01040ED2
:1033700080D1DF6A040EDF5C0EE2EA6ADF34FE0B06
:10338000EA36E96EC10EE9260E0EEA22EE50ED1085
:1033900002E0DF2AEFD7040EDF5C01E168D1110EF5
:1033A000E66EB6EC3EF0E552F3CF14F0F4CF15F034
:1033B000EA6ADF34FE0BEA36E96EC10EE9260E0E2C
:1033C000EA22F3CFEEFF15C0EDFF1450151001E116
:1033D0004ED1010EDB6A040EF36E010EDBCFF4FF5B
:1033E000F350F45C10E2010EEA6ADB34FE0BEA36BD
:1033F000E96EAC0EE9260E0EEA22EE50ED1003E067
:10340000010EDB2AE8D7010EDB50040801E113D1DD
:10341000110EE66EB6EC3EF0E552F3CF14F0F4CFA9
:1034200015F0010EEA6ADB34FE0BEA36E96EAC0EEB
:10343000E9260E0EEA22F3CFEEFF15C0EDFF145081
:10344000151001E1F8D0EA6ADF34FE0BEA36E96EC6
:10345000C10EE9260E0EEA22EE50EFCFEAFFE96E2A
:103460000C0EE926000EEA22EF6AEA6ADF34FE0B50
:10347000EA36E96EC10EE9260E0EEA22EE50EFCFD3
:10348000EAFFE96E0D0EE926000EEA2289CEEFFF73
:10349000EA6ADF34FE0BEA36E96EC10EE9260E0E4B
:1034A000EA22EE50EFCFEAFFE96E0E0EE926000E9B
:1034B000EA229ACEEFFFEA6ADF34FE0BEA36E96EC3
:1034C000C10EE9260E0EEA22EE50EFCFEAFFE96EBA
:1034D0000F0EE926000EEA229BCEEFFFEA6ADF34E8
:1034E000FE0BEA36E96EC10EE9260E0EEA22EE5018
:1034F000EFCFEAFFE96E040EE926000EEA2292CE33
:10350000EEFF93CEEEFF94CEEEFF95CEEEFF96CE7D
:10351000EEFF97CEEEFF98CEEEFF99CEEEFF010EB6
:10352000DB50146EEA6ADF34FE0BEA36E96EC10E38
:10353000E9260E0EEA22EE50EFCFEAFFE96E100EFA
:10354000E926000EEA2214500F0BF36EF00EEF1472
:10355000F310EF6EEA6ADF34FE0BEA36E96EC10E55
:10356000E9260E0EEA22EE50EFCFEAFFE96E100ECA
:10357000E926000EEA22EF987EEC45F004C014F034
:1035800005C015F006C016F007C017F0EA6ADF3470
:10359000FE0BEA36E96EC10EE9260E0EEA22EE5067
:1035A000EFCFEAFFE96E04C0EEFF15C0EEFF16C0D4
:1035B000EEFF17C0EEFFA6CEE6FFB6EC3EF0E552FA
:1035C000F3CF14F0F4CF15F0010EEA6ADB34FE0BF2
:1035D000EA36E96EAC0EE9260E0EEA22EE50EFCF87
:1035E000EAFFE96E080EE926000EEA22F3CFEEFFAD
:1035F00015C0EDFF1450151046E1010EEA6ADB34E8
:10360000FE0BEA36E96EAC0EE9260E0EEA22EECF8C
:10361000E6FFEFCFE6FF80EC3FF0E552E552010E0A
:10362000EA6ADB34FE0BEA36E96EAC0EE9260E0ED2
:10363000EA22EE6AED6AEA6ADF34FE0BEA36E96EE8
:10364000C10EE9260E0EEA22EECFE6FFEFCFE6FF2F
:1036500080EC3FF0E552E552EA6ADF34FE0BEA36D1
:10366000E96EC10EE9260E0EEA22EE6AED6A0E013F
:10367000F10E826F0E01A9910E017F0EA76F0E0150
:10368000A66B500EFDD1010EEA6ADB34FE0BEA3662
:10369000E96EAC0EE9260E0EEA22EE50EFCFEAFFFD
:1036A000E96E040EE926000EEA2286CEEEFF87CEF2
:1036B000EDFF010EEA6ADB34FE0BEA36E96EAC0E72
:1036C000E9260E0EEA22EE50EFCFEAFFE96E0C0E6D
:1036D000E926000EEA228ACEEFFF010EEA6ADB3409
:1036E000FE0BEA36E96EAC0EE9260E0EEA22EE502B
:1036F000EFCFEAFFE96E0D0EE926000EEA229CCE1E
:10370000EFFF010EEA6ADB34FE0BEA36E96EAC0E1F
:10371000E9260E0EEA22EE50EFCFEAFFE96E0E0E1A
:10372000E926000EEA22DFCFEFFF0E018B51146E67
:10373000010EEA6ADB34FE0BEA36E96EAC0EE926CE
:103740000E0EEA22EE50EFCFEAFFE96E100EE926E8
:10375000000EEA2214500F0BF36EF346F346F346C5
:10376000F3460F0EEF14F310EF6E010EEA6ADB342E
:10377000FE0BEA36E96EAC0EE9260E0EEA22EE509A
:10378000EFCFEAFFE96E060EE926000EEA2292CE9E
:10379000EEFF93CEEDFF010EEA6ADB34FE0BEA3654
:1037A000E96EAC0EE9260E0EEA22EE50EFCFEAFFEC
:1037B000E96E100EE926000EEA22EF86010EEA6A93
:1037C000DB34FE0BEA36E96EAC0EE9260E0EEA2279
:1037D000EE50EFCFEAFFE96E0B0EE926000EEA226B
:1037E000A6CEEFFF010EEA6ADB34FE0BEA36E96E85
:1037F000AC0EE9260E0EEA22EE50EFCFEAFFE96E9C
:103800000A0EE926000EEA22EF6A010EEA6ADB34AC
:10381000FE0BEA36E96EAC0EE9260E0EEA22EE50F9
:10382000EFCFEAFFE96E0A0EE926000EEA228C517C
:10383000010B02E0EF8A01D0EF9A8CA53BD0EA6A37
:10384000DF34FE0BEA36E96EC10EE9260E0EEA22DF
:10385000EE50EFCFEAFFE96E100EE926000EEA22E5
:10386000EF88010EEA6ADB34FE0BEA36E96EAC0E35
:10387000E9260E0EEA22EE50EFCFEAFFE96E0A0EBD
:10388000E926000EEA22EF8C010EEA6ADB34FE0B19
:10389000EA36E96EAC0EE9260E0EEA22EE50EFCFC4
:1038A000EAFFE96E100EE926000EEA22F80EEF1488
:1038B000040915D0010EEA6ADB34FE0BEA36E96E24
:1038C000AC0EE9260E0EEA22EE50EFCFEAFFE96ECB
:1038D000100EE926000EEA22F80EEF140109EF6E31
:1038E000020E895D17E1010EEA6ADB34FE0BEA364F
:1038F000E96EAC0EE9260E0EEA22EE50EFCFEAFF9B
:10390000E96E060EE926000EEA22F2C0EEFFF3C0D1
:10391000EDFF6DD089051BE1921D69E1931D67E103
:10392000010EEA6ADB34FE0BEA36E96EAC0EE926DC
:103930000E0EEA22EE50EFCFEAFFE96E0A0EE926FC
:10394000000EEA22F30EEF140809EF6E50D0010EBC
:10395000EA6ADB34FE0BEA36E96EAC0EE9260E0E9F
:10396000EA22EE50EFCFEAFFE96E060EE926000EDE
:10397000EA22EE6AED6A010EEA6ADB34FE0BEA36F1
:10398000E96EAC0EE9260E0EEA22EE50EFCFEAFF0A
:10399000E96E0A0EE926000EEA22F30EEF1404097E
:1039A000EF6E010EEA6ADB34FE0BEA36E96EAC0E0E
:1039B000E9260E0EEA22EE50EFCFEAFFE96E0A0E7C
:1039C000E926000EEA22EF88EA6ADF34FE0BEA36C7
:1039D000E96EC10EE9260E0EEA22EE50EFCFEAFFA5
:1039E000E96E040EE926000EEA22EE6AED6AEA6A42
:1039F000DF34FE0BEA36E96EAC0EE9260E0EEA2243
:103A0000EE50EFCFEAFFE96E080EE926000EEA223B
:103A1000020EEECFDBFF030EEDCFDBFFDF6A0E0100
:103A2000A651A607000916E0DF50DF2AEA6A000F58
:103A3000E96E0E0EEA22EF50E66E020EDBCFE9FFD2
:103A4000DB2A030EDBCFEAFF01E3DB2AE552E75076
:103A5000EF6EE5D70E01AB870E01A9910E017F0E27
:103A6000A76F0E01A66B000E0BD00E01840E826FA5
:103A7000560E06D00E01840E826F590E01D0000E34
:103A8000146E0E0EE15C02E2E16AE552E16E145042
:103A9000E552E7CFD9FF1200D9CFE6FFE1CFD9FF3A
:103AA000E6520A0EE66EE66AE668EA0EE66E000E7A
:103AB000E66E84EC44F0146E050EE15E1450DF6A8D
:103AC000050EDF5C1CE20A0EE66EEA0EE66E000EE4
:103AD000E66EDF500A0DF3CF14F0F4CF15F0D70ED9
:103AE0001426890E152214C0E6FF15C0E6FF74ECFB
:103AF00040F0166E050EE15E1650DF2AE1D7E55262
:103B0000E552E7CFD9FF12000E01825101E1000C0E
:103B1000820784CEE9FF85CEEAFF842B000E852341
:103B2000EF501200D9CFE6FFE1CFD9FFE652DF6AAE
:103B3000050EDF5C3CE20A0EE66EE66ADF500A0D17
:103B4000F3CF14F0F4CF15F0D70E1426890E1522FA
:103B5000166A14C0E6FF15C0E6FF16C0E6FFEA0EBF
:103B6000E66E000EE66E61EC44F0176E070EE15E45
:103B700017500001F21D01E1F31D17E0080EE66E7B
:103B8000E66AEA0EE66E000EE66EFD0EDBCFE6FF9D
:103B9000FE0EDBCFE6FFEEEC43F0146E060EE15EA8
:103BA0001450000902E1010E03D0DF2AC1D7000E34
:103BB000E552E552E7CFD9FF1200D9CFE6FFE1CFBA
:103BC000D9FF0B0EE126FD0EDBCFE9FFFE0EDBCFAA
:103BD000EAFF010ED926EECFDEFFEECFDEFFEECFFD
:103BE000DEFFEECFDEFFEECFDEFFEECFDEFFEECF6D
:103BF000DEFFEECFDEFFEECFDEFFEECFDEFF0B0E01
:103C0000D95EFD0EDBCFE9FFFE0EDBCFEAFF080E2B
:103C1000E926000EEA22E9CF14F0EACF15F0E9CF49
:103C2000E6FFEACFE6FF58D8E552E552000943E146
:103C3000DF6A050EDF5C43E20A0EE66EE66ADF50DD
:103C40000A0DF3CF14F0F4CF15F0D70E1426890E19
:103C50001522166A14C0E6FF15C0E6FF16C0E6FF7F
:103C6000EA0EE66E000EE66E61EC44F0176E070E8B
:103C7000E15E17500001F21D20E1F31D1EE10A0E66
:103C8000E66ED950010FE66E000EDA20E66EDF50C8
:103C90000A0DF3CF14F0F4CF15F0D70E1426890EC9
:103CA000152214C0E6FF15C0E6FF74EC40F0166E56
:103CB000050EE15E1650010E03D0DF2ABAD7000EC2
:103CC000146E0B0EE15C02E2E16AE552E16E145003
:103CD000E552E7CFD9FF1200D9CFE6FFE1CFD9FFF8
:103CE000E652DF6A050EDF5C37E20A0EE66EE66A30
:103CF000DF500A0DF3CF14F0F4CF15F0D70E1426D1
:103D0000890E1522166A14C0E6FF15C0E6FF16C01C
:103D1000E6FFEA0EE66E000EE66E61EC44F0176E0A
:103D2000070EE15E17500001F21D01E1F31D12E0E4
:103D3000FD0EDBCFE9FFFE0EDBCFEAFFEECF14F086
:103D4000EFCF15F01450F21905E11550F31902E107
:103D5000010E03D0DF2AC6D7000EE552E552E7CFA9
:103D6000D9FF1200D9CFE6FFE1CFD9FFFD0EDBCF9F
:103D7000E6FFFE0EDBCFE6FFAFDFE552E5520009BE
:103D80003BE1050E146EE66EFD0EDBCFE9FFFE0E85
:103D9000DBCFEAFFEECFE6FFEFCFE6FFD8EC27F070
:103DA000E552E552E552E7CF14F0145C27E000013C
:103DB000E251C00BE842E842E842E842E842E84209
:103DC00001080AE0E251C00BE842E842E842E8425A
:103DD000E842E842000912E1D3C0EAF0D4C0EBF0B7
:103DE000D5C0ECF0D6C0EDF0D7C0EEF0D8C0EFF003
:103DF000D9C0F0F0DAC0F1F0010E01D0000EE552AA
:103E0000E7CFD9FF1200D9CFE6FFE1CFD9FFFD0EF2
:103E1000DBCFE6FFFE0EDBCFE6FF84DEE552E552A8
:103E2000000916E1050E146EE66EFD0EDBCFE6FF0F
:103E3000FE0EDBCFE6FF8BEC27F0E552E552E552B4
:103E4000E7CF14F0145C06E0DBC0F2F0DCC0F3F066
:0E3E5000010E01D0000EE552E7CFD9FF12009F
:023E5E000E0153
:103E6000DA513F0B01E1000C010CD9CFE6FFE1CFA5
:103E7000D9FFE652010EE66E4DEC29F0E552040E34
:103E8000E66EE66A7C0E146E890E156E166A14C014
:103E9000E6FFE66E16C0E6FFE40EE66E000EE66E86
:103EA00061EC44F0176E070EE15E17503C0E000106
:103EB000E41902E1A50EE51903E034EC27F005D082
:103EC000050EE75D02E00E01A98BE552E552E7CF52
:103ED000D9FF1200D9CFE6FFE1CFD9FF170EE126B7
:103EE000FE0EDB5001E0A2D00E01A9B1ACEF26F02E
:103EF0000E01DAA7ACEF26F0DABDB3EF26F0DABB9D
:103F0000ACEF26F0DAA920D0DA99DA8BE6CE82FE81
:103F1000DF6A080EDF5C13E2DF50EA6AA40FE96E85
:103F2000000EEA22EF50E66EDF50EA6A920FE96E69
:103F30000E0EEA22E552E750EF6EDF2AEAD70E01B5
:103F4000836B190ED5EF26F0DA892DEC27F0E66E9B
:103F50000E01A751A707EA6A000FE96E0E0EEA22CA
:103F6000E552E750EF6EA751A707EA6A000FE96E26
:103F70000E0EEA22010EEF6EA751A707EA6A000FA4
:103F8000E96E0E0EEA22B4C0EFFFA751A707EA6A56
:103F9000000FE96E0E0EEA22B3C0EFFFA751A7078C
:103FA000EA6A000FE96E0E0EEA22ADC0EFFFA751DC
:103FB000A707EA6A000FE96E0E0EEA22ACC0EFFF17
:103FC000A751A707EA6A000FE96E0E0EEA22EF6A10
:103FD000A751A707EA6A000FE96E0E0EEA22050E46
:103FE000EF6E0E01A651A62BEA6A000FE96E0E0EC7
:103FF000EA22040EEF6E800EDF6EA651A62BEA6A4F
:10400000000FE96E0E0EEA22DFCFEFFFD9CFE6FFF9
:10401000DACFE6FFACC0E6FFADC0E6FFCCEC28F09F
:10402000E552E552E552E5521EEF25F0FE0EDB505B
:10403000490A02E1B8EF26F0010A02E1B3EF26F0E7
:104040000F0A02E19AEF26F0010A02E195EF26F04D
:10405000030A02E1D9EF25F0010A02E1D4EF25F0CD
:10406000070A02E1CFEF25F0010A02E1CAEF25F0CD
:10407000030A02E120EF25F0720A02E171EF24F059
:10408000010A02E161EF24F01C0A02E1ACEF26F024
:10409000040A02E1D4EF26F0030A01E182D20C0AFD
:1040A00001E178D2390A01E1BBD1070A01E180D1EF
:1040B000030A01E1C6D00A0A4BE0030A02E0D4EF8A
:1040C00026F0DF6A080EDF5C0FE2EA6ADF34FE0BDF
:1040D000EA36E96EC90EE9260E0EEA22EF500E010D
:1040E0009C5D02E0DF2AEED7080EDF5C02E1ACEF58
:1040F00026F0EA6ADF34FE0BEA36E96EC90EE926DD
:104100000E0EEA22EE52EF5012E0EA6ADF34FE0BA6
:10411000EA36E96EC90EE9260E0EEA22EE52EFCF1C
:104120009CFE340EF36E050EF3CFDBFF02D0050EBE
:10413000DB6AEA6ADF34FE0BEA36E96EC90EE9266D
:104140000E0EEA22EE52EF6A050EDB50D5EF26F096
:104150000E0E84CEDBFF0F0E85CEDBFF7DEC27F04D
:10416000E76E060EE7CFDBFF7DEC27F0E76E070E6C
:10417000E7CFDBFF7DEC27F0E76E080EE7CFDBFF34
:104180007DEC27F0E76E090EE7CFDBFF7DEC27F033
:10419000E76E0A0EE7CFDBFF7DEC27F0E76E0B0E34
:1041A000E7CFDBFF7DEC27F0E76E0C0EE7CFDBFF00
:1041B0007DEC27F0E76E0D0EE7CFDBFFD950060F41
:1041C000E96EDACFEAFFEF50030B010817E17DEC4F
:1041D00027F0DF6E040EDF5C01E0D9D17DEC27F023
:1041E000DF6E31EC00F0DFACACEF26F00E01DA87C9
:1041F00000019B910E01010EABEF26F0080EDBCF04
:1042000014F0090EDBCF15F00001B351141802E1D0
:10421000B45115180DE0D950080FE96EDACFEAFF56
:10422000FF0EEE1801E0B3D1FF0EED1801E0AFD1A3
:104230000A0EDBCF8AFE0B0EDBCF8BFE350ED5EFE1
:1042400026F00E01A9990E01825144E00E01A997B2
:104250000001B169B269DAEC10F00E01A99B00010E
:10426000E751110DF3CFE8F0F4CFE9F0800E000133
:10427000E827890EE923110EE66EE66AE8C014F01D
:10428000E9C015F0166AE8C0E6FFE9C0E6FF16C00F
:10429000E6FFD30EE66E000EE66E61EC44F0176E9C
:1042A000070EE15E17500001E3970001050EE76F6E
:1042B000110EE66ED30EE66E000EE66EE8C0E6FF67
:1042C000E9C0E6FF74EC40F0146E050EE15E145098
:1042D000E7EF25F088CEB3F089CEB4F00E01A987C0
:1042E000EBEC10F00001E751110DF3CFE8F0F4CF43
:1042F000E9F0800E0001E827890EE923110EE66E31
:10430000E66AE8C014F0E9C015F0166AE8C0E6FFF6
:10431000E9C0E6FF16C0E6FFD30EE66E000EE66EBD
:1043200061EC44F0176E070EE15E17500001E29D4C
:10433000E29F080EE66EE66AA40EE66E000EE66EDA
:10434000D30EE66E000EE66E36EC44F0146E060EEA
:10435000E15E1450110EE66ED30EE66E000EE66EB0
:10436000E8C0E6FFE9C0E6FF74EC40F0146E050E0D
:10437000E15E1450DBC0ACF0DCC0ADF00E01A98BE7
:10438000040EE66EE40EE66E000EE66E7C0EE66E41
:10439000890EE66E74EC40F0146E050EE15E14506A
:1043A0000E01A99DB1C09AFEB2C09BFE8FEF26F010
:1043B0000E01DA9BDA8DACC0E6FFADC0E6FFD8ECAB
:1043C00027F0E552E552DF6E050EDF5C02E017ECE8
:1043D00029F0080EE66EE66A2A0E146E000E156EBF
:1043E000166A14C0E6FFE66E16C0E6FF920EE66E91
:1043F0000E0EE66E61EC44F0176E070EE15E17508C
:10440000020E0E01E65D09E10E01825103E1826BAD
:10441000B1EF26F0CB0EB0EF26F04D0ED5EF26F023
:10442000020E0E01885D01E0B2D084CEE9FF85CE98
:10443000EAFFEF5001E0ABD08ACEE6FF8BCEE6FF7D
:10444000D8EC27F0E552E552050828E1E1EC26F02A
:10445000050801E19CD00001E383E28DE28FDF6A71
:10446000080EDF5C09E2DF50EA6AD30FE96E000E46
:10447000EA22EF6ADF2AF4D70001E62B040EE66E8B
:10448000E40EE66E000EE66E7C0EE66E890EE66EBB
:1044900074EC40F0146E050EE15E14500E019BADFD
:1044A00003D00001E29902D00001E289E29BE3819E
:1044B000020E0E01EA6A8425E96E8551EA22EF5068
:1044C000780BE840E840E8401F0B00010F0BF36E4B
:1044D000F00EE115F310E16F010E0E01EA6A84257A
:1044E000E96E8551EA22EF500F0B00010F0BF36EBE
:1044F000F346F346F346F3460F0EE115F310E16F72
:10450000010E0E01EA6A8425E96E8551EA22EF5018
:10451000F00BE8380F0B00010F0BF36EF00EE215F5
:10452000F310E26F9DCEE0F00E019B510001E39588
:10453000800B01E0E385020E0E01EA6A8425E96E34
:104540008551EA22EF50800B800802E0000E01D076
:10455000010E0001E397E8B0E38786CEDDF087CE59
:10456000DEF08ACEDBF08BCEDCF089CEDFF0110EF0
:10457000E66ED30EE66E000EE66EE8C0E6FFE9C01A
:10458000E6FF74EC40F0146E050EE15E145031EC61
:1045900000F0E2D3E66A4DEC29F0E5523D0ED5EF8E
:1045A00026F00E01880501E082D1825101E07BD125
:1045B000836B846B856B8651871101E172D1010E8B
:1045C00084CEDBFF020E85CEDBFFD950010FE96EF2
:1045D000DACFEAFFEE50ED102BE0010EDBCFE9FF62
:1045E000020EDBCFEAFFEECF14F0EFCF15F086CE50
:1045F000E9FF87CEEAFFE926000EEA22EECF16F0A9
:10460000EFCF17F000011650141802E117501518DB
:104610000FE084CEE9FF85CEEAFF060EE926000E04
:10462000EA22010EEECFDBFF020EEDCFDBFFCDD78E
:10463000D950010FE96EDACFEAFFEE50ED1001E03C
:1046400010D186CEE9FF87CEEAFFEF50010B13E0D1
:1046500086CEE9FF87CEEAFF040EE926000EEA22A5
:10466000E9CF14F0EACF15F0E9CFE6FFEACFE6FF95
:104670008BEC27F00ED086CEE9FF87CEEAFF040E42
:10468000E926000EEA22EECFE6FFEFCFE6FFD8ECF8
:1046900027F0E552E552DF6E050EDF5C01E1E1D067
:1046A000080EE66EB6EC3EF0E552110EF3CFDBFFDE
:1046B000120EF4CFDBFFF3CF14F0F4CF15F0F3506C
:1046C000F41001E1CED086CEE9FF87CEEAFF020EDC
:1046D000E926000EEA22EECF14F0EFCF15F0110E0E
:1046E000DBCFE9FF120EDBCFEAFF14C0EEFF15C0EF
:1046F000EDFF86CEE9FF87CEEAFF010EEB50E66EB6
:10470000110EDBCFE9FF120EDBCFEAFF020EE92626
:10471000000EEA22E552E750EF6E0001E151F00B86
:10472000E842E842E842E842146E110EDBCFE9FFAE
:10473000120EDBCFEAFFEE52EE52EE5214500F0B88
:10474000F36EF00EEF14F310EF6EE2510F0B146ED8
:10475000110EDBCFE9FF120EDBCFEAFFEE52EE5275
:10476000EE5214500F0BF36EF346F346F346F34646
:104770000F0EEF14F310EF6E86CEE9FF87CEEAFF3F
:104780000C0EE926000EEA22EF500F0B146E110EEC
:10479000DBCFE9FF120EDBCFEAFF040EE926000EA5
:1047A000EA2214500F0BF36EF00EEF14F310EF6EBD
:1047B00086CEE9FF87CEEAFF0C0EE926000EEA223C
:1047C000EF50F00BE842E842E842E842146E110E66
:1047D000DBCFE9FF120EDBCFEAFF040EE926000E65
:1047E000EA2214500F0BF36EF346F346F346F346FA
:1047F0000F0EEF14F310EF6E86CEE9FF87CEEAFFBF
:104800000C0EE926000EEA22EE52EF50800B01E07A
:10481000010E146E110EDBCFE9FF120EDBCFEAFFA3
:10482000050EE926000EEA221450010BF36EFE0E6F
:10483000EF14F310EF6E110EDBCFE9FF120EDBCF9A
:10484000EAFF060EE926000EEA2284CEEEFF85CEB0
:10485000EDFF110EDBCF84FE120EDBCF85FE0E01C5
:10486000832B86CEE9FF87CEEAFF130EE926000EE2
:10487000EA22010EEECFDBFF020EEDCFDBFF86CE8C
:10488000E6FF87CEE6FF80EC3FF0E552E5520E01F1
:10489000866B876B010EDBCF86FE020EDBCF87FEB9
:1048A0008AD6835102E10E01A999360E7ED20E01FD
:1048B000A9990E01825103E1DAEC10F00FD5CA0E6E
:1048C0007DD10E01A99D0E01825101E16BD20E0135
:1048D000A98FEB0E0E01825D02E1826B63D2C60EE0
:1048E00060D20E01A9B703D00E01C20E1DD0030E77
:1048F000ACC0DBFF040EADC0DBFFDF6A080EDF5C7F
:104900000EE2EA6ADF34FE0BEA36E96EC90EE926EA
:104910000E0EEA22EE52EF5002E0DF2AEFD7080E29
:10492000DF5C0CE10E01F10E826F0E01A9910E0108
:104930007F0EA76F0E01A66B340E37D2EA6ADF3402
:10494000FE0BEA36E96EC90EE9260E0EEA22EE5299
:104950009CCEEFFF0E01A751A707EA6A000FE96E90
:104960000E0EEA229CCEEFFFA751A707EA6A000FBE
:10497000E96E0E0EEA228ACEEFFFA751A707EA6A78
:10498000000FE96E0E0EEA22B4C0EFFFA751A70791
:10499000EA6A000FE96E0E0EEA22B3C0EFFFA751DC
:1049A000A707EA6A000FE96E0E0EEA2293CEEFFF28
:1049B000A751A707EA6A000FE96E0E0EEA2292CE0F
:1049C000EFFF0E018351E824E66E0E01A751A70701
:1049D000EA6A000FE96E0E0EEA22E552E750EF6E2A
:1049E0000E018B51400DF3500409E66E0E01A751E4
:1049F000A707EA6A000FE96E0E0EEA22E552E750B9
:104A0000EF6ED950150FE66E000EDA20E66E030E3B
:104A1000DBCFE6FF040EDBCFE6FFBEDBE552E5525F
:104A2000E552E552EA6ADF34FE0BEA36E96EC90E5A
:104A3000E9260E0EEA22150EDBCFEFFF100EB5D1E0
:104A4000050E0001E75D4BE0E751110DF3CFE8F0F3
:104A5000F4CFE9F0800E0001E827890EE923110E5A
:104A6000E66EE66AE8C014F0E9C015F0166AE8C020
:104A7000E6FFE9C0E6FF16C0E6FFD30EE66E000EC5
:104A8000E66E61EC44F0176E070EE15E1750000110
:104A9000E28DE28F110EE66ED30EE66E000EE66E2C
:104AA000E8C0E6FFE9C0E6FF74EC40F0146E050EC6
:104AB000E15E14500001050EE76F040EE66EE40E91
:104AC000E66E000EE66E7C0EE66E890EE66E74EC07
:104AD00040F0146E050EE15E14500E01A99BDF6AD2
:104AE000050EDF5C39E2DF50110DF3CFE8F0F4CFB3
:104AF000E9F0800E0001E827890EE923110EE66E29
:104B0000E66AE8C014F0E9C015F0166AE8C0E6FFEE
:104B1000E9C0E6FF16C0E6FFD30EE66E000EE66EB5
:104B200061EC44F0176E070EE15E17500001E3A33D
:104B300011D0E397110EE66ED30EE66E000EE66E10
:104B4000E8C0E6FFE9C0E6FF74EC40F0146E050E25
:104B5000E15E1450DF2AC4D70E01A9890E01DE518F
:104B6000DF110BE0DECEE6FFDFCEE6FF80EC3FF0AC
:104B7000E552E5520E01DE6BDF6B8ACEE1FE8BCE95
:104B8000E2FE8CCEE3FE8DCEE4FE89CEE5FE0E0184
:104B9000010EC8D00E01C20E826F370E06D10E0173
:104BA000C20E826F380E01D10E01C20E826F390E15
:104BB000FCD00E01A9A704D00E01C20E826FAFD0A7
:104BC000A9890E01825101E0ACD0C30E826F0001B1
:104BD000050EE76F160EDB68DF6A050EDF5C4CE240
:104BE000DF50110DF3CFE8F0F4CFE9F0800E0001B3
:104BF000E827890EE923110EE66EE66AE8C014F094
:104C0000E9C015F0166AE8C0E6FFE9C0E6FF16C085
:104C1000E6FFD30EE66E000EE66E61EC44F0176E12
:104C2000070EE15E17500001E351020B23E0E35150
:104C3000040B20E0E351080B1DE00E019A51000126
:104C4000DD1918E10E019B510001DE1913E1300E50
:104C5000E05D10E3160EDBCF14F0E1510F0BD880AE
:104C6000145408E2E1510F0BE76E160EE7CFDBFF9D
:104C7000DFCFE7F0DF2AB1D7050E0001E75D4DE099
:104C8000E751110DF3CFE8F0F4CFE9F0800E000109
:104C9000E827890EE923110EE66EE66AE8C014F0F3
:104CA000E9C015F0166AE8C0E6FFE9C0E6FF16C0E5
:104CB000E6FFD30EE66E000EE66E61EC44F0176E72
:104CC000070EE15E17509ACEB1F09BCEB2F0DAEC4F
:104CD00010F0010EE66EE66A840E146E8B0E156EF1
:104CE000166A14C0E6FFE66E16C0E6FFD9CFE6FFEF
:104CF000DACFE6FF61EC44F0176E070EE15E175065
:104D0000DFC088FE0E01020E896FDBC092FEDCC0A0
:104D100093FEDFCF82FE150E48D00E01A9993A0E00
:104D200044D0030E886F280E40D00E01C20E826F51
:104D30003B0E3BD00E01A9A711D0920EE66E0E0ECF
:104D4000E66E7AD9E552E552000908E000019B9130
:104D50000E01DA87020EE66F000E27D00E01C20E9A
:104D6000826F3C0E22D00E01010E826F240E1DD0E8
:104D70000E01825111E1836B0E01A98DA99FB1C073
:104D80009AFEB2C09BFE0E01020E896FACC092FE6D
:104D9000ADC093FE310E09D00E01A99DA98F0E0161
:104DA000C10E826F3E0E01D0000E146E170EE15C34
:104DB00002E2E16AE552E16E1450E552E7CFD9FF15
:104DC0001200D9CFE6FFE1CFD9FF020EE1260001A4
:104DD000800EE86F890EE96FDF6A010EDB6A050E4F
:104DE000DF5C29E2010EDB5026E1110EE66EE66A79
:104DF000E8C014F0E9C015F0166AE8C0E6FFE9C0A3
:104E0000E6FF16C0E6FFD30EE66E000EE66E61EC1E
:104E100044F0176E070EE15E17500001E3B304D0B3
:104E2000DE52010EDD6E07D00001110EE827000EE4
:104E3000E923DF2AD4D7010EDB5002E0DF5001D096
:104E4000050E146E020EE15C02E2E16AE552E16ECB
:104E50001450E552E7CFD9FF12000E01D92BD951DA
:104E600001E1D92BD9511200D9CFE6FFE1CFD9FF0B
:104E7000E6520E01A99B0001E06BE16BE26BE36B74
:104E8000DF6A0001800EE86F890EE96F050EDF5CB6
:104E900017E2110EE66ED30EE66E000EE66EE8C067
:104EA000E6FFE9C0E6FF74EC40F0146E050EE15E2B
:104EB0001450DF2A0001110EE827000EE923E6D77F
:104EC0000001E66B050EE76F3C0EE46FA50EE56F83
:104ED000040EE66EE40EE66E000EE66E7C0EE66EE6
:104EE000890EE66E74EC40F0146E050EE15E14500F
:104EF000E552E552E7CFD9FF12000E01825101E1E0
:104F0000000C820784CEE9FF85CEEAFF842B000ED9
:104F10008523EF501200D9CFE6FFE1CFD9FFE6524B
:104F20000001800EE86F890EE96FDF6A050EDF5C15
:104F300039E2110EE66EE66AE8C014F0E9C015F039
:104F4000166AE8C0E6FFE9C0E6FF16C0E6FFD30E2A
:104F5000E66E000EE66E61EC44F0176E070EE15E41
:104F600017500001E3A317D0080EE66EE66AD30ED1
:104F7000E66E000EE66EFD0EDBCFE6FFFE0EDBCF2B
:104F8000E6FFEEEC43F0146E060EE15E14500009ED
:104F900002E1DF5008D0DF2A0001110EE827000EE1
:104FA000E923C4D7050EE552E552E7CFD9FF120039
:104FB000D9CFE6FFE1CFD9FFE6520001800EE86FBE
:104FC000890EE96FDF6A050EDF5C30E2110EE66ED6
:104FD000E66AE8C014F0E9C015F0166AE8C0E6FF1A
:104FE000E9C0E6FF16C0E6FFD30EE66E000EE66EE1
:104FF00061EC44F0176E070EE15E17500001E3A369
:105000000ED0DBC014F0DCC015F0FD0EDB50141820
:1050100006E1FE0EDB50151802E1DF5008D0DF2A52
:105020000001110EE827000EE923CDD7050EE55249
:10503000E552E7CFD9FF1200D9CFE6FFE1CFD9FF84
:10504000080EE126E66EE66A2A0E146E000E156E54
:10505000166A14C0E6FFE66E16C0E6FFD9CFE6FF7B
:10506000DACFE6FF61EC44F0176E070EE15E1750F1
:10507000080EE66EE66AD9CFE6FFDACFE6FFFD0E50
:10508000DBCFE6FFFE0EDBCFE6FFEEEC43F0146E67
:10509000060EE15E1450000902E1010E01D0000E7F
:1050A000146E080EE15C02E2E16AE552E16E145012
:1050B000E552E7CFD9FF1200D9CFE6FFE1CFD9FF04
:1050C000E652DF6A0001800EE86F890EE96F050E77
:1050D000DF5C4DE2110EE66EE66AE8C014F0E9C04E
:1050E00015F0166AE8C0E6FFE9C0E6FF16C0E6FF65
:1050F000D30EE66E000EE66E61EC44F0176E070EFE
:10510000E15E17500001E351020B2AE0E251C00BAF
:10511000E842E842E842E842E842E842010820E08A
:10512000E251C00BE842E842E842E842E842E84285
:10513000000916E0E06BE16BE26BE36B0001E60750
:10514000110EE66ED30EE66E000EE66EE8C0E6FFC8
:10515000E9C0E6FF74EC40F0146E050EE15E1450F9
:10516000DF2A0001110EE827000EE923B0D7040E54
:10517000E66EE40EE66E000EE66E7C0EE66E890EBE
:10518000E66E74EC40F0146E050EE15E1450E552CC
:10519000E552E7CFD9FF1200D9CFE6FFE1CFD9FF23
:1051A0000E01A9810E01020E886FB1C086FEB2C049
:1051B00087FEB3C08AFEB4C08BFE896FB1C09AFE71
:1051C000B2C09BFEFD0EDBCF92FEFE0EDBCF93FE48
:1051D000FB0EDBCFE9FFFC0EDBCFEAFFAEC0EFFF3B
:1051E000AEC09CFE856BD950FD0FE96EFF0EDA2034
:1051F000EA6EFF0EEE1802E1FF0EED1811E0858158
:10520000FD0EDBCFE6FFFE0EDBCFE6FFD1DEE55283
:10521000E552050805E00001E3B102D00E018585E5
:105220000E01010E846FE552E7CFD9FF1200000195
:10523000E251C00BE842E842E842E842E842E84274
:10524000000903E10001050EE76F0001E06BE16B6F
:10525000E26BE36B110EE66ED30EE66E000EE66EA9
:10526000E8C0E6FFE9C0E6FF74EC40F0146E050EFE
:10527000E15E14500001E607040EE66EE40EE66EF1
:10528000000EE66E7C0EE66E890EE66E74EC40F063
:10529000146E050EE15E14501200D9CFE6FFE1CF87
:1052A000D9FFE652D6CFD9FE0E01A96B0E01DA6BFB
:1052B000DB6BDF6A080EDF5C0DE2EA6ADF34FE0BAF
:1052C000EA36E96EC90EE9260E0EEA22EE52EF6AC0
:1052D000DF2AF0D7FE0EDB500CE10E01DE51DF11AC
:1052E00008E0DECEE6FFDFCEE6FF80EC3FF0E552E1
:1052F000E5520E01DE6BDF6BE552E552E7CFD9FFD9
:02530000120099
:0E530200030E0001FF1501E1000C010C00017B
:10531000FF6B1200D9CFE6FFE1CFD9FF470EE126A0
:10532000DF6AFE0EDB5007E10E01A9A124EF2FF08A
:10533000000E25EF2FF0FE0EDB505A0A02E024EF9C
:105340002FF00E019CAF03D0510E25EF2FF084EC0F
:105350001DF0E76E020EE7CFDBFFDB50F00B2008FD
:1053600002E022EF2FF084EC1DF00001FE6F84ECD0
:105370001DF0E76E010EE7CFDBFF0E019C51300AF6
:1053800002E10EEF2FF0010A02E10EEF2FF0030A07
:1053900002E10EEF2FF0010A02E10EEF2FF0060AF4
:1053A00002E10EEF2FF0010A02E10EEF2FF0240AC6
:1053B00002E1ECEF2EF0010A02E1ECEF2EF0030A1D
:1053C00002E1ECEF2EF0060A02E1ECEF2EF0120AF9
:1053D00001E1B5D2030A01E141D2010A01E1E1D0C4
:1053E000070A01E198D0010A50E0030A42E0010AED
:1053F00002E022EF2FF0030EDB6A080EF36E030EBD
:10540000DBCFF4FFF350F45C2EE2010EE66EE66AA9
:10541000030EDB50156A2A0F146E000E1522166A51
:1054200014C0E6FF15C0E6FF16C0E6FFD950040F12
:10543000E66E000EDA20E66E61EC44F0176E070EA1
:10544000E15E175084EC1DF0E76E050EE7CFDBFF41
:10545000DB50F36E040EDB50F35C02E022EF2FF022
:10546000030EDB2ACAD7800EE66E31EC2FF0E55230
:1054700063D2E9EC2FF0000902E122EF2FF0810E58
:10548000E66E31EC2FF01FEF2FF0E9EC2FF0000962
:1054900002E122EF2FF00E01030EA66FE850A62BBB
:1054A000EA6A000FE96E0E0EEA22EF6AA651A62BF9
:1054B000EA6A000FE96E0E0EEA22B3C0EFFFA651B2
:1054C000A62BEA6A000FE96E0E0EEA22B4C0EFFFC7
:1054D000080EE66EE66A820E146E8B0E156E166A64
:1054E00014C0E6FFE66E16C0E6FFA651186A000F6C
:1054F000176E0E0E182217C0E6FF18C0E6FF61EC0B
:1055000044F0196E070EE15E1950080E0E01A62731
:10551000820E1DEF2FF0E9EC2FF0000902E122EFDF
:105520002FF00E01030EA66FE850A62BEA6A000FBB
:10553000E96E0E0EEA22EF6AA651A62BEA6A000F68
:10554000E96E0E0EEA22B3C0EFFFA651A62BEA6A5F
:10555000000FE96E0E0EEA22B4C0EFFF020EE66EF7
:10556000E66A8A0E146E8B0E156E166A14C0E6FF7C
:10557000E66E16C0E6FFA651186A000F176E0E0EF3
:10558000182217C0E6FF18C0E6FF61EC44F0196E60
:10559000070EE15E1950020E0E01A627830E1DEFC5
:1055A0002FF0E9EC2FF0000902E122EF2FF084EC5C
:1055B0001DF0E76E060EE7CFDBFF0E01030EA66FB0
:1055C000060EDB50000801E324D1060EDB50146EFA
:1055D000156A153404E21450F008000E155401E267
:1055E00018D1070EDB68070EDB2A160EE66EE66A98
:1055F000070EDB50160DF3CF14F0F4CF15F08C0E20
:1056000014268B0E1522166A14C0E6FF15C0E6FF9D
:1056100016C0E6FFD950080FE66E000EDA20E66EDF
:1056200061EC44F0176E070EE15E1750060EDB507A
:10563000F36E080EDB50F35C08E0020EF36E070E0B
:10564000DBCFF4FFF350F45CCEE3070EDB5002082F
:105650000AE10E01A651A62BEA6A000FE96E0E0EB2
:10566000EA22830EDED00E01A651A62BEA6A000FB5
:10567000E96E0E0EEA22EF6AA651A62BEA6A000F27
:10568000E96E0E0EEA22B3C0EFFFA651A62BEA6A1E
:10569000000FE96E0E0EEA22B4C0EFFF160EDBCF4C
:1056A000E6FF0E0EDB50080FE552E724E66EA6512A
:1056B000A62BEA6A000FE96E0E0EEA22E552E750C9
:1056C000EF6EA651A62BEA6A000FE96E0E0EEA22D3
:1056D000080EDBCFEFFFA651A62BEA6A000FE96E9A
:1056E0000E0EEA22090EDBCFEFFFA651A62BEA6AC7
:1056F000000FE96E0E0EEA220A0EDBCFEFFFA65175
:10570000A62BEA6A000FE96E0E0EEA220B0EDBCF23
:10571000EFFFA651A62BEA6A000FE96E0E0EEA22F1
:105720000C0EDBCFEFFFD950080FE96EDACFEAFF9E
:10573000050EE926000EEA22EF50F00BE842E8429F
:10574000E842E842100DD950080FE96EDACFEAFFBF
:10575000050EE926000EEA22EF500F0BF310E66E5D
:10576000A651A62BEA6A000FE96E0E0EEA22E55258
:10577000E750EF6EA651A62BEA6A000FE96E0E0EF7
:10578000EA220E0EDBCFEFFFDBCFE6FFE66AD95051
:105790000F0FE66E000EDA20E66EA651156A000FB6
:1057A000146E0E0E152214C0E6FF15C0E6FF36EC8F
:1057B00044F0166E060EE15E16500E0EDB500E0122
:1057C000A627A651A62BEA6A000FE96E0E0EEA2262
:1057D000160EDBCFEFFFDBCFE6FFE66AD950170FDF
:1057E000E66E000EDA20E66EA651156A000F146E02
:1057F0000E0E152214C0E6FF15C0E6FF36EC44F08D
:10580000166E060EE15E1650160EDB500E01A62730
:1058100023D0A651A62BEA6A000FE96E0E0EEA22EB
:10582000820EEF6EA651A62BEA6A000FE96E0E0EED
:10583000EA22B3C0EFFFA651A62BEA6A000FE96E79
:105840000E0EEA22B4C0EFFFA651A62BEA6A000FA3
:10585000E96E0E0EEA22EF6A840EEFD2BADB00097F
:1058600001E1F0D2350E89CEDBFF0E01030EA66FEB
:10587000E850A62BEA6A000FE96E0E0EEA22EF6AE4
:10588000A651A62BEA6A000FE96E0E0EEA22B3C0FB
:10589000EFFFA651A62BEA6A000FE96E0E0EEA2270
:1058A000B4C0EFFFA651A62BEA6A000FE96E0E0EF8
:1058B000EA22020EEF6E1E0EDB6A020EF36E1E0E61
:1058C000DBCFF4FFF350F45C2FE2160EE66EE66ACF
:1058D0001E0EDB50160DF3CF14F0F4CF15F08C0E26
:1058E00014268B0E1522166A14C0E6FF15C0E6FFBB
:1058F00016C0E6FFD9501F0FE66E000EDA20E66EE6
:1059000061EC44F0176E070EE15E17500E01A651D0
:10591000A62BEA6A000FE96E0E0EEA221F0EDBCFFD
:10592000EFFF1E0EDB2AC9D7850EE66E85DBE5523A
:10593000350EDB5001E184D20E018C8581D249DB2A
:10594000000901E17FD2460E89CEDBFF360EDB6A0D
:10595000390EDB6A3A0EDB6A3E0EDB6A400EDB6A0A
:10596000410EDB6A160EE66EB6EC3EF0E552440ED2
:10597000F3CFDBFF450EF4CFDBFFF3CF14F0F4CF12
:1059800015F0F350F41001E1E4D184EC1DF0E76E62
:10599000420EE7CFDBFF84EC1DF0E76E430EE7CF4E
:1059A000DBFF84EC1DF0E76E3D0EE7CFDBFFDB5045
:1059B00035E03D0EDBCFE6FFB6EC3EF0E552390EAA
:1059C000F3CFDBFF3A0EF4CFDBFFF3CF14F0F4CFCD
:1059D00015F0F350F41001E1BCD1380EDB6A3D0E36
:1059E000DB50F36E380EDBCFF4FFF350F45C16E2BD
:1059F00084EC1DF0E66E380EDB50E76E390EDBCF1F
:105A0000E9FF3A0EDBCFEAFFE750E926000EEA2273
:105A1000E552E750EF6E380EDB2AE1D784EC1DF03B
:105A2000E76E3F0EE7CFDBFFDB5035E03F0EDBCF0D
:105A3000E6FFB6EC3EF0E552400EF3CFDBFF410E41
:105A4000F4CFDBFFF3CF14F0F4CF15F0F350F410E4
:105A500001E17FD1380EDB6A3F0EDB50F36E380E6A
:105A6000DBCFF4FFF350F45C16E284EC1DF0E66E3D
:105A7000380EDB50E76E400EDBCFE9FF410EDBCF87
:105A8000EAFFE750E926000EEA22E552E750EF6E02
:105A9000380EDB2AE1D73D0EDB5008E13F0EDB502C
:105AA00005E1010EF36E360EF3CFDBFF070E0E019C
:105AB000A627010EF36E380EF3CFDBFF020EF36E56
:105AC000380EDBCFF4FFF350F45C01E300D13C0E61
