:020000040000FA
:060000007CEF48F0120045
:0600080076EF3AF0120051
:0600180076EF3AF0120041
:06002A006700000000A3C6
:020030000400CA
:0E003200010034910000F20E000002000000F8
:100040000001B651000802E2010E01D0000E00D0FE
:1000500012000E01820784CEE9FF85CEEAFF842BD1
:10006000000E8523EF5000D0120080CEE6FF81CE37
:10007000E6FF02EC40F0E552E5520E01806B816B29
:1000800012000F010A5103E0000E04D003D08B943C
:10009000010E00D01200D9CFE6FFE1CFD9FF090E43
:1000A000E126080EE66EE66A2A0E146E000E156E44
:1000B000166A14C0E6FF15C0E6FF16C0E6FFD9CFEA
:1000C000E6FFDACFE6FFC6EC46F0176E070EE15EFC
:1000D000175020EC38F0A5EC11F0B6EC11F0080E3A
:1000E000DB6AF36EDBCFF4FFF350F45C19E2D9CF97
:1000F00014F0DACF15F0080EDB500F011424E96E6E
:10010000000E1520EA6EEF50E66E080EDB50050F6C
:10011000E66EC2EC39F0E552E552080EDB2AE1D773
:100120000B0E0F01055D100DF3500209E66EE66A35
:10013000020EE66E7AEC39F0E552E552E552040E15
:10014000E66E360EE66EC2EC39F0E552E552E66A2E
:10015000360EE66EC2EC39F0E552E552090EE15C6E
:1001600002E2E16AE552E16EE552E7CFD9FF120003
:10017000D9CFE6FFE1CFD9FFE6520E017F0EA76F80
:100180000E01A66BDF6ADF50146E156A050E145C53
:10019000000E15580DE2EA6ADF34FE0BEA36E96E0E
:1001A000910EE926000EEA22EE6AED6ADF2AEBD70D
:1001B0000E01010E826F240EE66E09D8E552000191
:1001C000B66B886BE552E552E7CFD9FF1200D9CF65
:1001D000E6FFE1CFD9FF2B0EE126FE0EDB5001E05A
:1001E00077D30001B6AB09D0B69B010E02CFDBFF7F
:1001F000020E03CFDBFFE6EF06F0E3EC47F0030E61
:1002000004C0DBFF040E05C0DBFF050E06C0DBFFEC
:10021000060E07C0DBFF0F010A51100B1EE0D9507C
:10022000030FE96EDACFEAFF00018451EE5C146E31
:100230008551EE58156E8651EE58166E8751EE5860
:10024000176ED880260E1454070E1554000E16543F
:10025000000E175402E20F010A990001B6A358D00C
:100260000F010DAD55D00F01F250100B02E0018FC0
:1002700001D0019FF2980F010D9D0DAF0ED00D9F83
:100280000F010151800B02E0F28801D0F2980001C9
:10029000B68B000E99EF11F03BD00F010151800B8E
:1002A00002E0F28801D0F2980001B6930E01A99104
:1002B0000E017F0EA76F0E01A66B000188A70CD060
:1002C0000E0188698969E90E826F00018897B697E7
:1002D000180E99EF11F01CD088A908D088990E014A
:1002E000E90E826F320E99EF11F012D088AF08D06C
:1002F000889F0E01E90E826F1B0E99EF11F008D056
:100300000E01E90E826F83C09CFE110E99EF11F071
:100310000001B6A908D0B6510E018591020B01E08B
:10032000858118EF0CF00E01A9A103D0000E99EF02
:1003300011F0000188AB25D0D950030FE96EDACF58
:10034000EAFF8451EE5C146E8551EE58156E8651AD
:10035000EE58166E8751EE58176ED880260E14543C
:10036000070E1554000E1654000E17540AE20F0122
:100370000A990001889B0E01EB0E826F320E99EFF5
:1003800011F0B6A758D088B92FD0D950030FE96E15
:10039000DACFEAFF8451EE5C146E8551EE58156E8B
:1003A0008651EE58166E8751EE58176ED880000EA3
:1003B0001454B40E1554000E1654000E175414E2C3
:1003C000B6B312D00E01836B000188890E01020EB4
:1003D000896FB1C09AFEB2C09BFE81C092FE82C0FE
:1003E00093FE310E99EF11F0D950030FE96EDACF79
:1003F000EAFF8451EE5C146E8551EE58156E8651FD
:10040000EE58166E8751EE58176ED880000E1454B1
:10041000B40E1554000E1654000E17540CE2B69785
:100420000E0188698969EB0E826F0001B693886BB3
:10043000180E99EF11F0B6A549D20F0EE66E020E16
:10044000E66E18EC3AF0E552E552E76E0B0EE7CF98
:10045000DBFFE3EC47F0030E04C0DBFF040E05C036
:10046000DBFF050E06C0DBFF060E07C0DBFFD95021
:10047000030FE96EDACFEAFF0001C451EE5C146E9F
:10048000C551EE58156EC651EE58166EC751EE584E
:10049000176E070E14C0DBFF080E15C0DBFF090E38
:1004A00016C0DBFF0A0E17C0DBFFB6BDB3D1C9C053
:1004B00014F0CAC015F0CBC016F0CCC017F0146A07
:1004C000156A166A800E171614501510161017109C
:1004D00041E0B695BBC08AFEBCC08BFEBDC08CFEA1
:1004E000BEC08DFE0E01826BCEC084FECFC085FEE5
:1004F000CEC086FECFC087FEBFC088FECDC083FEC3
:100500000001BF0503E0020EBF5D06E10E0183514D
:1005100002E1EA0E826F06D0030EBF5D03E10E0119
:10052000EA0E826FE66AEDEC39F0E552E76E0C0EEA
:10053000E7CFDBFFDB50FE0BE76E0C0EE7CFDBFFF8
:10054000DBCFE6FFE66AC2EC39F0E552E552290E50
:1005500099EF11F0B7A13DD10F01052B030EDBCFB1
:10056000C4F0040EDBCFC5F0050EDBCFC6F0060EDF
:10057000DBCFC7F00001D890BA33B933B833B73303
:10058000C951CA11CB11CC1106E1010EC96FCA6B5A
:10059000CB6BCC6B05D0D890C937CA37CB37CC37AB
:1005A000C951BB1BCA51BC1BCB51BD1BCC51BE1B7F
:1005B000B68D0B0E0F01055D100DF3500209E66EAE
:1005C000E66A020EE66E7AEC39F0E552E552E55243
:1005D000040EE66E360EE66EC2EC39F0E552E552D8
:1005E000E66A360EE66EC2EC39F0E552E5520001DD
:1005F000BF51030A62E0010A5FE0030A05E0010A55
:1006000001E0E6D0D26BE4D00B0EDB50800853E063
:100610000E01A651A62BEA6A000FE96E0E0EEA2221
:10062000070EEF6E0E01A751A707EA6A000FE96EE9
:100630000E0EEA22EF68A751A707EA6A000FE96EDB
:100640000E0EEA22EF68A751A707EA6A000FE96ECB
:100650000E0EEA22EF68A751A707EA6A000FE96EBB
:100660000E0EEA22EF680001AE51AE2BE66E0E01CF
:10067000A751A707EA6A000FE96E0E0EEA22E552BB
:10068000E750EF6EA751A707EA6A000FE96E0E0E5A
:10069000EA22080EEF6EA751A707EA6A000FE96E7B
:1006A0000E0EEA22030EEF6E0001886B0E0185919B
:1006B000859718EF0CF00AD18BD00B0EDB50800819
:1006C00001E185D00E01A651A62BEA6A000FE96E62
:1006D0000E0EEA22060EEF6E070E0E01A75F080E41
:1006E000E66EE66A2A0E146E000E156E166A14C0C7
:1006F000E6FF15C0E6FF16C0E6FFA751186A000F17
:10070000176E0E0E182217C0E6FF18C0E6FFC6ECE3
:1007100046F0196E070EE15E19500E01A707A751AA
:10072000A707EA6A000FE96E0E0EEA22EF68A751EA
:10073000A707EA6A000FE96E0E0EEA22EF68A751DA
:10074000A707EA6A000FE96E0E0EEA22EF68A751CA
:10075000A707EA6A000FE96E0E0EEA22EF68A751BA
:10076000A707EA6A000FE96E0E0EEA22EF68A751AA
:10077000A707EA6A000FE96E0E0EEA22EF68000191
:10078000AE51AE2BE66E0E01A751A707EA6A000F25
:10079000E96E0E0EEA22E552E750EF6EA751A70769
:1007A000EA6A000FE96E0E0EEA22C80EEF6EA7513C
:1007B000A707EA6A000FE96E0E0EEA22030EEF6E3B
:1007C0000001886B0E018591859718EF0CF07ED0A3
:1007D00020D00F01052B0001D890BA33B933B833BC
:1007E000B733C951CA11CB11CC1106E1010EC96F43
:1007F000CA6BCB6BCC6B05D0D890C937CA37CB3717
:10080000CC37C951BB1BCA51BC1BCB51BD1BCC51F2
:10081000BE1B5CD0BF513DE1800EE66E3E0EE66E23
:10082000C2EC39F0E552E5523E0EE66EEDEC39F0E1
:10083000E552E76E0D0EE7CFDBFFDB50010B010841
:100840000AE03E0EE66EEDEC39F0E552E76E0D0E75
:10085000E7CFDBFFF2D7100EE66E020EE66E18EC65
:100860003AF0E552E552E76E0D0EE7CFDBFFDBCF46
:1008700014F00001D251D880145403E20D0EDBCFE6
:10088000D2F0400EE66E3E0EE66EC2EC39F0E55256
:10089000E552D950070FE96EDACFEAFF0001C051E7
:1008A000EE5CC151EE58C251EE58C351EE580EE302
:1008B000BF510BE1D0C0E9FFD1C0EAFFD02B000E41
:1008C000D123D2C0EFFFCD2BD26BB69D97EF11F0A5
:1008D000FE0EDB50310A02E135EF11F01C0A02E195
:1008E000FBEF10F0050A02E158EF10F00C0A02E1EC
:1008F000FEEF0FF0070A02E13DEF0FF03A0A02E1C6
:10090000C7EF0EF00E0A02E15EEF0EF0020A02E1FE
:10091000A1EF0DF0060A02E100EF0DF0030A02E17B
:100920008DEF0AF0130A02E097EF11F00E01A99D76
:1009300029EC00F0E76E010EE7CFDBFF29EC00F0B9
:10094000E76E020EE7CFDBFF29EC00F0E76E0E0E3C
:10095000E7CFDBFFD950010FE96EDACFEAFFEE52A5
:10096000EF500C0BE842E8420E01896FD950010F9D
:10097000E96EDACFEAFFEE52EF50C00BE842E842F0
:10098000E842E842E842E842886F020E895D11E1E0
:1009900029EC00F00E019A6F29EC00F00E019B6F1C
:1009A00029EC00F00E01926F29EC00F00E01936F1C
:1009B0002BD0030E895D28E129EC00F00E019A6F1F
:1009C00029EC00F00E019B6F29EC00F00E01926FF4
:1009D00029EC00F00E01936F29EC00F00E01946FEA
:1009E00029EC00F00E01956F29EC00F00E01966FD6
:1009F00029EC00F00E01976F29EC00F00E01986FC2
:100A000029EC00F00E01996F020E885D1EE1D950AD
:100A1000010FE96EDACFEAFFEF50400B05E0B1C0FD
:100A200086FEB2C087FE08D029EC00F00E01866F6A
:100A300029EC00F00E01876F29EC00F00E018A6F9F
:100A400029EC00F00E018B6F38D0030E885D35E184
:100A5000D950010FE96EDACFEAFFEF50400B05E005
:100A6000B1C086FEB2C087FE08D029EC00F00E01AE
:100A7000866F29EC00F00E01876F29EC00F00E0163
:100A80008A6F29EC00F00E018B6F29EC00F00E014B
:100A90008C6F29EC00F00E018D6F29EC00F00E0137
:100AA0008E6F29EC00F00E018F6F29EC00F00E0123
:100AB000906F29EC00F00E01916F8251EA6A842553
:100AC000E96E8551EA22020EE95E000EEA5AEFCF86
:100AD0009DFE020E825FD950010FE96EDACFEAFF68
:100AE000EF50070B030A01E1F3D1010A01E164D1E0
:100AF000020A1FE0010A02E085EF0AF0921D01E1FF
:100B0000931D05E135EC00F0000E99EF11F00001A6
:100B100088AB0CD0889B0E01825108E135EC00F0C7
:100B20000E01EB0E826F320E99EF11F0120E99EF5B
:100B300011F00E0EDBCF96FE05CF89FE29EC00F0FA
:100B40000E019A6F29EC00F00E019B6F29EC00F06A
:100B5000E76E100EE7CFDBFF0E01996BD950100F37
:100B6000E96EDACFEAFFEF50800B02E0010E996FD9
:100B700029EC00F0E76E100EE7CFDBFFE3EC47F067
:100B800004C092FE05C093FE06C094FE07C095FE09
:100B90000001B6A50BD1BF0504E0020EBF5D01E068
:100BA00005D1CE51CF1112E1150EE66E1DEC3FF0CE
:100BB000E552110EF3CFDBFF120EF4CFDBFF110E67
:100BC000DBCFCEF0120EDBCFCFF05ED0110ECEC059
:100BD000DBFF120ECFC0DBFF110EDBCFE9FF120EE1
:100BE000DBCFEAFF130EE926000EEA22EE50ED10ED
:100BF00011E0110EDBCFE9FF120EDBCFEAFF130E7F
:100C0000E926000EEA22110EEECFDBFF120EEDCF29
:100C1000DBFFE2D7150EE66E1DEC3FF0E552F3CF99
:100C200014F0F4CF15F0110EDBCFE9FF120EDBCF7D
:100C3000EAFF130EE926000EEA2214C0EEFF15C0EB
:100C4000EDFF110EDBCFE9FF120EDBCFEAFF130E33
:100C5000E926000EEA22EE50ED1006E10E01080E24
:100C60009C6F1C0E99EF11F0110EDBCFE9FF120EF5
:100C7000DBCFEAFF130EE926000EEA22110EEECFBB
:100C8000DBFF120EEDCFDBFFD950110FE96EDACF8B
:100C9000EAFFEE50ED1001E189D00001CD2BFD0EF1
:100CA0000E018815146E110EDBCFE9FF120EDBCF9B
:100CB000EAFF1450010BF36EFE0EEF14F310EF6E0B
:100CC0009951146E110EDBCFE9FF120EDBCFEAFF54
:100CD0001450010BF36EF346FD0EEF14F310EF6E9C
:100CE000110EDBCFE9FF120EDBCFEAFF020EE92681
:100CF000000EEA2286CEEEFF87CEEDFF110EDBCF8F
:100D0000E9FF120EDBCFEAFF040EE926000EEA220D
:100D10008ACEEEFF8BCEEEFF8CCEEEFF8DCEEEFFB9
:100D20008ECEEEFF8FCEEEFF90CEEEFF91CEEEFF99
:100D3000110EDBCFE9FF120EDBCFEAFFEE5289CEB8
:100D4000EFFF110EDBCFE9FF120EDBCFEAFF0C0E37
:100D5000E926000EEA229ACEEEFF9BCEEDFF110EA1
:100D6000DBCFE9FF120EDBCFEAFFE926000EEA2215
:100D70009DCEEFFF110EDBCFE9FF120EDBCFEAFFB6
:100D80000E0EE926000EEA2292CEEEFF93CEEEFF83
:100D900094CEEEFF95CEEEFF110EDBCFE9FF120EE3
:100DA000DBCFEAFF130EEB6A140EEB6A0E01080E9E
:100DB0009C6F1C0E99EF11F035EC00F00001B6A30A
:100DC00086D00E0EDB50835D01E081D00E01A9912B
:100DD0000E017F0EA76F0E01A66B0001B69388A7C8
:100DE0000CD0B687E3EC47F004C084F005C085F072
:100DF00006C086F007C087F01DD088A91BD0D95047
:100E0000010FE96EDACFEAFFEF50100B0CE0888B90
:100E1000E3EC47F004C084F005C085F006C086F01E
:100E200007C087F007D088990E01EB0E826F320E53
:100E300099EF11F0000188AF0FD0B6EC11F000016E
:100E4000889F0E01826B0001B169B269B369B46910
:100E50001B0E99EF11F03BD088AD32D0889D0E016A
:100E6000826B030E896F89C092FE8AC093FE8BC08D
:100E700094FE8CC095FE8DC096FE8EC097FE8FC0EE
:100E800098FE90C099FE886F080EE66EE66A2A0EFC
:100E9000146E000E156E166A14C0E6FF15C0E6FF4C
:100EA00016C0E6FF8A0EE66E0E0EE66EC6EC46F043
:100EB000176E070EE15E17502A0E99EF11F007D05A
:100EC0000E01826B83C09CFE110E99EF11F023D3AB
:100ED00029EC00F0E76E130EE7CFDBFFDB50020AD0
:100EE00001E1ECD2060A01E19BD00C0A2EE00B0ACC
:100EF00021E0050A1AE0070A05E035EC00F0000ED3
:100F000099EF11F029EC00F00E01826FD950010F1A
:100F1000E96EDACFEAFFEF50080B01E0010E836FB4
:100F200035EC00F0160E99EF11F035EC00F0220EC2
:100F300099EF11F029EC00F00E01826F080E9C6F02
:100F400035EC00F01A0E99EF11F00001B6A560D053
:100F5000030EBF5D5DE1B6958ACEA4F08BCEA5F001
:100F60008CCEA6F08DCEA7F08ECEA8F08FCEA9F0B5
:100F700090CEAAF091CEABF029EC00F00001B16F59
:100F800029EC00F00001B26F29EC00F00001AC6F19
:100F900029EC00F00001AD6F29EC00F029EC00F025
:100FA0000001B36F29EC00F00001B46F35EC00F0E4
:100FB000E66AEDEC39F0E552E76E140EE7CFDBFFA1
:100FC000DB50FE0BE76E140EE7CFDBFFDBCFE6FF57
:100FD000E66AC2EC39F0E552E5520E01826BBBC005
:100FE0008AFEBCC08BFEBDC08CFEBEC08DFECEC0D6
:100FF00084FECFC085FECEC086FECFC087FEBFC0B8
:1010000088FECDC083FE0001B69D290E99EF11F038
:101010000E01EF0E826F35EC00F0300E99EF11F0FB
:1010200035EC00F0190EDB90170EDB6ADB50146E06
:10103000156A050E145C000E155801E3CDD0170E8D
:10104000EA6ADB34FE0BEA36E96E910EE926000E01
:10105000EA22EE50ED1002E1BFD0BBD0170EEA6AD3
:10106000DB34FE0BEA36E96E910EE926000EEA2229
:10107000EE50EFCFEAFFE96E040EE926000EEA22F9
:10108000150EEECFDBFF160EEDCFDBFF010EE76E88
:10109000150EDBCFE9FF160EDBCFEAFFE750E9269E
:1010A000000EEA22180EEFCFDBFF030E0E01885D63
:1010B00052E1180EDB500C0B0C084CE1050EE76EEC
:1010C000150EDBCF14F0160EDBCF15F0E75014260B
:1010D000000E15221B0E14C0DBFF1C0E15C0DBFF1B
:1010E000190EDB801A0EDB6A080EF36E1A0EDBCFC8
:1010F000F4FFF350F45C2CE21B0EDBCFE9FF1C0E77
:10110000DBCFEAFFEF50E66E1A0EDB50EA6A890F7A
:10111000E96E000EEA22E552E750EF6E1B0EDBCFC0
:10112000E9FFDB2A1C0EDBCFEAFF01E3DB2AEFCF6E
:1011300014F01A0EDB50EA6A8A0FE96E0E0EEA22EC
:10114000EF50145C02E0190EDB901A0EDB2ACCD7AC
:101150000001888D35D0180EDB500C0B080830E1EB
:10116000050EE76E150EDBCF14F0160EDBCF15F073
:10117000E7501426000E15221D0E14C0DBFF1E0EB4
:1011800015C0DBFF190EDB801D0EDBCFE9FFDB2A6C
:101190001E0EDBCFEAFF01E3DB2AEF508A5D02E09F
:1011A000190EDB901D0EDBCFE9FF1E0EDBCFEAFF31
:1011B000EF508B5D02E0190EDB9000018897889D4F
:1011C000D950190FE96EDACFEAFFEF50010B01E0B9
:1011D00003D0170EDB2A2AD7D950190FE96EDACFC0
:1011E000EAFFEF50010B01E124D10E01A9B120D19A
:1011F0000001B693020EE76E150EDBCFE9FF160E67
:10120000DBCFEAFFE750E926000EEA22EFCF83F0BA
:10121000150EDBCFE9FF160EDBCFEAFFEF50200BF8
:1012200004E0B6830E01858102D00E018591859779
:10123000170EEA6ADB34FE0BEA36E96E910EE926F8
:10124000000EEA22EE50EFCFEAFFE96E070EE92624
:10125000000EEA22180EEFCFDBFF180EDBCFF3FFF4
:10126000DB06F35000091CE0150EDBCFE9FFDB2A9B
:10127000160EDBCFEAFF01E3DB2AEF50E66E180E15
:10128000DB50E96EEA6A7F0ED880E956000EEA5616
:10129000000EE9260E0EEA22E552E750EF6EDDD78A
:1012A000170EEA6ADB34FE0BEA36E96E910EE92688
:1012B000000EEA22EE50EFCFEAFFE96E070EE926B4
:1012C000000EEA22EF50146E156A7F0ED880145675
:1012D000000E155614C0A7FE170EEA6ADB34FE0B8B
:1012E000EA36E96E910EE926000EEA22EE50EFCFC3
:1012F000EAFFE96E060EE926000EEA22EFCF14F0AF
:10130000170EEA6ADB34FE0BEA36E96E910EE92627
:10131000000EEA22EE50EFCFEAFFE96E070EE92653
:10132000000EEA22EF50145CE76E180EE7CFDBFFE9
:10133000180EDBCFF3FFDB06F350000917E0150EA4
:10134000DBCFE9FFDB2A160EDBCFEAFF01E3DB2A66
:10135000EF50E66E0E01A651A62BEA6A000FE96E69
:101360000E0EEA22E552E750EF6EE2D7170EEA6A58
:10137000DB34FE0BEA36E96E910EE926000EEA2216
:10138000EE50EFCFEAFFE96E040EE926000EEA22E6
:10139000EECFE6FFEFCFE6FF02EC40F0E552E5527C
:1013A000170EEA6ADB34FE0BEA36E96E910EE92687
:1013B000000EEA22EECFE6FFEFCFE6FF02EC40F0B0
:1013C000E552E552170EDB50146E156A040E145CDC
:1013D000000E155820E2170EDB28E96EEA6AD89055
:1013E000E936EA36910EE926000EEA22EECF14F035
:1013F000EFCF15F0170EEA6ADB34FE0BEA36E96E22
:10140000910EE926000EEA2214C0EEFF15C0EDFF92
:10141000170EDB2AD7D7170EEA6ADB34FE0BEA3643
:10142000E96E910EE926000EEA22EE6AED6A00D21C
:1014300042D00E01A9A103D0000E99EF11F0020EC7
:101440000E01885D03E0030E885D35E1856B86CE75
:101450009AFE87CE9BFE020E885D07E1020E896F21
:101460008ACE92FE8BCE93FE12D0030E896F8ACE67
:1014700092FE8BCE93FE8CCE94FE8DCE95FE8ECEBC
:1014800096FE8FCE97FE90CE98FE91CE99FE020EDC
:10149000886FB3C08AFEB4C08BFEB2C087FEB1C0F5
:1014A00086FEAEC083F00001AE51AE2B0E019C6FE4
:1014B000010E846F36D0000E99EF11F00001B6973F
:1014C000889729EC00F00E01886F29EC00F00E01DE
:1014D000896F29EC00F00E01826F825110E18ACEF3
:1014E000A4F08BCEA5F08CCEA6F08DCEA7F08ECE3C
:1014F000A8F08FCEA9F090CEAAF091CEABF035EC4B
:1015000000F0180E99EF11F000D035EC00F0000E4D
:1015100099EF11F000D097EF11F00001AE51AE2B12
:10152000836F0001886B1F0EDB6A020E0E01885D5F
:1015300034E10E01A751A707EA6A000FE96E0E0E0B
:10154000EA228BCEEFFFA751A707EA6A000FE96EE8
:101550000E0EEA228ACEEFFF0E019A51861902E1A1
:101560009B51871906E1010EF36E1F0EF3CFDBFFCF
:1015700013D00E01A751A707EA6A000FE96E0E0EFD
:10158000EA2287CEEFFFA751A707EA6A000FE96EAC
:101590000E0EEA2286CEEFFF6CD0030E885D69E165
:1015A0000E01A751A707EA6A000FE96E0E0EEA22A4
:1015B00091CEEFFFA751A707EA6A000FE96E0E0E62
:1015C000EA2290CEEFFFA751A707EA6A000FE96E63
:1015D0000E0EEA228FCEEFFFA751A707EA6A000F8F
:1015E000E96E0E0EEA228ECEEFFFA751A707EA6A38
:1015F000000FE96E0E0EEA228DCEEFFFA751A7076E
:10160000EA6A000FE96E0E0EEA228CCEEFFFA751B8
:10161000A707EA6A000FE96E0E0EEA228BCEEFFFF3
:10162000A751A707EA6A000FE96E0E0EEA228ACEDA
:10163000EFFF0E019A51861902E19B51871906E1CD
:10164000010EF36E1F0EF3CFDBFF13D00E01A75177
:10165000A707EA6A000FE96E0E0EEA2287CEEFFFB7
:10166000A751A707EA6A000FE96E0E0EEA2286CE9E
:10167000EFFF020E0E01895D26E10E01A751A707BB
:10168000EA6A000FE96E0E0EEA2293CEEFFFA75131
:10169000A707EA6A000FE96E0E0EEA2292CEEFFF6C
:1016A000A751A707EA6A000FE96E0E0EEA229BCE49
:1016B000EFFFA751A707EA6A000FE96E0E0EEA22B4
:1016C0009ACEEFFF5ED0030E895D5BE10E01A7515C
:1016D000A707EA6A000FE96E0E0EEA2299CEEFFF25
:1016E000A751A707EA6A000FE96E0E0EEA2298CE0C
:1016F000EFFFA751A707EA6A000FE96E0E0EEA2274
:1017000097CEEFFFA751A707EA6A000FE96E0E0E0A
:10171000EA2296CEEFFFA751A707EA6A000FE96E0B
:101720000E0EEA2295CEEFFFA751A707EA6A000F37
:10173000E96E0E0EEA2294CEEFFFA751A707EA6AE0
:10174000000FE96E0E0EEA2293CEEFFFA751A70716
:10175000EA6A000FE96E0E0EEA2292CEEFFFA75161
:10176000A707EA6A000FE96E0E0EEA229BCEEFFF92
:10177000A751A707EA6A000FE96E0E0EEA229ACE79
:10178000EFFF0E01A751A707EA6A000FE96E0E0EE0
:10179000EA229CCEEFFF0E018951040DF350E66E54
:1017A0000E01A751EA6A000FE96E0E0EEA22E55219
:1017B000E750EF6E0E018851400DF3CF14F00E018B
:1017C000A751EA6A000FE96E0E0EEA221450EF12DA
:1017D000A707A751EA6A000FE96E0E0EEA2284CE2F
:1017E000EFFF0001B6931F0EDB0408E10E01A751C5
:1017F000EA6A000FE96E0E0EEA22EF8C0E0185A157
:1018000008D00E01A751EA6A000FE96E0E0EEA2217
:10181000EF8A0E01A7070E01A6510E01A75D08E28F
:101820000E01A9910E017F0EA76F0E01A66BE6D0E7
:101830000F0EE66E020EE66E18EC3AF0E552E55237
:10184000E76E200EE7CFDBFF0E01A981DB50800899
:1018500005E10001B689000E99EF11F00001B6997B
:101860000F010D9B0E01A729EA6A000FE96E0E0E0B
:10187000EA22EF50200B04E00F010D8B0001B6832C
:101880000E01A751146E156A7F0ED8801456000EF3
:1018900015561450E66E000EE66EE66A7AEC39F0E4
:1018A000E552E552E5520E01A751146E156A7F0EFE
:1018B000D8801456000E15560E01A651166E176AE2
:1018C00014501624E66E010EE66EE66A7AEC39F0E4
:1018D000E552E552E552020EF36E220EF3CFDBFF26
:1018E000230EDB6A0E01A72BA751146E156A15345F
:1018F00004E214507F08000E15541BE3A751EA6A56
:10190000000FE96E0E0EEA22EF50E66E220EDBCFDC
:1019100014F0DB2A230EDBCF15F001E3DB2A14C021
:10192000E6FF15C0E6FF7AEC39F0E552E552E552E4
:10193000D9D77F0EA76F240EDB6A0E01A651F36E76
:10194000240EDBCFF4FFF350F45C1EE2240EDB50D8
:10195000EA6A000FE96E0E0EEA22EF50E66E220EE2
:10196000DBCF14F0DB2A230EDBCF15F001E3DB2AFB
:1019700014C0E6FF15C0E6FF7AEC39F0E552E552F7
:10198000E552240EDB2AD9D7A66B0E01A9810F01DF
:101990000A850F010DAB09D0050EE66E1B0EE66E33
:1019A000C2EC39F0E552E55208D0010EE66E1B0E8E
:1019B000E66EC2EC39F0E552E552E3EC47F004C0C4
:1019C00084F005C085F006C086F007C087F00001EE
:1019D0008891889388950E0185B110D00001B69347
:1019E0000E01A9910E017F0EA76F0E01A66B0E01CD
:1019F000826B83C09CFE110E99EF11F097EF11F0EE
:101A00000E01E70E826F250EDB6ADB50146E156A3D
:101A1000050E145C000E155801E38ED0250EEA6AFF
:101A2000DB34FE0BEA36E96E910EE926000EEA225F
:101A3000EE50EFCFEAFFE96E040EE926000EEA222F
:101A4000260EEECFDBFF270EEDCFDBFF020EE76E9B
:101A5000260EDBCFE9FF270EDBCFEAFFE750E926B2
:101A6000000EEA22EF509C5D64E1250EEA6ADB3449
:101A7000FE0BEA36E96E910EE926000EEA22EE50E0
:101A8000EFCFEAFFE96E040EE926000EEA22EECF60
:101A9000E6FFEFCFE6FF02EC40F0E552E552250EFF
:101AA000EA6ADB34FE0BEA36E96E910EE926000E97
:101AB000EA22EECFE6FFEFCFE6FF02EC40F0E55280
:101AC000E552250EDB50146E156A040E145C000EF0
:101AD000155820E2250EDB28E96EEA6AD890E9362F
:101AE000EA36910EE926000EEA22EECF14F0EFCF8F
:101AF00015F0250EEA6ADB34FE0BEA36E96E910E2C
:101B0000E926000EEA2214C0EEFF15C0EDFF250EF7
:101B1000DB2AD7D7250EEA6ADB34FE0BEA36E96EFC
:101B2000910EE926000EEA22EE6AED6A0E01826B42
:101B300003D0250EDB2A69D7140E99EF11F097EF29
:101B400011F088CE05FF0B0E0F01055D100DF3504F
:101B50000209E66EE66A020EE66E7AEC39F0E552AC
:101B6000E552E552040EE66E360EE66EC2EC39F032
:101B7000E552E552E66A360EE66EC2EC39F0E55201
:101B8000E5529ACEB1F09BCEB2F0DFDB0E01A6514A
:101B9000A62BEA6A000FE96E0E0EEA22010EEF6E26
:101BA000A651A62BEA6A000FE96E0E0EEA2282CE3B
:101BB000EFFF070E0E01A75F080EE66EE66A2A0E1B
:101BC000146E000E156E166A14C0E6FF15C0E6FF0F
:101BD00016C0E6FFA751186A000F176E0E0E1822E6
:101BE00017C0E6FF18C0E6FFC6EC46F0196E070EF8
:101BF000E15E19500E01A707A751A707EA6A000F77
:101C0000E96E0E0EEA22EF68A751A707EA6A000FF5
:101C1000E96E0E0EEA22EF68A751A707EA6A000FE5
:101C2000E96E0E0EEA2293CEEFFFA751A707EA6AEC
:101C3000000FE96E0E0EEA2292CEEFFF92CE81F0F7
:101C400093CE82F0A751A707EA6A000FE96E0E0E45
:101C5000EA22B2C0EFFFA751A707EA6A000FE96EB8
:101C60000E0EEA22B1C0EFFFAEC083F00001AE510C
:101C7000AE2BE66E0E01A751A707EA6A000FE96EC8
:101C80000E0EEA22E552E750EF6EA751A707EA6A67
:101C9000000FE96E0E0EEA22C80EEF6EA751A707DD
:101CA000EA6A000FE96E0E0EEA22230EEF6E0001C3
:101CB000886B0E01858100018887BAD50E01A65177
:101CC000A62BEA6A000FE96E0E0EEA22020EEF6EF4
:101CD000A651A62BEA6A000FE96E0E0EEA2288CE04
:101CE000EFFFA651A62BEA6A000FE96E0E0EEA225C
:101CF00089CEEFFFA651A62BEA6A000FE96E0E0E01
:101D0000EA2282CEEFFF0E01050E856F030E896F6A
:101D100092CE89F093CE8AF094CE8BF095CE8CF053
:101D200096CE8DF097CE8EF098CE8FF099CE90F023
:101D3000B2C09BFEB1C09AFE886F080EE66EE66ADE
:101D40002A0E146E000E156E166A14C0E6FF15C03A
:101D5000E6FF16C0E6FF8A0EE66E0E0EE66EC6ECD5
:101D600046F0176E070EE15E1750B2C087FEB1C095
:101D700086FEAEC083F00001AE51AE2B0E019C6F0B
:101D8000030E846F0001886B888D93EF0AF00001C9
:101D9000A4510E01925D6DE10001A5510E01935D0C
:101DA00068E10001A6510E01945D63E10001A751B5
:101DB0000E01955D5EE10001A8510E01965D59E1AD
:101DC0000001A9510E01975D54E10001AA510E01D5
:101DD000985D4FE10001AB510E01995D4AE1020EA1
:101DE000825D02E10001888F0E01A651A62BEA6AEE
:101DF000000FE96E0E0EEA22030EEF6EA651A62B1F
:101E0000EA6A000FE96E0E0EEA2282CEEFFF0E01A3
:101E1000010E856F030E896FB1C09AFEB2C09BFEA2
:101E2000886F080EE66EE66A2A0E146E000E156EB6
:101E3000166A14C0E6FF15C0E6FF16C0E6FF8A0E5C
:101E4000E66E0E0EE66EC6EC46F0176E070EE15E0D
:101E50001750B2C087FEB1C086FEAEC083F000014D
:101E6000AE51AE2B0E019C6F030E846F93EF0AF000
:101E70005ED2E80E826F1B0E5CD20E01A651A62B1D
:101E8000EA6A000FE96E0E0EEA22080EEF6EA65106
:101E9000A62BEA6A000FE96E0E0EEA22B1C0EFFF30
:101EA000A651A62BEA6A000FE96E0E0EEA22B2C016
:101EB000EFFFA651A62BEA6A000FE96E0E0EEA228A
:101EC000B3C0EFFFA651A62BEA6A000FE96E0E0E13
:101ED000EA22B4C0EFFFA651A62BEA6A000FE96E12
:101EE0000E0EEA2205CFEFFFA651A62BEA6A000FDD
:101EF000E96E0E0EEA2292CEEFFFA651A62BEA6AF9
:101F0000000FE96E0E0EEA2293CEEFFF0E0183055D
:101F100003E1090E856F02D0010E856F280EDB6A82
:101F2000080EF36E280EDBCFF4FFF350F45C16E2DC
:101F3000280EDB50EA6A8A0FE96E0E0EEA22EF5095
:101F4000E66E280EDB50EA6A920FE96E0E0EEA2268
:101F5000E552E750EF6E280EDB2AE2D70E01030EA2
:101F6000896F9A699B69886F080EE66EE66A2A0E89
:101F7000146E000E156E166A14C0E6FF15C0E6FF5B
:101F800016C0E6FF8A0EE66E0E0EE66EC6EC46F052
:101F9000176E070EE15E1750B2C087FEB1C086FE15
:101FA000AEC083F00001AE51AE2B0E019C6F030E4C
:101FB000846F0001886B888D280EDB6A080EF36E33
:101FC000280EDBCFF4FFF350F45C16E2280EDB5052
:101FD000EA6A920FE96E0E0EEA22EF50E66E280EC4
:101FE000DB50EA6A890FE96E000EEA22E552E750FB
:101FF000EF6E280EDB2AE2D793EF0AF00E0182057E
:102000000EE10001B169B269B369B4690F010B0E49
:10201000056F00019B91040EAF6F030EB06F0001BE
:10202000B5910E017F0EA76F0E01A66B0001B66B76
:10203000886BB56B4BEC00F0290EDB6ADB50146E3D
:10204000156A050E145C000E15582EE2290EEA6A78
:10205000DB34FE0BEA36E96E910EE926000EEA2229
:10206000EE50ED101EE0290EEA6ADB34FE0BEA3674
:10207000E96E910EE926000EEA22EECFE6FFEFCFE1
:10208000E6FF02EC40F0E552E552290EEA6ADB3445
:10209000FE0BEA36E96E910EE926000EEA22EE6AA0
:1020A000ED6A290EDB2ACAD70E01826B250E41D1BB
:1020B0000001B6A505D00E01E80E826F290E39D1B8
:1020C0000E0189510E0801E2F6D70001CE6BCF6BED
:1020D000CD6B88CEBFF08ACEB7F08BCEB8F08CCE69
:1020E000B9F08DCEBAF0B7C0BBF0B8C0BCF0B9C083
:1020F000BDF0BAC0BEF0B76BF80EB817070EBA172E
:102100000F01056989CEC8F00001C96BCA6BCB6BA2
:10211000CC6B0E018851030A62E0020A33E0030A25
:1021200031E0020A01E063D00001C851040DF3CF91
:10213000F6FFF4CFF7FF8E0EF626900EF722090079
:10214000F5CFC0F00900F5CFC1F00900F5CFC2F01E
:102150000800F5CFC3F01B0EE66E1DEC3FF0E55214
:10216000F3CFCEF0F4CFCFF0CEC0D0F0CFC0D1F0CF
:102170000001CE51CF1105E10E01826B836B290E58
:10218000D8D035D0E66AEDEC39F0E552E76E2A0E8C
:10219000E7CFDBFFDB500109E76E2A0EE7CFDBFF5D
:1021A000DBCFE6FFE66AC2EC39F0E552E55200010A
:1021B000C851040DF3CFF6FFF4CFF7FF8E0EF626CD
:1021C000900EF7220900F5CFC0F00900F5CFC1F05D
:1021D0000900F5CFC2F00800F5CFC3F008D0000128
:1021E0001E0EC06FB40EC16FC26BC36B00D0000176
:1021F000B69DB6859CD00001B31D01E1B41D05E17B
:102200000E013C0E826F2E0E94D00E0182A500D0DE
:1022100082A125D086CEB1F087CEB2F096D888CEF6
:1022200005FF0B0E0F01055D100DF3500209E66E60
:10223000E66A020EE66E7AEC39F0E552E552E552B6
:10224000040EE66E360EE66EC2EC39F0E552E5524B
:10225000E66A360EE66EC2EC39F0E552E552000150
:10226000B5810E01826B2E0E64D00E01A9A105D09E
:102270000E01E80E826F320E5CD0A9810E01A651CC
:10228000A62BEA6A000FE96E0E0EEA22040EEF6E2C
:102290000E01830503E1090E856F02D0010E856FE3
:1022A000020E895D00E1B2C087FEB1C086FE0E015C
:1022B000A9B71CD00E01030E886F080EE66EE66A01
:1022C0002A0E146E000E156E166A14C0E6FF15C0B5
:1022D000E6FF16C0E6FF8A0EE66E0E0EE66EC6EC50
:1022E00046F0176E070EE15E17500AD00001886BAA
:1022F00088890E01020E886FB3C08AFEB4C08BFEBF
:10230000AEC083F0E3EC47F004C084F005C085F074
:1023100006C086F007C087F00001AE51AE2B0E015B
:102320009C6F030E846F0F010A8993EF0AF0000E71
:1023300000D0146E2B0EE15C02E2E16AE552E16E20
:102340001450E552E7CFD9FF1200B1C0E6FF010EED
:10235000E66EC2EC39F0E552E552B2C0E6FF020E7D
:10236000E66EC2EC39F0E552E5521200B3C0E6FF6A
:10237000030EE66EC2EC39F0E552E552B4C0E6FF5A
:0E238000040EE66EC2EC39F0E552E552120092
:02238E000F0E30
:102390000E01AB1502E1000E01D0010E00D01200BB
:1023A000D9CFE6FFE1CFD9FF030EE1260E01AB6BDB
:1023B000DF6A040EDF5C0DE2EA6ADF34FE0BEA3608
:1023C000E96EC10EE9260E0EEA22EE6AED6ADF2AF8
:1023D000F0D7DF6A040EDF5C0DE2EA6ADF34FE0B41
:1023E000EA36E96EAC0EE9260E0EEA22EE6AED6AD6
:1023F000DF2AF0D7020EE66EE66A9F0E146E8E0E8E
:10240000156E166A14C0E6FF15C0E6FF16C0E6FF9B
:10241000D950010FE66E000EDA20E66EC6EC46F0EB
:10242000176E070EE15E1750D950010FE96EDACF33
:10243000EAFF7B0EEE1802E14E0EED183EE07B0E39
:10244000F36E010EF3CFDBFF4E0EF36E020EF3CFF1
:10245000DBFFE66ED950010FE66E000EDA20E66E65
:102460009F0EE66E8E0EE66ED4EC42F0146E050EF4
:10247000E15E14500001F269F369DF6A050EDF5C6A
:102480001CE20A0EE66EEA0EE66E000EE66EDF5005
:102490000A0DF3CF14F0F4CF15F0A10E14268E0E12
:1024A000152214C0E6FF15C0E6FFD4EC42F0166E0C
:1024B000050EE15E1650DF2AE1D70E01AA6B030E6E
:1024C000E15C02E2E16AE552E16EE552E7CFD9FF55
:1024D0001200D9CFE6FFE1CFD9FF0E0EE126FE0EA6
:1024E000DB5002E01FEF17F00E01ABA529D00E0163
:1024F000A9B126D00E01AB950E01A99DB4CE82FEE6
:10250000B6CE84FEB7CE85FEB8CE86FEB9CE87FEA7
:10251000BACE88FEBBCE89FEBCCE8AFEBDCE8BFE77
:10252000BECE9AFEBFCE9BFEC0CE9CFE0E019B513E
:1025300004E15A0E71EF1EF003D0510E71EF1EF040
:102540000E01ABA7B5D30E01A951010B01E099D340
:10255000A951800B01E195D3DF6A040EDF5C01E332
:1025600090D3EA6ADF34FE0BEA36E96EAC0EE92658
:102570000E0EEA22EE50ED1001E181D3EA6ADF345B
:10258000FE0BEA36E96EAC0EE9260E0EEA22EE509C
:10259000EFCFEAFFE96E100EE926000EEA22EF50B7
:1025A000080B01E1FBD2EA6ADF34FE0BEA36E96E82
:1025B000AC0EE9260E0EEA22EE50EFCFEAFFE96EEE
:1025C0000E0EE926000EEA22040EEFCFDBFFEA6AC8
:1025D000DF34FE0BEA36E96EAC0EE9260E0EEA2277
:1025E000EE50EFCFEAFFE96E100EE926000EEA2268
:1025F000EF50070B000901E0EED0EA6ADF34FE0B72
:10260000EA36E96EAC0EE9260E0EEA22EE50EFCF66
:10261000EAFFE96E0F0EE926000EEA22EFCF82FEF6
:10262000040EEA6ADB34FE0BEA36E96EC10EE926D7
:102630000E0EEA22EE50EFCFEAFFE96E0D0EE9260C
:10264000000EEA22EFCF89FE040EEA6ADB34FE0BAD
:10265000EA36E96EC10EE9260E0EEA22EE50EFCF01
:10266000EAFFE96E040EE926000EEA22EECF92FEA2
:10267000EECF93FEEECF94FEEECF95FEEECF96FE1C
:10268000EECF97FEEECF98FEEFCF99FE040EEA6AEA
:10269000DB34FE0BEA36E96EC10EE9260E0EEA22A5
:1026A000EE50EFCFEAFFE96E0E0EE926000EEA22A9
:1026B000EFCF9AFE040EEA6ADB34FE0BEA36E96ECF
:1026C000C10EE9260E0EEA22EE50EFCFEAFFE96EC8
:1026D0000F0EE926000EEA22EFCF9BFEEA6ADF34F6
:1026E000FE0BEA36E96EAC0EE9260E0EEA22EE503B
:1026F000EFCFEAFFE96E080EE926000EEA22EE505F
:10270000ED102CE0EA6ADF34FE0BEA36E96EAC0E1F
:10271000E9260E0EEA22EE50EFCFEAFFE96E080E30
:10272000E926000EEA22EECFE6FFEFCFE6FF02EC4D
:1027300040F0E552E552EA6ADF34FE0BEA36E96E14
:10274000AC0EE9260E0EEA22EE50EFCFEAFFE96E5C
:10275000080EE926000EEA22EE6AED6AEA6ADF3424
:10276000FE0BEA36E96EAC0EE9260E0EEA22EECF3B
:10277000E6FFEFCFE6FF02EC40F0E552E552EA6AF1
:10278000DF34FE0BEA36E96EAC0EE9260E0EEA22C5
:10279000EE6AED6A040EEA6ADB34FE0BEA36E96E95
:1027A000C10EE9260E0EEA22EECFE6FFEFCFE6FFDE
:1027B00002EC40F0E552E552040EEA6ADB34FE0B0F
:1027C000EA36E96EC10EE9260E0EEA22EE6AED6ADD
:1027D000500E71EF1EF0EA6ADF34FE0BEA36E96E46
:1027E000AC0EE9260E0EEA22EE50EFCFEAFFE96EBC
:1027F0000C0EE926000EEA22EFCF8AFEEA6ADF34E9
:10280000FE0BEA36E96EAC0EE9260E0EEA22EE5019
:10281000EFCFEAFFE96E100EE926000EEA22EF5034
:10282000F00BE842E842E842E8420E018B6FEA6AA8
:10283000DF34FE0BEA36E96EAC0EE9260E0EEA2214
:10284000EE50EFCFEAFFE96E0B0EE926000EEA220A
:10285000EFCF82FEEA6ADF34FE0BEA36E96EAC0E99
:10286000E9260E0EEA22EE50EFCFEAFFE96E060EE1
:10287000E926000EEA22EECF92FEEDCF93FECEECDB
:1028800028F00E019C6F040EEA6ADB34FE0BEA3678
:10289000E96EC10EE9260E0EEA22EE50EFCFEAFFF6
:1028A000E96E0C0EE926000EEA229CCEEFFFE3EC67
:1028B00047F004C014F005C015F006C016F007C0BC
:1028C00017F0040EEA6ADB34FE0BEA36E96EC10E3D
:1028D000E9260E0EEA22EE50EFCFEAFFE96E14C0B1
:1028E000EEFF15C0EEFF16C0EEFF17C0EEFF010EA3
:1028F000DB6A0E018251F36E010EDBCFF4FFF35061
:10290000F45C2DE2010EDB50146E156AEA6ADF34C6
:10291000FE0BEA36E96EAC0EE9260E0EEA22EE5008
:10292000EFCFEAFFE96E080EE926000EEA22145006
:10293000EE24E76E1550EE20EA6EE7CFE9FFEF5088
:10294000E66E0E01A651A62BEA6A000FE96E0E0E86
:10295000EA22E552E750EF6E010EDB2ACAD7040ED9
:10296000EA6ADB34FE0BEA36E96EC10EE9260E0E8A
:10297000EA22EE50EFCFEAFFE96E0E0EE926000ED6
:10298000EA22EF50E66E0E01A751A707EA6A000F90
:10299000E96E0E0EEA22E552E750EF6EEA6ADF3486
:1029A000FE0BEA36E96EAC0EE9260E0EEA22EE5078
:1029B000EFCFEAFFE96E040EE926000EEA22EE529E
:1029C000EF50E66EA751A707EA6A000FE96E0E0EF8
:1029D000EA22E552E750EF6EEA6ADF34FE0BEA3690
:1029E000E96EAC0EE9260E0EEA22EE50EFCFEAFFBA
:1029F000E96E040EE926000EEA22EF50E66EA751BA
:102A0000A707EA6A000FE96E0E0EEA22E552E750C8
:102A1000EF6EEA6ADF34FE0BEA36E96EAC0EE926A9
:102A20000E0EEA22EE50EFCFEAFFE96E0D0EE92618
:102A3000000EEA22EF50E66EA751A707EA6A000FE0
:102A4000E96E0E0EEA22E552E750EF6EEA6ADF34D5
:102A5000FE0BEA36E96EAC0EE9260E0EEA22EE50C7
:102A6000EFCFEAFFE96E0A0EE926000EEA22EF50E8
:102A70000C0BE842E84201081EE0040EEA6ADB346F
:102A8000FE0BEA36E96EC10EE9260E0EEA22EE5082
:102A9000EFCFEAFFE96E0F0EE926000EEA22EF50B3
:102AA000E66EA751A707EA6A000FE96E0E0EEA224A
:102AB000E552E750EF6EEA6ADF34FE0BEA36E96E64
:102AC000AC0EE9260E0EEA22EE50EFCFEAFFE96ED9
:102AD0000A0EE926000EEA22EF50E66EA751A7077C
:102AE000EA6A000FE96E0E0EEA22E552E750EF6E39
:102AF000EA6ADF34FE0BEA36E96EAC0EE9260E0E0A
:102B0000EA22EE50EFCFEAFFE96E100EE926000E42
:102B1000EA22EF50070BE806F36EF350070BF36E53
:102B2000F46EF80EEF14F310EF6EEA6ADF34FE0B6A
:102B3000EA36E96EAC0EE9260E0EEA22EE50EFCF31
:102B4000EAFFE96E100EE926000EEA22EF96E3ECAA
:102B500047F004C014F005C015F006C016F007C019
:102B600017F0EA6ADF34FE0BEA36E96EAC0EE926AE
:102B70000E0EEA22EE50EFCFEAFFE96E14C0EEFF30
:102B800015C0EEFF16C0EEFF17C0EEFF0E01AB83BF
:102B90000E01A981330E71EF1EF071D0EA6ADF34A5
:102BA000FE0BEA36E96EAC0EE9260E0EEA22EE5076
:102BB000EFCFEAFFE96E0A0EE926000EEA22EF5097
:102BC000400B5DE0E3EC47F0050E04C0DBFF060EB2
:102BD00005C0DBFF070E06C0DBFF080E07C0DBFFEA
:102BE000EA6ADF34FE0BEA36E96EAC0EE9260E0E19
:102BF000EA22EE50EFCFEAFFE96EEECF18F0EECF0B
:102C000019F0EECF1AF0EFCF1BF0D950050FE96E97
:102C1000DACFEAFF00011850EE5C146E1950EE583E
:102C2000156E1A50EE58166E1B50EE58176ED8805F
:102C30006C0E1454DC0E1554020E1654000E17546C
:102C40001EE2EA6ADF34FE0BEA36E96EAC0EE926D4
:102C50000E0EEA22EE50EFCFEAFFE96E050EDBCF53
:102C6000EEFF060EDBCFEEFF070EDBCFEEFF080E0A
:102C7000DBCFEEFF0E01826B490E71EF1EF0DF2AF3
:102C80006CD4DF6A040EDF5C0EE2EA6ADF34FE0B0E
:102C9000EA36E96EAC0EE9260E0EEA22EE50ED1091
:102CA00002E1DF2AEFD7040EDF5C02E10E01AB97F1
:102CB0000E01ABA3C2D0E3EC47F0090E04C0DBFF6A
:102CC0000A0E05C0DBFF0B0E06C0DBFF0C0E07C0B3
:102CD000DBFFDF6A040EDF5C01E398D0EA6ADF34D1
:102CE000FE0BEA36E96EC10EE9260E0EEA22EE5020
:102CF000ED1001E189D0EA6ADF34FE0BEA36E96EB5
:102D0000C10EE9260E0EEA22EE50EFCFEAFFE96E81
:102D10000C0EE926000EEA22EF5076E0EA6ADF3474
:102D2000FE0BEA36E96EC10EE9260E0EEA22EE50DF
:102D3000EFCFEAFFE96EEECF1CF0EECF1DF0EECF45
:102D40001EF0EFCF1FF0D950090FE96EDACFEAFF7E
:102D500000011C50EE5C186E1D50EE58196E1E508E
:102D6000EE581A6E1F50EE581B6E18C004F019C0B2
:102D700005F01AC006F01BC007F086EC44F005C051
:102D800014F006C015F007C016F008C017F0400E8A
:102D90000A6E540E0B6E090E0C6E480E0D6E14C0AA
:102DA00005F015C006F016C007F017C008F0A1EC3A
:102DB00044F0010A29E1EA6ADF34FE0BEA36E96EE3
:102DC000C10EE9260E0EEA22EE50EFCFEAFFE96EC1
:102DD000100EE926000EEA22EF500F0BE76E010EEF
:102DE000E7CFDBFFEA6ADB34FE0BEA36E96EAC0EB6
:102DF000E9260E0EEA22EE50EFCFEAFFE96E100E42
:102E0000E926000EEA22EF86DF2A64D7DF6A040E85
:102E1000DF5C0EE2EA6ADF34FE0BEA36E96EC10ED1
:102E2000E9260E0EEA22EE50ED1002E1DF2AEFD77E
:102E3000040EDF5C02E10E01AB936FEF1EF0FE0E9D
:102E4000DB50550A02E169EF1EF0070A02E163EF69
:102E50001EF01D0A01E16FD37A0A01E162D1010A75
:102E600002E06FEF1EF0DF6A040EDF5C01E357D172
:102E7000EA6ADF34FE0BEA36E96EC10EE9260E0E71
:102E8000EA22EE50ED1001E148D1EA6ADF34FE0B90
:102E9000EA36E96EC10EE9260E0EEA22EE50EFCFB9
:102EA000EAFFE96E0C0EE926000EEA22EF500E0151
:102EB0009C5D01E032D1EA6ADF34FE0BEA36E96E4E
:102EC000C10EE9260E0EEA22EE50EFCFEAFFE96EC0
:102ED000100EE926000EEA22EF50100B03E082519B
:102EE00001E11BD1EA6ADF34FE0BEA36E96EC10E5E
:102EF000E9260E0EEA22EE50EFCFEAFFE96E100E41
:102F0000E926000EEA22EF500F0BE76E010EE7CF25
:102F1000DBFF825128E0010EEA6ADB34FE0BEA3661
:102F2000E96EAC0EE9260E0EEA22EE50EFCFEAFF74
:102F3000E96E100EE926000EEA22EF86010EEA6A1B
:102F4000DB34FE0BEA36E96EAC0EE9260E0EEA2201
:102F5000EE50EFCFEAFFE96E0F0EE926000EEA22EF
:102F600082CEEFFFDAD0EA6ADF34FE0BEA36E96E92
:102F7000C10EE9260E0EEA22EE50EFCFEAFFE96E0F
:102F80000D0EE926000EEA22EFCF89FEEA6ADF3451
:102F9000FE0BEA36E96EC10EE9260E0EEA22EE506D
:102FA000EFCFEAFFE96E040EE926000EEA22EECF2B
:102FB00092FEEECF93FEEECF94FEEECF95FEEECFD7
:102FC00096FEEECF97FEEECF98FEEFCF99FEEA6A1F
:102FD000DF34FE0BEA36E96EC10EE9260E0EEA2258
:102FE000EE50EFCFEAFFE96E0E0EE926000EEA2260
:102FF000EFCF9AFEEA6ADF34FE0BEA36E96EC10EC5
:10300000E9260E0EEA22EE50EFCFEAFFE96E0F0E30
:10301000E926000EEA22EFCF9BFE010EEA6ADB34BE
:10302000FE0BEA36E96EAC0EE9260E0EEA22EE50F1
:10303000EFCFEAFFE96E080EE926000EEA22EE5015
:10304000ED102EE0010EEA6ADB34FE0BEA36E96E83
:10305000AC0EE9260E0EEA22EE50EFCFEAFFE96E43
:10306000080EE926000EEA22EECFE6FFEFCFE6FFDC
:1030700002EC40F0E552E552010EEA6ADB34FE0B49
:10308000EA36E96EAC0EE9260E0EEA22EE50EFCFDC
:10309000EAFFE96E080EE926000EEA22EE6AED6A02
:1030A000010EEA6ADB34FE0BEA36E96EAC0EE92665
:1030B0000E0EEA22EECFE6FFEFCFE6FF02EC40F085
:1030C000E552E552010EEA6ADB34FE0BEA36E96EA0
:1030D000AC0EE9260E0EEA22EE6AED6AEA6ADF34E9
:1030E000FE0BEA36E96EC10EE9260E0EEA22EECF9D
:1030F000E6FFEFCFE6FF02EC40F0E552E552EA6A68
:10310000DF34FE0BEA36E96EC10EE9260E0EEA2226
:10311000EE6AED6A500E71EF1EF0DF2AA5D66FEF52
:103120001EF0B5EC1EF0E76E0D0EE7CFDBFFD950B9
:103130000D0FE96EDACFEAFFEF50030B000909E04B
:10314000D9500D0FE96EDACFEAFFEF50030B0208FA
:103150003AE1D9500D0FE96EDACFEAFFEF500C0BD0
:10316000E842E842010808E1D9500D0FE96EDACFD4
:10317000EAFFEF50100B04E1B5EC1EF00E01BF6F3B
:10318000B5EC1EF00E01C06FB5EC1EF00E01B86F6D
:10319000B5EC1EF00E01B96FD9500D0FE96EDACF04
:1031A000EAFFEF500C0BE842E842010808E1D95071
:1031B0000D0FE96EDACFEAFFEF50100B04E0B5EC2B
:1031C0001EF00E01BE6FD9500D0FE96EDACFEAFF87
:1031D000EF50030B000901E0BDD0D9500D0FE96E8F
:1031E000DACFEAFFEF500C0BE842E842010803E1B6
:1031F0000E01BA6B03D00E01010EBA6FD9500D0F3C
:10320000E96EDACFEAFFEF50400B01E17ED0AB85EB
:1032100082CEB4FE84CEB6FE85CEB7FED9500D0F59
:10322000E96EDACFEAFFEF500C0BE842E842020801
:1032300002E0000E01D0010EBB6F8ACEBCFE8BCE29
:10324000BDFE8ACE92FE8BCE93FE0E010A0E8A6FD1
:10325000010E8B6F826BCEEC28F00E019C6F0D0E71
:10326000DB9CDB90DB82DB9A836B0E01A751A70707
:10327000EA6A000FE96E0E0EEA22BFCEEFFFA751F9
:10328000A707EA6A000FE96E0E0EEA22B9CEEFFF39
:10329000A751A707EA6A000FE96E0E0EEA22B8CE20
:1032A000EFFFA751A707EA6A000FE96E0E0EEA22A8
:1032B000C0CEEFFFD9500D0FE96EDACFEAFFEF5025
:1032C0000C0BE842E842010803E10D0EDB8809D04F
:1032D000A751A707EA6A000FE96E0E0EEA22BECEDA
:1032E000EFFF0D0EDB9CDB90DB82DB9AA751A7077B
:1032F000EA6A000FE96E0E0EEA220D0EDBCFEFFF39
:103300000E01A981330E71EF1EF0BACE88FED9509E
:103310000D0FE96EDACFEAFFEF500C0BE842E842FE
:10332000020802E0000E01D0010E0E01896FBFCE2F
:103330009BFEC0CE9CFEB8CE86FEB9CE87FEBECE2A
:103340009AFE9B5104E15A0E71EF1EF0EFD0510E20
:1033500071EF1EF0D9500D0FE96EDACFEAFFEF5092
:10336000030B020801E0E2D0DF6A040EDF5C01E338
:10337000DDD0EA6ADF34FE0BEA36E96EC10EE926DB
:103380000E0EEA22EE50ED1001E1CED0EA6ADF34F3
:10339000FE0BEA36E96EC10EE9260E0EEA22EE5069
:1033A000EFCFEAFFE96E0D0EE926000EEA22EF509C
:1033B000020825E1EA6ADF34FE0BEA36E96EC10E47
:1033C000E9260E0EEA22EE50EFCFEAFFE96E040E78
:1033D000E926000EEA22E9CF14F0EACF15F014C076
:1033E000E6FF15C0E6FFC6EC1EF0E552E552000907
:1033F00005E1F2C0BCFEF3C0BDFE16D095D0EA6A6E
:10340000DF34FE0BEA36E96EC10EE9260E0EEA2223
:10341000EE50EFCFEAFFE96E040EE926000EEA2235
:10342000EECFBCFEEDCFBDFE0E018A510E01BC19E0
:1034300004E10E018B510E01BD1976E1D9500D0F3B
:10344000E96EDACFEAFFEF500C0BE842E8420009E0
:1034500033E1D9500D0FE96EDACFEAFFEF50030BDD
:10346000010829E0EA6ADF34FE0BEA36E96EC10E94
:10347000E9260E0EEA22EE50EFCFEAFFE96E0E0EBD
:10348000E926000EEA22EF50BF5D14E1EA6ADF345C
:10349000FE0BEA36E96EC10EE9260E0EEA22EE5068
:1034A000EFCFEAFFE96E0F0EE926000EEA22EF5099
:1034B000BE5D01E039D033D0D9500D0FE96EDACFBF
:1034C000EAFFEF50100B16E1EA6ADF34FE0BEA3632
:1034D000E96EC10EE9260E0EEA22EE50EFCFEAFFAA
:1034E000E96E0E0EE926000EEA22EF50BF5D01E004
:1034F0001BD015D0EA6ADF34FE0BEA36E96EC10E46
:10350000E9260E0EEA22EE50EFCFEAFFE96E0F0E2B
:10351000E926000EEA22EF50BE5D01E005D035EC51
:1035200000F00E01826BDED4DF2A1FD735EC00F0ED
:10353000000ED7D3D4D3020E0E01895D16E1920E90
:10354000E66E0E0EE66EC6EC1EF0E552E552000980
:103550000CE10E01040E826F0E01A9910E017F0E87
:10356000A76F0E01A66B500EBCD3DF6A040EDF5CA2
:103570000EE2EA6ADF34FE0BEA36E96EC10EE92696
:103580000E0EEA22EE50ED1002E0DF2AEFD7040E15
:10359000DF5C19E0110EE66E1DEC3FF0E552F3CF53
:1035A00014F0F4CF15F0EA6ADF34FE0BEA36E96E68
:1035B000C10EE9260E0EEA2214C0EEFF15C0EDFF83
:1035C000145015100CE10E01F10E826F0E01A9913D
:1035D0000E017F0EA76F0E01A66B500E82D3010E57
:1035E000DB6A040EF36E010EDBCFF4FFF350F45CE4
:1035F00010E2010EEA6ADB34FE0BEA36E96EAC0E2D
:10360000E9260E0EEA22EE50ED1003E0010EDB2A51
:10361000E8D7010EDB5004081AE0110EE66E1DEC2F
:103620003FF0E552F3CF14F0F4CF15F0010EEA6A43
:10363000DB34FE0BEA36E96EAC0EE9260E0EEA220A
:1036400014C0EEFF15C0EDFF1450151028E1EA6A12
:10365000DF34FE0BEA36E96EC10EE9260E0EEA22D1
:10366000EECFE6FFEFCFE6FF02EC40F0E552E55289
:10367000EA6ADF34FE0BEA36E96EC10EE9260E0E69
:10368000EA22EE6AED6A0E01F10E826F0E01A99137
:103690000E017F0EA76F0E01A66B500E22D3EA6AB1
:1036A000DF34FE0BEA36E96EC10EE9260E0EEA2281
:1036B000EE50EFCFEAFFE96E0C0EE926000EEA228B
:1036C000EF6AEA6ADF34FE0BEA36E96EC10EE926DC
:1036D0000E0EEA22EE50EFCFEAFFE96E0D0EE9265C
:1036E000000EEA2289CEEFFFEA6ADF34FE0BEA36EB
:1036F000E96EC10EE9260E0EEA22EE50EFCFEAFF88
:10370000E96E0E0EE926000EEA229ACEEFFFEA6A73
:10371000DF34FE0BEA36E96EC10EE9260E0EEA2210
:10372000EE50EFCFEAFFE96E0F0EE926000EEA2217
:103730009BCEEFFFEA6ADF34FE0BEA36E96EC10E7C
:10374000E9260E0EEA22EE50EFCFEAFFE96E040EF4
:10375000E926000EEA2292CEEEFF93CEEEFF94CE43
:10376000EEFF95CEEEFF96CEEEFF97CEEEFF98CE13
:10377000EEFF99CEEEFF010EDB50146EEA6ADF34E5
:10378000FE0BEA36E96EC10EE9260E0EEA22EE5075
:10379000EFCFEAFFE96E100EE926000EEA22145080
:1037A0000F0BF36EF00EEF14F310EF6EEA6ADF34D6
:1037B000FE0BEA36E96EC10EE9260E0EEA22EE5045
:1037C000EFCFEAFFE96E100EE926000EEA22EF982D
:1037D000E3EC47F004C014F005C015F006C016F085
:1037E00007C017F0EA6ADF34FE0BEA36E96EC10E55
:1037F000E9260E0EEA22EE50EFCFEAFFE96E14C082
:10380000EEFF15C0EEFF16C0EEFF17C0EEFFA6CE0E
:10381000E6FF1DEC3FF0E552F3CF14F0F4CF15F0C6
:10382000010EEA6ADB34FE0BEA36E96EAC0EE926DD
:103830000E0EEA22EE50EFCFEAFFE96E080EE926FF
:10384000000EEA2214C0EEFF15C0EDFF1450151053
:1038500046E1010EEA6ADB34FE0BEA36E96EAC0E95
:10386000E9260E0EEA22EECFE6FFEFCFE6FF02ECEE
:1038700040F0E552E552010EEA6ADB34FE0BEA360F
:10388000E96EAC0EE9260E0EEA22EE6AED6AEA6AED
:10389000DF34FE0BEA36E96EC10EE9260E0EEA228F
:1038A000EECFE6FFEFCFE6FF02EC40F0E552E55247
:1038B000EA6ADF34FE0BEA36E96EC10EE9260E0E27
:1038C000EA22EE6AED6A0E01F10E826F0E01A991F5
:1038D0000E017F0EA76F0E01A66B500E02D2010ED5
:1038E000EA6ADB34FE0BEA36E96EAC0EE9260E0E10
:1038F000EA22EE50EFCFEAFFE96E040EE926000E51
:10390000EA2286CEEEFF87CEEDFF010EEA6ADB34B7
:10391000FE0BEA36E96EAC0EE9260E0EEA22EE50F8
:10392000EFCFEAFFE96E0C0EE926000EEA228ACEFE
:10393000EFFF010EEA6ADB34FE0BEA36E96EAC0EED
:10394000E9260E0EEA22EE50EFCFEAFFE96E0D0EE9
:10395000E926000EEA229CCEEFFF010EEA6ADB3474
:10396000FE0BEA36E96EAC0EE9260E0EEA22EE50A8
:10397000EFCFEAFFE96E0E0EE926000EEA22DFCF56
:10398000EFFF0E018B51146E010EEA6ADB34FE0B61
:10399000EA36E96EAC0EE9260E0EEA22EE50EFCFC3
:1039A000EAFFE96E100EE926000EEA2214500F0B12
:1039B000F36EF346F346F346F3460F0EEF14F3109F
:1039C000EF6E010EEA6ADB34FE0BEA36E96EAC0EEE
:1039D000E9260E0EEA22EE50EFCFEAFFE96E060E60
:1039E000E926000EEA2292CEEEFF93CEEDFF010E05
:1039F000EA6ADB34FE0BEA36E96EAC0EE9260E0EFF
:103A0000EA22EE50EFCFEAFFE96E100EE926000E33
:103A1000EA22EF86010EEA6ADB34FE0BEA36E96E33
:103A2000AC0EE9260E0EEA22EE50EFCFEAFFE96E69
:103A30000B0EE926000EEA22A6CEEFFF010EEA6A7F
:103A4000DB34FE0BEA36E96EAC0EE9260E0EEA22F6
:103A5000EE50EFCFEAFFE96E0A0EE926000EEA22E9
:103A6000EF6A010EEA6ADB34FE0BEA36E96EAC0E51
:103A7000E9260E0EEA22EE50EFCFEAFFE96E0A0EBB
:103A8000E926000EEA228C51010B02E0EF8A01D0F8
:103A9000EF9A8CA53CD0EA6ADF34FE0BEA36E96E79
:103AA000C10EE9260E0EEA22EE50EFCFEAFFE96ED4
:103AB000100EE926000EEA22EF88010EEA6ADB34D6
:103AC000FE0BEA36E96EAC0EE9260E0EEA22EE5047
:103AD000EFCFEAFFE96E0A0EE926000EEA22EF8C2C
:103AE000010EEA6ADB34FE0BEA36E96EAC0EE9261B
:103AF0000E0EEA22EE50EFCFEAFFE96E100EE92635
:103B0000000EEA22F80EEF140409EF6E16D0010E33
:103B1000EA6ADB34FE0BEA36E96EAC0EE9260E0EDD
:103B2000EA22EE50EFCFEAFFE96E100EE926000E12
:103B3000EA22F80EEF140109EF6E020E895D17E11B
:103B4000010EEA6ADB34FE0BEA36E96EAC0EE926BA
:103B50000E0EEA22EE50EFCFEAFFE96E060EE926DE
:103B6000000EEA22F2C0EEFFF3C0EDFF6DD0890532
:103B70001BE1921D01E1931D16E1010EEA6ADB349F
:103B8000FE0BEA36E96EAC0EE9260E0EEA22EE5086
:103B9000EFCFEAFFE96E0A0EE926000EEA22F30EE5
:103BA000EF140809EF6E50D0010EEA6ADB34FE0B09
:103BB000EA36E96EAC0EE9260E0EEA22EE50EFCFA1
:103BC000EAFFE96E060EE926000EEA22EE6AED6AC9
:103BD000010EEA6ADB34FE0BEA36E96EAC0EE9262A
:103BE0000E0EEA22EE50EFCFEAFFE96E0A0EE9264A
:103BF000000EEA22F30EEF140409EF6E010EEA6ADA
:103C0000DB34FE0BEA36E96EAC0EE9260E0EEA2234
:103C1000EE50EFCFEAFFE96E0A0EE926000EEA2227
:103C2000EF88EA6ADF34FE0BEA36E96EC10EE92658
:103C30000E0EEA22EE50EFCFEAFFE96E040EE926FF
:103C4000000EEA22EE6AED6AEA6ADF34FE0BEA361B
:103C5000E96EAC0EE9260E0EEA22EE50EFCFEAFF37
:103C6000E96E080EE926000EEA22020EEECFDBFF17
:103C7000030EEDCFDBFFDF6A0E01A651A607000998
:103C800016E0DF50DF2AEA6A000FE96E0E0EEA2224
:103C9000EF50E66E020EDBCFE9FFDB2A030EDBCF2F
:103CA000EAFF01E3DB2AE552E750EF6EE5D70E01AC
:103CB000AB870E01A9910E017F0EA76F0E01A66BB7
:103CC000000E0FD00CD00E01840E826F560E09D05C
:103CD00006D00E01840E826F590E03D000D0000E64
:103CE00000D0146E0E0EE15C02E2E16AE552E16E74
:103CF0001450E552E7CFD9FF1200D9CFE6FFE1CF4C
:103D0000D9FFE6520A0EE66EE66AE668EA0EE66E4D
:103D1000000EE66EE9EC46F0146E050EE15E1450FE
:103D2000DF6A050EDF5C1CE20A0EE66EEA0EE66E46
:103D3000000EE66EDF500A0DF3CF14F0F4CF15F04D
:103D4000A10E14268E0E152214C0E6FF15C0E6FF44
:103D5000D4EC42F0166E050EE15E1650DF2AE1D774
:103D6000E552E552E7CFD9FF12000E01825103E17F
:103D7000000E0BD00AD0820784CEE9FF85CEEAFF81
:103D8000842B000E8523EF5000D01200D9CFE6FF20
:103D9000E1CFD9FFE652DF6A050EDF5C3CE20A0E96
:103DA000E66EE66ADF500A0DF3CF14F0F4CF15F09B
:103DB000A10E14268E0E1522166A14C0E6FF15C039
:103DC000E6FF16C0E6FFEA0EE66E000EE66EC6ECF3
:103DD00046F0176E070EE15E17500001F21D01E17B
:103DE000F31D17E0080EE66EE66AEA0EE66E000EB8
:103DF000E66EFD0EDBCFE6FFFE0EDBCFE6FF53ECFB
:103E000046F0146E060EE15E1450000902E1010E48
:103E100004D0DF2AC1D7000E00D0E552E552E7CF2B
:103E2000D9FF1200D9CFE6FFE1CFD9FF0B0EE12673
:103E3000FD0EDBCFE9FFFE0EDBCFEAFF010ED92638
:103E4000EECFDEFFEECFDEFFEECFDEFFEECFDEFF0A
:103E5000EECFDEFFEECFDEFFEECFDEFFEECFDEFFFA
:103E6000EECFDEFFEECFDEFF0B0ED95EFD0EDBCF19
:103E7000E9FFFE0EDBCFEAFF080EE926000EEA227C
:103E8000E9CF14F0EACF15F014C0E6FF15C0E6FF45
:103E90005BD8E552E552000902E0010E49D0DF6A25
:103EA000050EDF5C43E20A0EE66EE66ADF500A0D9D
:103EB000F3CF14F0F4CF15F0A10E14268E0E1522B8
:103EC000166A14C0E6FF15C0E6FF16C0E6FFEA0E4C
:103ED000E66E000EE66EC6EC46F0176E070EE15E6B
:103EE00017500001F21D01E1F31D1EE10A0EE66EFE
:103EF000D950010FE66E000EDA20E66EDF500A0D93
:103F0000F3CF14F0F4CF15F0A10E14268E0E152267
:103F100014C0E6FF15C0E6FFD4EC42F0166E050EA5
:103F2000E15E1650010E04D0DF2ABAD7000E00D091
:103F3000146E0B0EE15C02E2E16AE552E16E145090
:103F4000E552E7CFD9FF1200D9CFE6FFE1CFD9FF85
:103F5000E652DF6A050EDF5C3BE20A0EE66EE66AB9
:103F6000DF500A0DF3CF14F0F4CF15F0A10E142694
:103F70008E0E1522166A14C0E6FF15C0E6FF16C0A5
:103F8000E6FFEA0EE66E000EE66EC6EC46F0176E31
:103F9000070EE15E17500001F21D01E1F31D16E06E
:103FA000FD0EDBCFE9FFFE0EDBCFEAFFEECF14F014
:103FB000EFCF15F0000114500001F21904E10001E7
:103FC00015500001F31902E1010E04D0DF2AC2D717
:103FD000000E00D0E552E552E7CFD9FF1200D9CF4D
:103FE000E6FFE1CFD9FFFD0EDBCFE6FFFE0EDBCF14
:103FF000E6FFAADFE552E552000902E0010E40D0DB
:10400000050E146E14C0E6FFFD0EDBCFE9FFFE0EB9
:10401000DBCFEAFFEECFE6FFEFCFE6FF7EEC29F045
:10402000E552E552E552E7CF14F0145C27E00001B9
:10403000E251C00BE842E842E842E842E842E84286
:1040400001080AE0E251C00BE842E842E842E842D7
:10405000E842E842000912E1D3C0EAF0D4C0EBF034
:10406000D5C0ECF0D6C0EDF0D7C0EEF0D8C0EFF080
:10407000D9C0F0F0DAC0F1F0010E02D0000E00D08D
:10408000E552E7CFD9FF1200D9CFE6FFE1CFD9FF44
:10409000FD0EDBCFE6FFFE0EDBCFE6FF77DEE5525F
:1040A000E552000902E0010E1BD0050E146E14C08B
:1040B000E6FFFD0EDBCFE6FFFE0EDBCFE6FF30ECCA
:1040C00029F0E552E552E552E7CF14F0145C06E022
:1040D000DBC0F2F0DCC0F3F0010E02D0000E00D025
:0840E000E552E7CFD9FF120001
:0840E8000E01DA513F0B02E169
:1040F000000E01D0010E00D01200D9CFE6FFE1CFB3
:10410000D9FFE652010EE66EF8EC2AF0E552040EF5
:10411000E66EE66A460E146E8E0E156E166A14C0B2
:10412000E6FF15C0E6FF16C0E6FFE40EE66E000EE1
:10413000E66EC6EC46F0176E070EE15E17503C0EB9
:104140000001E41902E1A50EE51903E0D6EC28F020
:1041500005D0050EE75D02E00E01A98BE552E552A0
:10416000E7CFD9FF1200D9CFE6FFE1CFD9FF170E75
:10417000E126FE0EDB5001E0B0D00E01A9A103D074
:10418000000E74EF28F00E01DAA7A2D0DAAD06D047
:104190000E01010E826F240E74EF28F0DAAB03D00B
:1041A000000E74EF28F0DAA920D0DA99DA8BE6CE87
:1041B00082FEDF6A080EDF5C13E2DF50EA6AA40FBA
:1041C000E96E000EEA22EF50E66EDF50EA6A920FC7
:1041D000E96E0E0EEA22E552E750EF6EDF2AEAD7CB
:1041E0000E01836B190E74EF28F0DA89CEEC28F0FB
:1041F000E66E0E01A751A707EA6A000FE96E0E0EE0
:10420000EA22E552E750EF6EA751A707EA6A000FCE
:10421000E96E0E0EEA22010EEF6EA751A707EA6AB9
:10422000000FE96E0E0EEA22B4C0EFFFA751A707F8
:10423000EA6A000FE96E0E0EEA22B3C0EFFFA75143
:10424000A707EA6A000FE96E0E0EEA22ADC0EFFF83
:10425000A751A707EA6A000FE96E0E0EEA22ACC06A
:10426000EFFFA751A707EA6A000FE96E0E0EEA22D8
:10427000EF6AA751A707EA6A000FE96E0E0EEA225D
:10428000050EEF6E0E01A651A62BEA6A000FE96E2D
:104290000E0EEA22040EEF6E800EDF6EA651A62BE4
:1042A000EA6A000FE96E0E0EEA22DFCFEFFFD9CFE8
:1042B000E6FFDACFE6FFACC0E6FFADC0E6FF76EC86
:1042C0002AF0E552E552E552E552100E74EF28F05F
:1042D000000E74EF28F072EF28F0FE0EDB50490A52
:1042E00002E155EF28F0010A02E14FEF28F00F0A32
:1042F00002E130EF28F0010A02E12AEF28F0030A78
:1043000002E169EF27F0010A02E163EF27F0070AF3
:1043100002E15DEF27F0010A02E157EF27F0030AFF
:1043200002E1AAEF26F0720A02E1F1EF25F0010A9C
:1043300002E1DFEF25F01C0A02E1DCEF25F0040AC0
:1043400002E1DBEF25F0030A01E19AD20C0A01E158
:104350008ED2390A01E1CAD1070A01E18BD1030AE1
:1043600001E1CDD00A0A4EE0030A02E072EF28F024
:10437000DF6A080EDF5C0FE2EA6ADF34FE0BEA3622
:10438000E96EC90EE9260E0EEA22EF500E019C5D81
:1043900002E0DF2AEED7080EDF5C03E1000E74EFC7
:1043A00028F0EA6ADF34FE0BEA36E96EC90EE92628
:1043B0000E0EEA22EE52EF5012E0EA6ADF34FE0BF4
:1043C000EA36E96EC90EE9260E0EEA22EE52EFCF6A
:1043D0009CFE340EF36E050EF3CFDBFF02D0050E0C
:1043E000DB6AEA6ADF34FE0BEA36E96EC90EE926BB
:1043F0000E0EEA22EE52EF6A050EDB5074EF28F043
:1044000072EF28F00E0E84CEDBFF0F0E85CEDBFFA1
:104410001FEC29F0E76E060EE7CFDBFF1FEC29F05B
:10442000E76E070EE7CFDBFF1FEC29F0E76E080E03
:10443000E7CFDBFF1FEC29F0E76E090EE7CFDBFFCC
:104440001FEC29F0E76E0A0EE7CFDBFF1FEC29F027
:10445000E76E0B0EE7CFDBFF1FEC29F0E76E0C0ECB
:10446000E7CFDBFF1FEC29F0E76E0D0EE7CFDBFF98
:10447000D950060FE96EDACFEAFFEF50030B0108BF
:1044800018E11FEC29F0DF6E040EDF5C11E11FEC78
:1044900029F0DF6E35EC00F0DFAC07D00E01DA87D3
:1044A00000019B910E01010EE66F000E74EF28F0E3
:1044B00021D0080EDBCF14F0090EDBCF15F0000180
:1044C000B351141802E1B45115180BE0D950080F7C
:1044D000E96EDACFEAFFFF0EEE1802E1FF0EED18EB
:1044E00009E10A0EDBCF8AFE0B0EDBCF8BFE350E09
:1044F00074EF28F035EC00F0000E74EF28F00E0198
:10450000A9990E01825145E00E01A9970001B169F8
:10451000B269A5EC11F00E01A99B0001E751110D44
:10452000F3CFE8F0F4CFE9F04A0E0001E8278E0E51
:10453000E923110EE66EE66AE8C014F0E9C015F052
:10454000166A14C0E6FF15C0E6FF16C0E6FFD30EDC
:10455000E66E000EE66EC6EC46F0176E070EE15EE4
:1045600017500001E3970001050EE76F110EE66E8C
:10457000D30EE66E000EE66EE8C0E6FFE9C0E6FF89
:10458000D4EC42F0146E050EE15E145079EF27F082
:1045900066D088CEB3F089CEB4F00E01A987B6EC10
:1045A00011F00001E751110DF3CFE8F0F4CFE9F07D
:1045B0004A0E0001E8278E0EE923110EE66EE66A28
:1045C000E8C014F0E9C015F0166A14C0E6FF15C083
:1045D000E6FF16C0E6FFD30EE66E000EE66EC6ECF2
:1045E00046F0176E070EE15E17500001E29DE29F54
:1045F000080EE66EE66AA40EE66E000EE66ED30EB8
:10460000E66E000EE66E9BEC46F0146E060EE15E62
:104610001450110EE66ED30EE66E000EE66EE8C084
:10462000E6FFE9C0E6FFD4EC42F0146E050EE15E51
:104630001450DBC0ACF0DCC0ADF00E01A98B040E51
:10464000E66EE40EE66E000EE66E460EE66E8E0E2A
:10465000E66ED4EC42F0146E050EE15E14500E01CD
:10466000A99DB1C09AFEB2C09BFE3A0E74EF28F02D
:1046700072EF28F00E01DA9BDA8DACC0E6FFADC018
:10468000E6FF7EEC29F0E552E552DF6E050EDF5CB9
:1046900002E0C1EC2AF0080EE66EE66A2A0E146EFD
:1046A000000E156E166A14C0E6FF15C0E6FF16C0B0
:1046B000E6FF920EE66E0E0EE66EC6EC46F0176E44
:1046C000070EE15E1750020E0E01E65D0CE10E01D1
:1046D000825102E1826B02D0CB0E826F3C0E74EFEE
:1046E00028F072EF28F04D0E74EF28F0020E0E0144
:1046F000885D01E0B5D084CEE9FF85CEEAFFEF50BA
:1047000001E0AED08ACEE6FF8BCEE6FF7EEC29F04C
:10471000E552E552050802E029D0A2D080EC28F04D
:10472000050801E19DD00001E383E28DE28FDF6A9D
:10473000080EDF5C09E2DF50EA6AD30FE96E000E73
:10474000EA22EF6ADF2AF4D70001E62B040EE66EB8
:10475000E40EE66E000EE66E460EE66E8E0EE66E19
:10476000D4EC42F0146E050EE15E14500E019BADC8
:1047700004D00001E299E29B03D00001E289E29BB0
:10478000E381020E0E01EA6A8425E96E8551EA2270
:10479000EF50780BE840E840E8401F0B00010F0B9A
:1047A000F36EF00EE115F310E16F010E0E01EA6AEF
:1047B0008425E96E8551EA22EF500F0B00010F0BA3
:1047C000F36EF346F346F346F3460F0EE115F3108E
:1047D000E16F010E0E01EA6A8425E96E8551EA2235
:1047E000EF50F00BE8380F0B00010F0BF36EF00EDB
:1047F000E215F310E26F9DCEE0F00E019B51000137
:10480000E395800B01E0E385020E0E01EA6A842540
:10481000E96E8551EA22EF50800B800802E0000E1D
:1048200001D0010E0001E397E8B0E38786CEDDF00A
:1048300087CEDEF08ACEDBF08BCEDCF089CEDFF0E7
:10484000110EE66ED30EE66E000EE66EE8C0E6FFD1
:10485000E9C0E6FFD4EC42F0146E050EE15E1450A0
:1048600035EC00F0000E74EF28F072EF28F0E66AE5
:10487000F8EC2AF0E5523D0E74EF28F072EF28F0C4
:104880000E01880501E08AD1825105E00E01A99947
:10489000360E74EF28F0836B846B856B865187111D
:1048A00001E175D1010E84CEDBFF020E85CEDBFF68
:1048B000D950010FE96EDACFEAFFEE50ED102BE090
:1048C000010EDBCFE9FF020EDBCFEAFFEECF14F0E3
:1048D000EFCF15F086CEE9FF87CEEAFFE926000E7E
:1048E000EA22EECF16F0EFCF17F0000116501418A1
:1048F00002E1175015180FE084CEE9FF85CEEAFFDC
:10490000060EE926000EEA22010EEECFDBFF020EB4
:10491000EDCFDBFFCDD7D950010FE96EDACFEAFF3B
:10492000EE50ED1001E013D186CEE9FF87CEEAFF0D
:10493000EF50010B16E086CEE9FF87CEEAFF040EAA
:10494000E926000EEA22E9CF14F0EACF15F014C0F0
:10495000E6FF15C0E6FF30EC29F0E552E552DF6EC8
:1049600011D086CEE9FF87CEEAFF040EE926000EBD
:10497000EA22EECFE6FFEFCFE6FF7EEC29F0E5522C
:10498000E552DF6E050EDF5C01E1E1D0080EE66E58
:104990001DEC3FF0E552110EF3CFDBFF120EF4CF0A
:1049A000DBFFF3CF14F0F4CF15F01450151001E134
:1049B000CED086CEE9FF87CEEAFF020EE926000EB2
:1049C000EA22EECF14F0EFCF15F0110EDBCFE9FFA6
:1049D000120EDBCFEAFF14C0EEFF15C0EDFF86CE4E
:1049E000E9FF87CEEAFF010EEB50E66E110EDBCF3A
:1049F000E9FF120EDBCFEAFF020EE926000EEA22E3
:104A0000E552E750EF6E0001E151F00BE842E84259
:104A1000E842E842146E110EDBCFE9FF120EDBCF45
:104A2000EAFFEE52EE52EE5214500F0BF36EF00E00
:104A3000EF14F310EF6EE2510F0B146E110EDBCF7B
:104A4000E9FF120EDBCFEAFFEE52EE52EE521450A7
:104A50000F0BF36EF346F346F346F3460F0EEF14D7
:104A6000F310EF6E86CEE9FF87CEEAFF0C0EE92643
:104A7000000EEA22EF500F0B146E110EDBCFE9FF90
:104A8000120EDBCFEAFF040EE926000EEA221450D4
:104A90000F0BF36EF00EEF14F310EF6E86CEE9FFFE
:104AA00087CEEAFF0C0EE926000EEA22EF50F00B4B
:104AB000E842E842E842E842146E110EDBCFE9FF1B
:104AC000120EDBCFEAFF040EE926000EEA22145094
:104AD0000F0BF36EF346F346F346F3460F0EEF1457
:104AE000F310EF6E86CEE9FF87CEEAFF0C0EE926C3
:104AF000000EEA22EE52EF50800B01E0010E146E20
:104B0000110EDBCFE9FF120EDBCFEAFF050EE9261F
:104B1000000EEA221450010BF36EFE0EEF14F31098
:104B2000EF6E110EDBCFE9FF120EDBCFEAFF060EB0
:104B3000E926000EEA2284CEEEFF85CEEDFF110EAF
:104B4000DBCF84FE120EDBCF85FE0E01832B86CEDB
:104B5000E9FF87CEEAFF130EE926000EEA22010ED6
:104B6000EECFDBFF020EEDCFDBFF86CEE6FF87CE7A
:104B7000E6FF02EC40F0E552E5520E01866B876BD2
:104B8000010EDBCF86FE020EDBCF87FE87D6835178
:104B900002E10E01A999360EA7D2A4D20E01A9995D
:104BA0000E01825104E1A5EC11F0F7D402D0CA0E37
:104BB000826F3A0E99D296D2000E96D293D20E01FF
:104BC000A99D0E0182510AE00E01A98FEB0E0E0184
:104BD000825D02E1826B02D0C60E826F3E0E84D2ED
:104BE00081D20E01A9B70CD00E01C20E826F0E0148
:104BF000A9910E017F0EA76F0E01A66B340E74D221
:104C0000030EACC0DBFF040EADC0DBFFDF6A080E95
:104C1000DF5C0EE2EA6ADF34FE0BEA36E96EC90EAB
:104C2000E9260E0EEA22EE52EF5002E0DF2AEFD71D
:104C3000080EDF5C0CE10E01F10E826F0E01A991EE
:104C40000E017F0EA76F0E01A66B340E4DD2EA6ADD
:104C5000DF34FE0BEA36E96EC90EE9260E0EEA22B3
:104C6000EE529CCEEFFF0E01A751A707EA6A000F94
:104C7000E96E0E0EEA229CCEEFFFA751A707EA6A63
:104C8000000FE96E0E0EEA228ACEEFFFA751A707AA
:104C9000EA6A000FE96E0E0EEA22B4C0EFFFA751D8
:104CA000A707EA6A000FE96E0E0EEA22B3C0EFFF13
:104CB000A751A707EA6A000FE96E0E0EEA2293CE0B
:104CC000EFFFA751A707EA6A000FE96E0E0EEA226E
:104CD00092CEEFFF0E018351E824E66E0E01A7513C
:104CE000A707EA6A000FE96E0E0EEA22E552E750C6
:104CF000EF6E0E018B51400DF3500409E66E0E016C
:104D0000A751A707EA6A000FE96E0E0EEA22E552E4
:104D1000E750EF6ED950150FE66E000EDA20E66E02
:104D2000030EDBCFE6FF040EDBCFE6FFDFDBE55251
:104D3000E552E552E552EA6ADF34FE0BEA36E96EE7
:104D4000C90EE9260E0EEA22150EDBCFEFFF100E7C
:104D5000CBD1C8D1050E0001E75D4BE0E751110D45
:104D6000F3CFE8F0F4CFE9F04A0E0001E8278E0E09
:104D7000E923110EE66EE66AE8C014F0E9C015F00A
:104D8000166A14C0E6FF15C0E6FF16C0E6FFD30E94
:104D9000E66E000EE66EC6EC46F0176E070EE15E9C
:104DA00017500001E28DE28F110EE66ED30EE66E13
:104DB000000EE66EE8C0E6FFE9C0E6FFD4EC42F084
:104DC000146E050EE15E14500001050EE76F040E2F
:104DD000E66EE40EE66E000EE66E460EE66E8E0E93
:104DE000E66ED4EC42F0146E050EE15E14500E0136
:104DF000A99BDF6A050EDF5C39E2DF50110DF3CFAE
:104E0000E8F0F4CFE9F04A0E0001E8278E0EE9231E
:104E1000110EE66EE66AE8C014F0E9C015F0166AF5
:104E200014C0E6FF15C0E6FF16C0E6FFD30EE66E1F
:104E3000000EE66EC6EC46F0176E070EE15E1750E8
:104E40000001E3A311D0E397110EE66ED30EE66ED8
:104E5000000EE66EE8C0E6FFE9C0E6FFD4EC42F0E3
:104E6000146E050EE15E1450DF2AC4D70E01A98925
:104E70000E01DE51DF110BE0DECEE6FFDFCEE6FFF6
:104E800002EC40F0E552E5520E01DE6BDF6B8ACE9C
:104E9000E1FE8BCEE2FE8CCEE3FE8DCEE4FE89CE2B
:104EA000E5FE0E01010E886F280E1ED11BD10E01EA
:104EB000C20E826F370E18D115D10E01C20E826F4D
:104EC000380E12D10FD10E01C20E826F390E0CD1E5
:104ED00009D10E01A9A706D00E01C20E826F3A0EAB
:104EE00003D1B7D0A9890E01825101E0AED0C30E23
:104EF000826F0001050EE76F160EDB68DF6A050E94
:104F0000DF5C4CE2DF50110DF3CFE8F0F4CFE9F0B5
:104F10004A0E0001E8278E0EE923110EE66EE66ABE
:104F2000E8C014F0E9C015F0166A14C0E6FF15C019
:104F3000E6FF16C0E6FFD30EE66E000EE66EC6EC88
:104F400046F0176E070EE15E17500001E351020BA9
:104F500023E0E351040B20E0E351080B1DE00E01B8
:104F60009A510001DD1904E10E019B510001DE1987
:104F700013E1300EE05D10E3160EDBCF14F0E151CB
:104F80000F0BD880145408E2E1510F0BE76E160E98
:104F9000E7CFDBFFDFCFE7F0DF2AB1D7050E000157
:104FA000E75D4FE0E751110DF3CFE8F0F4CFE9F002
:104FB0004A0E0001E8278E0EE923110EE66EE66A1E
:104FC000E8C014F0E9C015F0166A14C0E6FF15C079
:104FD000E6FF16C0E6FFD30EE66E000EE66EC6ECE8
:104FE00046F0176E070EE15E17509ACEB1F09BCED9
:104FF000B2F0A5EC11F0010EE66EE66A500E146EEA
:10500000900E156E166A14C0E6FF15C0E6FF16C0B6
:10501000E6FFD9CFE6FFDACFE6FFC6EC46F0176E23
:10502000070EE15E1750DFC088FE0E01020E896F89
:10503000DBC092FEDCC093FEDFCF82FE150E54D0A3
:1050400008D00E01A9993A0E4FD0030E886F280E92
:105050004BD048D00E01C20E826F3B0E45D042D0DD
:105060000E01A9B705D00E01C20E826F3C0E3CD0D6
:10507000920EE66E0E0EE66E86D9E552E5520009F6
:1050800008E000019B910E01DA87020EE66F000E28
:105090002BD00E01C20E826F3C0E26D023D00E0103
:1050A000010E826F240E20D01DD00E01825112E11C
:1050B000836B0E01A98DA99FB1C09AFEB2C09BFE61
:1050C0000E01020E896FACC092FEADC093FE310E90
:1050D0000BD008D00E01A99DA98F0E01C10E826FC1
:1050E0003E0E02D0000E00D0146E170EE15C02E2FC
:1050F000E16AE552E16E1450E552E7CFD9FF1200A4
:10510000D9CFE6FFE1CFD9FF020EE12600014A0E1A
:10511000E86F8E0EE96FDF6A010EDB6A050EDF5C59
:1051200029E2010EDB5026E1110EE66EE66AE8C0C8
:1051300014F0E9C015F0166A14C0E6FF15C0E6FFCA
:1051400016C0E6FFD30EE66E000EE66EC6EC46F025
:10515000176E070EE15E17500001E3B304D0DE5274
:10516000010EDD6E07D00001110EE827000EE923C5
:10517000DF2AD4D7010EDB5003E0DF5003D002D08A
:10518000050E00D0146E020EE15C02E2E16AE55207
:10519000E16E1450E552E7CFD9FF12000E01D92B72
:1051A000D95101E1D92BD95100D01200D9CFE6FF56
:1051B000E1CFD9FFE6520E01A99B0001E06BE16B44
:1051C000E26BE36BDF6A00014A0EE86F8E0EE96F57
:1051D000050EDF5C17E2110EE66ED30EE66E000ED2
:1051E000E66EE8C0E6FFE9C0E6FFD4EC42F0146EDC
:1051F000050EE15E1450DF2A0001110EE827000EB3
:10520000E923E6D70001E66B050EE76F3C0EE46F7D
:10521000A50EE56F040EE66EE40EE66E000EE66E79
:10522000460EE66E8E0EE66ED4EC42F0146E050E5F
:10523000E15E1450E552E552E7CFD9FF12000E01AE
:10524000825103E1000E0BD00AD0820784CEE9FF21
:1052500085CEEAFF842B000E8523EF5000D012008C
:10526000D9CFE6FFE1CFD9FFE65200014A0EE86F41
:105270008E0EE96FDF6A050EDF5C39E2110EE66E15
:10528000E66AE8C014F0E9C015F0166A14C0E6FF3B
:1052900015C0E6FF16C0E6FFD30EE66E000EE66E02
:1052A000C6EC46F0176E070EE15E17500001E3A34F
:1052B00017D0080EE66EE66AD30EE66E000EE66EB6
:1052C000FD0EDBCFE6FFFE0EDBCFE6FF53EC46F034
:1052D000146E060EE15E1450000902E1DF5009D0A1
:1052E000DF2A0001110EE827000EE923C4D7050EBE
:1052F00000D0E552E552E7CFD9FF1200D9CFE6FF43
:10530000E1CFD9FFE65200014A0EE86F8E0EE96F39
:10531000DF6A050EDF5C30E2110EE66EE66AE8C079
:1053200014F0E9C015F0166A14C0E6FF15C0E6FFD8
:1053300016C0E6FFD30EE66E000EE66EC6EC46F033
:10534000176E070EE15E17500001E3A30ED0DBC01D
:1053500014F0DCC015F0FD0EDB50141803E1FE0E56
:10536000DB50151802E1DF5009D0DF2A0001110ED1
:10537000E827000EE923CDD7050E00D0E552E5520F
:10538000E7CFD9FF1200D9CFE6FFE1CFD9FF080E52
:10539000E126E66EE66A2A0E146E000E156E166A97
:1053A00014C0E6FF15C0E6FF16C0E6FFD9CFE6FF42
:1053B000DACFE6FFC6EC46F0176E070EE15E175037
:1053C000080EE66EE66AD9CFE6FFDACFE6FFFD0EFD
:1053D000DBCFE6FFFE0EDBCFE6FF53EC46F0146EAC
:1053E000060EE15E1450000903E1010E03D002D065
:1053F000000E00D0146E080EE15C02E2E16AE55294
:10540000E16E1450E552E7CFD9FF1200D9CFE6FF85
:10541000E1CFD9FFE652DF6A00014A0EE86F8E0E37
:10542000E96F050EDF5C4DE2110EE66EE66AE8C03C
:1054300014F0E9C015F0166A14C0E6FF15C0E6FFC7
:1054400016C0E6FFD30EE66E000EE66EC6EC46F022
:10545000176E070EE15E17500001E351020B2AE0C0
:10546000E251C00BE842E842E842E842E842E84242
:10547000010820E0E251C00BE842E842E842E8427D
:10548000E842E842000916E0E06BE16BE26BE36B97
:105490000001E607110EE66ED30EE66E000EE66E14
:1054A000E8C0E6FFE9C0E6FFD4EC42F0146E050E5A
:1054B000E15E1450DF2A0001110EE827000EE923F7
:1054C000B0D7040EE66EE40EE66E000EE66E460EF3
:1054D000E66E8E0EE66ED4EC42F0146E050EE15EC2
:1054E0001450E552E552E7CFD9FF1200D9CFE6FFBD
:1054F000E1CFD9FF0E01A9810E01020E886FB1C064
:1055000086FEB2C087FEB3C08AFEB4C08BFE896F30
:10551000B1C09AFEB2C09BFEFD0EDBCF92FEFE0E26
:10552000DBCF93FEFB0EDBCFE9FFFC0EDBCFEAFF08
:10553000AEC0EFFFAEC09CFE856BD950FD0FE96E8B
:10554000FF0EDA20EA6EFF0EEE1802E1FF0EED18F4
:1055500011E08581FD0EDBCFE6FFFE0EDBCFE6FF1F
:10556000CDDEE552E552050805E00001E3B102D0C9
:105570000E0185850E01010E846FE552E7CFD9FF3C
:1055800012000001E251C00BE842E842E842E84262
:10559000E842E842000903E10001050EE76F00015F
:1055A000E393E06BE16BE26BE36B110EE66ED30EFF
:1055B000E66E000EE66EE8C0E6FFE9C0E6FFD4EC5A
:1055C00042F0146E050EE15E14500001E607040E71
:1055D000E66EE40EE66E000EE66E460EE66E8E0E8B
:1055E000E66ED4EC42F0146E050EE15E145012002B
:1055F000D9CFE6FFE1CFD9FFE652D6CFD9FE0E01D3
:10560000A96B0E01DA6BDB6BDF6A080EDF5C0DE263
:10561000EA6ADF34FE0BEA36E96EC90EE9260E0EA1
:10562000EA22EE52EF6ADF2AF0D7FE0EDB500CE1E1
:105630000E01DE51DF1108E0DECEE6FFDFCEE6FF31
:1056400002EC40F0E552E5520E01DE6BDF6BE552F5
:08565000E552E7CFD9FF12007B
:08565800030E0001FF1502E141
:10566000000E01D0010E00D012000001FF6B1200ED
:10567000D9CFE6FFE1CFD9FF470EE126DF6AFE0E64
:10568000DB5008E10E01A9A103D0000EFFEF30F0BE
:10569000FDEF30F0FE0EDB505A0A02E0FDEF30F075
:1056A0000E019CAF03D0510EFFEF30F0B5EC1EF0B1
:1056B000E76E020EE7CFDBFFDB50F00B200804E0C3
:1056C00035EC00F0FDEF30F0B5EC1EF00001FE6FA0
:1056D000B5EC1EF0E76E010EE7CFDBFF0E019C512B
:1056E000300A02E1E5EF30F0010A02E1E5EF30F0C7
:1056F000030A02E1E5EF30F0010A02E1E5EF30F0E4
:10570000060A02E1E5EF30F0010A02E1E5EF30F0D0
:10571000240A02E1BBEF30F0010A02E1BBEF30F0F6
:10572000030A02E1BBEF30F0060A02E1BBEF30F002
:10573000120A01E1D3D2030A01E15FD2010A01E1B9
:10574000F0D0070A01E1A2D0010A55E0030A46E0C1
:10575000010A02E0FAEF30F0030EDB6A080EF36E86
:10576000030EDBCFF4FFF350F45C2DE2010EE66E86
:10577000E66A030EDB50156A2A0F146E000E15221E
:10578000166A14C0E6FF15C0E6FF16C0E6FFD95042
:10579000040FE66E000EDA20E66EC6EC46F0176ED9
:1057A000070EE15E1750B5EC1EF0E76E050EE7CF71
:1057B000DBFFDB50F36E040EDB50F35C01E00CD03A
:1057C000030EDB2ACBD7800EE66E0BEC31F0E552F0
:1057D0000E018C854F0EDF6EFAEF30F0D7EC31F012
:1057E000000907E0810EE66E0BEC31F0E5524F0E3A
:1057F000DF6EFAEF30F0D7EC31F0000945E00E0132
:10580000030EA66FA651A62BEA6A000FE96E0E0ED4
:10581000EA22EF6AA651A62BEA6A000FE96E0E0E85
:10582000EA22B3C0EFFFA651A62BEA6A000FE96E89
:105830000E0EEA22B4C0EFFF080EE66EE66A4E0EC8
:10584000146E900E156E166A14C0E6FF15C0E6FFC2
:1058500016C0E6FFA651186A000F176E0E0E18222A
:1058600017C0E6FF18C0E6FFC6EC46F0196E070E3B
:10587000E15E1950080E0E01A627820EE66E0CECB2
:1058800032F0E5524F0EDF6EFAEF30F0D7EC31F028
:10589000000945E00E01030EA66FA651A62BEA6A89
:1058A000000FE96E0E0EEA22EF6AA651A62BEA6AF5
:1058B000000FE96E0E0EEA22B3C0EFFFA651A62B31
:1058C000EA6A000FE96E0E0EEA22B4C0EFFF020E84
:1058D000E66EE66A560E146E900E156E166A14C0C9
:1058E000E6FF15C0E6FF16C0E6FFA651186A000FD6
:1058F000176E0E0E182217C0E6FF18C0E6FFC6ECA2
:1059000046F0196E070EE15E1950020E0E01A62731
:10591000830EE66E0CEC32F0E5524F0EDF6EFAEFBE
:1059200030F0D7EC31F0000901E166D1B5EC1EF0A2
:10593000E76E060EE7CFDBFF0E01030EA66F060E25
:10594000DB50000801E32ED1060EDB50146E156A01
:10595000153404E21450F008000E155401E222D16F
:10596000070EDB68070EDB2A160EE66EE66A070EE8
:10597000DB50160DF3CF14F0F4CF15F0580E1426AB
:10598000900E1522166A14C0E6FF15C0E6FF16C079
:10599000E6FFD950080FE66E000EDA20E66EC6EC80
:1059A00046F0176E070EE15E1750060EDB50F36EE1
:1059B000080EDB50F35C08E0020EF36E070EDBCF3F
:1059C000F4FFF350F45CCEE3070EDB5002080BE16A
:1059D0000E01A651A62BEA6A000FE96E0E0EEA220E
:1059E000830EEF6EE8D00E01A651A62BEA6A000FD7
:1059F000E96E0E0EEA22EF6AA651A62BEA6A000FA4
:105A0000E96E0E0EEA22B3C0EFFFA651A62BEA6A9A
:105A1000000FE96E0E0EEA22B4C0EFFF160EDBCFC8
:105A2000E6FF0E0EDB50080FE552E724E66EA651A6
:105A3000A62BEA6A000FE96E0E0EEA22E552E75045
:105A4000EF6EA651A62BEA6A000FE96E0E0EEA224F
:105A5000080EDBCFEFFFA651A62BEA6A000FE96E16
:105A60000E0EEA22090EDBCFEFFFA651A62BEA6A43
:105A7000000FE96E0E0EEA220A0EDBCFEFFFA651F1
:105A8000A62BEA6A000FE96E0E0EEA220B0EDBCFA0
:105A9000EFFFA651A62BEA6A000FE96E0E0EEA226E
:105AA0000C0EDBCFEFFFD950080FE96EDACFEAFF1B
:105AB000050EE926000EEA22EF50F00BE842E8421C
:105AC000E842E842100DF3CF14F0D950080FE96E08
