:020000040000FA
:0600000066EF3DF0120066
:06000800F6EF2FF01200DC
:06001800F6EF2FF01200CC
:06002A006700000000A3C6
:020030000400CA
:0E0032000100F47A0000F20E0000020000004F
:100040000001B751000801E2010C000C0E0182070B
:1000500084CEE9FF85CEEAFF842B000E8523EF5086
:10006000120080CEE6FF81CEE6FFA4EC38F0E55228
:10007000E5520E01806B816B12000E01EB5101E025
:10008000000C8B94010CEDEC0AF0090EE126A9ECB2
:100090000BF0D9CFE6FFDACFE6FF79EC0BF0BBEC43
:1000A0002DF035EC09F03DEC09F0080EDB6AF36E3B
:1000B000DBCFF4FFE850F45C16E2D9CF14F0DACFCE
:1000C00015F0080EDB500F01D924E96E000EDA207E
:1000D000EA6EEF50E66E080EDB50050F1CEC0BF0DD
:1000E000080EDB2AE4D759EC09F0090EE15C02E2C4
:1000F000E16AE552E16EF2EF0AF0EDEC0AF0E65249
:100100005BEC0BF0DF6ADF5021EC0AF008E2EA6AF0
:10011000DF3467EC0BF0EE6AED6ADF2AF4D70E01EC
:10012000010E826F240EE66E07D8E5520001B76B10
:10013000896BE552F2EF0AF0EDEC0AF02B0EE126A6
:10014000FE0EDB5001E0B7D10001B7AB08D0B79B82
:10015000010EE3CEDBFF020EE4CEDBFF55D3FAEC5B
:1001600009F00E01EB51100B08E028EC0AF0000139
:100170006FEC0BF002E20E01EB990001B7A346D041
:100180000E01EEAD43D00E01F250100B02E0E28FF3
:1001900001D0E29FF2980E01EE9DEEAF0CD0EE9FE3
:1001A0000E01E251800B02E0F28801D0F2980001CA
:1001B000B78BCDEF06F00E01E251800B02E0F28822
:1001C00001D0F2980001B793AEEC09F0000189A7C5
:1001D0000AD00E0188698969E90E826F000189974A
:1001E000B797FFEF05F089A905D089990E01E90EAF
:1001F000FEEF08F089AF05D0899F0E01E90E06EFEA
:1002000008F00E01E90E826F3AEF07F00001B7A97E
:100210000AD0B7510E018591020B02E1C1EF06F041
:100220008581C1EF06F00E01A9B1CDEF06F0000106
:1002300089AB0AD028EC0AF06FEC0BF005E20E0156
:10024000EB990001899BF3D2B7A727D089B917D0C2
:1002500049EC0BF014E2B7B312D00E01836B00012E
:1002600089890E01020E896FB2C09AFEB3C09BFE4F
:1002700081C092FE82C093FE310E2CEF09F049EC52
:100280000BF00BE2B7970E0188698969EB0E826F5C
:100290000001B793896BFFEF05F0B7A52BEF09F0CD
:1002A0000F0E18EC0AF00B0EE7CFDBFFFAEC09F0AB
:1002B00028EC0AF00001C551EE5C146EC651EE58F0
:1002C000156EC751EE58166EC851EE58176E070ED0
:1002D00014C0DBFF080E15C0DBFF090E16C0DBFFE4
:1002E0000A0E17C0DBFFB7BDA2D0CDC017F0146A4D
:1002F000156A166A800E171614501510161017106E
:1003000023E0B79572EC0AF00E01826B2CEC0AF038
:100310000001C00503E0020EC05D04E10E0183513F
:1003200007E104D0030EC05D03E10E01EA0E826F07
:1003300096EC0AF00C0E00EC0BF0FE0BE76E0C0EC8
:10034000EBEC09F0C9EF08F0B8A15DD00E01E62B87
:10035000030EDBCFC5F0040EDBCFC6F0050EDBCFFE
:10036000C7F0060EDBCFC8F04CEC0AF006E1010E38
:10037000CA6FCB6BCC6BCD6B05D0D890CA37CB375F
:10038000CC37CD377BEC0AF0B78D59EC09F0000182
:10039000C051030A1DE0010A02E12BEF09F0030A34
:1003A00007E0010A02E02BEF09F0D36B2BEF09F015
:1003B0000B0EDB50800802E12BEF09F050EC0BF044
:1003C000070EEF6EC8EC0BF022EC0BF0080E0FD00E
:1003D0000B0EDB50800802E12BEF09F050EC0BF024
:1003E000060EEF6E04EC0BF022EC0BF0C80EEF6E75
:1003F00045EC09F0030EEF6E0001896B0E0185914B
:100400008597C1EF06F00E01E62B4CEC0AF006E1F1
:10041000010ECA6FCB6BCC6BCD6B05D0D890CA37B1
:10042000CB37CC37CD377BEC0AF02BEF09F0C0513E
:1004300022E1800EA1EC0AF03E0EE66E74EC2FF085
:10044000E552E76E0D0E00EC0BF0010B0108F4E134
:10045000100E18EC0AF00D0EE7CFDBFFDBCF14F027
:100460000001D351D880145403E20D0EDBCFD3F03A
:10047000400EA1EC0AF0D950070F75EC0BF000010B
:10048000C151EE5CC251EE58C351EE58C451EE5802
:1004900002E22BEF09F0C0510BE1D1C0E9FFD2C05D
:1004A000EAFFD12B000ED223D3C0EFFFCE2BD36BAC
:1004B000B79D2BEF09F0FE0EDB50310A02E1F9EF98
:1004C00008F01C0A02E1DFEF08F0050A02E17FEF05
:1004D00008F00C0A02E150EF08F0070A02E109EF08
:1004E00008F03A0A02E1C9EF07F00E0A02E1A1EFB3
:1004F00007F0020A02E177EF07F0060A02E13EEF99
:1005000007F0030A01E17DD3130A02E02BEF09F0A3
:100510000E01A99DA2EC0BF0010EE7CFDBFFA2ECD0
:100520000BF0020EE7CFDBFFA2EC0BF00E0EE7CFD5
:10053000DBFFB9EC09F0EE52EF500C0BE842E84259
:100540000E01896FB9EC09F0EE52EF50C00BE84292
:10055000E842E842E842E842E842886F020E895DDC
:1005600005E1BDEC09F0CFEC0AF019D0030E895D6E
:1005700016E1BDEC09F0CFEC0AF068DD0E01946FD6
:1005800065DD0E01956F62DD0E01966F5FDD0E0178
:10059000976F5CDD0E01986F59DD0E01996F020EA9
:1005A000885D0EE1A6EC0BF0400B05E0B2C086FEC4
:1005B000B3C087FE02D084EC0AF08DEC0AF022D0A2
:1005C000030E885D1FE1A6EC0BF0400B05E0B2C006
:1005D00086FEB3C087FE02D084EC0AF08DEC0AF0F0
:1005E00035DD0E018C6F32DD0E018D6F2FDD0E01BA
:1005F0008E6F2CDD0E018F6F29DD0E01906F26DDD1
:100600000E01916F8251EA6A8425E96E8551EA22D2
:10061000020EE95E000EEA5AEFCF9DFE020E825FE7
:10062000A6EC0BF0070B030A01E130D1010A01E14E
:10063000E0D0020A14E0010A01E03AD1921D03E180
:10064000931D01E135D1000189AB06D0899B0E01D4
:10065000825102E106DDEBD0120E2CEF09F00E0EF6
:10066000DBCF96FEE6CE89FEBDEC09F0E76E100EFC
:10067000E7CFDBFF0E01996BD950100F75EC0BF033
:10068000EF50800B02E0010E996FA2EC0BF0100E00
:10069000E7CFDBFFCFEC3CF004C092FE05C093FE39
:1006A00006C094FE07C095FE0001B7A59CD0C0050A
:1006B00004E0020EC05D01E096D0CF51D01110E1F0
:1006C000150EF6EC0AF0110EF3CFDBFF120EF4CF8D
:1006D000DBFF110EDBCFCFF0120EDBCFD0F024D03A
:1006E000110ECFC0DBFF120ED0C0DBFF36EC0BF0DB
:1006F000EE50ED1005E036EC0BF0D6EC0AF0F6D734
:10070000150EF6EC0AF0F4CF15F036EC0BF0F3CF43
:10071000EEFF15C0EDFF36EC0BF0EE50ED1063E090
:1007200036EC0BF0D6EC0AF0D950110F75EC0BF04B
:10073000EE50ED1058E00001CE2BFD0E0E01881595
:1007400080EC0BF0FE0EEF14F310EF6E995180EC7D
:100750000BF0F346FD0EEF14F310EF6E6CEC09F0A6
:10076000020EB5EC09F086CEEEFF87CEEDFF6CEC05
:1007700009F0040EB5EC09F08ACEEEFF8BCEEEFF49
:100780008CCEEEFF8DCEEEFF8ECEEEFF8FCEEEFF47
:1007900090CEEEFF91CEEEFF6CEC09F0EE5289CEDA
:1007A000EFFF6CEC09F00C0EB5EC09F09ACEEEFF01
:1007B0009BCEEDFF6CEC09F0B5EC09F09DCEEFFFA0
:1007C0006CEC09F00E0EB5EC09F092CEEEFF93CE74
:1007D000EEFF94CEEEFF95CEEEFF6CEC09F0130E1B
:1007E000EB6A140EEB6A0E01080E9C6F1C0E2CEFC8
:1007F00009F037DC0001B7A32BEF09F00E0EDB5038
:10080000835D02E02BEF09F0AEEC09F00001B79335
:1008100089A702D0B78707D089A90DD0A6EC0BF025
:10082000100B04E0898BC7EC09F005D089990E0103
:10083000EB0EFEEF08F0000189AF0CD03DEC09F0A3
:100840000001899F0E01826B0001B269B369B4692E
:10085000B569DDD389AD0CD3899D0E01826B030E82
:10086000896F8AC092FE8BC093FE8CC094FE8DC0AF
:1008700095FE8EC096FE8FC097FE90C098FE91C0E8
:1008800099FE51EC09F02A0E2CEF09F0A2EC0BF0C6
:10089000130E00EC0BF0020A01E19FD1060A67E09B
:1008A0000C0A24E00B0A19E0050A12E0070A03E02B
:1008B00031EC00F072D2FBEC0AF0A6EC0BF0080B66
:1008C00001E0010E836F31EC00F0160E2CEF09F001
:1008D00031EC00F0220E2CEF09F0FBEC0AF0080ED0
:1008E0009C6F31EC00F01A0E2CEF09F00001B7A557
:1008F00036D0030EC05D33E1B795DAEC09F026EC93
:1009000000F00001B26F26EC00F00001B36F26EC9E
:1009100000F00001AD6F26EC00F00001AE6F26EC98
:1009200000F026EC00F00001B46F26EC00F00001AE
:10093000B56F31EC00F096EC0AF0140E00EC0BF001
:10094000FE0BE76E140EEBEC09F00E01826B72ECFD
:100950000AF02CEC0AF00001B79DC9EF08F00E0177
:10096000EF0E826F31EC00F0300E2CEF09F031EC1D
:1009700000F0190EDB90170EDB6ADB5021EC0AF059
:1009800001E385D0170E49EC09F0EE50ED1001E1BE
:100990007ED0170E27EC0BF0150EEECFDBFF160EF8
:1009A000EDCFDBFF010E86EC0BF0180EEFCFDBFF77
:1009B000030E0E01885D3AE1180EDB500C0B0C089B
:1009C00060E139EC0AF01B0E14C0DBFF1C0E15C0F1
:1009D000DBFF190EDB801A0EDB6A080EF36E1A0EAF
:1009E0009CEC0AF020E21B0EDBCFE9FF1C0EDBCFF4
:1009F000EAFFEF50E66E1A0E53EC0BF01B0EDBCF46
:100A0000E9FFDB2A1C0EDBCFEAFF01E3DB2AEFCF95
:100A100014F01A0EA5EC0AF0145C02E0190EDB903B
:100A20001A0EDB2ADAD70001898D2BD0180EDB5085
:100A30000C0B080826E139EC0AF01D0E14C0DBFF90
:100A40001E0E15C0DBFF190EDB801D0EDBCFE9FF8C
:100A5000DB2A1E0EDBCFEAFF01E3DB2AEF508A5DC3
:100A600002E0190EDB901D0EDBCFE9FF1E0EDBCF7F
:100A7000EAFFEF508B5D02E0190EDB9000018997D1
:100A8000899DADEC0AF003E1170EDB2A76D7ADECB9
:100A90000AF071E00E01A9B180D10001B793020EF6
:100AA00086EC0BF0EFCF83F057EC0AF0EF50200B01
:100AB00004E0B7830E01858102D00E0185918597F0
:100AC00031EC0BF0180EEFCFDBFFDDEC0AF016E097
:100AD000B3EC0AF001E3DB2AEF50E66E180EDB50B0
:100AE000E96EEA6A7F0ED880E956000EEA56000EDB
:100AF000E9260E0EEA225EEC0AF0E7D731EC0BF0A5
:100B0000EF50D2EC09F014C0A7FE170EC5EC0BF0A5
:100B1000060EB5EC09F0EFCF14F031EC0BF0EF500E
:100B2000145CE76E180EE7CFDBFFDDEC0AF00BE09C
:100B3000B3EC0AF001E3DB2AEF50E66E50EC0BF069
:100B40005EEC0AF0F2D7170E27EC0BF0E6DB170E7F
:100B500097EC0BF0170EBBEC0AF009E2170E09EC4C
:100B60000AF0170E8BEC0BF0170EDB2AF3D7170EDB
:100B70009AEC0BF006D10E01A9B10FD1020E0E01B5
:100B8000885D04E0030E885D01E007D1856B86CEA9
:100B90009AFE87CE9BFE020E885D07E1020E896FEA
:100BA0008ACE92FE8BCE93FE12D0030E896F8ACE30
:100BB00092FE8BCE93FE8CCE94FE8DCE95FE8ECE85
:100BC00096FE8FCE97FE90CE98FE91CE99FEE4ECE5
:100BD0000AF097DB010E846F46D00001B797899722
:100BE00026EC00F00E01886F26EC00F00E01896FF4
:100BF000FBEC0AF0E85001E1DDDB31EC00F0180E0F
:100C00002BD3020E0E01A7252BEC0BF0EF50020B9D
:100C100026E0010EE66EE66EA751C4DB1450E66EC8
:100C2000A729176A000F166E0E0E172216C0E6FFD0
:100C300017C0E6FFA60EE66E0E0EE66E000EE66E1E
:100C40000E0EE66EDDEC1FF0186E090EE15E185018
:100C5000000905E183DB0E01E40E826F0DD1000176
:100C6000AF51AF2B836F0001896B1F0EDB6A020E41
:100C70000E01885D08E10E013AEC0BF026E19B5174
:100C800087191DE022D0030E885D26E1C8EC0BF029
:100C900091CEEFFFFADA90CEEFFFF7DA8FCEEFFFCB
:100CA000F4DA8ECEEFFFF1DA8DCEEFFFEEDA8CCEF6
:100CB000EFFF3AEC0BF009E19B51871906E1010EB9
:100CC000F36E1F0EF3CFDBFF07D0C8EC0BF087CE1F
:100CD000EFFFDBDA86CEEFFF020E0E01895D02E147
:100CE0000E0116D0030E895D1CE1C8EC0BF099CE05
:100CF000EFFFCBDA98CEEFFFC8DA97CEEFFFC5DA79
:100D000096CEEFFFC2DA95CEEFFFBFDA94CEEFFFBB
:100D1000BCDA91EC0BF0B9DA9BCEEFFFB6DA9ACEE3
:100D2000EFFFC8EC0BF09CCEEFFF0E018951040DD4
:100D3000F350E66E0E0116DBC1DB0E018851400D4B
:100D4000F3CF14F00E010EDBF350EF12A7070ADB0E
:100D500084CEEFFF0001B7931F0EDB0403E10E0109
:100D600001DBEF8C0E0185A103D00E01FBDAEF8AC7
:100D70000E01A7070E01A6510E01A75D02E2EEDAF1
:100D80006AD20F0E55DB200EE7CFDBFF0E01A981E3
:100D9000DB50800804E10001B789000E5DD200013C
:100DA000B7990E01EE9B0E01A7292BEC0BF0EF502B
:100DB000200B04E00E01EE8B0001B7830E01A7515A
:100DC000F1DA1450E66E000EDEDB0E01A751EADA0E
:100DD0000E01A651166E176A14501624E66E010E07
:100DE000D2DB020EF36E220EF3CFDBFF230EDB6AA3
:100DF0000E01A72BA751146E156A153404E2145086
:100E00007F08000E155406E3ADDA5CDB01E3DB2A54
:100E100063DBEED77F0EA76F240EDB6A0E01A651AF
:100E2000F36E240E89DB0BE2240EDB502BEC0BF06F
:100E300049DB01E3DB2A50DB240EDB2AEFD7A66B6C
:100E40000E01A9810E01EB850E01EEAB02D0050E5D
:100E500001D0010EE66E1B0EEFDB99DA00018991DD
:100E6000899389950E0185B1F6D10001B79376DAA1
:100E70000E01826B83C09CFE110EEED10E01E70EB7
:100E8000826F250EDB6ADB50DCDA2FE2250EDFDB1A
:100E9000260EEECFDBFF270EEDCFDBFF020EE76E57
:100EA000260EDBCFE9FF270EDBCFEAFFE7505DDA46
:100EB000EF509C5D17E1250ECADB2FDA250E97EC6B
:100EC0000BF0250E58DB08E2250EA3DA250E8BEC7D
:100ED0000BF0250EDB2AF5D7250E9AEC0BF00E0150
:100EE000826B03D0250EDB2ACED7140EB5D188CE67
:100EF000E6FEDFD99ACEB2F09BCEB3F0B6D9D0DB06
:100F0000010EEF6E9EEC0BF07FDB91EC0BF092CEBE
:100F100081F093CE82F0B9D9B3C0EFFFB6D9B2C099
:100F2000EFFFAFC083F0B7EC0BF0C80EEF6EADD99A
:100F3000230EEF6E0001896B0E0185810001898708
:100F400020D7AEDB020EEF6EA8D988CEEFFFA5D971
:100F500089CEEFFFF3DB0E01050E856F030E896F5F
:100F600092CE8AF093CE8BF094CE8CF095CE8DF00D
:100F700096CE8EF097CE8FF098CE90F099CE91F0DD
:100F8000B3C09BFEB2C09AFE7FDB0001896B898DE6
:100F90006CD60001A5510E01925D37E10001A6510A
:100FA0000E01935D32E10001A7510E01945D2DE128
:100FB0000001A8510E01955D28E10001A9510E0123
:100FC000965D23E10001AA510E01975D1EE100012B
:100FD000AB510E01985D19E10001AC510E01995D14
:100FE00014E1020E825D02E10001898F59DB030EDC
:100FF000EF6EA4DB0E01010E856F030E896FB2C088
:101000009AFEB3C09BFE40DB30D6E80E826F1B0E0B
:1010100023D146DB080EEF6E40D9B2C0EFFF3DD9B9
:10102000B3C0EFFF3AD9B4C0EFFF37D9B5C0EFFF77
:1010300034D9E6CEEFFF31D992CEEFFF2ED993CE41
:10104000EFFF0E01830502E1090E01D0010E856F4D
:10105000280EDB6A080EF36E280E6EDA08E2280E00
:1010600074DAE66E94DA2ADA280EDB2AF3D70E0158
:10107000030E896F9A699B6907DB0001896B898D73
:10108000280EDB6A080EF36E280E56DA01E3EDD562
:101090007EDAEF50E66E280E06DB280EDB2AF2D74A
:1010A0000E0182050EE10001B269B369B469B56948
:1010B0000E010B0EE66F00019C91040EB06F030E43
:1010C000B16F0001B691F7DA0001B76B896BB66BAF
:1010D00043EC00F0290EDB6ADB50B3D90CE2290E99
:1010E000D8D8EE50ED1004E0290E21DB290E22DBCA
:1010F000290EDB2AF1D70E01826B250EADD000013F
:10110000B7A504D00E01E80E826F43D00E018951BD
:101110000E08F8E30001CF6BD06BCE6B88CEC0F029
:101120008ACEB8F08BCEB9F08CCEBAF08DCEBBF0B3
:101130008ACEBCF08BCEBDF08CCEBEF08DCEBFF093
:10114000B86BF80EB917070EBB170E01E66989CE0A
:10115000C9F00001CA6BCB6BCC6BCD6B0E01885113
:10116000030A22E0020A17E0030A15E0020A23E15B
:10117000DDD81B0E3BDAF3CFCFF0F4CFD0F0F3CFB6
:10118000D1F0F4CFD2F0F350F41015E10E01826BE0
:10119000836B290E61D0CAD92A0E32DA0109E76EB3
:1011A0002A0E19D9C3D807D000011E0EC16FB40E84
:1011B000C26FC36BC46B0001B79DB7854CD00001F3
:1011C000B41D06E1B51D04E10E013C0E826F0FD087
:1011D0000E0182A108D086CEB2F087CEB3F045D8FA
:1011E00088CEE6FE66D80001B6810E01826B2E0E17
:1011F00033D00E01A9A105D00E01E80E826F320E88
:101200002BD0A9814DDA040EEF6E0E01830502E1A9
:10121000090E01D0010E856F020E895DB3C087FEF5
:10122000B2C086FE0E01A9B704D00E01030E39D854
:1012300005D00001896B89890E01C6D9AFC083F042
:10124000A6D80001AF51AF2B0E019C6F030E846F27
:101250000E01EB890AD5000E146E2B0EE15C02E242
:10126000E16AE552E16E1450BDD1B2C0E6FF010E55
:10127000E3D9B3C0E6FF020EAED1B4C0E6FF030E61
:10128000DBD9B5C0E6FF040EA6D1A751A7072BEF07
:101290000BF0EA6ADB3467EF0BF0A651A62B2BEFBD
:1012A0000BF0886F56DA8A0EE66E0E0EE66E79EF58
:1012B0000BF00B0E0E01E65D100DF3500209E66E09
:1012C000E66A020EE66EFDD9040EE66E360EB4D95D
:1012D000E66A360E1CEF0BF0110EDBCFE9FF120EA3
:1012E000DBCFEAFF12008451EE5C146E8551EE589C
:1012F000156E8651EE58166E8751EE58176ED880CF
:101300001200B3C087FEB2C086FEAFC083F00001FA
:10131000AF51AF2B0E019C6F1200EECFE6FFEFCF67
:10132000E6FFA4EC38F0E552E55212000001C95185
:10133000040DF3CFF6FFF4CFF7FF640EF6267A0E16
:10134000F7220900F5CFC1F00900F5CFC2F009007E
:10135000F5CFC3F00800F5CFC4F012000E01A9913B
:101360005BEF0BF0A7512BEF0BF0E926000EEA2202
:101370001200D950010F75EF0BF026EC00F00E01B2
:101380009A6F26EC00F00E019B6F26EF00F0CFEC79
:101390003CF004C084F005C085F006C086F007C0AC
:1013A00087F01200146E156A7F0ED8801456000E56
:1013B000155612008ACEA5F08BCEA6F08CCEA7F0E3
:1013C0008DCEA8F08ECEA9F08FCEAAF090CEABF045
:1013D00091CEACF01200E7CFDBFFDBCFE6FFE66A91
:1013E00049EC2FF0E552E5521200EE50EFCFEAFF44
:1013F000E96E1200CFEC3CF0030E04C0DBFF040EDC
:1014000005C0DBFF050E06C0DBFF060E07C0DBFFD5
:101410001200DB28E96EEA6AD890E936EA36920EC5
:10142000E926000EEA22EECF14F0EFCF15F01200FD
:10143000E66E020EE66E9FEC2FF0E552E552E76E87
:101440001200146E156A050E145C000E1558120079
:10145000D950030F75EF0BF0CFC084FED0C085FECE
:10146000CFC086FED0C087FEC0C088FECEC083FE3F
:101470001200050EE76E150EDBCF14F0160EDBCF53
:1014800015F0E7501426000E152212001554000E18
:101490001654000E175412000001D890BB33BA3313
:1014A000B933B833CA51CB11CC11CD111200150E7E
:1014B000DBCFE9FF160EDBCFEAFF1200E552E75063
:1014C000EF6E1200EF50E66E220EDBCF14F0DB2A37
:1014D000230EDBCF15F0120014C0E6FF15C0E6FFA7
:1014E00061EF0BF0BCC08AFEBDC08BFEBEC08CFE9F
:1014F000BFC08DFE1200CA51BC1BCB51BD1BCC51CD
:10150000BE1BCD51BF1B120026EC00F00E01866FF2
:1015100026EC00F00E01876F120026EC00F00E01A1
:101520008A6F26EC00F00E018B6F1200E66A74ECF5
:101530002FF0E552E76E1200DBCFF4FFF350F45CBE
:101540001200E66E3E0E1CEF0BF0DB50EA6A8A0FCB
:10155000E96E0E0EEA22EF501200D950190FC5D8CD
:10156000EF50010B1200150EDBCFE9FFDB2A160E40
:10157000DBCFEAFF1200DB50146E156A040E145C18
:10158000000E15581200E66EE66A61EF0BF0280EA9
:10159000DB50EA6A920FE96E0E0EEA2212000E018B
:1015A000926F26EC00F00E01936F1200110EEECF39
:1015B000DBFF120EEDCFDBFF1200180EDBCFF3FFC7
:1015C000DB06F35000091200020E886FB4C08AFED9
:1015D000B5C08BFE12001CEF0BF0D9CFE6FFE1CFB8
:1015E000D9FF1200E552E7CFD9FF1200E66E11ECE9
:1015F00038F0E552120026EC00F00E01826F120066
:10160000E7CFDBFFDB501200070E0E01A75FA1D86A
:10161000A751186A000F176E0E0E182217C0E6FFAA
:1016200018C0E6FFF0EC3AF0196E070EE15E1950B3
:101630000E01A707BFEF0BF0E66E49EC2FF0E55265
:10164000E5521200EF689BD8EF68B7EF0BF09DD81A
:10165000040EB5EF09F0EA6A000FE96E0E0EEA22F9
:101660001200170E92D8070EB5EF09F035DE130EF3
:10167000B5EF09F00ADE8BCEEFFF07DE8ACEEFFF73
:101680000E019A51861912000CDE3BDE030E846FA8
:101690001200DEDE28DE000E1454B40E46EF0AF00F
:1016A0000E014DEF09F0DB50EA6A8A0FE96E000E79
:1016B000EA225EEF0AF00E017F0EA76F0E01A66B05
:1016C000120001EC2FF0E552E552E5521200FE0B3C
:1016D000EA36E96E920EE926000EEA22120003DED7
:1016E000260E1454070E46EF0AF0E96EDACFEAFF31
:1016F0001200F0EC3AF0176E070EE15E1750120080
:10170000146EEADD1450010BF36E1200E76ECFDEAB
:10171000E750B5EF09F0BDDD14C0EEFF15C0EDFFD9
:10172000120093CEEFFFB1DD92CEEFFF1200B1DDDC
:101730008DEF09F0AEDDEE6AED6A1200AEDD82CE0D
:10174000EFFF120026EC00F0E76E120012DEEF5001
:101750001200080EE66EE66A2A0E146E000E156E72
:10176000166A14C0E6FFE66E16C0E6FF120000011E
:10177000AF51AF2BE66E0CD8A1DE45EF09F085DD49
:10178000EF6883DDEF6845EF09F083DDF5EF09F0E1
:061790000E0145EF09F017
:0A1796000F0E0E01AB1501E1000C6F
:1017A000010C17EC13F0030EE1260E01AB6BDF6AA0
:1017B000040EDF5C06E2EA6ADF3431EC13F0DF2A64
:1017C000F7D7DF6A040EDF5C06E2EA6ADF34F8EC82
:1017D00012F0DF2AF7D7020EE66EE66AF80E146EF4
:1017E000760EA3EC13F01EEC14F0E66E0FEC14F082
:1017F000D950010F32EC14F07B0EEE1802E14E0EC0
:10180000ED1822E07B0EF36E010EF3CFDBFF4E0EE0
:10181000F36E020EF3CFDBFFE66E1EEC14F0E66E05
:10182000F80EE66E760EE66E5FEC36F0146E050E80
:10183000E15E14500F0120692169DF6A060EDF5C4A
:1018400003E216EC14F0FAD70E01AA6B0F016491B3
:10185000030EE15C02E2E16AE552E16E1CEF13F077
:1018600017EC13F0260EE126FE0EDB5001E039D214
:101870000F0164A160D0CFEC3CF0040E04C0DBFF8C
:10188000050E05C0DBFF060E06C0DBFF070E07C016
:10189000DBFFD950040F32EC14F00E01D951EE5C8D
:1018A000186EDA51EE58196EDB51EE581A6EDC5193
:1018B000FCEC12F0800E0A6E2C0E0B6E800E0C6E7D
:1018C000470E0D6E99EC39F0010A16E10F01649193
:1018D0000E01EB9B080EE66EE66A2A0E146E000EF1
:1018E000A3EC13F0C8EC13F00FEC14F00E01010E92
:1018F000826F470EBCEF11F0D950040F32EC14F098
:101900000E01DD51EE5C146EDE51EE58156EDF51A6
:10191000EE58166EE05160EC13F00DE2040EDBCFD2
:10192000DDFE050EDBCFDEFE060EDBCFDFFE070E93
:10193000DBCFE0FE61D10E01ABA524D00E01A9B131
:1019400021D00E01AB950E01A99DB4CE82FEB6CE7C
:1019500084FEB7CE85FEB8CE86FEB9CE87FEBACE5F
:1019600088FEBBCE89FEBCCE8AFEBDCE8BFEBECE2F
:101970009AFEBFCE9BFEC0CE9CFE0E019B5101E0A5
:10198000A4D2A1D20E01ABA74DD10E01A951010BDA
:1019900001E038D1A951800B01E134D1DF6A040E96
:1019A000DF5C01E32FD1EA6ADF3435EC13F001E1AB
:1019B00027D158EC14F0080B01E1E2D0DBEC13F076
:1019C0000E0EC5EC12F0080EEFCFDBFF58EC14F052
:1019D000070B000943E1DBEC13F00F0EC5EC12F02E
:1019E000EFCF82FEF7EC13F00D0EC5EC12F0EFCF47
:1019F00089FEF7EC13F0040EC5EC12F020EC13F0A6
:101A0000F7EC13F00E0EC5EC12F0EFCF9AFEF7ECE8
:101A100013F00F0EC5EC12F0EFCF9BFE68EC14F044
:101A2000EE50ED1008E068EC14F0DEEC12F068EC1B
:101A300014F0EE6AED6AEA6ADF34E7EC13F0DEECEC
:101A400012F0EA6ADF34F8EC12F06CEC13F0DFEC21
:101A500013F0DEEC12F06CEC13F09FD1DBEC13F022
:101A600036EC14F0EFCF8AFE58EC14F0F00BE8429D
:101A7000E842E842E8420E018B6FDBEC13F00B0EFC
:101A8000C5EC12F0EFCF82FEDBEC13F0060EC5ECD6
:101A900012F0EECF92FEEDCF93FECDEC13F0F7EC0B
:101AA00013F036EC14F09CCEEFFF70EC13F0F7EC73
:101AB00013F048EC13F05CEC14F0DF0BFAEC13F0CD
:101AC0005CEC14F088EC13F005E0F7EC13F00F0E6B
:101AD000EFEC13F0DBEC13F00D0EEFEC13F0DBEC9E
:101AE00013F0040EEFEC13F0DBEC13F0040EC5EC76
:101AF00012F0EE52EF50E66E73EC14F0F7EC13F0C8
:101B00000E0EEFEC13F0010EDB6A0E018251B3EC06
:101B100013F014E2010EDB50146E156A68EC14F039
:101B20001450EE24E76E1550EE20EA6EE7CFE9FF81
:101B3000EF50FAEC13F0010EDB2AE7D75CEC14F05F
:101B4000200B01E0010E836F58EC14F0070BE80640
:101B5000E850070BF36EF46EF80EEF14F310EF6E0F
:101B6000DBEC13F0F4EC13F0EF96CFEC3CF03CEC34
:101B700014F0DBEC13F048EC13F00E01AB8389D1C9
:101B80005CEC14F0400B3CE0CFEC3CF0090E04C0E0
:101B9000DBFF0A0E05C0DBFF0B0E06C0DBFF0C0EE1
:101BA00007C0DBFFDBEC13F0EECF18F0EECF19F03F
:101BB000EECF1AF0EFCF1BF0D950090F32EC14F032
:101BC00000011850EE5C146E1950EE58156E1A5044
:101BD000EE58166E1B5060EC13F012E2DBEC13F0C3
:101BE000090EDBCFEEFF0A0EDBCFEEFF0B0EDBCFD5
:101BF000EEFF0C0EDBCFEEFF0E01826B490EBCD365
:101C0000DF2ACDD6DF6A040EDF5C07E2EA6ADF3442
:101C100035EC13F002E1DF2AF6D7040EDF5C02E1B7
:101C20000E01AB970E01ABA3A6D3CFEC3CF00D0E8B
:101C300004C0DBFF0E0E05C0DBFF0F0E06C0DBFF8E
:101C4000100E07C0DBFFDF6A040EDF5C3AE2F4EC43
:101C500012F035E088EC14F0EF5031E0D7EC13F0DF
:101C6000EECF1CF0EECF1DF0EECF1EF0EFCF1FF049
:101C7000D9500D0F32EC14F000011C50EE5C186EC0
:101C80001D50EE58196E1E50EE581A6E1F50FCEC87
:101C900012F00A6A7C0E0B6E120E0C6E480E0D6E60
:101CA00099EC39F0010A0BE152EC14F0BAEC13F0A4
:101CB000EA6ADB34B1EC12F0F4EC13F0EF86DF2AC1
:101CC000C3D7DF6A040EDF5C05E2F4EC12F002E138
:101CD000DF2AF8D7040EDF5C01E04DD30E01AB9391
:101CE0004AD3FE0EDB50680A01E114D33D0A01E13C
:101CF0000CD3070A01E104D31D0A01E101D27A0ADB
:101D000051E0010A01E037D3DF6A040EDF5C01E332
:101D100032D3F4EC12F044E088EC14F0EF500E01F2
:101D20009C5D3EE152EC14F0EF50100B02E082514A
:101D300037E052EC14F0BAEC13F082510BE06BEC8C
:101D400014F0EF86D2EC13F00F0EC5EC12F082CE39
:101D5000EFFF26D078EC14F0EFCF89FE4EEC14F0B4
:101D600020EC13F060EC14F0EFCF9AFE64EC14F06A
:101D7000EFCF9BFE85EC14F0EE50ED1008E085EC03
:101D800014F0DEEC12F085EC14F0EE6AED6A7CECF7
:101D900014F02CEC14F06EEC14F031EC13F01DD2B6
:101DA000DF2AB3D72BDBE76E110EE7CFDBFF39EC71
:101DB00014F0000904E039EC14F002081BE129ECEE
:101DC00014F003E1E6DB100B03E118DB0E01BF6F3B
:101DD00015DB0E01C06F12DB0E01B86F0FDB0E01B9
:101DE000B96F29EC14F003E1D4DB100B03E006DB40
:101DF0000E01BE6F39EC14F0000969E129EC14F012
:101E000003E10E01BA6B03D00E01010EBA6FC1DB04
:101E1000400B42E0AB8582CEB4FE84CEB6FE85CECA
:101E2000B7FE24EC14F0020802E0000E01D0010E0F
:101E3000BB6F8ACEBCFE8BCEBDFE8ACE92FE8BCE11
:101E400093FE0E010A0E8A6F010E8B6F826BCDEC32
:101E500013F0110EDB9CDB90DB82DB9A010E836FAB
:101E600029EC14F005E1110EDB8843EC14F005D0E9
:101E700043EC14F082DBBECEEFFF7FDBC0CEEFFF82
:101E80007CDBB8CEEFFF79DBB9CEEFFF76DBBFCEE0
:101E9000EFFF0E01A9816DD2BACE88FE24EC14F0BA
:101EA000020802E0000E01D0010E0E01896FBFCEC4
:101EB0009BFEC0CE9CFEB8CE86FEB9CE87FEBECEBF
:101EC0009AFE9B5102E15A0E57D2510E55D239EC6F
:101ED00014F0020851E1DF6A040EDF5C01E30DD16A
:101EE00083DB48E078EC14F0EF5002080DE14EEC93
:101EF00014F091EC13F090DA8DEC13F03BE120CF6D
:101F0000BCFE21CFBDFE06D04EEC14F0EECFBCFEE1
:101F1000EDCFBDFE0E018A510E01BC192BE10E0161
:101F20008B510E01BD1926E124EC14F000090FE1DC
:101F300039EC14F0010819E060EC14F0EF50BF5DCB
:101F400019E164EC14F0EF50BE5D0FE013D021DB1B
:101F5000100B06E160EC14F0EF50BF5D06E00AD014
:101F600064EC14F0EF50BE5D05E131EC00F00E01C1
:101F7000826BDFD6DF2AB0D739EC14F0010801E01C
:101F8000BCD03CDAE76E120EE7CFDBFFDB50090A6C
:101F900001E195D00C0A01E0B0D030DAE76E130E03
:101FA000E7CFDBFFDF6A100EDF5C0DE227DAE66EBB
:101FB000DF50EA6AC90FE96E0E0EEA22E552E750D9
:101FC000EF6EDF2AF0D7130EDB50010A01E095D047
:101FD00015DAE76E250EE7CFDBFFDF6A080EDF5C60
:101FE00006E20CDAE66ED950140F43DBF7D7DF6A4E
:101FF000080EDF5C06E202DAE66ED9501C0F39DB10
:10200000F7D7D950140FE66E000EDA20E66EF1EC29
:1020100019F083DB27E0130EDBCF82FE0E01C90E21
:10202000836F0E0E846F1C0EDBCF8AFE1D0EDBCF7E
:102030008BFE1E0EDBCF8CFE1F0EDBCF8DFE200E27
:10204000DBCF8EFE210EDBCF8FFE220EDBCF90FE8C
:10205000230EDBCF91FE250EDBCF9AFE31EC00F094
:10206000630E8AD10E01010E826FC90E836F0E0EB0
:10207000846F140EDBCF92FE150EDBCF93FE160E8F
:10208000DBCF94FE170EDBCF95FE180EDBCF96FE4E
:10209000190EDBCF97FE1A0EDBCF98FE1B0EDBCF9F
:1020A00099FE130EDB50010A04E1A26B250EDBCF73
:1020B000A3FE31EC00F00E01916B620E5DD18A0E31
:1020C000E66E0E0EE66E0CDA28DB17E018CF8AFEFD
:1020D00019CF8BFE1ACF8CFE1BCF8DFE1CCF8EFE30
:1020E0001DCF8FFE1ECF90FE1FCF91FE87D90E0110
:1020F000826F31EC00F06B0E3FD131EC00F030D14B
:10210000020E0E01895D07E143DB16DA06DB03E10F
:102110000E01040E60D0DF6A040EDF5C04E264DAB4
:1021200002E0DF2AF9D7040EDF5C53E0110EE66E01
:10213000BFDAF1DBE6DA4DE0010EDB6A040E13DBF9
:1021400008E2010EEA6ADB3490DA03E0010EDB2AD2
:10215000F5D7010EDB5004083AE0110EE66EA8DA5E
:10216000CBDBCFDA34E0D4DBEF6AC2DB89CEEFFF22
:10217000A7DB9ACEEFFFA8DB9BCEEFFF8FDB92CEE3
:10218000EEFF93CEEEFF94CEEEFF95CEEEFF96CE11
:10219000EEFF97CEEEFF98CEEEFF99CEEEFF010E4A
:1021A000DB50146E7FDB14500F0BF36EF00EEF1448
:1021B000F310EF6E77DBEF9893DAF9DA69DAA6CEEF
:1021C000E6FF76DAA2DB9DDA0AE196DB45DB86DB09
:1021D00048DA0E01F10E826FBEDA500ECDD0E2DA8F
:1021E000040ED3D986CEEEFF87CEEDFFDBDA3EDBE1
:1021F0008ACEEFFFD7DA0D0EC8D99CCEEFFFD2DA28
:102200000E0EC3D9DFCFEFFF0E018B51146E63DBCF
:1022100014500F0BF36EF346F346F346F3460F0EDE
:10222000EF14F310EF6E6DDB92CEEEFF93CEEDFF69
:1022300052DBEF86B7DA0B0EA8D9A6CEEFFF35DB5F
:10224000EF6A33DB8C51010B02E0EF8A01D0EF9A89
:102250008CA509D027DBEF8828DBEF8C3CDBF80E60
:10226000EF14040904D037DBF80EEF140109EF6E08
:10227000020E895D06E145DB20CFEEFF21CFEDFFA9
:1022800019D089050AE1921D15E1931D13E10DDBBB
:10229000F30EEF140809EF6E0DD033DBEE6AED6A32
:1022A00004DBF30EEF140409EF6EFFDAEF88F6DAC1
:1022B000EE6AED6A0DDB020EEECFDBFF030EEDCF13
:1022C000DBFFDF6A0E01A651A607000916E0DF500A
:1022D000DF2AEA6A000FE96E0E0EEA22EF50E66E80
:1022E000020EDBCFE9FFDB2A030EDBCFEAFF01E3BF
:1022F000DB2AE552E750EF6EE5D70E01AB872FD012
:102300000E01840E826F560E37D00E01840E826F3E
:10231000590E32D00E01A62B30D9080EEF6E2DD9F2
:1023200082CEEFFF0E0182050EE0DF6A080EDF5C51
:102330000AE2DF50EA6A9A0FE96E0E0EEA22EF50C7
:1023400059DADF2AF3D70F016451020B020A01E0C8
:10235000010EE66E1DDA19D8E552DFD903E1FBD98B
:10236000000E0AD00F016451020B01E0010E0E01B4
:10237000836F330E01D0000E146E260EE15C02E274
:10238000E16AE552E16E145057D151D9E6520E017F
:10239000A9B105D0A98144D9CFD8BFD902E1000E97
:1023A00016D020CF92FE21CF93FEF7D90A0E8A6F66
:1023B0008B6B010EDF6EDF94DF96DF8CFC0EDB5043
:1023C00002E0DF8A01D0DF9ADFCF00FE010EE55286
:1023D00033D12DD9E6520A0EE66EE66AE66859DA7E
:1023E00013EC3BF0146E050EE15E1450DF6A060E2E
:1023F000DF5C02E21BDAFBD7E5521ED10E018251EF
:1024000001E1000C820784CEE9FF85CEEAFF842B30
:10241000000E8523EF5012000AD9E652DF6A060E3D
:10242000DF5C15E2BBD801E1211D0FE0080EE66E6E
:10243000E66A2FDAF5D87DEC3AF0146E060EE15E0E
:102440001450000902E1010E03D0DF2AE8D7000E84
:10245000E552F2D0ECD80B0EE12623D9010ED92695
:1024600045D944D90B0ED95E1CD9C8D95AD91CD824
:1024700054D90CE1DF6A060EDF5C0CE28FD808E16C
:10248000211D06E10A0EE66ED9D9A1D8010E03D0AE
:10249000DF2AF1D7000E146E0B0EE15C02E2E16A56
:1024A000E552E16E1450C8D0C2D8E652DF6A060E7B
:1024B000DF5C13E273D801E1211D0DE0F2D8EECF0D
:1024C00014F0EFCF15F01450201905E11550211923
:1024D00002E1010E03D0DF2AEAD7000EE552ACD0AC
:1024E000A6D89ED8E1DF19D923E1050E146EE66E59
:1024F000D8D8EECFE6FFEFCFE6FFD6EC19F041D902
:1025000019E00F0117D9010803E014D9000912E1FD
:1025100000CF18FF01CF19FF02CF1AFF03CF1BFF17
:1025200004CF1CFF05CF1DFF06CF1EFF07CF1FFFE7
:10253000010E01D0000E80D07AD872D86DDFEDD8B0
:102540000CE1050E146EE66E6BD8BEEC19F019D9CD
:1025500006E008CF20FF09CF21FF010E01D0000EB9
:102560006BD035D9EE50EFCFEAFFE96E120027D9D4
:10257000EE50EFCFEAFFE96E1200A651A62BEA6AF1
:10258000000FE96E0E0EEA221200E926000EEA2282
:102590001200D950110F66D9EF5012000A0EE66EE4
:1025A000E66A32D9166A14C0E6FF15C0E6FF16C007
:1025B000E6FF6FD934D90F01201D1200EECFE6FFE0
:1025C000EFCFE6FFA4EC38F0E552E5521200E66EDC
:1025D0001BD914C0E6FF15C0E6FF5FEC36F0166E9F
:1025E000050EE15E1650120096D9EE50ED10120065
:1025F000EED8EE6AED6A1200EE581B6E18C004F0B9
:1026000019C005F01AC006F0076E7EEC39F005C05F
:1026100014F006C015F007C016F008C017F012003D
:10262000FD0EDBCFE6FFFE0EDBCFE6FF1200D9CFBB
:10263000E6FFE1CFD9FF1200E552E7CFD9FF120044
:10264000EECF92FEEECF93FEEECF94FEEECF95FE50
:10265000EECF96FEEECF97FEEECF98FEEFCF99FE2F
:102660001200ADD8EE6AED6A1200B1D8EE50ED104E
:102670001200146EDACF15F0DF500F011424E96E4A
:10268000000EDA20EA6EE552E750EF6EDF2A120004
:1026900004C0EEFF15C0EEFF16C0EEFF17C0EEFF40
:1026A0001200FD0EDBCFE9FFFE0EDBCFEAFF1200CA
:1026B00011EC38F0E552F3CF14F0F4CF15F012001E
:1026C000EE58176ED8806C0E1454DC0E1554020EA2
:1026D0001654000E17541200080EEA6ADB3412007A
:1026E000CFEC3CF004C014F03CEF14F0EECFDEFF72
:1026F000EECFDEFFEECFDEFFEECFDEFFEECFDEFF72
:102700001200F3CFEEFF15C0EDFF145015101200AC
:102710000C0BE842E84201081200E552E5520009BC
:102720001200E9CF14F0EACF15F0E9CFE6FFEACFC7
:10273000E6FF12001051C00BE842E842E842E842CE
:10274000E842E8421200156E166A14C0E6FFE66E13
:1027500016C0E6FF12000E01A9910E017F0EA76FB1
:102760000E01A66B1200F36E010EDBCFF4FFF350E7
:10277000F45C1200EF500F0BE76E010EE7CFDBFFAA
:102780001200E552E552E552E7CF14F0145C120056
:10279000920EE66E0E0EE66E120093EC19F00E012C
:1027A0009C6F1200010EEA6ADB34B1EF12F0EA6AA4
:1027B000DF34B7EF12F0EA6ADF34B1EF12F0FE0B4C
:1027C000EA36E96EC10EE9260E0EEA221200FE0B71
:1027D000EA36E96EAC0EE9260E0EEA221200D5DECC
:1027E000EF50E66E73EF14F0100EC5EF12F074DFC9
:1027F000B7EF12F0E66E0E0173EF14F0080EC5EF9E
:1028000012F00A0EC5EF12F0DF500A0DF3CF14F0EC
:10281000F4CF15F0FA0E1426760E15221200F0EC05
:102820003AF0176E070EE15E175012000A0EE66EC0
:10283000180EE66E0F0ECBDEDF2A1200D950010F04
:10284000E66E000EDA201200A4DE0C0BE842E8422D
:1028500012009FDE88EF13F0B1DE010EEA6ADB346E
:10286000F8EF12F0E96EDACFEAFF12000C0EC5EFB6
:1028700012F08FDE030B120005C015F006C016F033
:1028800007C017F012000E0178DE110EDBCFEFFF4C
:102890001200180EE66E0F0EE66E120088DF040EB0
:1028A000C5EF12F084DFF4EF13F07CDF01EF14F0DA
:1028B00082DF9ADFEF5012007EDFA3DFEF501200BD
:1028C00076DF0E0EC5EF12F072DF0F0EC5EF12F0BD
:1028D00072DFFEEF13F066DFF4EF13F01CD86EDE4C
:1028E000EA6ADF34120049DEE552E750EF6E12006B
:1028F0005EDF0D0EC5EF12F0010EEA6ADB34E7EF82
:1029000013F050DF060EC5EF12F04CDFFEEF13F0B0
:0E2910004EDF36EF14F0EA6ADF34DFEF13F02B
:02291E000001B6
:10292000E6513F0B01E1000C010C94EC1BF0E65268
:10293000010EE66E6DEC1AF0E552040EE66EE66AE4
:102940009A0E146E760E79EC1BF0120EE66E0F0ED8
:102950002EEC1CF03C0E0F01121902E1A50E13190A
:1029600003E09AEC19F005D0050E155D02E00E01AA
:10297000A98BE55299EF1BF094EC1BF0190EE126A0
:10298000FE0EDB5001E07ED00E01A9B139EF19F047
:102990000001E6A739EF19F0E6BD40EF19F0E6BBFC
:1029A00039EF19F0E6A92FD0E699E68BF2C082FE46
:1029B000DF6A080EDF5C12E2DF50EA6AA50FE96EFB
:1029C000000EEA22EF50E66EDF50EA6A920FE96EDF
:1029D0000E0EEA221EEC1CF0DF2AEBD730EC1CF0C6
:1029E000050F9DEC1BF0050EDB0404E0050EDB502B
:1029F000020804E10E01010E836F02D00E01836B09
:102A0000190E5FEF19F0E68993EC19F04DEC1CF00C
:102A100060EC1BF0010EEF6E45EC1CF0AEC0EFFF5A
:102A200060EC1BF0ADC0EFFF30EC1CF0060F9DEC2E
:102A30001BF0060EDB0404E0060EDB50020806E184
:102A40000E0160EC1BF0020EEF6E04D00E0160EC84
:102A50001BF0EF6A60EC1BF0050EEF6E0E01E8EC68
:102A60001BF0040EEF6E800EDF6EE8EC1BF0DFCF84
:102A7000EFFF5EEC1CF0ADC0E6FFAEC0E6FFFBEC86
:102A80001BF031D3FE0EDB50490A02E145EF19F08D
:102A9000010A01E1F5D30F0A01E1D9D3010A01E1ED
:102AA000D1D3030A01E164D3010A01E15CD3070A2F
:102AB00001E154D3010A01E14CD3030A01E115D32A
:102AC000720A01E1C1D2010A01E1AED21C0A01E1A0
:102AD000D0D3040A01E1F2D3030A01E1AED10C0A1A
:102AE00001E1A6D1390A01E12ED1070A01E108D19D
:102AF000030A01E1ABD00A0A29E0030A01E0DED3B0
:102B0000DF6A080EDF5C08E26FEC1BF0EF500E018D
:102B10009C5D02E0DF2AF5D7080EDF5C01E1A9D356
:102B20006AEC1CF0EF500AE06AEC1CF0EFCF9CFE60
:102B3000340EF36E070EF3CFDBFF02D0070EDB6A15
:102B40006AEC1CF0EF6A070EDB50B9D3100E84CE8E
:102B5000DBFF110E85CEDBFFB3EC19F0E76E080E3C
:102B60008FEC1BF0090E8FEC1BF00A0E8FEC1BF0A4
:102B70000B0E8FEC1BF00C0E8FEC1BF00D0E8FEC80
:102B80001BF00E0E8FEC1BF00F0EE7CFDBFF090ED4
:102B9000DBA21ED0000EE66EE66A010EE66E080E9F
:102BA000E66E100EDBCFE6FF110EDBCFE6FF820EE6
:102BB000E66E0E0EE66E84CEE6FF85CEE6FFBAEC3C
:102BC00020F0146E0A0EE15E1450000901E12DD1CF
:102BD000D950080FE96EDACFEAFFEF50030B010876
:102BE00013E1C1DBDF6E040EDF5C01E01ED1BBDB55
:102BF000DF6E31EC00F0DFAC3CD30001E687000172
:102C00009C910001010E34D30A0EDBCF14F00B0EA1
:102C1000DBCF15F00001B451141802E1B5511518BD
:102C20000DE0D9500A0FE96EDACFEAFFFF0EEE1879
:102C300001E0FBD0FF0EED1801E0F7D00C0EDBCF6A
:102C40008AFE0D0EDBCF8BFE350E39D30E01A9990E
:102C50000E01825115E00E01A9970001B269B36916
:102C600035EC09F00E01A99B0F01155122EC1CF067
:102C70000F0111970F01050E156F54EC1BF085D253
:102C800088CEB4F089CEB5F00E01A9873DEC09F0ED
:102C90000F01155122EC1CF00F01109D109F080E22
:102CA000E66EE66AA50EE66E000EE66E000EE66EB5
:102CB0000F0EEBEC1BF054EC1BF008CFADF009CF7E
:102CC000AEF00E01A98B63EC1BF00F016481CFEC19
:102CD0003CF004C0D9FE05C0DAFE06C0DBFE07C02A
:102CE000DCFE0E01EB8B04C0DDFE05C0DEFE06C07F
:102CF000DFFE07C0E0FE0E01A99D08EC1CF09CD28F
:102D00000001E69BE68DADC0E6FFAEC0E6FF0DEC30
:102D10001CF0DF6E050EDF5C01E0D1DB080E63EC1A
:102D20001CF0920EE66E0E0E2EEC1CF0020E000150
:102D3000F25D07E10E01825102E1826B9FD2CB0E60
:102D40009CD24D0EBCD2020E0E01885D6EE111ECDC
:102D50001CF0EF506AE18ACEE6FF8BCEE6FF0DEC69
:102D60001CF0050818E1B4DA05085FE00F011183D3
:102D7000108D108FDF6A080EDF5C09E2DF50EA6A0F
:102D8000000FE96E0F0EEA22EF6ADF2AF4D70F0177
:102D9000142B63EC1BF00E019BAD03D00F011099B7
:102DA00002D00F011089109B1181020EA2EC1BF0C2
:102DB000780BE840E840E8401F0B0F010F0BF36E63
:102DC000F00E6DEC1CF00F0B0F01C9EC1BF06DEC5D
:102DD0001CF0F00BE8380F0B0F010F0BF36EF00E29
:102DE0001015F310106F9DCE0EFF0E019B510F01B9
:102DF0001195800B01E01185020EA2EC1BF0800BF7
:102E0000800802E0000E01D0010E0F011197E8B01A
:102E1000118786CE0AFF87CE0BFF8ACE08FF8BCEA6
:102E200009FF89CE0CFF54EC1BF031EC00F021D2ED
:102E3000E66A53DBE5523D0E42D20E01880501E001
:102E4000E9D0825101E0E2D0836B846B856B8651BF
:102E5000871101E1D9D0010E84CEDBFF020E85CEB1
:102E6000DBFFF3EC1BF01FE0010EDBCFE9FF020EEE
:102E7000DBCFEAFFEECF14F0EFCF15F040EC1CF003
:102E800052EC1CF0EECF16F0EFCF17F00001165009
:102E9000141802E11750151806E011EC1CF0060E8C
:102EA000D3EC1BF0DED7F3EC1BF001E097D040EC45
:102EB0001CF0EF50010B0CE0DBEC1BF0E9CF14F041
:102EC000EACF15F0E9CFE6FFEACFE6FF57DA07D001
:102ED000DBEC1BF0EECFE6FFEFCFE6FF67DAE55263
:102EE000E552DF6E050EDF5C01E178D0080EE66E7C
:102EF00011EC38F0E552130EF3CFDBFF140EF4CFD4
:102F0000DBFFF3CF14F0F4CF15F0F350F41066E0CC
:102F100040EC1CF0020E52EC1CF0EECF14F0EFCFA0
:102F200015F0EFDB14C0EEFF15C0EDFF40EC1CF018
:102F3000010EEB50E66EE5DB020E52EC1CF01EECCF
:102F40001CF00F010F5156EC1CF0EE52EE52EE52F7
:102F500014500F0BF36EF00EEF14F310EF6E1051D0
:102F60000F0B146ECEDBEE52EE52EE521450C9EC43
:102F70001BF0CEDBEF500F0B146EC3DB040E16EC10
:102F80001CF00F0BF36EF00EC3DBEF5056EC1CF091
:102F9000040E16EC1CF0C9EC1BF0BADBEE52EF503D
:102FA000800B01E0010E146EACDB050E16EC1CF07C
:102FB000010BF36EFE0EEF14F310EF6EA2DB060EA4
:102FC00052EC1CF084CEEEFF85CEEDFF130EDBCF6E
:102FD00084FE140EDBCF85FE0E01832B40EC1CF02B
:102FE000130EE1DB86CEE6FF87CEE6FFA4EC38F0D9
:102FF000E552E5520E01866B876B010EDBCF86FE34
:10300000020EDBCF87FE23D7835102E10E01A9997F
:10301000360E55D10E01A9990E01825103E135EC0E
:1030200009F032D6CA0EA9D00E01A99D0E01825117
:1030300001E142D10E01A98FEB0E0E01825D02E18A
:10304000826B3AD1C60E37D10E01A9B703D00E015B
:10305000C20E15D0030EADC0DBFF040EAEC0DBFF09
:10306000DF6A080EDF5C06E26AEC1CF0EF5002E05B
:10307000DF2AF7D7080EDF5C0CE10E01F10E826F3C
:103080000E01A9910E017F0EA76F0E01A66B340EE3
:1030900016D16AEC1CF09CCEEFFF0E0111DB9CCE2A
:1030A000EFFF0EDB8ACEEFFFF0DB93CEEFFF08DB06
:1030B00092CEEFFF0E018351E824EFDB0E018B511E
:1030C000400DF3500409E9DBD950170F8CEC1CF0CC
:1030D000030EDBCFE6FF040EDBCFE6FF8CDBFFDA6F
:1030E000170EDBCFEFFF100EEAD0050E0F01155DB6
:1030F0000CE01551A7DB0F01108D108FD5DA0F01F1
:10310000050E156FE0DA0E01A99BDF6A050EDF5C84
:1031100009E2DF5097DB0F0111A302D01197C4DA47
:10312000DF2AF4D70E01A9890001EA51EB1104E06E
:1031300046DB0001EA6BEB6B8ACEEDF08BCEEEF056
:103140008CCEEFF08DCEF0F089CEF1F00E01010EB5
:1031500076D00E01C20E826F370EB1D00E01C20EB4
:10316000826F380EACD00E01C20E826F390EA7D01E
:103170000E01A9A704D00E01C20E826F5DD0A989ED
:103180000E0182515BE1C30E826F0F01050E156FB8
:10319000180EDB68DF6A050EDF5C2BE2DF5052DBC6
:1031A0000F011151020B23E01151040B20E01151CA
:1031B000080B1DE00E019A510F010A1918E10E01CA
:1031C0009B510F010B1913E1300E0E5D10E3180E29
:1031D000DBCF14F00F510F0BD880145408E20F51BD
:1031E0000F0BE76E180EE7CFDBFFDFCF15FFDF2AEF
:1031F000D2D7050E0F01155D1DE0155123DB9ACEC8
:10320000B2F09BCEB3F035EC09F0010EE66EE66A43
:10321000260E146E7A0E6DDAC4DA0CCF88FE0E011B
:10322000020E896F08CF92FE09CF93FEDFCF82FE98
:10323000150E45D00E01A9993A0E41D0030E886FA4
:10324000280E3DD00E01C20E826F3B0E38D00E010B
:10325000A9A711D0920EE66E0E0EE66EC2D8E55208
:10326000E552000908E000019C910001E687020E8A
:10327000F26F000E24D00E01C20E826F3C0E1FD0E2
:103280000E01010E826F240E1AD00E0182510EE142
:10329000836B0E01A98DA99FBBDA0E01020E896F07
:1032A000ADC092FEAEC093FE310E09D00E01A99DB5
:1032B000A98F0E01C10E826F3E0E01D0000E146E5A
:1032C000190EE15C02E2E16AE552E16E145031D27E
:1032D0002BDA020EE1264EDADF6A010EDB6A050EFA
:1032E000DF5C12E2010EDB500FE1CBD90F0111B30D
:1032F00004D0DE52010EDD6E07D00F01120E16272C
:10330000000E1723DF2AEBD7010EDB5002E0DF505F
:1033100001D0050E146E020EE15C02E2E16AE55294
:10332000E16E145006D20001E42BE45101E1E42BDC
:10333000E4511200F9D9E6520E01A99B0F0179DA86
:10334000DF6A18DA050EDF5C03E2AED90CDAFAD7D1
:103350000F01146B050E156F3C0E126FA50E136F47
:10336000B2D9E552E6D10E01825101E1000C82078B
:1033700058DA842B000E8523EF501200B4DA050EC4
:10338000DF5C11E27ED90F0111A30BD0080EE66EAF
:10339000E66A000EE66E0F0EE66EF2D902E1DF502D
:1033A00003D0E1D9ECD7050EE552C3D19CDA050E66
:1033B000DF5C14E266D90F0111A30ED008CF14F020
:1033C00009CF15F0FD0EDB50141806E1FE0EDB50A0
:1033D000151802E1DF5003D0C6D9E9D7050EE55232
:1033E000A8D1A2D9080EE1266EDADBD9080EE66E66
:1033F000E66A64DAC5D902E1010E01D0000E146E4E
:10340000080EE15C02E2E16AE552E16E145091D1EE
:103410008BD9E652DF6AAED9050EDF5C11E231D9F5
:103420000F011151020B0AE095D9010807E092D96A
:10343000000904E0FED90F01140736D994D9ECD75E
:1034400042D9E55276D170D90E01A9810E01020E42
:10345000886FB2C086FEB3C087FEB4C08AFEB5C016
:103460008BFE896FD5D9FD0EDBCF92FEFE0EDBCF32
:1034700093FEFB0EDBCFE9FFFC0EDBCFEAFFAFC014
:10348000EFFFAFC09CFE856BD950FD0FE96EFF0EBC
:10349000DA20EA6EFF0EEE1802E1FF0EED180CE0E6
:1034A000858126DABAD9050805E00F0111B102D0ED
:1034B0000E0185850E018597010E846F3AD10F01AB
:1034C00049D9000903E10F01050E156F0F01B1D9AC
:1034D000EBD80F01140763EF1BF026D9120EE1267B
:1034E000D6CFE4F00E01A96B0001E66BE76B050E89
:1034F000E56F0F0164836485DF6A080EDF5C04E218
:10350000E9D9EF6ADF2AF9D7FE0EDB5005E10001A9
:10351000EA51EB1101E053D90001EA6BEB6BA0D942
:10352000010F0BD9010EDB0404E0010EDB50020891
:1035300026E1120EE66EE66A010EDB04120DF3CFF1
:1035400014F0F4CF15F0370E1426770E1522166AF4
:1035500014C0E6FF15C0E6FF16C0E6FF220EE66EB9
:103560000F0E7CD95A0E0F01335D63E0DE525A0E06
:10357000DD6E010EE66ED950010FCED955D0020E88
:10358000DB6A030EDB6A040EDB6A050EDB6A060EDD
:10359000DB6A070EDB6A080EDB6A090EDB6A890E3E
:1035A000F36E0A0EF3CFDBFF670EF36E0B0EF3CF55
:1035B000DBFF450EF36E0C0EF3CFDBFF230EF36E35
:1035C0000D0EF3CFDBFF010EF36E0E0EF3CFDBFF1C
:1035D000EF0EF36E0F0EF3CFDBFFCD0EF36E100E7A
:1035E000F3CFDBFFAB0EF36E110EF3CFDBFF100E4C
:1035F000E66EE66AD950020F8FD9220EE66E0F0EE4
:10360000EAD80F01326B5A0E336F120EE66E220E9D
:10361000E66E0F0EE66E370EE66E770EE66E29D971
:10362000010EDF6EE66E4AD9360EE66E770EE66E56
:1036300020D90F01346B356B366B376B386B396BB8
:103640003A6B3B6BDF6A050EDF5C14E2DAD83C0EA6
:10365000E9260F0EEA22EE6AEE6AEE6AEE6AD1D829
:10366000500EE9260F0EEA22EE6AEE6AEE6AEE6A64
:10367000DF2AE9D7120EE15C02E2E16AE552E16E6F
:1036800058D0120EE66EE66A16CF14F017CF15F07A
:10369000166A16CFE6FF17CFE6FF16C0E6FF000E4C
:1036A000E66E0F0E2EEF1CF0120EE66E000EE66EAA
:1036B0000F0EE66E16CFE6FF17CFE6FF39EF1CF0D0
:1036C000A751A7071CD1040EE66E120EE66E0F0E70
:1036D000E66E9A0EE66E760EE66E39EF1CF0EA6A3A
:1036E000DF34FE0BEA36E96ED40EE926000EEA223C
:1036F0001200156E166A14C0E6FFE66E16C0E6FFED
:103700001200130EDBCFE9FF140EDBCFEAFF12002D
:10371000EF14F310EF6EB4D80C0E52EF1CF0E7CF9D
:10372000DBFF21DEE76E1200D9CFE6FFE1CFD9FF44
:103730001200E552E7CFD9FF1200E66E000EDA2044
:103740002EEF1CF00E01EA6A8425E96E8551EA220B
:10375000EF5012001051C00BE842E842E842E84244
:10376000E842E8421200DF2A0F01120E1627000E6F
:10377000172312000F019E0E166F760E176F1200A0
:10378000B7D87DEC3AF0146E060EE15E14500009D5
:1037900012000F0BF36EF346F346F346F3460F0E9B
:1037A00012008CD8B2D07ED8010EEECFDBFF020E15
:1037B000EDCFDBFF120064D8040E52EF1CF0EAC01C
:1037C000E6FFEBC0E6FFA4EC38F0E552E55212004C
:1037D000A651A62B94D0E66EC5EC3AF0146E060EF8
:1037E000E15E14501200D950010FE96EDACFEAFF02
:1037F000EE50ED10120027DEE552E552E552E5529B
:103800001200DF50040DF3CFE9FFF4CFEAFF1200FE
:10381000B2C09AFEB3C09BFE1200C8DDE552E5526D
:10382000120084CEE9FF85CEEAFF12003BD8145087
:1038300012000E6B0F6B106B116B1200E552E7500C
:10384000EF6E1200120DF3CF16FFF4CF17FF9E0E8E
:103850000F011627760E172341EF1BF0E66E55D0A9
:10386000010EE66EE66A360E146E770E42DFD95010
:1038700012005FEC36F0146E050EE15E145012007B
:1038800086CEE9FF87CEEAFF12001ADFB5C0EFFF50
:1038900017DFB4C0EFFF60EF1BF0E66E0E0110DF24
:1038A0001EEF1CF0E926000EEA221200F00BE8429F
:1038B000E842E842E842146E81EF1BF0D9CFE6FF00
:1038C000DACFE6FF1200E66EE66A2A0E146E000EEC
:1038D00079EF1BF004DFEE5212000F15F3100F6F9B
:1038E000010EA2EF1BF020DFE65244DFDF6A120078
:1038F000FD0EDBCFE6FFFE0EDBCFE6FF1200EA6A2D
:10390000000FE96E0E0EEA221200F0EC3AF0176E8C
:10391000070EE15E17501200E66E000EDA20E66E2A
:02392000120093
:0E3922009AEC22F0030EE1264C0EDE6E020E31
:10393000DD6EDB6A080EA2EC22F00BE2FD0EDBCF9F
:10394000E9FFFE0EE9EC21F001E2DB063BEC22F0A0
:10395000F1D7020EDB6A040EA2EC22F00BE2FB0EA2
:10396000DBCFE9FFFC0EE9EC21F001E2DB063BECEA
:1039700022F0F1D7FA0EDB500001E511E66EDFCF41
:1039800014F0DF06010EDBCF15F001E2DB0614C0F8
:10399000E6FF15C0E6FF01EC2FF0E552E552E552D7
:1039A000030EE15C02E2E16AE552E16EE552E7CF27
:1039B000D9FF1200D9CFE6FFE1CFD9FF050EE126EE
:1039C000050EDF6E020EDB6A030EDB6A0E01EEBD32
:1039D00019D0020EDB2A030E01E3DB2AD950020FB5
:1039E000E96EDACFEAFFFF0ED880EE540F0EED54E9
:1039F00005E28B9443EC00F00E01EE8D81A0F28283
:103A00000000E4D7F30EDB50040812E2EF0EDBCF28
:103A1000E6FFF60EDB50E552E7240E0FE66E000ED1
:103A2000E66EE66A01EC2FF0E552E552E5520CD065
:103A3000F60EDB500E0FE66E000EE66EE66A01EC47
:103A40002FF0E552E552E552FE0EDB5012E1F60E84
:103A5000DBCFE6FFEF0EDB50E552E7240E0FE66EFC
:103A6000010EE66EE66A01EC2FF0E552E552E552F2
:103A700011D0F60EDBCFE6FFEF0EDB50E552E72468
:103A8000100FE66E010EE66EE66A01EC2FF0E552CD
:103A9000E552E552020EF36E020EF3CFDBFF030E8A
:103AA000DB6A010EDB6AF60EDB50F36E010EDBCF34
:103AB000F4FFF350F45C24E2010EDB50E76EF40EE9
:103AC000DBCFE9FFF50EDBCFEAFFE750E926000E7A
:103AD000EA22EF50E66E020EDBCF14F0DB2A030E73
:103AE000DBCF15F001E3DB2A14C0E6FF15C0E6FFCB
:103AF00001EC2FF0E552E552E552010EDB2AD3D757
:103B0000FD0EDB500001E511E66E020EDBCF14F076
:103B1000DB2A030EDBCF15F001E3DB2A14C0E6FF3E
:103B200015C0E6FF01EC2FF0E552E552E552010E1B
:103B3000DB6A040EF36E010EDBCFF4FFF350F45C8E
:103B400025E2D950F90F146EFF0EDA20156E010E22
:103B5000DB500F011424E96E000E1520EA6EEF50C1
:103B6000E66E020EDBCF16F0DB2A030EDBCF17F07A
:103B700001E3DB2A16C0E6FF17C0E6FF01EC2FF0D9
:103B8000E552E552E552010EDB2AD3D7010EDB6A7E
:103B9000080EF36E010EDBCFF4FFF350F45C29E264
:103BA000F70EDBCFE9FFF80EDBCFEAFFE9CF14F029
:103BB000EACF15F0010EDB500F011424E96E000E60
:103BC0001520EA6EEF50E66E020EDBCF16F0DB2A10
:103BD000030EDBCF17F001E3DB2A16C0E6FF17C0A8
:103BE000E6FF01EC2FF0E552E552E552010EDB2A2B
:103BF000CFD7F20EDBCFE6FF020EDBCF14F0DB2ACD
:103C0000030EDBCF15F001E3DB2A14C0E6FF15C07D
:103C1000E6FF01EC2FF0E552E552E552010EDB6ABA
:103C2000EF0EDB50F36E010EDBCFF4FFF350F45CCC
:103C300024E2010EDB50E76EED0EDBCFE9FFEE0E66
:103C4000DBCFEAFFE750E926000EEA22EF50E66EEE
:103C5000020EDBCF14F0DB2A030EDBCF15F001E3FD
:103C6000DB2A14C0E6FF15C0E6FF01EC2FF0E55299
:103C7000E552E552010EDB2AD3D7FD0EDBCFE6FF7E
:103C8000D950F90FE66EFF0EDA20E66EF70EDBCFA5
:103C9000E6FFF80EDBCFE6FF44DE146E050EE15EB4
:103CA0001450800EF36E020EF3CFDBFF020EF36EA4
:103CB000030EF3CFDBFF010EDB6A100EF36E010E75
:103CC000DBCFF4FFF350F45C24E2010EDB50E76E2F
:103CD000F00EDBCFE9FFF10EDBCFEAFFE750E9267C
:103CE000000EEA22EF50E66E020EDBCF14F0DB2A64
:103CF000030EDBCF15F001E3DB2A14C0E6FF15C08D
:103D0000E6FF01EC2FF0E552E552E552010EDB2A09
:103D1000D4D7FE0EDB5009E1400EE66E370EE66E9C
:103D200049EC2FF0E552E55208D0800EE66E370ED2
:103D3000E66E49EC2FF0E552E552F30EDBCFE6FFDD
:103D40002C0EE66E49EC2FF0E552E5520E01EE899D
:103D5000030EE66E1B0EE66E49EC2FF0E552E552BF
:103D6000010EDB6A0E01EEA90FD081A0F282010ED6
:103D7000DB2A010EDB501F0806E20E01EB6B8B9471
:103D800043EC00F001D0EED7FE0EDB0435E1F30E7C
:103D9000DB0432E0300EE66E74EC2FF0E552E76E95
:103DA000040EE7CFDBFF040EDBAC26D0400EE66E40
:103DB000300EE66E49EC2FF0E552E552DF5017E089
:103DC000DF06020EDB6A030EDB6A020EDBCF14F0A5
:103DD000030EDBCF15F0550E145C020E155806E2EB
:103DE000020EDB2A030E01E3DB2AEFD70BD68B94FE
:103DF00043EC00F0020EA2D00E01EEAF9DD0F60E05
:103E0000DBCFE6FF010EE66EE66A9FEC2FF0E5528F
:103E1000E552E552D880E754F20FE66EE90EDBCFAB
:103E2000E9FFEA0EDBCFEAFFE552E750EF6EF60E50
:103E3000DB50020F0E0FE66ED950020FE96EDACF9B
:103E4000EAFFE552E750EE6EED6AFE0EDB043DE15F
:103E5000F30EDB50010A2EE0050A21E0030A1FE001
:103E6000040A12E0050A10E0040A03E0070A01E070
:103E70002CD0120E146EE90EDBCFE9FFEA0EDBCF79
:103E8000EAFF1450EF5E21D00A0E146EE90EDBCF6C
:103E9000E9FFEA0EDBCFEAFF1450EF5E16D0060E04
:103EA000146EE90EDBCFE9FFEA0EDBCFEAFF145018
:103EB000EF5E0BD0020E146EE90EDBCFE9FFEA0EC7
:103EC000DBCFEAFF1450EF5E00D0010EDB6AE90E93
:103ED000DBCFE9FFEA0EDBCFEAFFEF50F36E010E16
:103EE000DBCFF4FFF350F45C25E2020EDBCF14F0DD
:103EF000DB2A030EDBCF15F001E3DB2A14C0E6FF5B
:103F000015C0E6FF9FEC2FF0E552E552E66E010E7C
:103F1000DB50E76EEB0EDBCFE9FFEC0EDBCFEAFF09
:103F2000E750E926000EEA22E552E750EF6E010E57
:103F3000DB2ACDD7000E02D0010E00D0146E050E84
:103F4000E15C02E2E16AE552E16E1450E552E7CF2E
:103F5000D9FF1200EFDA080EE126DF6ADE52070E03
:103F6000DD6E060EF36E020EF3CFDBFF050EF36E71
:103F7000030EF3CFDBFF010EF36E040EF3CFDBFF76
:103F8000F36E050EF3CFDBFF030EF36E060EF3CFD9
:103F9000DBFF020EF36E070EF3CFDBFFFE0EDB50EE
:103FA000D924E96E000EDA20EA6EEF50146E080E86
:103FB000E15C02E2E16AE5527AD2BCDA1F0EE12648
:103FC000BEDA120FE66E11EC38F0E5521D0EF3CF9B
:103FD000DBFF1E0EF4CFDBFFD9501D0FFEDAEE50D3
:103FE000ED1012E071DA010EE66EE66A360E146E1E
:103FF000770E85DA140F57DA140EDB0407E0140E7F
:10400000DB50020803E015DA000EADD040DA26DA04
:104010003EDAEE2A000EEE22EE22EE22F70EDB5002
:10402000080DF3500001E511E76E100EE7CFDBFF3E
:10403000F60EDB5002E0100EDB8A120EE66EE66A28
:10404000140EDB04B2D949DA050E32CFDBFF080EBD
:10405000E66EE66A2A0E146E000E51DA150F23DAA8
:10406000D950150F42DAD2D9050EF36E130EF3CFE5
:10407000DBFFDB5026E0FD0EDBCFDEFFDBCFDDFF1D
:1040800087DA020EEFCFDBFFD950110FAADA1D0E2F
:10409000DBCFE6FF1E0E73D9E66A0FDA1D0EDBCF0B
:1040A000DEFFDBCFDDFF110EDB50E76E020EE7CF48
:1040B000DBFFD950120F95DA61DA03E0130EDB064D
:1040C000D8D7100EDB50F80BE66E51DAE552E75008
:1040D000EF6E120EDB6A040E86D90CE2D9500C0F7B
:1040E00089D9EF50E66E120EDB28E76E40DA70DAFF
:1040F000AFD9F1D7120EDB28E76E130EE7CFDBFF47
:10410000F60EDB500FE0120EDB6A080E6CD90AE2E5
:104110000A0EDBCFE9FF0B0E54DA120E40DA3CD95F
:1041200097D9F3D7F70EDB0403E136D932CFEFFF8F
:10413000120EDB6A110EDB5056D90FE2120EDB5065
:10414000E76E1D0EDBCFE9FF1E0EDBCFEAFF40DA84
:10415000EF50E66E21D97CD9EDD76BD919DA130E61
:10416000DBCFEFFF010E146E1F0EE15C02E2E16A8D
:10417000E5529DD1DFD9220EE126F9D9110EEFCFFC
:10418000DBFF010EF36E130EF3CFDBFF120EDB6AC3
:10419000040E29D908E200D9EF50E66ED950140F69
:1041A00029D956D9F5D7D5D9200B0DE0120EDB6AE7
:1041B000080E19D914E2F0D8EF50E66ED950180F56
:1041C00019D946D9F5D7F50EDBCFE9FFF60EDBCFCF
:1041D000EAFF180ED9269CD99BD9200ED95EB9D9F1
:1041E000180BE842E842E842010825E1D5D8200E44
:1041F000EFCFDBFF120EDB6A020EF5D817E2120ECC
:10420000E66EE66ADB50D1D8200EDB500F01325D3E
:104210000AE15A0E335D07E1120EDB50E76E210E04
:10422000E7CFDBFF03D0120EDB2AE6D7120EDB50FE
:10423000020801E17AD048D9D950140FCED90ED94D
:10424000130EDB50E76EFD0EDBCF14F0FE0EDBCF5E
:1042500015F0E7501426000E152214C0DEFF15C01D
:10426000DDFF110EDB50E76E100EE7CFDBFF35D917
:10427000200EDB50E76E050EE7CFDBFFD950180F9D
:1042800034D9130EDBCFE6FF5AD9E552D880E75474
:10429000E76E020EE7CFDBFFB9D8FB0EDBCFE6FF00
:1042A000FC0EDBCFE6FF6AD940E10F0164A55FD0C9
:1042B000D950180F96D9BEEC19F0E552E552146E9C
:1042C000120E14C0DBFF050E145C51E00F0129D95A
:1042D000010803E026D900092AE1210EDB50140D64
:1042E000F3CF18F0F4CF19F03C0E18260F0E192258
:1042F000120EDB50040D1850F324E96E1950F4200F
:10430000EA6EEECF14F0EECF15F0EECF16F0EFCF51
:1043100017F0D950140F61D91450EE5C1550EE58B7
:104320001650EE581750EE5802E2000E21D0210E22
:10433000DB50140DF3CF14F0F4CF15F03C0E14261F
:104340000F0E1522120EDB50040D1450F324E96EEB
:104350001550F420EA6E140EDBCFEEFF150EDBCF06
:10436000EEFF160EDBCFEEFF170EDBCFEEFF010EDA
:10437000146E220EE15C02E2E16AE55298D0DBCFD6
:10438000E6FFD9CFE9FFDACFEAFFE8D8E7D8E6D8E9
:10439000EECFE6FFAEEF22F0130EDBCFF3FFDB2A0A
:1043A000F350E76EE4D8E8EF22F0120DF3CF14F0EB
:1043B000F4CF15F0370E1426770E1522166A14C0A6
:1043C000E6FF15C0E6FF16C0E6FF220EE66E0F0EF2
:1043D000F0D0F7D8020EE3D8DFCF16F0DF06010EDB
:1043E000DBCF17F01200F36E120EDBCFF4FFF350A9
:1043F000F45C1200146EDACF15F0120EDB500F01D0
:104400001424E96E000EDA20EA6E1200F90EDBCFFA
:1044100006F0FA0EDBCF07F0070E06C0DBFF080E32
:1044200007C0DBFFF80EDB50E76E090EE7CFDBFFBE
:1044300012001D0EDBCFE6FF1E0EDBCFE6FFA4EC65
:1044400038F0E552E5521D0EDB6A1E0EDB6A1200E3
:10445000E552E750EF6E120EDB2A12000C0EEECF83
:10446000DBFF0D0EEECFDBFF0E0EEECFDBFF0F0EF0
:10447000EECFDBFF120016C0E6FF17C0E6FF01EC2F
:104480002FF0E552E552E552020EDB2A1200140E1F
:10449000DB04040DF3CFE9FFF4CFEAFF340EE92685
:1044A0000F0EEA221200E66E000EDA2082D0E16ED4
:1044B0001450E552E7CFD9FF1200DAEC1CF0146E6D
:1044C000160EE15E14501200E5C0E6FF43DDE55232
:1044D000E76E060EE7CFDBFF1200D950030F7DD841
:1044E000220EEE6E0F0EED6E1200146EDACF15F086
:1044F0000A0E14C0DBFF0B0EDACFDBFF1200156EC5
:10450000166A14C0E6FFE66E16C0E6FFD950120028
:10451000EECFDEFFEECFDEFFEECFDEFFEECFDEFF33
:1045200012001051C00BE842E842E842E842E8427B
:10453000E8421200D9CFE6FFE1CFD9FF120028D818
:10454000EF501200F36E020EDBCFF4FFF350F45C79
:104550001200D950110F41D8EF501200EECFE6FFF4
:10456000EECFE6FFEECFE6FFEECFE6FF1200FD0E48
:10457000DBCFE9FFFE0EDBCFEAFF1200FD0EDBCF43
:10458000E6FFFE0EFCDE010EE66E97DF000912006C
:10459000FB0EDBCFE9FFFC0EDBCFEAFF1200DB50A6
:1045A0000F01E924E96E000EEA20EA6EEF50E66E94
:1045B0001200E66EF0EC3AF0176E070EE15E17504F
:1045C0001200DBCFEAFFE9CF14F0EACF15F01200BA
:1045D000E750E926000EEA221200E96EDACFEAFF80
:0C45E0001200E66E000EDA20E66E1200FB
:0445EC00D9CFE6FF3E
:1045F000E1CFD9FF090EE1260400D1800F01686BDD
:104600000F016B6B6C6B0F01030E6D6FD2EC3BF007
:10461000E50EE66E680EE66EDEEC3BF0E552E55226
:10462000BB0EE66E680EE66EDEEC3BF0E552E55240
:10463000AC0EE66E680EE66EDEEC3BF0E552E5523F
:10464000930EE66E680EE66EDEEC3BF0E552E55248
:104650007FEC28F08AEC34F00F01656B0F01696B79
:104660006A6B0F010F016551080B02E0899001D0C0
:1046700089808992D08EF28E0400680EE66E0F0E4D
:10468000E66EA5EC34F0E552E5520F01685101E108
:1046900075D3500A01E14ED3010A01E16BD16F0AD3
:1046A00001E141D1030A01E133D1700A01E102D1F4
:1046B000770A5DE00C0A02E05BEF28F00F01686BFF
:1046C0000E01825145E10E01835109E16D0EE66E46
:1046D000680EE66EDEEC3BF0E552E55238D084CE53
:1046E0006BFF85CE6CFF6BCF66FF6CCF67FF66CF2D
:1046F000E9FF67CFEAFFEECF9AFEEDCF9BFE4B0EB0
:10470000E66E680EE66EDEEC3BF0E552E5529BCEBF
:10471000E6FF46EC3CF0E5529ACEE6FF46EC3CF074
:10472000E552470EE66E680EE66EDEEC3BF0E552B3
:10473000E5520E01846B0E01826B0E01010E856F36
:104740000E01886B0E01836B0F01450E686F0DD053
:1047500082CEE6FF46EC3CF0E5521C0EE66E680E9B
:10476000E66EDEEC3BF0E552E5526AEF28F00F0111
:10477000686B0E01825129E1090EE66E680EE66E45
:10478000DEEC3BF0E552E5520F016B516C111CE081
:104790006BCFE9FF6CCFEAFF060EE926000EEA2296
:1047A000EECF66FFEDCF67FF6BCFE6FF6CCFE6FF86
:1047B000A4EC38F0E552E5520F016B6B6C6B66CFE1
:1047C0006BFF67CF6CFFE0D773D082CEE6FF46EC7D
:1047D0003CF0E5520E01A9AB21D0ED0EE66E670E5E
:1047E000E66EDEEC3BF0E552E5520F016D070F017E
:1047F0006D510BE1D30EE66E670EE66EDEEC3BF01C
:10480000E552E5520E01A99B08D0C10EE66E670E77
:10481000E66EDEEC3BF0E552E5524AD09E0EE66EC7
:10482000670EE66EDEEC3BF0E552E55266CFE9FF3F
:1048300067CFEAFF060EE926000EEA22EECF66FFFA
:10484000EDCF67FF0F01665167110AE07A0EE66E41
:10485000670EE66EDEEC3BF0E552E55248D728D015
:10486000520EE66E670EE66EDEEC3BF0E552E55268
:104870000F016B516C111CE06BCFE9FF6CCFEAFFAD
:10488000060EE926000EEA22EECF66FFEDCF67FFA7
:104890006BCFE6FF6CCFE6FFA4EC38F0E552E552B3
:1048A0000F016B6B6C6B66CF6BFF67CF6CFFE0D754
:1048B0006AEF28F0080EE66EE66A2A0E146E000E05
:1048C000156E166A14C0E6FF15C0E6FF16C0E6FFB7
:1048D0008A0EE66E0E0EE66EA6EC3AF0176E070E26
:1048E000E15E1750000909E1360EE66E670EE66ECE
:1048F000DEEC3BF0E552E55208D0110EE66E670E95
:10490000E66EDEEC3BF0E552E5520F01686BE2D358
:10491000F20EE66E660EE66EDEEC3BF0E552E55218
:104920000F01686BD7D30E018251C10A17E0070A45
:104930000CE0C60A01E01BD0DD0EE66E660EE66EE8
:10494000DEEC3BF0E552E55212D0B60EE66E660E96
:10495000E66EDEEC3BF0E552E55209D09C0EE66EC9
:10496000660EE66EDEEC3BF0E552E55200D00F013C
:10497000686BB0D30F01686BFEEC11F0E76E050EAB
:10498000E7CFDBFF0E019B51080A01E1D0D0080AF6
:1049900001E0CCD1830EE66E660EE66EDEEC3BF0F7
:1049A000E552E5529CCEE6FF46EC3CF0E552800E27
:1049B000E66E660EE66EDEEC3BF0E552E552050E65
:1049C000DB50F00B200801E0B1D0050EDB98DB9A3C
:1049D000DB9CDB9E070EDB6A050EDB50F36E070ED9
:1049E000DBCFF4FFF350F45C01E3A0D0FEEC11F058
:1049F000E76E060EE7CFDBFFFEEC11F0E76E040E6C
:104A0000E7CFDBFF010EF36E080EF3CFDBFF0E01E5
:104A10009C51A00A35E0200A01E076D0FEEC11F0AE
:104A200000092DE1640EE66E660EE66EDEEC3BF0EC
:104A3000E552E552030EDB6A080EF36E030EDBCF80
:104A4000F4FFF350F45C07E2FEEC11F0080EDB2AF1
:104A5000030EDB2AF1D7FEEC11F00F01696FFEECBB
:104A600011F00F016A6F020E146E080EDBCFE7FF24
:104A70001450E726080EE7CFDBFF0F01658945D00C
:104A8000FEEC11F0860A2BE0030A20E0010A15E093
:104A9000840A01E02DD03E0EE66E660EE66EDEEC78
:104AA0003BF0E552E5520F010F010F016551080B74
:104AB00002E0899001D0898024D0150EE66E660E42
:104AC000E66EDEEC3BF0E552E5521BD0F10EE66EF1
:104AD000650EE66EDEEC3BF0E552E55212D0C40EF8
:104AE000E66E650EE66EDEEC3BF0E552E55209D06F
:104AF000980EE66E650EE66EDEEC3BF0E552E55292
:104B000000D00F01659501D000D0040EDB50F36E8C
:104B1000080EDBCFF4FFF350F45C05E2FEEC11F07D
:104B2000080EDB2AF2D7070EDB2A56D700D1050E76
:104B3000DB50F00B100801E0F8D0050EDB98DB9A93
:104B4000DB9CDB9E070EDB6A050EDB50F36E070E67
:104B5000DBCFF4FFF350F45C01E3E7D0FEEC11F09F
:104B6000E76E060EE7CFDBFFFEEC11F0E76E020EFC
:104B7000E7CFDBFFFEEC11F0DF6EFEEC11F0E76E2D
:104B8000010EE7CFDBFF020EDB98DB9ADB9CDB9E9E
:104B9000130E0E019C5D01E0C5D0D9CFE9FFDACF3D
:104BA000EAFFEE50ED1001E0BDD0020EDB0405E09F
:104BB000020EDB50050801E095D00E01A651A62B90
:104BC000EA6A000FE96E0E0EEA22110EEF6E0E0178
:104BD000A651A62BEA6A000FE96E0E0EEA22060E17
:104BE000DBCFEFFF0E01A651A62BEA6A000FE96E9C
:104BF0000E0EEA22190EEF6E0E01A651A62BEA6ADE
:104C0000000FE96E0E0EEA22DFCFEFFF0E01A65174
:104C1000A62BEA6A000FE96E0E0EEA22010EDBCF28
:104C2000EFFFFEEC11F0E76E030EE7CFDBFF030EA4
:104C3000DB50F00A2BE00F0A16E0FF0A01E039D042
:104C4000820EE66E650EE66EDEEC3BF0E552E55256
:104C500089920E01A651A62BEA6A000FE96E0E0E8C
:104C6000EA22EF6A3FD06D0EE66E650EE66EDEEC70
:104C70003BF0E552E55289820E01A651A62BEA6A65
:104C8000000FE96E0E0EEA22EF6A2CD05A0EE66E85
:104C9000650EE66EDEEC3BF0E552E55289720E01E0
:104CA000A651A62BEA6A000FE96E0E0EEA22EF6A01
:104CB00019D0030EDBCFE6FF46EC3CF0E552400E88
:104CC000E66E650EE66EDEEC3BF0E552E5520E0157
:104CD000A651A62BEA6A000FE96E0E0EEA22060E16
:104CE000EF6E00D0020EDB5005081AE10E01A9811B
:104CF00088CE89FE9ACE9BFE8ACE92FE8BCE93FE04
:104D00000E010A0E8A6F0E01010E8B6F0E01010E4D
:104D10008C6F0E01080E9A6F0F014F0E686F02D054
:104D20000E01A66B070EDB2A0FD701D000D031ECA5
:104D300000F0D0D10E01825116E0390EE66E650EFC
:104D4000E66EDEEC3BF0E552E55282CEE6FF46EC45
:104D50003CF0E552250EE66E650EE66EDEEC3BF0AD
:104D6000E552E55208D0070EE66E650EE66EDEEC03
:104D70003BF0E552E5520F01686BACD10E01A9B7CB
:104D80003CD00E01A9B938D00E01A9AB21D0DE0E5E
:104D9000E66E640EE66EDEEC3BF0E552E5520E0187
:104DA000846B0E01010E826F0E01010E856F0E01E4
:104DB000886B0E01836B0E01080E896F0E018A6BE2
:104DC0008B6B020E8C6F8D6B0F01450E686F14D0CC
:104DD000B20EE66E640EE66EDEEC3BF0E552E55296
:104DE0000E01060E896F0E018A6B8B6B020E8C6FA3
:104DF0008D6B0F01410E686F5DD10E010E01A9513F
:104E0000800B01E113D10E010E01A951010B01E04C
:104E10000DD10F0165A364D00F0165930E01A98127
:104E20000E01A651A62BEA6A000FE96E0E0EEA22C9
:104E3000110EEF6E0E01AA51AA2BE66E0E01A651BD
:104E4000A62BEA6A000FE96E0E0EEA22E552E75041
:104E5000EF6E0E01A651A62BEA6A000FE96E0E0E48
:104E6000EA22110EEF6E0E01A651A62BEA6A000F80
:104E7000E96E0E0EEA22EF6A0E01A651A62BEA6A2F
:104E8000000FE96E0E0EEA22EF6A0E01A651A62B64
:104E9000EA6A000FE96E0E0EEA22F00EEF6E0E01C6
:104EA000896B0E01866B010E876F0E010A0E8A6FE9
:104EB0000E01010E8B6F0E01010E8C6F0E01080E9C
:104EC0009A6F0E01130E9C6F8A0EE66E640EE66EEC
:104ED000DEEC3BF0E552E5520F014F0E686FA5D0B6
:104EE0000F0165A1A2D00F0165910E01A9810E01EC
:104EF000A651A62BEA6A000FE96E0E0EEA22210ED9
:104F0000EF6E0E01AA51AA2BE66E0E01A651A62B3A
:104F1000EA6A000FE96E0E0EEA22E552E750EF6EE4
:104F20000E01A651A62BEA6A000FE96E0E0EEA22C8
:104F3000090EEF6E0E01A651A62BEA6A000FE96E6C
:104F40000E0EEA22EF6A0E01A651A62BEA6A000FA6
:104F5000E96E0E0EEA22EF6A0E01A651A62BEA6A4E
:104F6000000FE96E0E0EEA22080EEF6E0E01A6513A
:104F7000A62BEA6A000FE96E0E0EEA22EF6A0E0116
:104F8000A651A62BEA6A000FE96E0E0EEA22010E68
:104F9000EF6E0E01A651A62BEA6A000FE96E0E0E07
:104FA000EA22010EEF6E0E01A651A62BEA6A000F4F
:104FB000E96E0E0EEA22130EEF6E0E01A651A62B1D
:104FC000EA6A000FE96E0E0EEA22010EEF6E0E0184
:104FD000A651A62BEA6A000FE96E0E0EEA22130E06
:104FE000EF6E0E01010E896F0E019B6B0E01926B2D
:104FF000936B0E01866B876B0E010A0E8A6F0E0192
:10500000010E8B6F0E01010E8C6F0E019A6B0E015B
:10501000200E9C6F630EE66E640EE66EDEEC3BF0D7
:10502000E552E5520F014F0E686FF2860F0168518D
:1050300041E10E01A9BF14D00E01A9BD10D00E018F
:10504000A9B10DD00E01826B0F01490E686F4E0E93
:10505000E66E640EE66EDEEC3BF0E552E5522AD0D9
:105060000E010E01A951040B25E140D8000922E0F0
:105070003DEC00F001081EE13A0EE66E640EE66EAD
:10508000DEEC3BF0E552E552ACA2FED73DEC00F081
:10509000F2860300000043EC00F00E01826B0F016A
:1050A000490E686F4E0EE66E640EE66EDEEC3BF067
:1050B000E552E5520FD068CFE6FF46EC3CF0E552F2
:1050C000220EE66E640EE66EDEEC3BF0E552E55233
:1050D0000F01686B3CEF23F0090EE15C02E2E16A2C
:1050E000E552E16EE552E7CFD9FF12000F0165519D
:1050F000010B03E16551020B01E0000C010C9E86DF
:105100008B808B8494909494F19C8B968B8A94964C
:105110009488949A400EC76E200EC66E0F0EC16E14
:10512000040E896EE00E926EF290F19E9388938A3F
:105130001200F2A00CD081BA02D00F01658181B8B3
:1051400002D00F016583F29681508A6EF2901200B0
:10515000030E0001FE1501E1000C010C0001FE6BC5
:10516000120079EC2DF04C0EE126DF6AFE0EDB50CA
:1051700005E10E01A9A141D3000E40D3FE0EDB5084
:105180006B0A01E10BD3080A01E185D2390A01E07B
:1051900034D30E019CAF02D0510E30D347EC2DF02A
:1051A000020EE7CFDBFFDB50F00B200801E070D2EE
:1051B000FEEC11F00001FD6F47EC2DF0010EE7CF82
:1051C000DBFF0E019C51300A01E157D2010A01E1D7
:1051D00054D2030A01E151D2010A01E14ED2060A7A
:1051E00001E14BD2010A01E148D2240A01E13ED299
:1051F000010A01E13BD2030A01E138D2060A01E1CA
:1052000035D2120A01E1FED0030A01E1D0D0010A31
:105210005AE0070A47E0010A36E0030A2DE0010AD6
:1052200001E036D2030EDB6A080EF36E030E75DB67
:105230001EE2010EE66EE66A030EDB50156A2A0FC7
:10524000146E000E152235EC2DF0D950040F59DBE9
:1052500047EC2DF0050EE7CFDBFFDB50F36E040EBD
:10526000DB50F35C01E014D2030EDB2ADDD7800EA5
:10527000E66ECDDAE552C3D0D5DB01E109D2810E6D
:10528000E66EC5DA02D2CEDB01E102D297EC2DF058
:10529000080EE66EE66A240E146E7A0E59EC2DF0B6
:1052A000820EF1D1BFDB01E1F3D197EC2DF0020EBC
:1052B000E66EE66A2C0E146E7A0E0BDB020E0E0101
:1052C000A627830EE0D1AEDB01E1E2D1E0DB060EE2
:1052D000E7CFDBFF0E01030EA66F060EDB500008C2
:1052E0005EE2060EDB50146E156A153404E21450AB
:1052F000F008000E155453E3070EDB68070EDB2A97
:10530000160EE66EE66A070EFFDAD950080FF9DAD4
:10531000060EDB50F36E080EDB50F35C05E0020E68
:10532000F36E070EFADAEAE3070EDB50020803E138
:10533000F1DB830E36D0EEDBEF6A90DB160EDBCFAF
:10534000E6FF0E0EDB50080FE552E724BBDB080E2C
:10535000B5DB090EB3DB0A0EB1DB0B0EAFDB0C0EB7
:10536000DBCFEFFF35DBF00BE842E842E842E842F2
:10537000100D2EDB0F0BF310A5DB0E0E56DB0F0FFF
:10538000DDDA0E0EDB500E01A627A0DA160E4DDB7D
:10539000170FD4DA160EDB500E01A62706D096DAC8
:1053A000820EEF6E5BDB92DAEF6A840E6CD13ADB31
:1053B00001E16ED1350E89CEDBFFB9DB87DA020E53
:1053C000EF6E1E0EDB6A020EF36E1E0EA6DA0FE201
:1053D000160EE66EE66A1E0E97DAD9501F0F91DAA6
:1053E00099DB1F0EDBCFEFFF1E0EDB2AECD7850EFD
:1053F000E66E4BDAE552350EDB5001E147D10E0186
:105400008C8544D10FDB01E143D1460E89CEDBFF11
:10541000360EDB6A390EDB6A3A0EDB6A3E0EDB6A59
:10542000400EDB6A410EDB6A160EE66E11EC38F0B8
:10543000E552440EF3CFDBFF450EBDDA01E1EED0BD
:1054400026DB420EE7CFDBFF22DB430EE7CFDBFF9D
:105450001EDB3D0EE7CFDBFFDB501AE03D0EDBCF5E
:10546000E6FF11EC38F0E552390EF3CFDBFF3A0ED0
:10547000A2DA01E1D3D0380EDB6A3D0EDB503EDB11
:1054800007E2DADA390EDBCFE9FF3A0E28DBF5D78F
:10549000FEDA3F0EE7CFDBFFDB501AE03F0EDBCF3B
:1054A000E6FF11EC38F0E552400EF3CFDBFF410E82
:1054B00082DA01E1B3D0380EDB6A3F0EDB501EDB2F
:1054C00007E2BADA400EDBCFE9FF410E08DBF5D781
:1054D0003D0EDB5008E13F0EDB5005E1010EF36E9F
:1054E000360EF3CFDBFF070E0E01A627010EF36E7B
:1054F000380EF3CFDBFF020E01DB6EE23C0EDB6AFF
:10550000160EE66EE66A380EFFD9440EDBCFE6FFD4
:10551000450EDBCFE6FFAEDA0ADAEE52EECF14F03C
:10552000EFCF15F0420EDB50141849E1430EDB506B
:10553000151845E1360EDB5002E064DA40D0370E34
:10554000DB6AF5D90E0EADDA1AE23B0EDB6A3D0ED0
:10555000DB50F36E3B0EE1D90FE23B0EDB50E76E02
:10556000390EDBCFE9FF3A0EBFDA0F0EF6D901E1B3
:1055700049DA3B0EDB2AEBD7370EDB2AE2D7370EB0
:10558000DB6AD5D9060E8DDA1AE23B0EDB6A3F0ED6
:10559000DB50F36E3B0EC1D90FE23B0EDB50E76EE2
:1055A000400EDBCFE9FF410E9FDA070ED6D901E1AD
:1055B00029DA3B0EDB2AEBD7370EDB2AE2D73C0E8B
:1055C000DB5007E0B4D9EF50E66EA4DA43DA3E0EC2
:1055D000DB2A380EDB2A8FD73E0EDB501FE0030E8E
:1055E000F36E380EF3CFDBFF9DD9EF6A380E9AD9F0
:1055F000B4C0EFFF380E96D9B5C0EFFF380E92D980
:105600003E0EDBCFEFFF860EE66E3FD9E552460E2B
:10561000DB5002E00E018C854F0EDF6ED950440F37
:10562000F7D909E0440EDBCFE6FF450EE4D9440E7E
:10563000DB6A450EDB6AD950390FEAD909E0390E29
:10564000DBCFE6FF3A0ED7D9390EDB6A3A0EDB6ABA
:10565000D950400FDDD91CE0400EDBCFE6FF410EF4
:10566000CAD9400EDB6A410EDB6A12D0DBD910E0EA
:1056700042D9840EEF6EF2D903D03DD9840EEF6E7D
:10568000800E0E019C11E66E00D9E5524F0EDF6EC2
:1056900031EC00F0B2D00F0164910E01EB9B0E01D2
:1056A0008251010A01E078D0080EE66E8A0EE66E9D
:1056B0000E0EE66E5B0EE66E770E61D983CEE9FFC5
:1056C00084CEEAFFEECF22FFEECF23FFEECF24FF02
:1056D000EECF25FFEECF26FFEECF27FFEECF28FF40
:1056E000EECF29FFEECF2AFFEECF2BFFEECF2CFF20
:1056F000EECF2DFFEECF2EFFEECF2FFFEECF30FF00
:10570000EFCF31FF9ACE32FF0F015A0E336F480EA2
:10571000DB6A100EF36E480E00D90CE2480EDB5027
:10572000EA6A220FE96E0F0EEA22EF5003E1480EFB
:10573000DB2AEFD7480EDB5010082EE033D9490F93
:10574000E0D8490EDB0414E0490EDB50020810E0FB
:10575000010EF36E490EF3CFDBFF010EE66ED9505A
:10576000490F99D970D9370EE66E770E08D914D043
:10577000490EDB0402E1010E01D0000EE76E490E76
:10578000E7CFDBFF60D9490E2ED9D4D95FEC36F0D4
:10579000166E050EE15E1650DF6A2FD04B0EDB6AE7
:1057A000020EF36E4B0EB9D828E2120EE66EE66AD0
:1057B0004B0E19D95AD9220EE66E0F0EE66E5AD943
:1057C0000E0182510F01325D15E15A0E335D12E177
:1057D000E9D84A0F96D84B0EDB28F36E4A0EDB5001
:1057E000F35C0BE04B0EDB2A010EE66ED9504B0F3B
:1057F00052D903D04B0EDB2AD3D7DF50146E4C0E98
:10580000E15C02E2E16AE552E16E145007D1BFD8D3
:10581000DF5004E182D95AD8EF6A03D0DF0404E1F3
:105820007CD954D8EF6A03D075D9800EEF6EFE0E86
:10583000DBCFE6FF2AD8E552020EE15C02E2E16A24
:10584000E552E16EEBD0A3D8DECF14F0DDCF15F03A
:105850000001B451141802E1B55115180AE0D9CF6E
:10586000E9FFDACFEAFFFF0EEE1805E1FF0EED18B3
:1058700002E1010E01D0000E146E020EE15C02E2A4
:10588000E16AE552E16E1450C9D033D90E01A98105
:105890000E01210E006FFDC001FE030E0E01A65D7C
:1058A0000E01026F0E01010E896F8ACE92FE8BCE21
:1058B00093FE866B876B0A0E8A6F010E8B6F8C6F5F
:1058C0009A6B9B6BFE0EDBCF9CFEA8D0A651A62B3D
:1058D000D8D0FDD8A651186A000F176E0E0E1822E8
:1058E00017C0E6FF18C0E6FFF0EC3AF0196E070E9D
:1058F000E15E195012000E01030EA66FE850A62BB0
:10590000C0D01DD93AEF2DF0DB50160DFBD82E0E6E
:1059100014267A0E152235EF2DF0DBCFF4FFF3506D
:10592000F45C1200DBCFF3FFDB2AF350AAD0440E65
:10593000DBCFE9FF450EDBCFEAFF120000D9A6510D
:10594000156A000F146E0E0E1522F4D8C5EC3AF04D
:10595000166E060EE15E16501200E926000EEA22CF
:10596000E9CF15F0EACF16F0370EDB500F01E9242E
:10597000E96E000EEA20EA6EEF50145C1200E66E4B
:105980005FEC36F0146E050EE15E14501200B1D8D3
:10599000020EE126FEEC11F0DF6E79D8010EE7CFA2
:1059A000DBFF1200010EE66EE66A360E146E770E0D
:1059B0008ED8D9501200F4CFDBFFA4D8F350F410E6
:1059C0001200DBCFEAFFE750E926000EEA221200C0
:1059D000D950080FE96EDACFEAFF050EE926000E6E
:1059E000EA22EF501200DB50120D8CD8370E14262D
:1059F000770E15221200DBCFE6FFA4EC38F0E5525B
:105A0000E5521200010EF36E3C0EF3CFDBFF1200E5
:105A1000E96EDACFEAFFEE50ED101200E552E7CF63
:105A2000D9FF120010DF00091200DBCFEFFFDBCF40
:105A3000E6FFE66AD9501200FEEC11F0E66E380E71
:105A4000DB50E76E1200120EE66E220EE66E0F0EAF
:105A5000E66E1200E552E750EF6E120037DFB4C079
:105A6000EFFF34DFB5C0EFFF1200166A63D816C02F
:105A7000E6FF1200F0EC3AF0176E070EE15E1750E9
:105A80001200EA6A000FE96E0E0EEA221200FEEC26
:105A900011F0E76E120053D8360EE66E770EBFEFA8
:105AA0002CF0E926000EEA22EF50F36E370E8DEF50
:105AB0002CF00FDF080E0E01A6271200DBCFEFFF40
:105AC00066EF2CF0E66E02DFC5DF66EF2CF0156E98
