:020000040000FA
:0600000069EF5BF0120045
:060008003CEF4CF0120079
:060018003CEF4CF0120069
:06002A005400000000A3D9
:020030000400CA
:0E00320001000EB70000710F00000200000078
:100040000F0133513F0B02E1000E01D0010E00D031
:100050001200BEEC19F0010EE66EC4EC15F0E5528C
:100060000D0EE66EE66AFA0E146E9E0E7BEC17F02D
:10007000C20EE66E0E0EE66E57EC19F03C0E0E0147
:10008000C21902E1A50EC31903E045EC14F000D03B
:10009000E552B2EF16F0ADEC16F04C0EE1260F0172
:1000A00033A544D092EC5AF0050E06C0DBFF060ED5
:1000B00007C0DBFF070E08C0DBFF080E09C0DBFF2F
:1000C000D950050F73EC1AF00F013B51EE5C146E22
:1000D0003C51EE58156E3D51EE58166E3E51EE589D
:1000E000176E3FCF18F0196A1A6A1B6A360E0B6E2C
:1000F0006E0E0C6E010E0D6E0E6A18C006F019C061
:1001000007F01AC008F01BC009F0D6EC5AF002C084
:1001100018F003C019F004C01AF005C01BF034EC4D
:1001200018F004E20001C1910F013395FE0EDB507F
:1001300002E0CDEF04F00E01A9A103D0000EE7EF1D
:100140000EF00F0133A18FD192EC5AF00D0E06C0C4
:10015000DBFF0E0E07C0DBFF0F0E08C0DBFF100E2B
:1001600009C0DBFF0A0EDB6A030EF36E0A0ED2EC47
:1001700016F001E364D1A7EC17F001E15DD151EC79
:100180001BF0D880880E14542A0E1554110E1654E4
:10019000000E17540BE224EC19F048EC16F00A0E8E
:1001A000D4EC1BF00A0E12EC17F046D144EC1BF015
:1001B000200B01E041D1090EDB94DB9275EC1BF0C2
:1001C000EF50180866E075EC1BF00B0EEFCFDBFF6D
:1001D000DB50FF081CE124EC19F0EFEC1BF0E4EC21
:1001E00016F00D0F73EC1AF0C1EC19F0530E145CFD
:1001F000070E1558000E1658000E175807E398EC16
:1002000018F0DB8258EC1BF00B0EDB6A3CD00B0EB7
:10021000DB503BEC19F00E01C1B304D08CEC1BF0A9
:10022000EF6A25D024EC19F030EC1BF0EECF14F07F
:10023000EFCF15F0000114500E01B91904E10001CF
:1002400015500E01BA1904E18CEC1BF0EF6A0FD0C7
:100250009FEC18F002080BE1030EB9CEDBFF040E91
:10026000BACEDBFF090EDB848CEC1BF0EF900B0E9B
:10027000DB2A58EC1AF0040B06E1180EF36E0B0E95
:10028000D2EC16F0C4E375EC1BF00B0EDBCFEFFFE6
:1002900046D0090EDB800E01826B0B0EDB6A180E56
:1002A000F36E0B0ED2EC16F008E28CEC1BF0EF5064
:1002B000010B03E10B0EDB2AF2D70B0EDB50180803
:1002C00029E00E01F00E826F44EC1BF00F0B0009C9
:1002D00021E051EC1BF0A20E145C4A0E1558040EDE
:1002E0001658000E175814E3090EDB9098EC18F01E
:1002F00044EC1BF00F0BE806F36EF3500F0BF36E9C
:10030000F46EF00EEF14F310EF6E58EC1BF002D009
:10031000090EDB9058EC1AF0010B01E030D058ECDC
:100320001AF0040B01E188D0190EF36E0C0EF3CF16
:10033000DBFF58EC1AF0020B36E024EC19F030EC3D
:100340001BF01CEC17F002E158EC18F02CE10C0E3D
:10035000DB6A190EF36E0C0ED2EC16F009E20C0EED
:10036000FBEC19F0EE52EF5003E00C0EDB2AF1D754
:100370000C0EDB50190817E10E01F10E826F20EC14
:100380001CF0EFCF9CFE24EC19F037EC1AF0EF8A4A
:1003900044EC1BF0100B04E0340EE7EF0EF003D03A
:1003A000000EE7EF0EF020EC1CF0EF509EEC19F081
:1003B00024EC19F0040E8FEC1BF0050E9BEC19F0E9
:1003C00024EC19F0050E8FEC1BF0070E9BEC19F0D6
:1003D00024EC19F0070E8FEC1BF0090E8FEC1BF0CC
:1003E0000A0E27EC19F0DF6A24EC19F08FEC17F0F5
:1003F00024EC19F0AEEC19F0EF50DF5C08E25AEC97
:1004000016F001E3DB2A52EC19F0DF2AF1D727ECD2
:100410001AF00C0EDB5019080CE00C0EFBEC19F076
:10042000DFCFEFFF20EC1CF0EF50E66E0C0EAAECD5
:100430001BF0100EE7EF0EF00A0EDB2A95D60A0E1F
:10044000DB6A030EF36E0A0ED2EC16F006E2A7EC9E
:1004500017F003E10A0EDB2AF4D70A0EDB5003087B
:1004600002E10F0133910F0133A3E1D192EC5AF075
:10047000110E06C0DBFF120E07C0DBFF130E08C013
:10048000DBFF140E09C0DBFF150EDB6A040EF36EF2
:10049000150ED2EC16F001E39FD0150EF8EC16F015
:1004A00001E197D0150E92EC1BF001E192D096EC91
:1004B0001BF0080B11E1150EA6EC19F0E4EC16F098
:1004C000110FB6EC16F0040E145C5D0E1558000EFC
:1004D0001658000E17582AE296EC1BF0080B01E1A3
:1004E00078D0150EA6EC19F0EECF20F0EECF21F06B
:1004F000EECF22F0EFCF23F0D950110F73EC1AF0AA
:1005000000012050EE5C1C6E2150EE581D6E2250F2
:10051000EE581E6E2350EE581F6EA60E1C5C0E0E7B
:100520001D58000E1E58000E1F5853E3150E2BECDD
:1005300019F08FEC17F0DF6ABAEC17F008E25AEC0A
:1005400016F001E3DB2A52EC19F0DF2AF5D7DF6A57
:10055000080EDF5C09E25AEC16F001E3DB2AEF50EB
:100560009EEC19F0DF2AF4D7150E31EC19F0EF9656
:1005700096EC1BF0070BE806F36EF350070BF36ED7
:10058000F46EF80EEF14F310EF6E150EA6EC19F0E2
:10059000110EDBCFEEFF120EDBCFEEFF130EDBCF23
:1005A000EEFF140EDBCFEEFF96EC1BF0070B0009FD
:1005B0000AE1150E2BEC19F048EC16F0150E2BEC99
:1005C00019F0EE6AED6AFCEC16F0E668E668D7EF23
:1005D0001BF0150EDB2A5AD7150EDB6A040EF36EDC
:1005E000150ED2EC16F033E2150EF8EC16F02CE0F6
:1005F000150E1DEC16F0E4EC16F0110FB6EC16F02B
:10060000D8801C0E14544E0E15540E0E1654000EA7
:1006100017541AE2150E65EC19F0D30504E1020E29
:10062000D36F66EC16F0150E92EC1BF005E0150E7C
:100630002BEC19F048EC16F0150E2EEC19F048ECE6
:1006400016F0150ECFEC17F0150EDB2AC7D7DF6AB0
:10065000040EDF5C01E3BDD0E1EC1AF001E1B7D09C
:10066000D950180FC6EC16F0AAEC19F018EC19F0D6
:10067000050E11EC1AF04AEC1AF001E1A7D0180EA1
:10068000DB5060E1DBEC1BF002E158EC18F01DE1FF
:10069000170EDB6A190EF36E170ED2EC16F009E294
:1006A000170EFBEC19F0EE52EF5003E0170EDB2AA9
:1006B000F1D7170EDB50190808E1B0EC1BF0F10E72
:1006C000826F23EC1CF0BAEF16F018EC19F08FECE7
:1006D00017F0160EDB6A18EC19F0AEEC19F0EF50BB
:1006E000F36E160ED2EC16F009E25AEC16F001E3A6
:1006F000DB2A52EC19F0160EDB2AEDD7D950160F73
:10070000C6EC16F089EC16F0DBEC1BF002E158ECBD
:1007100018F012E1170EFBEC19F0160EDBCFEFFF0D
:1007200018EC19F009EC19F0070E4EEC16F0EF502A
:10073000E66E170EAAEC1BF023EC1CF0100EE7EF90
:100740000EF043D0180EDB5002083FE1DBEC1BF04B
:1007500002E158EC18F008E1B0EC1BF0826B23ECDE
:100760001CF0BAEF16F031D0F7EC18F018EC19F0D5
:10077000030E9BEC19F018EC19F0030E27EC19F09E
:10078000CEEC19F027EC16F0EF6A0DEC1CF00DEC36
:100790001CF0D950160FC6EC16F018EC19F0030E29
:1007A00011EC1AF05EEC19F018EC19F048EC16F0A8
:1007B00018EC19F0EE6AED6AEA6ADF34EFEC18F033
:1007C000A1EC19F0100EE7EF0EF001D0C5D7DF2A2B
:1007D0003FD736EC17F0100EDF5C0FE237EC16F067
:1007E000020E0E01D35D06E1030ED36FD169D2690B
:1007F00066EC16F03DEC17F0EED7DF6A040EDF5C16
:1008000005E2E1EC1AF002E1DF2AF8D7040EDF5C22
:100810000EE1DF6A040EDF5C05E25CEC1AF002E137
:10082000DF2AF8D7040EDF5C02E10F0133930F01DA
:1008300033A7AED033AD06D00E01010E826F240E69
:10084000E7EF0EF033AB03D0000EE7EF0EF033A965
:1008500015D03399338B58CF82FEDF6A080EDF5CE8
:1008600008E2DF50EA6ACA0FE96E000ED3EC19F015
:10087000F5D70E01836B190EE7EF0EF0180E535DDE
:1008800022E0DF6A53513BEC19F00E01C151020B1B
:1008900003E085EC16F003E00F01532B02D0010EAC
:1008A000DF6E180E0F01535D02E2DF50EBE0DF5008
:1008B0000AE0532B0EEC19F00F0134B1DF8EDFECA0
:1008C00019F0ACEF17F092EC5AF0190E06C0DBFFEE
:1008D0001A0E07C0DBFF1B0E08C0DBFF1C0E09C091
:1008E000DBFF0F013451010B32E00E01CC512FE040
:1008F000D950190F73EC1AF00F015451EE5C146EBD
:100900005551EE58156E5651EE58166E5751EE5819
:10091000176EC6CE18F0C7CE19F01A6A0C68520EC0
:100920000D6E070E0E6E18C007F019C008F01AC041
:1009300009F0B3EC57F004C018F005C019F006C078
:100940001AF01B6A1ABE1B6834EC18F021E20F0182
:1009500033891CEC1BF0D3C0EFFF20EC16F0D2C0A3
:10096000EFFF11EC1CF0DF6A0F013451010B08E0BE
:100970000E01CC5105E10F013451020B01E0DF8E75
:10098000DFEC19F0D2C0E6FFD3C0E6FFD7EF1BF0D3
:10099000000EE7EF0EF0E5EF0EF0FE0EDB50490A19
:1009A00002E1D0EF0EF0010A02E1CAEF0EF00F0AE9
:1009B00002E18EEF0EF0010A02E173EF0EF0030A7E
:1009C00002E16EEF0EF0010A02E169EF0EF0070A94
:1009D00002E146EF0EF0010A02E12BEF0EF0030AEE
:1009E00002E124EF0EF0720A02E12CEF0DF0010A91
:1009F00002E11FEF0DF01C0A02E1F8EF0CF0040A0F
:100A000002E1DEEF0CF0030A02E16BEF0BF00C0ADF
:100A100002E164EF0BF0070A02E154EF0BF03E0A2B
:100A200002E1DCEF0AF0070A02E1A9EF0AF00D0A81
:100A300002E179EF0AF0040A2FE0030A02E0E5EF91
:100A40000EF0DF6A190EDF5C08E2DEEC1BF0EF50FF
:100A50000E019C5D02E0DF2AF5D7190EDF5C03E191
:100A6000000EE7EF0EF098EC19F0EF500AE098EC6A
:100A700019F0EFCF9CFE340EF36E1D0EF3CFDBFFAB
:100A800002D01D0EDB6A98EC19F0EF6A1D0EDB50E8
:100A9000E7EF0EF0E5EF0EF0260E84CEDBFF270E1B
:100AA00085CEDBFF74EC14F0E76E1E0E25EC17F01C
:100AB0001F0E25EC17F0200E25EC17F0210E25EC6B
:100AC00017F0220E25EC17F0230E25EC17F0240E5C
:100AD00025EC17F0250EE7CFDBFF0E01921D01E19B
:100AE000931D07E062EC18F002E1FF0EED1801E043
:100AF000E7D217EC1AF02FE0DF6A030EDF5C2BE27F
:100B0000E5EC1AF026E0220EDBCF14F0230EDBCF4B
:100B100015F029EC1BF030EC1BF0EECF16F0EFCF08
:100B200017F000011650141802E11750151811E1C2
:100B300029EC1BF037EC1BF0EF50F36E250EDB5069
:100B4000F35C07E1DFCFE6FF1DEC14F0E55201EFA7
:100B500017F0DF2AD2D717EC1AF001E02DD274EC8F
:100B600014F0DF6EDF0401E024D20F013351800B5B
:100B700001E11FD2A9EC1AF002E1DA51151802E1E5
:100B800001EF17F0290EDB6AAFEC1AF001E3DB2A64
:100B9000010EEF6EDF6EBAEC17F00AE2A4EC17F06C
:100BA0005AEC16F001E3DB2A62EC16F0DF2AF3D7E9
:100BB0002F0EDB50E76E300EE7CFDBFF2F0EDB2A68
:100BC0000E019D5111EC18F004E6D80E145C000ED5
:100BD000155802E22F0EDB2A9D5111EC18F004E6A5
:100BE000B40E145C000E155802E22F0EDB2A9D5144
:100BF00011EC18F004E6900E145C000E155802E299
:100C00002F0EDB2A6C0E9D5D02E22F0EDB2A480EB2
:100C10009D5D02E22F0EDB2A240E9D5D02E22F0E67
:100C2000DB2A2B0EDBCFE6FFE2EC1BF061EC1AF0C7
:100C30002C0EB4EC1AF001E139D10E01921D01E144
:100C4000931D01E033D1310EDB6A040EF36E310ED9
:100C5000D2EC16F01DE2310EF8EC16F016E0310E73
:100C600009EC1AF0EFCF14F02C0EDB50145C0DE100
:100C7000310E0DEC1AF05DEC18F0220EDB50151859
:100C800003E1230EDB50161803E0310EDB2ADDD71B
:100C9000040EF36E310ED2EC16F043E29DEC16F02A
:100CA000310E1DEC16F0A8EC16F02F0EDBCF14F071
:100CB000310E79EC1BF0EF50D880145430E379EC0E
:100CC00019F084EC19F003E12E0EDB50151809E041
:100CD0001DEC1AF01EE077EC1AF01BE1C151010B7C
:100CE00018E1A9EC2AF00E01A9B110D0310E7EEC6A
:100CF0001BF02F0EEFCFDBFFD9502A0FC6EC16F0FA
:100D0000310E61EC1AF07EEF17F008D0000EE7EF1D
:100D10000EF0010EF36E290EF3CFDBFF54D001EF7E
:100D200017F0D950320FC6EC16F0D950310FC6EC7F
:100D300016F0E2EC1BF0DBCFE6FF4FEC10F00DEC11
:100D400017F0000902E101EF17F0310E09EC1AF07B
:100D50002C0EDBCFEFFF310E0DEC1AF0A6EC18F0E5
:100D600079EC19F0310E31EC19F0F80EEF1403099B
:100D7000EF6E310E31EC19F0EF862F0E84EC19F086
:100D800003E12E0EDB50151809E01DEC1AF016E0F9
:100D900077EC1AF013E1C151010B10E1A9EC2AF034
:100DA0000E01A9B108D0B1EC19F0310E61EC1AF0C6
:100DB0007EEF17F008D0000EE7EF0EF0010EF36E95
:100DC000290EF3CFDBFF290EDB506FE0DBEC18F0D0
:100DD0006CE1310E92EC1BF008E10E0E0BEC1BF0F7
:100DE000310E2BEC19F0EAEC1AF0310E92EC1BF0FC
:100DF0005AE0D9502A0FEEEC16F0310E2BEC19F018
:100E0000330EEECFDBFF340EEDCFDBFFDF6ABAEC43
:100E100017F00EE25AEC16F001E3DB2AEF50E66E13
:100E2000BEEC16F001E3DB2A62EC16F0DF2AEFD706
:100E3000BEEC16F001E3DB2A04EC18F0BEEC16F071
:100E400001E3DB2A62EC16F0BEEC16F001E3DB2ACC
:100E500090EC18F0BEEC16F001E3DB2A94EC18F0ED
:100E6000BEEC16F001E3DB2ADFEC18F0BEEC16F066
:100E700001E3DB2AE3EC18F0BEEC16F001E3DB2A19
:100E8000E7EC18F0BEEC16F001E3DB2A1E0EDBCF18
:100E9000EFFF9DEC16F0310EA6EC19F0A8EC16F061
:100EA000310EB4EC1BF001EF17F083D01BEC18F0FF
:100EB00019E077EC1AF016E18ACE14F08BCE15F01B
:100EC000220EDB50141803E1230EDB50151824E02A
:100ED0000E01C529E66ECBEC16F0EFEC1AF068ECCB
:100EE00018F01AE10001D2510E018A1904E1000143
:100EF000D3510E018B195BE1C5CEE6FFCBEC16F0AA
:100F0000D9C0E6FFDAC0E6FFD3EC13F0176E050E8A
:100F1000E15E175000094BE1CAEC17F003E12E0E19
:100F2000DB50151809E01DEC1AF017E077EC1AF009
:100F300014E1C151010B11E1A9EC2AF00E01A9B194
:100F400009D0B1EC19F0040EE66ECBEC16F07EEF92
:100F500017F02FD0000EE7EF0EF0BAEC1BF025E0F3
:100F6000DBEC18F022E1AFEC1AF001E3DB2A52ECE3
:100F700019F05AEC16F001E3DB2A9AEC1BF001E3BE
:100F8000DB2A9AEC1BF001E3DB2A9AEC1BF001E36D
:100F9000DB2A9AEC1BF001E3DB2ABFEC1BF016EC1A
:100FA0001CF014EC1BF027EC1AF0C7EF18F001EF5F
:100FB00017F001EF17F09BD2240EDB50010876E208
:100FC000D950350F7AEC1AF06FE04EEC1BF037EC8D
:100FD0001AF0EF98350EDBCFE6FF1DEC14F0E5526A
:100FE0004EEC1BF0AEEC19F082CEEFFF4EEC1BF096
:100FF0000A0E4EEC16F01E0EDBCFEFFF4EEC1BF090
:10100000090E4EEC16F0E7EC18F04EEC1BF0070E54
:101010004EEC16F0200EDBCFEEFF210EDBCFEDFF06
:101020004EEC1BF030EC1BF0A6EC18F0240EDB04A9
:10103000E66E4EEC1BF0040E09EC1CF04EEC1BF0BF
:1010400037EC1BF0250EDBCFEFFF82CEE6FFDFECA7
:1010500016F04EEC1BF044EC17F009E1350ED4EC21
:101060001BF0350E12EC17F001EF17F01CD0DF6A01
:10107000ADEC18F0360E82CEDBFF0E01825108E097
:10108000A4EC17F0CCEC18F0350E47EC19F0F5D7BE
:10109000010EDBCF84FE020EDBCF85FE360EDBCFEA
:1010A00082FE0F01338102D001EF17F0A9EC1AF094
:1010B00002E1DA51151802E101EF17F03DEF18F0E7
:1010C00017EC1AF001E096D174EC14F0DF6E040E08
:1010D000DF5C36E174EC14F0DF6EA9EC2AF0DFACD3
:1010E00018D00F0133870001C191DF5002E1000EDB
:1010F00001D0010E0F013491E8B034813483536B79
:1011000034B102D0180E536FD3EC17F0010E586FA4
:1011100014D0CBEC16F070EC18F00FE02EEC15F0BC
:101120000E01826B77EC18F016EC18F028EC59F0F1
:101130000DEC17F03C0EE7EF0EF0000EE7EF0EF0AF
:101140000F0133AF54D1DF0402E11CD550D1030E9F
:10115000DF5C4BE1DBEC18F048E148EC1BF0030EE0
:10116000EF6E81EC1AF074EC14F0E76E370EE7CFF7
:10117000DBFF48EC1BF0370EDBCFEFFF74EC14F015
:10118000E76E380EE7CFDBFF48EC1BF0380EDBCF05
:10119000EFFFA9EC2AF0BAEC1AF002E1DA511518C7
:1011A00006E10E01A66B000EE7EF0EF018D03AEC48
:1011B0001BF0D950390FC6EC16F0AAEC19F096ECDA
:1011C00017F04AEC1AF00BE1BAEC1BF008E10E0143
:1011D000A66B0E017F0EA76F000EE7EF0EF027EC57
:1011E0001AF0100EE7EF0EF002D1020EDF5C01E004
:1011F000FED03A0EDB6A040EF36E3B0EF3CFDBFF3C
:10120000D9503C0FEEEC16F05AEC16F001E3DB2A55
:10121000EF6E010EDF6E7CEC18F00AE2A4EC17F022
:101220005AEC16F001E3DB2A62EC16F0DF2AF3D762
:101230003D0EDBCFE6FF410EDBCFE6FF420E61EC59
:101240001AF03E0EB4EC1AF074E03B0EDB6A040EAA
:10125000F36E3B0ED2EC16F01DE23B0EF8EC16F0EE
:1012600016E03B0E09EC1AF0EFCF14F03E0EDB5007
:10127000145C0DE13B0E0DEC1AF05DEC18F03F0E26
:10128000DB50151803E1400EDB50161803E03B0E4F
:10129000DB2ADDD73B0EDB5004084AE0050EE66E84
:1012A000E66A3DEC1AF0C3EC1BF00E01D36B3B0E6B
:1012B0001DEC16F03AEC1AF0EF50F36E430ED2EC40
:1012C00016F00CE23B0E1DEC16F03AEC1AF0430E51
:1012D000DBCFEFFF8ACED4FE8BCED5FE050EE66EB9
:1012E00065EC1AF03DEC1AF014C0E6FF15C0E6FFFD
:1012F0008EEC52F0166E050EE15E1650F4EC1AF00C
:101300003F0EDB50141803E1400EDB50151810E0BF
:10131000010EF36E3A0EF3CFDBFF3B0E7EEC1BF0BB
:10132000430EDBCFE7FFEF50E726430EE7CFDBFFAF
:1013300019D0F4EC1AF0200EDB50141803E1210E42
:10134000DB5015180FE0070E146E430EDBCFE7FFDE
:101350001450E726430EE7CFDBFF010EF36E3A0E83
:10136000F3CFDBFF3A0EDB5042E0DBEC18F03FE15D
:10137000A9EC2AF03B0EDB5004080DE03B0E1DECFF
:1013800016F00A0E4EEC16F0030EEECFDBFF040E45
:10139000EDCFDBFF0AD0AAEC19F0CBEC16F065EC30
:1013A00017F003E1000EE7EF0EF0D9503C0FEEEC22
:1013B00016F0DF6A7CEC18F008E25AEC16F001E354
:1013C000DB2A52EC19F0DF2AF5D70E0120EC16F0DB
:1013D000250EDBCFEFFF20EC16F0240EDBCFEFFF66
:1013E000FFEC18F027EC1AF0100EE7EF0EF001EF0B
:1013F00017F07DD0BAEC1AF002E1DA51151806E0C8
:1014000062EC18F002E1FF0EED1803E13DEF18F079
:101410006ED00F013351800B6AE0240EDB500108BF
:1014200066E2DBEC18F063E1AAEC19F0D9501E0F6C
:1014300078EC17F0E4EC19F0E66E96EC17F0E66A3B
:1014400035EC11F00DEC17F0E76E440EE7CFDBFF43
:10145000DB50030A19E0010A17E0060A15E0050A45
:1014600010E0010A01E010D03AEC1BF00E018251AD
:1014700003E081EC1AF0FAD727EC1AF0C7EF18F066
:1014800036D001EF17F033D0F7EC18F05EEC1BF01C
:10149000CEEC19F0440EDB50020805E127EC16F003
:1014A000010EEF6E15D0440EDB50030805E127EC6A
:1014B00016F0020EEF6E0CD0440EDB50040805E16E
:1014C00027EC16F0040EEF6E03D027EC16F0EF6A4F
:1014D00027EC16F094EC18F027EC16F090EC18F0CE
:1014E000FCEC16F0F6EC17F0C7EF18F000D001EFA7
:1014F00017F0DF6A080EDF5C08E2DF50EA6A8A0F45
:10150000E96E0E0ED3EC19F0F5D787EC17F018083A
:1015100002E1000E01D0010EDF6EDF5004E046EF65
:1015200018F0E5EF0EF05FEC0FF000090AE07FEC39
:101530000FF0180806E0F1EC0EF082CE4DFF46EFFA
:1015400018F00E01010E826F88698969170EE7EFA6
:101550000EF00F01339B338DD2C0E6FFD3C0E6FF00
:1015600070EC18F002E02EEC15F0080E85EC1AF085
:1015700016EC18F057EC19F0020E0F01585D19E146
:101580000E0182510EE10F013451010B07E00E01F3
:10159000CC5107E10F013451020B03E00E01826BC5
:1015A00003D00E01CB0E826F3C0EE7EF0EF0E5EF9D
:1015B0000EF04D0EE7EF0EF0020E0E01885D71E1A8
:1015C00052EC18F06EE11BEC18F002E01AD069D072
:1015D0007FEC0FF0180865E00E01C183C08DC08F4D
:1015E000DF6A080EDF5C09E2DF50EA6AB10FE96EDC
:1015F0000E0EEA22EF6ADF2AF4D70E01C42B6FEC3D
:1016000016F00E019BAD04D00E01C099C09B03D013
:101610000E01C089C09BC181020E6CEC17F0780BE3
:10162000E840E840E8401F0B0E010F0BF36EF00E90
:10163000C0EC1AF00F0B0E010F0BF36EF346F346DE
:10164000F346F3460F0EC0EC1AF0F00BE8380F0B20
:101650000E010F0BF36EF00EC015F310C06F9DCE90
:10166000BEFE0E019B510E01C195800B01E0C185AC
:10167000020E6CEC17F0800B800802E0000E01D027
:10168000010E0E01C197E8B0C18786CEBBFE87CEA2
:10169000BCFE8ACEB9FE8BCEBAFE89CEBDFE91ECE1
:1016A00016F001EF17F091D387EC17F0DF6E180EEC
:1016B000DF5C09E0B9CE92FEBACE93FE0E01010EB8
:1016C000826F230E84D381D3E66AC4EC15F0E55211
:1016D0003D0E7DD37AD30E01885101E0DBD08351DA
:1016E00007E10E01A9990E01C40E826F370E6FD368
:1016F000300EE66EF2EC55F0E552F3CF4BFFF4CF2F
:101700004CFF0F014B514C1107E10E018451851123
:1017100002E0DFEC17F0E5D74A6BADEC18F0DF6ABA
:10172000200EDF5C44E24ECF14F04FCF15F050CFC7
:1017300016F051CF17F01DEC18F02BE08ACE14F004
:101740008BCE15F08CCE16F08DCE17F01DEC18F068
:1017500020E1B4EC18F0EFCF14F0700E145C14E23A
:101760004A517AEC16F0DFCFEFFFB4EC18F0EF50EF
:10177000E66E4A517AEC16F0EE5262EC16F04A51DF
:10178000E7EC1BF0EF6A4A2B010EDB2A020E01E3A5
:10179000DB2A0E01D8908D338C338B338A330F01C3
:1017A000D890513350334F334E33DF2AB9D74ACF15
:1017B000DFFFDF50000841E2010EF36E450EF3CF6C
:1017C000DBFFDBCF14F0DF04D880145434E3450E84
:1017D000DB504FEC18F0EE52EFCF14F0F9EC1AF0AA
:1017E000EE52EF50145C24E2F9EC1AF0460EEECF04
:1017F000DBFF470EEECFDBFF480EEECFDBFF450EE3
:10180000DB507AEC16F0EECF14F05DEC18F0F9EC4A
:101810001AF0C6EC1AF0450EDB507AEC16F0460EC4
:10182000DBCFEEFF470EDBCFEEFF480EDBCFEEFF48
:10183000450EDB2AC6D7DF06BCD70E0184518511C1
:1018400002E0DFEC17F00F014A5104E116EC17F04B
:1018500048D7BBD2496B0E01010E886F146E156A12
:10186000166A176A2AEC1AF0EF501F0B07E0D8909F
:101870001436153616361736E806F9E114C08AFE16
:1018800015C08BFE16C08CFE17C08DFE52CF89FE90
:10189000280E9DD22AEC1AF0AEEC19F083CEEFFFA1
:1018A0000E018651871119E086CEE9FF87CEEAFF47
:1018B000130E4EEC16F08FEC17F086CEE6FF87CEB7
:1018C000E6FF2EEC1AF00E01866B876B010EDBCF64
:1018D00086FE020EDBCF87FEE3D70F01492B4A516C
:1018E000495D01E0B8D7496B59CF86FE5ACF87FED4
:1018F0000E01861D01E1871D0BE02AEC1AF00BECAE
:1019000018F006E00F014A51495D02E2492BF5D774
:101910000F014A51495D05E10E01866987690F0192
:10192000496B010EDF6E0F014A51DF5C1BE249512A
:10193000E7EC1BF0EFCF14F0DF50E7EC1BF0EF50BB
:10194000D88014540DE20E01861D01E1871D06E0CA
:10195000DF504FEC18F00BEC18F002E1DFCF49FF3D
:10196000DF2AE1D70E01861D01E1871D0BE1D6CFED
:1019700086FE3F0ED7140E01876F2AEC1AF00BEC8F
:1019800018F0F5E10001D96BDA6BEEEC34F00F01E1
:10199000339FD6EC14F02AEC1AF0EFCF88FE0E013C
:1019A0000F0E8E6F8F6F010E826F0001C1510E01FD
:1019B0008293040B01E082832D0E09D28CEC1AF085
:1019C0000E01825108E0180EDF5C02E02EEC15F0EB
:1019D000000EFDD10CD0180EDF5C09E0B9CE8AFEF6
:1019E000BACE8BFE4DCF82FE836B4C0EF0D1EDD183
:1019F0000F014B514C1102E016EC17F00E01825111
:101A000002E10F01338F0E01C56B3D0EC66F140E40
:101A1000C76FCEB10AD06F0EC86F790EC96F010EB5
:101A2000CA6FCB6BCC6BCD6BCE816FEC16F09DEC9F
:101A300015F00E01A999A987370EC9D1C6D10E019B
:101A4000825107E0EB0E825D02E1826B02D0C60E8E
:101A5000826F3E0EBCD1B9D10E01A9B704D0EBEC18
:101A600018F0BAEF16F00E01921D01E1931D01E08E
:101A70008CD0D9504A0F7AEC1AF002E1FDEF1AF03F
:101A80004BEC1BF037EC1AF0EF884BEC1BF0EFEC53
:101A90001BF0530EEE26070EEE22000EEE22EE2273
:101AA0000E01A751146E156A7F0ED8801456000ED1
:101AB00015560E01A651166E176A145016240E0103
:101AC000826F4BEC1BF0AEEC19F082CEEFFF8B5126
:101AD000400DF3500409E66E4BEC1BF00A0E09ECC6
:101AE0001CF08351E824E66E4BEC1BF0090E09EC68
:101AF0001CF04BEC1BF0070ECDEC1AF04BEC1BF07E
:101B000030EC1BF0D1EC18F04BEC1BF0040E4EEC5B
:101B100016F08ACEEFFF4BEC1BF037EC1BF09CCE9F
:101B2000EFFF82CEE6FFDFEC16F04BEC1BF044EC4F
:101B300017F008E14A0ED4EC1BF04A0E12EC17F035
:101B4000FDEF1AF0DF6A0E01A75111EC18F004E660
:101B50007F0E145C000E155805E2A72BA751A0ECD0
:101B60001BF0F1D70E01826B0E01A65108E00E01A9
:101B70008251822BA0EC1BF00E01A607F5D70F01B6
:101B80003381ECEC19F0000E22D1AAEC19F08BCEC7
:101B9000E6FF92CEE6FF93CEE6FF010EE66E65DB32
:101BA0000DEC17F0E76E4B0EE7CFDBFFDB50010AC1
:101BB00047E0010A05E00E01CF0E826FBAEF16F082
:101BC000DF6A190EDF5C06E298EC19F0EF5002E0D4
:101BD000DF2AF7D7190EDF5C02E1FDEF1AF098EC6F
:101BE00019F09CCEEFFF0E0120EC16F09CCEEFFF1B
:101BF00020EC16F08ACEEFFFF2EC1BF020EC16F092
:101C000093CEEFFF20EC16F092CEEFFF0E01835142
:101C1000E8249EEC19F00E018B51400DF35004099D
:101C20009EEC19F0D950490FC6EC16F089EC16F06D
:101C3000DEEC1BF0490EDBCFEFFF100EC8D003D057
:101C4000000EC5D000D0C1D00E01A999EBEC18F060
:101C5000370EBDD0BAD00E01A9890F014B514C11DE
:101C600002E016EC17F08ACE4EFF8BCE4FFF8CCEE3
:101C700050FF8DCE51FF89CE52FF86CE59FF87CEC1
:101C80005AFF0E01886B280EA2D09FD00F0133950A
:101C90000E01825103E10001C19114D00001C18104
:101CA000FF0E0E01825D0EE082CE3FFF92EC5AF0F5
:101CB00006C03BFF07C03CFF08C03DFF09C03EFF18
:101CC0000F0133859DEC15F00E01826B380E7FD02D
:101CD0007CD0EBEC18F0390E7AD077D0EBEC18F022
:101CE0003A0E75D072D087EC17F0180805E00E0197
:101CF000C50E826F3B0E6BD0E2D8000904E0FFD81E
:101D0000DF6E180806E10E01C70E826F3B0E5FD032
:101D10005CD067D80E01826B3B0E59D00E01A9B77B
:101D200004D0EBEC18F03C0E52D016EC18F0B9ECE5
:101D300014F0E552E552000916E00001C1910F01CF
:101D400033870E0182510F013491E8B0348134831E
:101D5000536B34B102D0180E536FD3EC17F0020E50
:101D6000586F000E34D08CEC1AF018080EE077ECA7
:101D70001AF00BE10EEC19F00E01825101E0DF8E3A
:101D8000DFEC19F0ACEF17F020D00E01C80E826F17
:101D90003C0E1DD00E01010E826F240E18D015D0FE
:101DA0000E0182510EE1836BD7C09AFED8C09BFE14
:101DB000020E896FD2C092FED3C093FE310E07D0BF
:101DC00004D0C10E826F3E0E02D0000E00D0146E01
:101DD0004C0EE15C02E2E16AE552E16E1450B2EFB2
:101DE00016F0ADEC16F0030EE126080EE66EE66A7C
:101DF0008A0EE66E0E0EE66E6AEC1AF028EC59F0CA
:101E00000DEC17F0D7C0BBFED8C0BCFE0E01BD69FB
:101E10000E0182B314D00E01C099C08BC8CEB9FE9A
:101E2000C9CEBAFE0E01C82B000EC923FE0EC8197A
:101E300002E1FF0EC91902E10F01348525D00E0120
:101E4000C089C09BCACEB9FECBCEBAFE0E01CD2B47
:101E5000C651CA27C751CB23060E086E096AC6CEE3
:101E60000DF0C7CE0EF095EC57F00001D9510624C5
:101E7000146EDA510720156E0E01CA51145CCB5155
:101E8000155802E20F0134870E0182510E01C191F3
:101E9000080B01E0C181C08DC09FC18391EC16F099
:101EA0000E01CC2BC42B6FEC16F09DEC15F0030E3D
:101EB000E15C02E2E16AE552E16EB2EF16F0000188
:101EC000C151010B17E0140E0E01CC5D13E20E019F
:101ED0008251020B04E10F013451040B0DE0040E9A
:101EE0000E01C55D07E2060ECD5D04E20F0134511F
:101EF000080B02E0000E01D0010E00D0120033ECFE
:101F00001AF02AEC17F0DF6A010EDB6A180EDF5CAC
:101F10000FE2010EDB500CE1A6EC1BF0C1B304D0C4
:101F2000DE52010EDD6E04D030EC17F0DF2AEED762
:101F3000010EDB5003E0DF5003D002D0180E00D0BA
:101F4000146E020EE15C02E2E16AE552E16E1450A9
:101F5000B2EF16F033EC1AF0DF6A030EDF5C05E235
:101F6000E5EC1AF002E0DF2AF8D7030EDF5C02E1AD
:101F7000000E48D02D0E0BEC1BF052EC16F044EC8A
:101F800017F002E1000E3ED0FD0EDBCFE9FFFE0EA2
:101F9000DBCFEAFFDFCFEFFF29EC1BF00B0E4EEC9F
:101FA00016F0EF689DEC16F029EC1BF0EFEC1BF03F
:101FB000A8EC16F029EC1BF03AEC1AF0A8EC16F09D
:101FC00029EC1BF037EC1AF0EF9A29EC1BF037ECF8
:101FD0001AF0F00EEF140309EF6E010EDB6A180E13
:101FE0006FEC1AF00DE229EC1BF093EC1AF0010EE5
:101FF000DB5020EC1AF0030EEF6E010EDB2AEFD758
:10200000010E00D0146E020EE15C02E2E16AE552BC
:10201000E16E1450B2EF16F0BEEC19F0FC0EDB507E
:10202000040806E0FC0E65EC19F0D36B66EC16F0C4
:1020300048EC1BF0020EEF6E48EC17F044EC1AF07F
:10204000AEEC19F01CEC19F027EC16F0FD0EDBCF0E
:10205000EFFF27EC16F0FE0EDBCFEFFF48EC17F09A
:1020600037EC1BF01CEC19F048EC17F037EC1BF0C8
:1020700044EC1AF030EC1BF0BFEC1BF0FE0EDBCF93
:10208000EFFF20EC16F0FD0EDBCFEFFF14EC1BF0A2
:10209000FCEC16F0F6EC17F0E552B2EF16F0BEECE1
:1020A00019F036EC17F037EC16F0100EDF5C0CE28E
:1020B00084EC18F003E1FE0EDB50151805E03DEC52
:1020C00017F037EC16F0F1D7100EDF5C10E136ECAC
:1020D00017F037EC16F0100EDF5C09E2030E0E016C
:1020E000D35D05E03DEC17F037EC16F0F4D74FEC7C
:1020F00017F0DFCFEFFFDF6A040EDF5C05E25CEC78
:102100001AF002E0DF2AF8D79DEC17F0DFCFEFFFDF
:10211000140E0BEC1BF056EC16F044EC17F002E139
:10212000000E29D0FD0EDBCFD1FEFE0EDBCFD2FE9E
:102130000E01010ED36F66EC16F033EC1BF03AEC97
:102140001AF0EF689DEC16F033EC1BF0A8EC16F0DB
:102150004FEC17F0EF50E66E33EC1BF0120E09EC6B
:102160001CF033EC1BF0EFEC1BF0EE6AED6A0F0194
:102170003383010E00D0E552B2EF16F033EC1AF0C3
:10218000FE0EDB50050A21E0010A1BE0070A15E0FC
:10219000010A0FE0030A08E0010A01E019D03D0E30
:1021A000DE6E140EDD6E14D05D0EDE6E030EDD6E7F
:1021B0000FD08D0EDE6EDD6A0BD0150EDE6EDD6A81
:1021C00007D0010EDE6EDD6A03D0DE6ADD6A00D064
:1021D000DECF14F0DDCF15F014C0F3FF15C0F4FF0F
:1021E000020EE15C03E200D0E16AE552E16EB2EF7B
:1021F00016F033EC1AF036EC17F0010EDB6A37EC10
:1022000016F084EC18F003E1FE0EDB50151803E124
:10221000010EDF6E07D0010EDB2A0E01050ED62758
:10222000000ED723100E6FEC1AF002E2DF50E7E049
:10223000DF500BE09DEC17F0D4CEEEFFD5CEEDFFD6
:102240004FEC17F0D3CEEFFF04D04FEC17F0030E96
:10225000EF6EDF50146E020EE15C03E200D0E16A23
:10226000E552E16E1450B2EF16F0BEEC19F0FC0E20
:10227000DBCFE6FFFD0E0AEC17F00EE077EC1AF06C
:102280000BE14FEC17F0FC0EDBCFEEFFFD0EDBCFCA
:10229000EDFF000E36D035D0800EE66ED4EC1AF08D
:1022A000D9C0E6FFDAC0E6FFE66AE66AC2EC17F0DC
:1022B0001EE0FB0EDB50020803E1F9EF17F016D029
:1022C000FCEC16F0B2EC17F04AEC1AF008E0DF5024
:1022D00003E1000E16D00AD0FB0EDB6A08D0FB0E1D
:1022E000DB0403E1F9EF17F001D001D00AD0B2EC22
:1022F00017F065EC17F003E1020E03D002D0000ED8
:1023000000D0E552B2EF16F0ADEC16F0030EE12668
:10231000020EDB6ADF6A040EDF5C27E25CEC1AF077
:102320001DE0FE0EDB501FE033EC1BF00E0E4EECFA
:1023300016F0EFCF14F0FD0EDB50145C14E133EC1B
:102340001BF0080E4EEC16F05DEC18F0FB0EDB50A7
:10235000151803E1FC0EDB50161805E1010EF36EB3
:10236000020EF3CFDBFFDF2AD6D7F80EDBAE04D0A8
:10237000DE52100EDD6E03D0DE52080EDD6E020E50
:10238000DB5022E0020EDB6A36EC17F0010EDB5068
:10239000DF5C1AE237EC16F0D1CE14F0D2CE15F095
:1023A000F90EDB50141803E1FA0EDB50151804E0A7
:1023B000030E0E01D35D05E1010EF36E020EF3CFA5
:1023C000DBFF3DEC17F0E2D7020EDB50146E030E7C
:1023D000E15C03E200D0E16AE552E16E1450B2EF35
:1023E00016F0ADEC16F00B0EE126010EDB6A040EC2
:1023F0006FEC1AF008E226EC1CF006EC17F003E094
:10240000010EDB2AF4D7010EDB50040802E1040EB2
:10241000C1D10B0E0BEC1BF026EC1CF0EFEC18F00E
:1024200044EC17F002E1040EB5D1FE0EDB5001E1E1
:1024300084D0FCEC18F037EC1BF0D1EC18F0FCEC7D
:1024400018F0050ECDEC1AF00E01A751166E176AA2
:102450007F0ED8801656000E1756080E1626000E50
:1024600017220E01A65100011624146E000E17202B
:10247000156E9DEC1BF014C0EFFF9DEC1BF056ECAD
:1024800017F002E12DEF1BF0FCEC18F027EC18F030
:10249000F35004090EEC1BF001E3DB2A62EC16F0AA
:1024A0000E018351E8240EEC1BF001E3DB2A02EC61
:1024B0001BF001E3DB2A92CEEFFFE2DB01E3DB2A34
:1024C00093CEEFFFDDDB01E3DB2AD9C0EFFFD8DBE2
:1024D00001E3DB2ADAC0EFFF040E8ACEDBFFD0DB9C
:1024E00001E3DB2A040EDBCFEFFFCADB01E3DB2ACB
:1024F0009CCEEFFF0E01A75111EC18F004E67F0E01
:10250000145C000E155809E2A72BA75174EC17F0C4
:10251000B7DB01E3DB2AD6DBEDD7DF6A0E01A6517C
:10252000A607000909E0DF50DF2A74EC17F0A8DBEA
:1025300001E3DB2AC7DBF2D769D0040E0E01845F0A
:10254000000E855BFCEC18F037EC1BF0C2EC18F0C9
:10255000840703EC1CF0EE52B5DB8407000E03EC9D
:102560001CF0B0DB020E845F000E855B080E822734
:102570009DEC1BF082CEEFFF9DEC1BF056EC17F0AC
:1025800002E12DEF1BF0FCEC18F027EC18F0F3CF74
:1025900014F014C0E6FFA8D9E552E7CF14F03F0BC2
:1025A00014100EEC1BF001E3DB2A76EC19F001E3CA
:1025B000DB2A76EC19F001E3DB2A76EC19F001E373
:1025C000DB2A76EC19F001E3DB2A76EC19F001E363
:1025D000DB2A78DB89D9FF0FE76E040EE7CFDBFF3C
:1025E0004FDB01E3DB2A040EDBCFEFFFEBEC1BF04C
:1025F00001E3DB2AE552E750EF6E0E01825106E05F
:10260000EBEC1BF001E3DB2A5DDBF7D796DBFCECA0
:1026100018F0070E43DB9CDBD950060FB7DBD9500F
:10262000050FB4DBFCEC18F0050E11EC1AF037DDE9
:10263000F4DB000905E1FCEC18F02ADB2DEF1BF0C0
:10264000ECEC19F00E0E0BEC1BF0050E2BEC19F058
:10265000EAEC1AF0020E14C0DBFF030E15C0DBFF1C
:102660001450151010E10E01010ED36F2FDB050E73
:102670002EEC19F00DDB050ECFEC17F0FCEC18F08A
:1026800007DB2DEF1BF0050E09EC1AF040CFEFFF32
:10269000050E0DEC1AF0D1EC18F0050E79EC1BF0DC
:1026A000EF6A050EB4EC1BF0050E31EC19F0EF9655
:1026B000E7DA01E3DB2A010EEF6EE2DA01E3DB2A5F
:1026C000800EEF6E0F014051402B0EEC1BF001E32A
:1026D000DB2A1BEC1CF0EF500EEC1BF001E3DB2AB5
:1026E0001BEC1CF08CEC18F0CBDA01E3DB2A02ECDB
:1026F0001BF001E3DB2AEF6A31EC18F0C1DA01E3E9
:10270000DB2A02EC1BF001E3DB2A040EDBCFEFFF38
:10271000B7DA01E3DB2ADAC0EFFFB2DA01E3DB2A42
:10272000D9C0EFFFADDA01E3DB2AEF68A9DA01E3F4
:10273000DB2AEF68A5DA01E3DB2AEF6AA1DA01E31D
:10274000DB2A050EEF6E92EC5AF0070E06C0DBFF97
:10275000080E07C0DBFF090E08C0DBFF0A0E09C028
:10276000DBFF070EDBCF14F0080EDBCF15F0090EF0
:10277000DBCF16F00A0EDBCF17F0040E145E5D0EF1
:10278000155A000E165A175A050EA6EC19F0E0DA83
:10279000010E00D0146E0B0EE15C02E2E16AE5521C
:1027A000E16E1450DFD2D9DAFA0EDB5003E1010EEC
:1027B00043D042D0BBEC18F0FB0EDBCF16F0FC0E82
:1027C000DBCF17F01650145C1750155833E2FB0E90
:1027D000DBCF18F0FC0EDBCF19F0FD0EDBCF1CF0C9
:1027E000FE0EDBCF1DF018C0E6FF19C0E6FF1CC0CF
:1027F000E6FF1DC0E6FFFA0EDB04E66EBFDCE55225
:10280000E552E7CF1DF0E552E7CF1CF0E552E7CFE8
:1028100019F0E552E7CF18F01C50F3241A6E1D5042
:10282000F4201B6E1A50185C1B50195803E2010E5D
:1028300003D002D0000E00D095D2BEEC19F0DF6AB2
:10284000180EDF5C18E2DF503BEC19F00E018A51E4
:102850000E01B91904E10E018B510E01BA1909E1FB
:10286000FE0EE8D993EC1AF0DF5020EC1AF0EF904E
:1028700002D0DF2AE5D7E55275D20F01322B325153
:1028800001E1322B325100D01200BEEC19F00E01E2
:10289000D6EC18F0DF6ADEDA180EDF5C04E241DA0B
:1028A00011EC1BF0F9D70E01C46BCC6BCD6BCE9144
:1028B0003C0EC26FA50EC36F12DAE55253D2BEECC6
:1028C00019F00E01030ED36FD169D2690E019F0E6C
:1028D000D66FA00ED76FDF6A100EDF5C03E2F6D969
:1028E000CCDAFAD7E5523ED20E01825103E1000E56
:1028F0000BD00AD0820784CEE9FF85CEEAFF842B75
:10290000000E8523EF5000D0120083EC1BF0180E50
:10291000DF5C0DE2A6EC1BF0C1A306D0E8DBFFEC08
:1029200019F002E1DF5005D011EC1BF0F0D7180EC2
:1029300000D0E55217D283EC1BF0180EDF5C15E2D5
:10294000A6EC1BF0C1A30ED0B9CE14F0BACE15F090
:10295000FD0EDB50141803E1FE0EDB50151802E1EA
:10296000DF5005D011EC1BF0E8D7180E00D0E5526F
:10297000F9D1F3D9080EE12685EC1AF03DDA57ECCF
:1029800019F0080EE66EE66A37DAFFEC19F003E19B
:10299000010E03D002D0000E00D0146E080EE15CD0
:1029A00002E2E16AE552E16E1450DCD1BEEC19F0AE
:1029B000DF6A50DA180EDF5C13E2A6EC1BF0C1519F
:1029C000020B0BE0A2D909E0C051E4EC19F00009B8
:1029D00004E0ECDB0E01C407A4D911EC1BF0EAD72C
:1029E0007ED9E552BFD1B9D90E01A9810E01020EDF
:1029F000886FD7C086FED8C087FED9C08AFEDAC0ED
:102A00008BFE896FD7C09AFED8C09BFEFD0EDBCF30
:102A100092FEFE0EDBCF93FE90DAD4C0EFFFD4C05F
:102A20009CFE856BD950FD0FE96EFF0EDA20EA6E31
:102A3000FF0EEE1802E1FF0EED180CE08581FD0E91
:102A4000DBCFE6FFFE0EE6D905E00E01C1B102D0F4
:102A50000E0185850E01010E846F84D177EC1AF08A
:102A60000AE10E01CC070E016ADB010802E10E014A
:102A7000CD0763D801D0C1930E0198DB52D90E0166
:102A8000C4076FEF16F083EC1BF0180EDF5C17E243
:102A9000A6EC1BF0C1A310D0FE0EDB50BD5D0CE117
:102AA0000E0186510E01BB1904E10E0187510E0182
:102AB000BC1902E1010E05D011EC1BF0E6D7000EA7
:102AC00000D0E5524FD133EC1AF0DF6AC3D9010EC2
:102AD000DB6A180E6FEC1AF025E2A6EC1BF0C15170
:102AE000020B1CE012D91AE146DBB951141802E1BD
:102AF000BA5115180BE00E01C529E66EC7EC1BF0A4
:102B0000B9CEE6FFBACEE6FFE3DA08E016DAB9CED0
:102B1000EEFFBACEEDFF010EDF6E04D0A1D9010E9B
:102B2000DB2AD7D7DF50146E020EE15C03E200D03F
:102B3000E16AE552E16E145015D10001C26B110E2D
:102B4000C36F0E01C551080DF3CFC4F00001C15190
:102B5000010B19E0140E0E01CC5D15E2180EC45DD8
:102B600012E20F0134B502D00001C48F040E0E0131
:102B7000C55D09E2060ECD5D06E20F013451080B7A
:102B800002E10001C4851200F9DBD6CF32FF0E014D
:102B9000A96B0F01336B346BDF6A190EDF5C04E243
:102BA000C7DBEF6ADF2AF9D7FE0EDB5006E10F0123
:102BB0004B514C1102E0CEEC1BF00F014B6B4C6BF8
:102BC000DF6A030EDF5C10E2FE0EDB5008E1E5EC8D
:102BD0001AF005E029EC1BF05BD864D859D862D80C
:102BE000EE6AED6ADF2AEDD7DF6A040EDF5C0EE2E3
:102BF000FE0EDB5006E1E1EC1AF003E022EC1BF0E4
:102C000047D8EA6ADF3495D8DF2AEFD7DF6A040EA7
:102C1000DF5C0DE2FE0EDB5005E15CEC1AF002E039
:102C200045D836D843D8EE6AED6ADF2AF0D747DEBA
:102C3000E55298D006DB09EF19F010DB09EF19F027
:102C4000A751A70752EF1AF0CADA09EF19F0A651F7
:102C5000A62B52EF1AF0110EE66EE66ACFCE14F0F4
:102C6000D0CE15F05DDB6AEC1AF057EF19F0050EC7
:102C7000E66EE66AD6CE14F0D7CE15F0C3EF1BF0A1
:102C8000020EDBCFE9FFDB2A030EDBCFEAFF1200E7
:102C9000EECFE6FFEFCFE6FF2EEF1AF0E926000EAB
:102CA000EA221200EA6ADF3465EF1BF0EA6ADF34D9
:102CB0006DEF1BF0010EDBCFE9FFDB2A020EDBCF4D
:102CC000EAFF1200E552E750EF6E1200050EE66EC5
:102CD00065EC1AF0D6CEE6FFD7CEE6FF85D30D0E13
:102CE000E66EC20EE66E0E0EE66EFA0EE66E9E0EF4
:102CF000E66E7AD3030D9BEF1AF0FE0BEA36E96E0F
:102D0000000EE9260F0EEA221200C0515DDB010819
:102D10001200030EDBCFE6FF040EDBCFE6FF5EEF13
:102D200019F0110EE66ED6DBCFCEE6FFD0CEE6FF71
:102D30005BD355DAEE6AED6A120092EC5AF006C0E7
:102D400014F007C015F008C016F009C017F0120003
:102D5000C6EC1AF017C0EEFF1200D9CFE6FFE1CFA4
:102D6000D9FF1200E552E7CFD9FF1200BCDB00010A
:102D7000C1EF19F031DB340EE7EF0EF0330EDBCF8D
:102D8000E9FFDB2A340EDBCFEAFF1200E66E000E0D
:102D9000DA20E66E1200220EDBCFE6FF230EDBCF39
:102DA000E6FF1200DBCFF4FFF350F45C1200E9CF32
:102DB00014F0EACF15F00B0EDB5020EF1AF0F2EC16
:102DC00055F0E55206EF1BF0EECF18F0EECF19F0FC
:102DD000EECF1AF0EFCF1BF0D9501200146EDACFFD
:102DE00015F0010E14C0DBFF020E15C0DBFF120050
:102DF00035DAEE50ED101200D9CFE6FFDACFE6FF5C
:102E00001200A9EC2AF0000EE7EF0EF0E8D9EE5020
:102E1000ED101200DBCFE6FFCED3146E060EE15E9E
:102E2000145012000EDAEE6AED6A1200CEEC1BF0BE
:102E30000F014B6B4C6B1200EECF14F0EFCF15F07F
:102E40000001D951000114181200E7CFDBFF4CDD5F
:102E5000E76E12000E01070ECF6F9F0ED06F1200AB
:102E60000E01110ECF27000ED0231200DF6A0E01D3
:102E70009F0ED66FA00ED76F1200DF2A0E01050E2F
:102E8000D627000ED7231200A5DB14501510120010
:102E9000FA0EDBCFE9FFFB0EDBCFEAFF1200F90EE3
:102EA000DBCFE9FFFA0EDBCFEAFF1200EF50E66E50
:102EB000F2EC55F0E552020EF3CFDBFF030EF4CF38
:102EC000DBFFA4DB145015101200FDDDE552E552C6
:102ED000E552E552000912000E01EA6A8425E96E06
:102EE0008551EA22EF501200DDDAEF50E66E120053
:102EF000FADAEF501200156E90EF19F00CEC10F0AA
:102F0000146E050EE15E1450100EE7EF0EF08A0EFF
:102F1000E66E0E0EE66EF9DCE552E5521200010E89
:102F2000EECFDBFF020EEDCFDBFF1200200EDBCF7A
:102F3000E6FF210EDBCFE6FF1200FB0EDBCFE9FF41
:102F4000FC0EDBCFEAFF1200CFDCE66E12000A0EA9
:102F500078D9EE50ED101200B9CEE6FFBACEE6FFFA
:102F6000D7EF1BF0F90EDBCFE6FFFA0EDBCFE6FF63
:102F7000D4EF1AF0DF50146E156A060E145C000EC2
:102F80001558120084EC11F0146E070EE15E145017
:102F90000009120029DB2D0EDB50141812005ED937
:102FA000EE6AED6A120092EC5AF006C054FF07C0B8
:102FB00055FF08C056FF09C057FF0F01120084CE0D
:102FC000E6FF85CEE6FF4ADA0E01846B856B1200C0
:102FD000DBCF15F00001D95114181200EF50050D88
:102FE00015DB9F0E1426A00E15221200F8DA5EEFF4
:102FF00019F0010EE66EFE0EDBCFE6FFF1EC11F0EC
:10300000E552E55281EF11F0250EDBCFEFFF240EE4
:10301000DB04E66E1200EF50E66E35DDE552000986
:103020001200146E156AD89015501200920EE66EBA
:103030000E0EE66E1200D3DABED2010E1416156A19
:10304000166A176A14501510161017101200020E87
:10305000DBCFEEFF030EDBCFEDFFFD0EDB50400DAF
:1030600012000BDCE66E12001450185C1550195853
:1030700016501A5817501B581200220EDBCF8AFE2A
:10308000230EDBCF8BFE350EE7EF0EF0B9CE88FEB8
:10309000BACE89FE0E01826B170EE7EF0EF0030D1C
:1030A0000F0149D284CEE9FF85CEEAFFEF5012002E
:1030B0000001DA51000115181200EECF15F0EFCF24
:1030C00016F01200D950200F0EDAFF0EEE18120083
:1030D000D3EC13F0166E050EE15E165000091200D7
:1030E0002ADCE552E552DF6E180EDF5C1200080E96
:1030F000E66EE66A6AEF1AF0DF50146E156A080E83
:10310000145C000E15581200D1CE14F0D2CE15F07A
:10311000FD0EDB5014181200EE52EF50E66E120056
:10312000230EDBCFEFFF1200220EDBCFEFFF1200EA
:10313000030EDB68040EDB68090EDB841200C0514D
:10314000300BE842E842E842E8421200220EDBCFB0
:10315000EEFF230EDBCFEDFF1200010E84CEDBFF6E
:10316000020E85CEDBFF1200010EDBCFE9FF020E5F
:10317000DBCFEAFF1200FD0EDBCF14F0FE0EDBCF3B
:1031800015F012008ACEEEFF8BCEEDFF1200A9ECF7
:103190002AF0100EE7EF0EF0DF50DF2A146E156AEA
:1031A0001200D9C0EEFFDAC0EDFF1200BE6BBF6B9C
:1031B000C06BC16B12000E01A951010B1200210E50
:1031C000DBCFEFFF1200200EDBCFEFFF12001F0E50
:1031D000DBCFEFFF12000E01C20E826F1200FE0B5A
:1031E000EA36E96E410EE9260F0EEA22120003DBF1
:1031F0000A0EEF6EF2EF1BF029DB24EF16F05EDA19
:103200001FDD14DB1DDDE3DF1BDD1E0EDBCFEFFF5B
:103210001200EE50EFCFEAFFE96E12000DDABACEDF
:10322000EFFF0EDDB9CEEFFFFCDA400EDF6E1200CD
:10323000EA6ADF3424EF16F0EF50E66E08DD62EF45
:1032400016F0EA6ADB3441D20A0E1AEF16F026DDD8
:10325000EF50E66E5DD2F1DCEFEF1BF0EA6ADB3493
:103260003CD2EBDC130E4EEF16F012DDEFDA61DD2F
:10327000040ECAEF13F0110DF3CFCFFEF4CFD0FE42
:10328000070E0E01CF279F0ED0232BEF16F0D2DCB6
:103290001450EE24E76E1550EE20EA6EE7CFE9FFFA
:1032A00062EF16F0EF50E66EF3D962EF16F053ECD2
:1032B00059F0176E070EE15E17501200F3EC14F090
:1032C000E552E552E552E5521200B7DC120EE6DC9B
:1032D000EF50050DF3CFD6FEF4CFD7FE9F0E0E01B3
:1032E000D627A00ED723C3DC0E011200EBDCEBEFD8
:1032F0001BF0310EA2DC0A0ED1DC44DF310EF9D90D
:103300002F0EDBCFEFFF1200DBCFE6FF300EDB50DE
:10331000E552E75CE66E310EF1D9D4DCCAEF17F066
:10332000166A14C0E6FF15C0E6FF16C0E6FF1200DD
:1033300045DAEE521200B2DCEFDEEAD1E66E0E01A3
:10334000E7D1A6DCEA6ADF3499EF16F076DC040EEA
:103350004EEF16F0D950030FC6EF16F0020E4EEFE7
:1033600016F02F0EDBCFE7FF300EDB50E75E2F0E9F
:10337000E7CFDBFFD9502A0FC6EF16F0EEDCE6529E
:1033800012001850EE5C146E1950EE58156E1A505B
:10339000EE58166E1B50EE58176E120045D978D9AC
:1033A000030EEF6E1200EA22EF50E66EDF50EA6A7B
:1033B000920FE96E0E0EEA2285DCDF2A120068D930
:1033C000DFCFEFFFFCEF16F0C00BE842E842E84227
:1033D000E842E842E84212000E01A9910E017F0E78
:1033E000A76F0E01A66B12008EEC52F0146E050E44
:1033F000E15E14501200EA6ADB347DEF16F0C7D9A3
:10340000E0EC58F00ADD00091200150E47DCD7EF9A
:1034100016F013DC0E0E4EEF16F00FDC080E4EEF1A
:1034200016F03CDCEECFE6FFEFCFE6FF1200D950FE
:103430001E0F5EDD030B01081200C4D90AEF17F05E
:103440000F011424E96E000E1520EA6E1200D4DC80
:1034500089EF16F00F0149517AEF16F092EC56F011
:10346000E552E552120079DC020EE1261200140E3C
:103470004EEF16F0100E4EEF16F03B0E1DEC16F050
:10348000120E0CDCEEEF17F047DE27EC16F01ADC1C
:1034900048EF17F0F9EC10F0C0DC00091200E7D893
:1034A0001CEF17F0EA6A000FE96E0E0EEA22120016
:1034B000D950090F78EF17F056EC16F0EE50ED10DA
:1034C0001200DBCFE6FFCBEF16F0D10EE66E0E0E4C
:1034D000E66E1200B10EE66E0E0EE66E1200F36E90
:1034E000010ED2EF16F0E96EDACFEAFF12000E01FC
:1034F00085EF16F04BDCAAEC0FF0E552E55200091F
:10350000120022DDC5D862EF16F0E66EE66A2A0EDA
:10351000146E000E7BEF17F089DD85EC14F0E55298
:10352000E552DF6E1200150E4EEC16F0E9CF14F0E6
:10353000EACF15F012004B51F324E96E4C51F42000
:10354000EA6E1200070E4EEC16F0EFCF9CFE0E0155
:103550001200220EDBCF14F0230EE8EF17F0D95043
:103560002A0F3CDC5AEF16F0DBCFE6FF010EE66EC9
:10357000C2EF17F0200EDBCF14F0210EE8EF17F0AA
:10358000BF15F310BF6F010E6CEF17F014C0EEFF04
:1035900015C0EEFF16C0EEFF12004EEC16F092CEF4
:1035A000EEFF93CEEDFF1200FC0EDBCFE6FFFD0E2B
:1035B000DBCFE6FF12009BEC14F0E552E552180851
:1035C0001200EA6ADF3406EF17F052EC16F0EE5004
:1035D000ED10120014C0EEFF15C0EDFF12008ACEF0
:1035E000E6FF8BCEE6FF1200D9C014F0DAC015F06A
:1035F0001200450EDB047AEF16F00E01F10E826F19
:10360000BAEF16F062EC16F040EF16F0F3CF14F0BC
:10361000F4CF15F01200E66EDFEF16F0E66E40EF25
:1036200016F0DF2A30EF17F020EC16F0EF6A20ECEE
:1036300016F0050EEF6E1200DED8010EEF6ED2D836
:1036400020EF16F0F5DD48EC16F0EA6ADF34EFEF14
:1036500018F052EC16F009EF19F0F8D8C0DD05D6D5
:10366000050E4EEF16F056EC16F009EF19F0030EAA
:103670004EEF16F00E0120EC16F0C6DC20EC16F032
:1036800062EC16F0FFEF18F0DFDDF1DEEF50120014
:103690000E0127EF16F04A0E1AEF16F0350E1AEF4C
:1036A00016F0D2DDE7DEE4EC16F00D0FB6EF16F003
:1036B0009DEC16F0C9DDDEDEA8EF16F020EC16F06A
:1036C0002FDD20EC16F094EF18F0FE0BEA36E96ED1
:1036D000350EE9260F0EEA221200FE0BEA36E96EDD
:1036E0005B0EE9260F0EEA221200AEDD0B0E4EEF46
:1036F00016F01DEC16F00F0E4EEF16F01DEC16F046
:10370000110E4EEF16F03ADE2AEC17F0DF6A1200C7
:1037100020EC16F062EF16F097DD05EF1AF097DD5A
:1037200024EF19F098DDEE50ED101200150E99DD22
:10373000EF50120081DD5AEF16F05EDDAEEF19F0AA
:1037400074EC17F029DD4A0E47EF19F02BEC16F058
:103750000E01120050DEEE52E552E750EF6E1200FD
:1037600067DD57DDA2EF1AF07CDDF80EEF140409D7
:10377000EF6E1200EFDD96EC17F065EF17F05CDDF1
:1037800036DD20EF16F0CCDDA0DE57EF19F0FD0E90
:10379000DBCFE6FFFE0EDBCFE6FF12004BCFE6FFEE
:1037A0004CCFE6FF2EEF1AF04CDD48EF16F086DD29
:1037B000100EE7EF0EF03CDD4FEF1AF0EA6ADF344F
:1037C0007DEF16F02D0EDBCFE6FF2E0E12007AEC09
:1037D00016F0AEEF19F0A4EC17F040EF16F00C0E57
:1037E0004EEF16F020EC16F0DAC0EFFF20EC16F0EA
:1037F000D9C0EFFF120035DC0E0120EC16F062ECB0
:1038000016F020EF16F0855B4DDCE66EF5DC30EF50
:103810001BF04EEC16F062EF16F00ADD21DF1CEF14
:1038200019F002DF35DF040EEF6E1200C8DC20EC69
:1038300016F0E3EF18F062EC16F0DEDC30EF1BF070
:1038400003DD37EF1BF0FEDEA1EF19F0010EEA6A8F
:04385000DB34120053
:0C3854000F0E0B01011502E1000E01D067
:10386000010E00D0120055EC27F0050EE1260B01E9
:10387000016BDF6A090EDF5C06E2F0EC29F0EE6A0C
:10388000ED6ADF2AF7D7DF6A040EDF5C06E2EA6A38
:10389000DF3467EC27F0DF2AF7D7DF6A050EDF5C3D
:1038A00006E2ABEC28F0EE6AED6ADF2AF7D7020EEB
:1038B000E66EE66AEA0E146E9C0E1BEC28F0010F11
:1038C000F5EC26F0D950010F8DEC29F05A0EEE18C8
:1038D00002E1C30EED181EE05A0EF36E010EF3CF97
:1038E000DBFFC30EF36E020EF3CFDBFF8BEC27F092
:1038F000EA0EE66E9C0E53EC28F00D0EE66EE66ABC
:10390000E00EE66E9E0EE66EE0EC53F0E552E552F8
:10391000E552E552020EE66EE66AEF0E146EA00E58
:103920001BEC28F0030FF5EC26F0D950030F8DECBB
:1039300029F07B0EEE1802E14E0EED181FE07B0E13
:10394000F36E030EF3CFDBFF4E0EF36E040EF3CFD8
:10395000DBFF020EE66ED950030F26EC29F0EF0EC6
:10396000E66EA00E53EC28F00E01E069E169DF6A13
:10397000060EDF5C03E2F7EC29F0FAD70B01006BCF
:10398000050EE15C02E2E16AE552E16E5AEF27F0D2
:1039900055EC27F0130EE126FE0EDB5001E0E0D2DD
:1039A0000B0101A527D00E01A9B124D00B0101956F
:1039B00014CB82FE16CB84FE17CB85FE18CB86FE79
:1039C00019CB87FE1ACB88FE1BCB89FE1CCB8AFE47
:1039D0001DCB8BFE1ECB9AFE1FCB9BFE20CB9CFEED
:1039E0000E019B5104E15A0E99EF23F003D0510EC2
:1039F00099EF23F00B0101A7DED00E01A9B1CBD0C6
:103A0000DF6A040EDF5C01E3C6D0EA6ADF34A4ECAF
:103A100027F001E1BED0F4EC29F0EF50080B01E1F2
:103A2000B8D09EEC28F00A0EF8EC26F0040EEFCF8A
:103A3000DBFFF4EC29F0EF50070B000943E19EECAB
:103A400028F00B0E72EC29F0FEEC29F0B0EC29F016
:103A5000EFCF89FEFEEC29F0BCEC29F090EC27F0CA
:103A6000FEEC29F07FEC29F0EFCF9AFEFEEC29F076
:103A700082EC29F0EFCF9BFE6BEC2AF0EE50ED10BC
:103A800008E06BEC2AF0A2EC28F06BEC2AF0EE6A6E
:103A9000ED6AEA6ADF344AEC27F0EA6ADF3467EC61
:103AA00027F0040EEA6ADB3490EC28F0A2EC28F050
:103AB000040EEA6ADB3490EC28F0EE6AED6A500EF0
:103AC00099EF23F09EEC28F091EC2AF0EFCF8AFEDC
:103AD000F4EC29F0EF50F00BE842E842E842E8420B
:103AE0000E018B6F9EEC28F0070E72EC29F09EEC15
:103AF00028F013EC29F0EECF92FEEDCF93FE7BEC95
:103B000028F0FEEC29F003EC29F09CCEEFFFD9EC75
:103B100027F0FEEC29F01FEC28F0010EDB6A0E0105
:103B200082516EEC27F007E245EC2AF06BEC2AF0AC
:103B30005EEC27F0F4D7FEEC29F07FEC29F00DECD9
:103B400029F09EEC28F0EE5289EC2AF089EC2AF05C
:103B5000090EF8EC26F089EC2AF011EC2AF0BAEC08
:103B600027F006E0FEEC29F082EC29F0B3EC28F017
:103B70009EEC28F07DEC2AF0B3EC28F0F4EC29F070
:103B8000CAEC29F0F4EC29F0EF960B01018345EF24
:103B900028F0DF2A36D7DF6A040EDF5C07E2EA6A24
:103BA000DF34A4EC27F002E1DF2AF6D7040EDF5C55
:103BB00002E10B0101970B0101A38DD092EC5AF0A9
:103BC000050E06C0DBFF060E07C0DBFF070E08C0B0
:103BD000DBFF080E09C0DBFFDF6A090EDF5C6DE268
:103BE00036EC27F068E04AEC2AF0EF5064E08CEC09
:103BF00028F0EECF1CF0EECF1DF0EECF1EF0EFCF91
:103C00001FF0D950050F8DEC29F000011C50EE5C1F
:103C1000186E1D50EE58196E1E50EE581A6E1F5039
:103C2000EE581B6E18C006F019C007F01AC008F055
:103C30001BC009F07AEC57F007C014F008C015F06B
:103C400009C016F00AC017F0400E0C6E540E0D6E2F
:103C5000090E0E6E480E0F6E14C007F015C008F066
:103C600016C009F017C00AF0FCEC57F0010A23E176
:103C700060EC2AF004E0DCEC29F0EF8615D09BEC38
:103C800028F0EF50070B00090CE1BDEC28F005E02F
:103C90009BEC28F011EC28F004D09BEC28F016ECFB
:103CA00028F09BEC28F0EF86BFEC29F0EF50200BBA
:103CB00002E109EC27F0DF2A90D7DF6A090EDF5C0A
:103CC00005E236EC27F002E1DF2AF8D7090EDF5CC7
:103CD00002E10B0101930B0101A141D10E01A9B138
:103CE00030D1DF6A050EDF5C01E32BD146EC27F013
:103CF00001E125D185EC28F011EC2AF0FF080BE159
:103D0000C7EC29F0A2EC28F0C7EC29F0EE6AED6AC6
:103D10002DEC27F014D1B9EC29F0EF50080B01E19C
:103D20000ED185EC28F011EC2AF0EDEC26F0000124
:103D3000D9510E01AA1904E10001DA510E01AB19A3
:103D400059E10E018051811101E0FBD005EC2AF010
:103D5000EF50E66EF2EC55F0E552F3CF80FEF4CF73
:103D600081FE0E018051811103E1C2EC29F0E9D0FE
:103D700080CE84FE81CE85FE85EC28F0050E72ECA7
:103D800029F00E01886B6EEC2AF0EF504AEC28F017
:103D900002E0000E01D0010E896FACCE9BFEADCECD
:103DA0009CFE85EC28F0EECF86FEEDCF87FE010E5F
:103DB000DB6A82516EEC27F012E245EC2AF0C7EC88
:103DC00029F02EEC29F0010EDB50EA6A8425E96E19
:103DD0008551EA2201EC2AF0010EDB2AEAD7C2EC77
:103DE00029F09B5104E15A0E99EF23F0A8D0510E0F
:103DF00099EF23F00E010A0E8A6F010E8B6F85EC8E
:103E000028F0050E72EC29F0AACE92FEABCE93FEFE
:103E10007BEC28F0010EDB6A090E6EEC27F00AE25B
:103E2000DFEC29F090EC28F0EE50ED1003E0010EED
:103E3000DB2AF2D7010EDB5009080AE0110EB3ECC1
:103E400029F0DFEC29F090EC28F03FEC27F001E1BD
:103E500078D0B9EC29F0EF50100B04E009EC2AF00F
:103E60000DEC29F085EC28F0EE520DEC29F085ECF4
:103E700028F0B3EC28F005EC27F0ADCEEFFF05EC11
:103E800027F0ACCEEFFF6EEC2AF0B3EC28F07AEC22
:103E90002AF0B0EC29F0010EEF6E09EC2AF0EF5099
:103EA000E66E7AEC2AF07FEC29F001EC2AF07AEC4D
:103EB0002AF082EC29F0ACCEEFFF7AEC2AF0BCECD1
:103EC00029F0AACEEEFFABCEEDFFEDEC29F0EF9896
:103ED0006EEC2AF0EF50400B03E0EDEC29F0EF8898
:103EE000EDEC29F0EF9AD9EC27F07AEC2AF01FECF0
:103EF00028F0DF50146EEDEC29F056EC28F07AEC47
:103F00002AF003EC29F09CCEEFFFB9EC29F0CAECC3
:103F100029F0B9EC29F0EF96010EDB6A0E0182510F
:103F20006EEC27F007E245EC2AF0C7EC29F05EECD6
:103F300027F0F4D7836B0B01018345EF28F0DF2ACC
:103F4000D1D6DF6A050EDF5C05E246EC27F002E120
:103F5000DF2AF8D7050EDF5C02E10B010191E7D300
:103F6000FE0EDB50550A01E1A2D3070A01E167D337
:103F70001D0A01E1CDD17A0A64E0010A01E0D7D33C
:103F8000DF6A090EDF5C5CE236EC27F057E04AECB2
:103F90002AF0EF500E019C5D51E1BFEC29F0EF508B
:103FA000100B02E082514AE060EC2AF02EE08251D0
:103FB0000BE0DCEC29F0EF8689EC28F00B0EF8EC36
:103FC00026F082CEEFFF3AD04DEC2AF0EFCF89FEFB
:103FD00074EC2AF090EC27F014EC2AF0EFCF9AFE64
:103FE00017EC2AF0EFCF9BFE71EC2AF0EE50ED10AB
:103FF00008E071EC2AF0A2EC28F071EC2AF0EE6AED
:10400000ED6A16EC29F0500E94D3825106E09BEC39
:1040100028F0EF50070B00090CE1BDEC28F005E09B
:104020009BEC28F011EC28F004D09BEC28F016EC67
:1040300028F09BEC28F0EF8609EC27F0DF2AA1D7C7
:1040400076D3CDEC24F0E76E090EE7CFDBFFB6ECBC
:1040500029F0000904E0B6EC29F0020822E12BEC7B
:1040600029F004E10FEC27F0100B04E1CDEC24F073
:104070000B011F6FCDEC24F00B01206FCDEC24F071
:104080000B01186FCDEC24F00B01196F2BEC29F00C
:1040900004E10FEC27F0100B04E0CDEC24F00B0151
:1040A0001E6FB6EC29F0000901E0D5D091EC29F0A3
:1040B0000AE0A6EC29F007E02BEC29F05CE10FEC1C
:1040C00027F0100B58E12BEC29F003E10B011A6BE0
:1040D00003D00B01010E1A6F0FEC27F0400B30E0FC
:1040E000018582CE14FB84CE16FB85CE17FBA6EC91
:1040F00029F002E0000E01D0010E1B6F8ACE1CFBDE
:104100008BCE1DFBE4EC27F07BEC28F0090E80EC55
:1041100028F0836B0E0105EC27F01FCBEFFF1CECA2
:1041200029F02BEC29F003E1090EDB8804D005EC23
:1041300027F01ECBEFFF090E80EC28F097EF29F057
:104140001ACB88FEA6EC29F002E0000E01D0010E89
:104150000E01896F1FCB9BFE20CB9CFE18CB86FEE9
:1041600019CB87FE1ECB9AFE9B5103E15A0EE1D27A
:1041700071D0510EDED22BEC29F06CE1DF6A050E16
:10418000DF5C05E246EC27F002E0DF2AF8D7050EF7
:10419000DF5C60E01AEC2AF05DE020CBE6FF1ECB8E
:1041A000E6FF8ACEE6FF8BCEE6FF00EC28F0FF08A4
:1041B0004FE0090EDB986EEC2AF0090EDBCFEFFF23
:1041C00005EC2AF082CEEFFF85EC28F018CBEEFF4D
:1041D00019CBEDFFB9EC29F0EF98C2EC29F0B9EC5E
:1041E00029F0EF8682CEE6FF80EC2AF031E0C7ECC2
:1041F00029F006EC28F00E01825108E0CEDB53ECEA
:1042000029F001E3DB2A01EC2AF0F5D70B0101814B
:10421000A9EC2AF00FEC27F0400B14E0B9EC29F0E0
:1042200011EC28F0E4EC27F0090EDB9880EC28F084
:104230000E011CEC29F005EC27F01ECBEFFF97EFE9
:1042400029F004D0B9EC29F016EC28F0000E71D258
:104250002DEC27F058D0B6EC29F0020854E1DF6AC3
:10426000090EDF5C50E236EC27F04BE04DEC2AF013
:10427000EF5002080DE174EC2AF028EC28F040EC35
:1042800028F005E1E0CE1CFBE1CE1DFB07D039D0C4
:1042900074EC2AF0EECF1CFBEDCF1DFB0E018A5112
:1042A0000B011C1904E10E018B510B011D1929E1B1
:1042B00091EC29F010E1B6EC29F001080BE014ECC8
:1042C0002AF0EF501F5D05E117EC2AF0EF501E5D5C
:1042D00001E017D011D00FEC27F0100B07E114EC20
:1042E0002AF0EF501F5D01E00CD006D017EC2AF049
:1042F000EF501E5D01E005D0A9EC2AF00E01826BA3
:1043000053D6DF2AADD7A9EC2AF0000E12D20FD275
:104310000A0EDB6A0E018CB1DB8A8CB5DB8C020ED7
:10432000895D0DE1920EE66E0E0EE66E40EC28F011
:1043300005E10E01040E826F33EF27F089D0890565
:1043400008E1921D01E1931D03E10A0EDB94DB8677
:104350007FD09CCEE6FF9ACEE6FFD9C0E6FFDAC05A
:10436000E6FF00EC28F0FF0805E10E01010E826F68
:1043700033EF27F0DF6A050EDF5C05E246EC27F03D
:1043800002E0DF2AF8D7050EDF5C60E01AEC2AF0C5
:104390005DE00A0EDB94DB96D9500A0F8DEC29F014
:1043A0000E018C51010B02E0EF8A01D0EF9A6EEC06
:1043B0002AF00A0EDBCFEFFF05EC2AF0A6CEEFFFC6
:1043C00085EC28F086CEEEFF87CEEDFFC2EC29F01B
:1043D00009EC2AF09ACEEFFFB9EC29F0EF88A6CECF
:1043E000E6FF80EC2AF030E0C7EC29F006EC28F07C
:1043F000010EDB6A0E01A651A60700090CE0010EB2
:10440000DBCFF3FFDB2AF350A8EC27F001E3DB2A34
:1044100001EC2AF0EFD7D9500A0F8DEC29F0EF50BC
:10442000400B05E0B9EC29F011EC28F004D0B9EC10
:1044300029F016EC28F0B9EC29F0EF860B01018188
:104440000E01826B33EF27F02DEC27F076EF29F089
:10445000DF6A090EDF5C05E236EC27F002E0DF2AB6
:10446000F8D7090EDF5C08E0110EB3EC29F0F0EC90
:1044700029F03FEC27F002E176EF29F0010EDB6A2C
:10448000040EDF5C08E2DFEC29F0A4EC27F003E087
:10449000010EDB2AF5D7010EDB5004080AE00D0EF1
:1044A000B3EC29F0DFEC29F0EEEC28F03FEC27F03C
:1044B00004E109EC27F076EF29F04AEC2AF0EF6AE4
:1044C0004DEC2AF089CEEFFF14EC2AF09ACEEFFFE4
:1044D00017EC2AF09BCEEFFF74EC2AF092CEEEFFA1
:1044E00093CEEEFF94CEEEFF95CEEEFF96CEEEFF8E
:1044F00097CEEEFF98CEEEFF99CEEEFF010EDB5089
:10450000146EBFEC29F056EC28F0BFEC29F0EF98C0
:10451000BFEC29F0EF8AA6CEE6FF3AEC27F071EC6B
:104520002AF03FEC27F004E116EC29F076EF29F0B1
:1045300089EC28F086CEEEFF87CEEDFF89EC28F0DF
:1045400091EC2AF08ACEEFFF89EC28F0090EF8EC06
:1045500026F09CCEEFFF89EC28F00A0EF8EC26F04E
:10456000DFCFEFFF50EC2AF092CEEEFF93CEEDFFBF
:1045700089EC28F0070EF8EC26F0A6CEEFFF0E012E
:104580008B51146EDCEC29F014500F0BF36EF346D4
:10459000F346F346F3460F0EEF14F310EF6EDCEC28
:1045A00029F0EF868CA508D0BFEC29F0EF88DCEC71
:1045B00029F011EC28F004D0DCEC29F016EC28F0FE
:1045C000020E895D07E150EC2AF0E0CEEEFFE1CE6D
:1045D000EDFF0AD0895108E150EC2AF0EE6AED6A4D
:1045E0000A0EDB84DB96DB8889EC28F07DEC2AF070
:1045F0000A0EDBCFEFFF89EC28F07DEC2AF08C511E
:10460000010B02E0EF8A01D0EF9A6BEC2AF006EC86
:1046100028F0DF6A0E01A651A607000909E0DF5065
:10462000DF2AA8EC27F001E3DB2A01EC2AF0F2D71D
:104630000B01018785EC29F0000E7BD078D08A0E23
:10464000E66E0E0EACEC27F006E10E01030E826F53
:10465000560E6FD006D00B0EB9CEDBFF0C0EBACEC5
:10466000DBFF920EE66E0E0EACEC27F006E10E01BB
:10467000030E826F560E5DD006D00D0EB9CEDBFF55
:104680000E0EBACEDBFF9BCEE6FF0D0EDBCFE6FFB4
:104690000E0E5EEC28F00B0EDBCFE6FF0C0EDBCF30
:1046A000E6FF50D865EC28F0560E43D040D00E01FE
:1046B000A9B705D00E01040E826F590E3AD08A0EAA
:1046C000E66E0E0EACEC27F006E10E01030E826FD3
:1046D000590E2FD006D00F0EB9CEDBFF100EBACE7A
:1046E000DBFF920EE66E0E0EACEC27F006E10E013B
:1046F000030E826F590E1DD006D0110EB9CEDBFF0E
:10470000120EBACEDBFF9BCEE6FF110EDBCFE6FF2B
:10471000120E5EEC28F00F0EDBCFE6FF100EDBCFA3
:10472000E6FF4CD965EC28F0590E03D000D0000EFE
:1047300000D0146E130EE15C02E2E16AE552E16E14
:104740001450B8D3B2DB0B0EE126DF6A010EDB6A30
:10475000040EDB6A640EC2DB38E2040EDB5035E186
:104760005CEC29F0C2DBFDEC28F09CEC29F003E0C6
:104770004FEC28F0FDE1E552E71424E0020EDBCF18
:10478000E6FF0DEC28F003E0BFEC27F0FDE1E55279
:10479000E71418E0010EDB50A9EC29F003E1FE0E4E
:1047A000DB5015180FE1FC0EDB500E01AC5D0AE189
:1047B000FB0EDB50AD5D06E1010EF36E040EF3CF90
:1047C000DBFF03D0010EDB2AC5D7040EDB5032E13C
:1047D000010EDB6AE66EE66AFDEC28F0640E7EDB15
:1047E00010E29CEC29F003E04FEC28F0FDE1E552EB
:1047F000E71407E0010EDB2AE66EE66AFDEC28F01E
:10480000EDD7010EDB50640802E1870EA6D0010E41
:10481000DB50CFEC28F0FD0EDBCFAAFEFE0EDBCF87
:10482000ABFEFC0EDBCFACFEFB0EDBCFADFE0E0114
:10483000AE6928D00A0EAECEDBFF0A0EDB50FF08B1
:1048400021E0050EE66EE66A0A0EDB507ADBD950EF
:10485000060FCBDA060EDBCF14F0070EDBCF15F018
:10486000F90EDB50141803E1FA0EDB50151809E1BC
:10487000F80EDB50F36E080EDB50F35C02E1000E25
:104880006CD0DBD7DF6A0DEC2AF0640EDF5C09E246
:10489000030E81DB03E04FEC28F0FDE1E552E71465
:1048A00004E1010EDB50DF5C04E1DF2A0DEC2AF0AD
:1048B000ECD7640EDF5C02E1870E4FD0050EAECE62
:1048C000DBFFDFCFAEFEE9DAF90EDBCFAAFEFA0E90
:1048D000DBCFABFEF80EDBCFACFE050EDBCFAEFEC2
:1048E000DF50CFEC28F0050ED8DAFFDAFDEC28F027
:1048F00094DB02E044DBFEE103DBEEDBE00F146E51
:104900009E0E7ADA5CEC29F088DB02E038DBFEE10F
:10491000146E020EDBCFE7FF1450E71232EC2AF0E0
:10492000DBDBED0F146E9E0E67DA0DEC2AF0D3DAA6
:1049300002E025DBFEE1E4DADF50E84098EC28F005
:1049400037EC2AF05DEC2AF0C6DA02E018DBFEE173
:1049500070DA84EC2AF0000E00D0146E0B0EE15CCD
:1049600002E2E16AE552E16E1450A4D29EDAE65208
:104970000A0EE66EE66AE66847EC29F076EC59F036
:10498000146E050EE15E1450DF6A060EDF5C03E272
:10499000F7EC29F0FAD7E5528DD20E01825103E1EE
:1049A000000E0BD00AD0820784CEE9FF85CEEAFF45
:1049B000842B000E8523EF5000D0120076DA050E0E
:1049C000E126FB0EDBCFE6FFFC0EDBCFE6FF91DA44
:1049D00017DBE76E040EE7CFDBFFDB50FF0802E1D9
:1049E000050E5ED0040EDB50E76E030EE7CFDBFF53
:1049F000DB50F3D9FF0E0E01AE5D50E0010EAECEDE
:104A0000DBFFDB50EAD9AACE14F0ABCE15F0F90EDD
:104A1000DB50141803E1FA0EDB50151838E1F80EDC
:104A2000DB500E01AC5D33E1020EAECEDBFF030EB8
:104A3000DB50D3D9020EDBCFAEFE050E2EDA55DAEF
:104A4000DB40CFD9CCDA010EAEDA02E028DBFEE1A2
:104A500005DBDB406DDB030EDB50F36E040EDB5039
:104A6000F35C12E1020EDB50FF080EE13EDA040EA9
:104A7000DB40B7D9B4DA040E96DA02E010DBFEE1CF
:104A8000EDDA040EDB4054DB000E0AD006D0010E36
:104A9000DB50E76E030EE7CFDBFFACD7050E00D08F
:104AA000146E050EE15C02E2E16AE552E16E14501B
:104AB00001D2FBD9E652DF6A060EDF5C15E2C2D9ED
:104AC00001E1E11D0FE0080EE66EE66AE0DB11DAB7
:104AD000E0EC58F0146E060EE15E1450000902E19D
:104AE000010E04D0DF2AE8D7000E00D0E552E2D153
:104AF000DCD90B0EE12637DA010ED92676DA75DA23
:104B00000B0ED95E30DA91EC2AF0A2DA21D8E55208
:104B1000E552000902E0010E12D0DF6A060EDF5CEA
:104B20000CE290D901E1E11D06E10A0EF4D94FDB58
:104B300063D9010E04D0DF2AF1D7000E00D0146E25
:104B40000B0EE15C02E2E16AE552E16E1450B2D173
:104B5000ACD9E652DF6A060EDF5C17E273D901E1D9
:104B6000E11D11E000DAEECF14F0EFCF15F00001F7
:104B700014500E01E01904E1000115500E01E11975
:104B800002E1010E04D0DF2AE6D7000E00D0E55284
:104B900091D18BD9030EE126DF6A640EDF5C26E239
:104BA0003CEC2AF002E07BDAFEE1E552E7141CE07F
:104BB000010EDBCFE6FF8FD902E0E1D9FEE1E5523D
:104BC000E71412E0DF50C5DB03E1FE0EDB501518E1
:104BD0000BE1FC0EDB500E01AC5D06E1FB0EDB5081
:104BE000AD5D02E1DF5004D0DF2AD7D7FF0E00D041
:104BF000146E030EE15C02E2E16AE552E16E1450CC
:104C000059D153D90A0EE126DF6A640EDF5C01E355
:104C10008DD03CEC2AF002E042DAFEE1E552E714E6
:104C200001E182D0010EDBCFE6FF55D902E0A7D922
:104C3000FEE1E552E71401E177D0DF508ADB03E1C2
:104C4000FE0EDB5015181FE146D902E098D9FEE1AF
:104C500040EC2AF040D902E092D9FEE1ABDAFF0E37
:104C60000E01AE5D0FE041D904DB02E088D9FEE120
:104C7000E6DB050EE66EE66A0E01AE5162D93ADB5E
:104C8000B5DAEDD751D0DF5007DB080E14C0DBFFDB
:104C9000090E15C0DBFFFF0E0E01AE5D32E0AE5116
:104CA00092DBD950030FA1D8030EDBCF14F0040E12
:104CB000DBCF15F0FD0EDB50141803E1FE0EDB50C8
:104CC000151815E112D90E01D4DA02E058D9FEE127
:104CD000B6DB070EDBCFAEFE050EE66E0BDB080E75
:104CE000DBCFE6FF090EDBCFE6FFCADA09D0080EFC
:104CF000AFCEDBFF090EB0CEDBFF0E01AE516DD89B
:104D0000CAD7DF506AD8FF0E0E01AE5D0DE141DA61
:104D1000D4DBE1D802E033D9FEE1B2DB77DADBD8CD
:104D200002E02DD9FEE146DADF2A6FD70A0EE15CF8
:104D300002E2E16AE552E16EBDD0B7D8DAD808DF09
:104D4000E552E552000902E0010E28D0180E146E5B
:104D500014C0E6FF08D9EECFE6FFEFCFE6FF9BECED
:104D600014F0C2D919E00E0182D9010803E07FD9FD
:104D7000000912E1B1CED8FEB2CED9FEB3CEDAFE32
:104D8000B4CEDBFEB5CEDCFEB6CEDDFEB7CEDEFEAB
:104D9000B8CEDFFE010E02D0000E00D08BD085D839
:104DA000A8D86ED902E0010E11D0180E146E14C0EE
:104DB000E6FF9FD885EC14F097D906E0B9CEE0FE67
:104DC000BACEE1FE010E02D0000E00D073D03DDB62
:104DD0007ED2A6D97CD202DA7AD2F5DA8BDAF6EF75
:104DE00028F03BDB1522B8EF28F030DAF6EF28F098
:104DF000E926000EEA221200152255DB8EEC52F055
:104E0000166E050EE15E16501200A751A7076CEF53
:104E100029F0E6DA97D9E4DAEE6AED6A1200D950A1
:104E2000090F7BDAEF501200C2DA1522A1D9D9504E
:104E30001200E81C146E020EDBCFE7FF1450E716D9
:104E400032EF2AF00A0EE66EE66AC1D9152290D931
:104E50001EDACCD90E01E01D12007DD973D97BD9A1
:104E6000EE6AED6A120051DA500E63D4B9DAEE50F0
:104E7000ED101200F2EC55F0E55258EF2AF014C094
:104E8000EEFF15C0EDFF14501510120064D9EE505E
:104E9000ED101200A3D9A2EF28F0E66E2BDAAFCE08
:104EA000E6FFB0CEE6FF40EF29F0D9CFE6FFE1CF35
:104EB000D9FF1200E552E7CFD9FF1200CFD90E017A
:104EC000A651A62B09DA9DDA010EDB2A120086D93B
:104ED000EE6AED6A1200070EDF143ED2F36E010E89
:104EE000DBCFF4FFF350F45C1200010EE66EE66ACD
:104EF0001200FD0EDBCFE6FFFE0EDBCFE6FF120059
:104F0000146E030EDBCFE7FF1450E712030ED9D95E
:104F1000030F26EF29F0E66ED950010F26EF29F096
:104F2000EECF92FEEECF93FEEECF94FEEECF95FE47
:104F3000EECF96FEEECF97FEEECF98FEEFCF99FE26
:104F40001200AAD9B8EF28F049D9EE50ED1012009E
:104F5000C3D9EF5053EF29F0E66E85EC14F0E5521B
:104F6000E55218081200FD0EDBCFE9FFFE0EDBCF85
:104F7000EAFF12000C0BE842E84201081200E84682
:104F8000FE0B15061200AACE14F0ABCE15F0FD0EE6
:104F9000DB5014181200DBCFE6FF070EDF14146E8F
:104FA000010E14521200DB50070B146E010E145246
:104FB000120092EC5AF006C014F007C015F008C0B9
:104FC00016F009C017F012008ACE92FE8BCE93FE27
:104FD0000E010A0E8A6F010E8B6F826B1200D9CF01
:104FE000E6FFDACFE6FFF6EF28F0EECFDEFFEECFFA
:104FF000DEFFEECFDEFFEECFDEFFEECFDEFF1200F4
:10500000C8DDE552E552E552E5521200020EEECF40
:10501000DBFF030EEDCFDBFF1200010EDB50070BB1
:105020009BD1F80EEF140409EF6E1200F80EEF1486
:105030000109EF6E1200156E9BD8D950120014C0F2
:10504000EEFF15C0EEFF16C0EEFF17C0EEFF120018
:10505000E9CF14F0EACF15F053EF2AF0E81CDF1681
:10506000010EE66ED9CFE6FFDACFE6FF1200C0519F
:10507000C00BE842E842E842E842E842E842120057
:1050800018DDE552E552000912000E01A981330E28
:1050900099EF23F00C0BE842E84202081200E846C0
:1050A000FE0B14061200E66E40EF29F014500F0BB1
:1050B000F36EF00EEF14F310EF6E1200DBCFE6FF8D
:1050C0009CCEE6FF9ACEE6FF1200146E070EE15E5C
:1050D00014500E01826F1200010EDB408CEF2AF09B
:1050E000070E0E01AE1538D1E552E552E552E7CF75
:1050F00014F0145C12003DEC14F00E019C6F1200D1
:10510000DB9CDB90DB82DB9A1200EA6ADF34E7EF9C
:1051100026F055D9EBEF26F0EA6ADF34E9EF26F006
:10512000FE0BEA36E96E210EE9260B0EEA2212008A
:1051300094D9FCEF26F0DBD991EF2AF0EA6ADF344C
:10514000EBEF26F0EECFE6FFEFCFE6FF92EC56F066
:10515000E552E5521200EA6ADF3425EF2AF0EA6AE6
:10516000DB34E9EF26F0EF50E66E4FDE01EF2AF078
:10517000166A99D916C0E6FF1200B9D952D92DDEA8
:10518000B6D9BBD9AECEEFFFB2D9F6D8EF50400BAF
:105190001200ABDEDF50E84024DED9501200050DCE
:1051A000F3CFAFFEF4CFB0FEEC0E0E01AF279C0E96
:1051B000B0231200E81C146E010EDBCFE7FF145081
:1051C000E716010EE7CFDBFFA6DE84EF2AF0DF5003
:1051D0000A0D6ED9F10E1426A00E1200FE0BEA364F
:1051E000E96E0C0EE9260B0EEA22120053EC59F080
:1051F000176E070EE15E17501200DB40F2DDD9504A
:10520000030FF5EF26F00C0EF8EF26F030D9010F62
:10521000F5EF26F0100EF8EF26F0EF50E66E0E01D7
:10522000F4DD01EF2AF0020EF8EF26F0C8D832DEE6
:10523000C6D84DDE09EF27F0E8DD19CBEFFFE5DD3D
:1052400018CBEFFFE2DD20CBEFFF1200E66E000E81
:10525000DA20E66E1200E3DDBAEF27F01450EE24F8
:10526000E76E1550EE20EA6EE7CFE9FFEF50E66EED
:105270001200AE51E840B5DDD9501FD970EF28F0CB
:105280008EEC52F0146E050EE15E14501200D80E32
:10529000E66E0E0EE66E1200050D0AD9EC0E14260F
:1052A0009C0E15221200E66E020EDBCFE9FFDB2A10
:1052B000030EDBCFEAFF120018DEDB40B5DD5DEF49
:1052C0002AF0E7CFDBFF010EE66ED9501200EE5058
:1052D000EFCFEAFFE96E1200EA6A000FE96E0E0EE8
:1052E000EA22120085DDEFCF82FE12000E01F10EE0
:1052F000826FB9D5AA0EE66E0E0EE66E12000E0E85
:10530000F8EF26F00F0EF8EF26F00E01A9910E012E
:105310007F0EA76F0E01A66B1200E96EDACFEAFFCF
:1053200012007DDD0C0BE842E842000912006DDD41
:10533000090EDBCFEFFFA9D6030EDBCFE6FF010E90
:10534000D3EF27F0BAD8020ECBEF27F068DD4AEF93
:1053500028F043DDC3EF27F0156E010E1552120041
:105360000D0EF8EF26F0E66E3AEF27F058DD030B4E
:105370001200CBDE91EF2AF0040EF8EF26F0CCDE1F
:105380000AEF29F0C2DEB9D8AECEEFFF1200BDDEC3
:1053900013EF29F0EF50070BE806F36EF350070BFD
:1053A000F36EF46EF80EEF14F310EF6E1200B4D833
:1053B000ED0F146E9E0E1200ACDE03EF29F0010E0D
:1053C000EA6ADB341200EBDE050EE66EE66AAFCE6B
:1053D00014F0B0CE15F0B8EF28F08CD80AEF29F011
:1053E000EA6ADF3490EF28F0A9DE03EF29F00A0E15
:1053F000E66E4DDFECDE00DDDF2A1200040EAFEFBB
:1054000028F0E552E750EF6E12007FDE050EF8EF50
:1054100026F07BDE070EF8EF26F0BBDE030FF5EF7C
:1054200026F06BD8EF50120077DE7FEF29F074DEA4
:1054300082EF29F0090E97DF8EDE3FEF27F0F9DCCF
:105440000E01AE51E84098EF28F0FE0BEA36E96E07
:10545000020EE9260B0EEA2212005ED8E00F146E4F
:105460009E0E1200020E2DDF020F26EF29F03DDD09
:10547000DF50E84014EF27F0C9DE8BDEA2EF29F001
:10548000D8DCDF50E84098EF28F0010EDB50146EB6
:10549000156A120041DE03EF29F03EDEB0EF29F07D
:1054A00038DE13EF29F014C0E6FF15C0E6FF120046
:1054B000F3CF14F0F4CF15F01200020FF5EF26F041
:1054C0005EDFEF500F0BE76E010EE7CFDBFF57DF1C
:1054D000EF50200B120032DEBCEF29F016DEBCEFDD
:1054E00029F017DEBCEF29F017DEBCEF29F067DFEB
:1054F000E7EF26F0010EAFEF28F0060EF8EF26F0EA
:10550000B9DC45DF3FEF27F0DF50E84050DFFCEF2C
:1055100026F029DE9EEF28F0E840E8401F0B156AD0
:085520001200080EF8EF26F05E
:085528000001DC51000802E261
:10553000010E01D0000E00D012000E01820784CEB1
:10554000E9FF85CEEAFF842B000E8523EF5000D0C3
:10555000120080CEE6FF81CEE6FF92EC56F0E552D7
:10556000E5520E01806B816B12000E01EC5103E0DD
:10557000000E04D003D08B94010E00D01200C5ECB5
:1055800036F0090EE126CEEC37F0D9CFE6FFDACFC0
:10559000E6FF96EC37F0F3EC49F0E6EC34F0EEEC95
:1055A00034F0080EDB6AF36EC1EC35F016E2D9CFA9
:1055B00014F0DACF15F0080EDB500F011424E96E59
:1055C000000E1520EA6EEF50E66E080EDB50050F58
:1055D000EBEC36F0080EDB2AE6D70AEC35F0090EC4
:1055E000E15C02E2E16AE552E16ECAEF36F0C5EC39
:1055F00036F0E65247EC37F0DF6ADF509DEC37F0CB
:1056000008E2EA6ADF3471EC37F0EE6AED6ADF2A0D
:10561000F4D70E01010E826F240EE66E08D8E55213
:105620000001DC6B886BDB6BE552CAEF36F0C5EC32
:1056300036F0380EE126FE0EDB5001E021D20001EB
:10564000DCAB08D0DC9B010EE4CEDBFF020EE5CE26
:10565000DBFFBBD3CAEC35F00E01EC51100B08E0B8
:105660005DEC37F000016BEC35F002E20E01EC99D5
:105670000001DCA33AD00E01EFAD37D00E01F2509D
:10568000100B02E0E38F01D0E39FF2980E01EF9D33
:10569000EFAF0ED0EF9F0E01E351800B02E0F288D6
:1056A00001D0F2980001DC8B000EDDEF34F01DD04C
:1056B0000E01E351800B02E0F28801D0F298000164
:1056C000DC9331EC35F0000188AD07D0889D0E01E8
:1056D000E90E826FF1EF36F008D00E01E90E826F0D
:1056E00083C09CFE110EDDEF34F00001DCA908D070
:1056F000DC510E018591020B01E0858179EF32F0DA
:105700000E01A9A103D0000EDDEF34F0000188AB3B
:105710000BD05DEC37F06BEC35F006E20E01EC9946
:105720000001889B71EF36F0DCA507D10F0ED9EC94
:1057300035F00B0EE7CFDBFFCAEC35F05DEC37F050
:105740000001EA51EE5C146EEB51EE58156EEC510F
:10575000EE58166EED51EE58176E070E14C0DBFFB3
:10576000080E15C0DBFF090E16C0DBFF0A0E17C0BE
:10577000DBFFDCBDA5D0EFC014F0F0C015F0F1C028
:1057800016F0F2C017F0146A156A166A800E171622
:10579000145015101610171028E0DC9545EC36F063
:1057A0000E01826BE6EC35F00001E50503E0020E28
:1057B000E55D06E10E01835102E1EA0E826F06D03B
:1057C000030EE55D03E10E01EA0E826FE66A23EC4B
:1057D00036F00C0EE7CFDBFFDB50FE0BE76E0C0E56
:1057E000B7EC35F0290EDDEF34F0DDA156D00E0117
:1057F000E72B030EDBCFEAF0040EDBCFEBF0050E58
:10580000DBCFECF0060EDBCFEDF008EC36F006E176
:10581000010EEF6FF06BF16BF26B05D0D890EF37A4
:10582000F037F137F2374EEC36F0DC8D0AEC35F01C
:105830000001E551030A1DE0010A1AE0030A05E030
:10584000010A01E029D0F86B27D00B0EDB5080084D
:105850000EE030EC37F0070EEF6EF4EC37F006ECAC
:1058600037F0080EEF6EF6EC34F057EF36F065D0F7
:1058700013D00B0EDB5080080EE030EC37F0060E34
:10588000EF6ED3EC36F006EC37F0C80EEF6EF6ECA8
:1058900034F057EF36F051D012D00E01E72B08EC60
:1058A00036F006E1010EEF6FF06BF16BF26B05D095
:1058B000D890EF37F037F137F2374EEC36F03DD075
:1058C000E5511FE1800E7BEC36F079EC37F0DB50D0
:1058D000010B010803E079EC37F0F9D7100ED9EC91
:1058E00035F00D0EE7CFDBFFDBCF14F00001F851F0
:1058F000D880145403E20D0EDBCFF8F0400E7BECA1
:1059000036F0D950070F81EC35F00001E651EE5C1E
:10591000E751EE58E851EE58E951EE580EE3E551E3
:105920000BE1F6C0E9FFF7C0EAFFF62B000EF72304
:10593000F8C0EFFFF32BF86BDC9DDCA19FD00E0EBF
:10594000DB6A68EC35F001E399D00E0EB6EC37F067
:1059500007E10E0EDB5002E10001DC918FD08BD00D
:105960000E0EFAEC34F061EC37F0EECF18F0EECF1B
:1059700019F0EECF1AF0EFCF1BF05DEC37F000011D
:105980001850EE5C146E1950EE58156E1A50EE5801
:10599000166E1B50EE58176ED880FF0E1454520E20
:1059A0001554070E1654000E175465E20E0E23EC24
:1059B00037F0100EEECFDBFF110EEDCFDBFF010E47
:1059C00080EC37F0120EEFCFDBFFDB500C0B0C0836
:1059D0002BE1D950100F81EC35F0050EEE26000EAC
:1059E000ED220F0EDB6A080EF36E0F0EC1EC35F0E0
:1059F00012E2100EC6EC37F0110EDBCFEAFF01E326
:105A0000DB2AEF50E66E0F0E1CEC36F0C6EC35F0DC
:105A10000F0EDB2AE8D70E01F00E826F2A0EF36E0E
:105A2000120EF3CFDBFF0DD00E01F00E826F020ECF
:105A300080EC37F0EFCF9CFE110EF36E120EF3CF19
:105A4000DBFF0E0EF1EC37F00E0E66EC37F00E0EAB
:105A500000EC36F009E20E0E3AEC35F00E0EBAEC20
:105A600037F00E0EDB2AF3D70E0E69EC37F0120E6C
:105A7000DB50DDEF34F00E0EDB2A63D7DBEF34F0C2
:105A8000FE0EDB50310A02E1AEEF34F01C0A02E1F7
:105A900091EF34F0050A02E128EF34F00C0A02E13C
:105AA000FCEF33F0070A02E1B2EF33F03A0A02E109
:105AB00070EF33F00E0A02E147EF33F0020A02E121
:105AC0001CEF33F0060A02E1E5EF32F0030A01E1D0
:105AD000CED3130A02E0DBEF34F0CAEC37F0010E4C
